:020000041000EA
:100000004B2A110200000000A4030000EEC3A6E981
:100010007EEEE78880B500F087F90020002100F02F
:100020000DF8292000F00FF8202000F011F800F062
:1000300033F900F013F800F025F980BD4CF2B93C1B
:10004000C0F2000C604747F67D1CC0F2000C604710
:1000500047F6D12CC0F2000C6047000080B54FF08D
:10006000A040012100F075F900060BD1032000F03B
:1000700075F9000606D1012000F075F9000604BFED
:10008000002080BD00F074F94FF47A7000F075F92B
:10009000012080BD2DE9F04381B019B343F2B83897
:1000A0000F4606464FF0FF344FF00009C2F2000839
:1000B0003D46B7F5807F28BF4FF480754FF0A040D4
:1000C000314642462B46CDF8009000F05BF960B90E
:1000D00040462946224600F05AF904467F1B2E442A
:1000E000E6D103E04FF0FF3400E00124204601B0E8
:1000F000BDE8F08310B582B004464FF0000C4FF01D
:10010000A0404FF4805122462023CDF800C000F0DB
:1001100039F9000622D120461C214FF0FF3200F0B1
:1001200036F9E169814219D1E078112816D1A07819
:10013000022813D1E168B1F5002F0FD8606846F2AC
:100140007872C4F26A72904208D1A068FFF7A2FFE9
:100150002169401A18BF012002B010BD012002B071
:1001600010BD00002DE9F0410C4605460E184FF079
:100170000008B4F5803F07D3A8B228B94FF4803700
:100180000321102021E000BFB4F5004F08D328461A
:100190006FF3DF3020B94FF4004702210F2014E045
:1001A00029466FF31F31200BB1FA81F1B8EB143FF0
:1001B00018BF0120490901404FF008004FF4807733
:1001C00018BF0C2018BF4FF4805725FA00F082B2F8
:1001D0004FF0A04047F2305300F0DEF800060BD19C
:1001E0003D44B542A4EB070424BF0020BDE8F081E4
:1001F000B4F5803FC0D2C7E700F0BAF84FF47A7088
:1002000000F0BBF80120BDE8F08100002DE9F047C7
:1002100082B04FF000098AB343F2B83814460E4654
:100220000746C2F2000840F6B83A00BF2546B4F5CA
:10023000807F28BF4FF480754FF0A040394642467A
:100240002B46CDF8009000F09DF890B94FF0A040FB
:10025000314642462B46CDF80090CDF804A000F080
:10026000A0F848B92F44641B2E44DFD14FF0000999
:1002700004E04FF0010901E04FF00109484602B0E7
:10028000BDE8F08780B542F20400C1F200000068CA
:1002900000F08CF880BD0000B0B588B06846FFF76C
:1002A00029FF08B101243CE0DDE90501FFF75AFF11
:1002B00038B100F05DF84FF47A7000F05EF8012478
:1002C0002FE0DDE902020599FFF7A0FF38B100F049
:1002D0004FF84FF47A7000F050F8012421E00399B0
:1002E0000598FFF7D7FE0499884213D14FF0A0403C
:1002F0000021102247F23053002400F04DF805464B
:1003000000F036F828060CD04FF47A7000F035F87B
:10031000012406E000F02CF84FF47A7000F02DF87C
:100320000124204608B0B0BDEC20C6F205000168EB
:100330007F2221F002010160016821F004010160C7
:100340006FF0030143180431342943F8D82CF9D154
:10035000704748F6F57CC0F2000C604747F2613CFC
:10036000C0F2000C604747F21D3CC0F2000C604731
:1003700047F6717CC0F2000C604744F2717CC0F219
:10038000000C604748F69D2CC0F2000C604744F218
:10039000C17CC0F2000C604748F6A10CC0F2000C12
:1003A000604749F2D90CC0F2000C604744F62D0CAE
:1003B000C0F2000C604700000000000000000000D8
:1003C000000000000000000000000000000000002D
:1003D000000000000000000000000000000000001D
:1003E000000000000000000000000000000000000D
:1003F00000000000000000000000000000000000FD
:020000041000EA
:1020000000700220B5210010C9210010DB21001052
:10201000ED210010EF210010F12100100000000060
:10202000000000000000000000000000D1020000DD
:10203000F52100100000000075030000810300007E
:10204000FB210010FD210010FF21001001220010D3
:1020500003220010052200100722001009220010A0
:102060000B2200100D2200100F2200101122001070
:102070001322001015220010172200101922001040
:102080001B2200101D2200101F2200102122001010
:1020900023220010252200102722001029220010E0
:1020A0002B2200102D2200102F22001031220010B0
:1020B0003322001035220010372200103922001080
:1020C0003B2200103D2200103F2200104122001050
:1020D0004322001045220010472200104922001020
:1020E0004B2200104D2200104F22001051220010F0
:1020F00053220010552200105722001059220010C0
:102100005B2200105D2200105F220010612200108F
:10211000632200106522001067220010692200105F
:102120006B2200106D2200106F22001000000000D2
:10213000000000000000000000000000000000009F
:1021400000F002F800F05FF90AA090E8000C824469
:102150008344AAF10107DA4501D100F054F9AFF246
:10216000090EBAE80F0013F0010F18BFFB1A43F075
:102170000103184760010000A0010000103A24BFCD
:1021800078C878C1FAD8520724BF30C830C144BFDC
:1021900004680C607047000000230024002500261E
:1021A000103A28BF78C1FBD8520728BF30C148BFBA
:1021B0000B6070472E4880F308882E4880F30A8809
:1021C0002D4880472D4800475FEA0E00EFF3088155
:1021D000EFF309822A4B9847FEE75FEA0E00EFF320
:1021E0000881EFF30982274B9847FEE7FEE7FEE7F9
:1021F000FEE7FEE7FEE7FEE7FEE7FEE7FEE7FEE7B7
:10220000FEE7FEE7FEE7FEE7FEE7FEE7FEE7FEE7A6
:10221000FEE7FEE7FEE7FEE7FEE7FEE7FEE7FEE796
:10222000FEE7FEE7FEE7FEE7FEE7FEE7FEE7FEE786
:10223000FEE7FEE7FEE7FEE7FEE7FEE7FEE7FEE776
:10224000FEE7FEE7FEE7FEE7FEE7FEE7FEE7FEE766
:10225000FEE7FEE7FEE7FEE7FEE7FEE7FEE7FEE756
:10226000FEE7FEE7FEE7FEE7FEE7FEE7FEE7FEE746
:10227000007002200060022089220010412100101D
:10228000D5680010A565001042F2000247F2000177
:102290000020C1F20002C2F2010100BF52F820305A
:1022A00041F8203001304B28F8D14EF61450CEF2D0
:1022B000000040F80C1C416F41F470014167016857
:1022C00041F010010160016841F4807101607047C4
:1022D00070470000B834021000300020204D00008C
:1022E0007C210010D881021000720120E407000058
:1022F0007C210010C089021000F0012010000000B5
:102300007C210010D089021010F001202C1E00004A
:1023100098210010000000000000000000000000F4
:102320006E2900F0AD84702900F07D8166291CF0D3
:10233000DC8265291CF0D98267291CF0D6826129CC
:102340001CF0D58203681B0A28BF41F0800169296F
:1023500000F0EE80642900F0EB80752900F0E88041
:102360006F2900F0BB87782900F04981E92900F046
:102370005587E42900F05287F52900F04F87EF29AF
:1023800000F0B887F82900F048810368DB0928BF0E
:1023900041F08001632900F0C486732900F0C986EA
:1023A000E32901F07983F32901F07E83002070474F
:1023B0001FB51CF0F3F90E480E4902F001FA00F0C7
:1023C000E5FB0400002000211BF092FB401C606034
:1023D000002000211BF0A2FBE060002000211BF088
:1023E000B3FB206101F00AFD00F0B8FB1FBD000047
:1023F000004002200060022010B5002001F0E2FE43
:1024000001F065FD10BDDFF810D0FFF7D1FF19F026
:102410002FFE03F088FB00000070022003B4FFF7DA
:10242000EBFF03BC00F0ACFB10B500F0AFFB001DF0
:1024300010BD00BFBDB601000A46014900F07EBED6
:1024400064F001207CB51D4616460C00009001D0BA
:102450002044401E074B7B442A4669460190304683
:1024600000F035FE05461CB10020694600F042FE32
:1024700028467CBDA50C00000FB4044910B503AA82
:10248000029800F05BFE10BC5DF814FB64F00120C4
:1024900070B5044685690068C10601D5302600E0A4
:1024A0002026C00707D070BDD4E9012130469047EF
:1024B000206A401C20626D1EF6D570BD70B50446C2
:1024C00085690078C00707D170BDD4E901212020BB
:1024D0009047206A401C20626D1EF6D570BD70B515
:1024E0000C460546012A05D02878800600D5EA6901
:1024F000002302E0012305E05B1C934202D2E05C72
:102500000028F9D1A869E618C01AA861286A1844F9
:1025100028622846FFF7BCFF04E0D5E9012114F842
:10252000010B9047B442F8D32846FFF7C7FF70BDB0
:102530002DE9F0410646002410687529314616A59C
:1025400010D000F032FB002802DA404213A507E069
:1025500031688A0701D512A502E0490704D511A503
:10256000012401E000F02AFB00210A2206F12407E1
:1025700009E0B0FBF2FCB0FBF2F302FB1C003030D0
:1025800078541846491C0028F3D123462A46304681
:10259000BDE8F04100F01BBB000000002D00000072
:1025A0002B00000020000000F0B40D460188090552
:1025B00002D5214C7C4402E01F4C7C440E340021A7
:1025C00000F1240608E002F00F071209E75D42EA75
:1025D00003721B097754491C52EA0307F3D10278AE
:1025E0000023120704D5702D06D009B1022311343F
:1025F0002246F0BC00F0EBBA01231034F8E770B5C6
:1026000004460D462146106800F0D8FA02462946D5
:102610002046BDE870400023C6E7D21D22F0070324
:10262000D3E90023C0E70368126843F02003036086
:102630000823C3610023B7E736C401002DE9F05F2A
:10264000894604464FF0000ADFF874B1FB44C0F835
:1026500020A02046E1688847002874D0252806D0AD
:10266000D4E901219047206A401C2062F1E700264E
:102670005F462046E16888472028054607DB312D64
:1026800005D2781910F8200C08B10643F1E7B0071D
:1026900001D526F00406C4F81CA00027C4F818A031
:1026A0002A2D09D028461BF085F938B304EB87089A
:1026B000303DC8F8185019E059F8041B204604EBC7
:1026C00087029161E1688847012F054618D1E069CA
:1026D000002820DA26F020061DE0D8F8180000EBCC
:1026E000800005EB40003038C8F818002046E1684B
:1026F000884705461BF05EF90028EED1012F0AD06D
:102700002E2D08D12046E16888477F1C0546022F00
:1027100046F02006C4DBA069002803DA404246F0F8
:102720000106A061F00701D026F010066C2D0BD039
:10273000682D09D04C2D39D06A2D35D0742D35D067
:102740007A2D33D016E038E0E1682F4620468847DE
:10275000B842054609D16C2F26D04FF48060E1685D
:10276000064320468847054604E06C2F1AD04FF4F4
:10277000807006430DB3A5F14100192802D8203519
:1027800046F400664A462946204626604E46FFF734
:10279000C7FD80B101280BD0F61D26F0070000F11F
:1027A000080956E74020E4E78020D8E70020D6E774
:1027B00006F104094DE7284652E7206ABDE8F09F7C
:1027C000C6C30100014919F047BB000064F00120B5
:1027D00010B5044603E019F03FFB401C09D014F883
:1027E000010B05490028F6D1BDE810400A2019F078
:1027F00033BB4FF0FF3010BD64F0012010B5002056
:1028000000F00BFEFFF7F8FDBDE81040012000F0DE
:10281000B7B90B460146184600F0E8BD0EB50546AF
:1028200014460E4613A000F0FFFD284600F0FCFD04
:1028300016A000F0F9FD304600F0F6FD15A000F0FE
:10284000F3FD00218DF80B100A210DF10A008DF81F
:102850000A1008E094FBF1F201FB124294FBF1F440
:10286000303200F8012D002CF4DC00F0DDFDFFF724
:10287000C5FF00002A2A2A20617373657274696F8C
:102880006E206661696C65643A2000002C206669E0
:102890006C6520002C206C696E65200040EA010305
:1028A00070B59B072ED14FF00136042A2AD308C8F1
:1028B00010C99D1B9D43121F15EAC61517D0D8B22B
:1028C000E1B2401A50EA056110D198B2A1B2401AA3
:1028D00050EA05410AD123F07F4024F07F41401A9D
:1028E00050EA052102D1180EA0EB146070BDA3427E
:1028F000DBD018BA21BA884201D9012070BD4FF04F
:10290000FF3070BD0AB9002070BD10F8013B11F80E
:10291000014B63B1A3420AD1521E08D010F8013B0B
:1029200011F8014B1BB1A34201D1521EEDD1181B6E
:1029300070BD032A40F2308010F0030C00F01580C7
:1029400011F8013BBCF1020F624498BF11F801CBB2
:1029500000F8013B38BF11F8013BA2F1040298BF17
:1029600000F801CB38BF00F8013B11F0030300F081
:102970002580083AC0F0088051F8043B083A51F825
:1029800004CBA0E80810F5E7121D5CBF51F8043B2A
:1029900040F8043BAFF30080D20724BF11F8013B9D
:1029A00011F801CB48BF11F8012B24BF00F8013BFF
:1029B00000F801CB48BF00F8012B704710B5203A52
:1029C000C0F00B80B1E81850A0E81850B1E81850DA
:1029D000A0E81850203ABFF4F5AF5FEA027C24BFAC
:1029E000B1E81850A0E8185044BF18C918C0BDE895
:1029F00010405FEA827C24BF51F8043B40F8043B5E
:102A000008BF7047D20728BF31F8023B48BF11F812
:102A1000012B28BF20F8023B48BF00F8012B70476C
:102A200002F0FF0343EA032242EA024200F00AB83E
:102A300002F0FF0343EA032242EA024200F024B814
:102A40004FF000020429C0F0128010F0030C00F0D7
:102A50001B80CCF1040CBCF1020F18BF00F8012B55
:102A6000A8BF20F8022BA1EB0C0100F00DB85FEA23
:102A7000C17C24BF00F8012B00F8012B48BF00F8EF
:102A8000012B70474FF0000200B51346944696465E
:102A9000203922BFA0E80C50A0E80C50B1F1200171
:102AA000BFF4F7AF090728BFA0E80C5048BF0CC01F
:102AB0005DF804EB890028BF40F8042B08BF70477D
:102AC00048BF20F8022B11F0804F18BF00F8012BEF
:102AD000704700000000000030B44FF0013C50F897
:102AE000042B51F8043BCCFA52F4D51A20D1FCB98E
:102AF00050F8042B51F8043BCCFA52F4D51A17D1F4
:102B0000B4B950F8042B51F8043BCCFA52F4D51A5E
:102B10000ED16CB950F8042B51F8043BCCFA52F4A6
:102B2000D51A05D1002CDAD030BC4FF00000704728
:102B300029BAB1FA81F111F01801D1F120008440D5
:102B4000F2D1CA40CB4012F0FF0213F0FF0330BCB9
:102B5000D01A7047704770477047000070B5064C38
:102B60007C44064D7D4404E02046016808448047CB
:102B7000241DAC42F8D170BD1409020050090200B6
:102B800001491820ABBEFEE726000200004870474E
:102B90002CF1012010B500F05DFC006810BD10B5EF
:102BA000044600F057FC046010BD09684A0501D5D1
:102BB00040B27047C905FCD500B2704709684A05A4
:102BC00001D5C0B27047C905FCD580B270472DE968
:102BD000F0470D4699469246044600F124080168E4
:102BE000880604D5E06921F01001216000E0012091
:102BF000A84201DD471B00E00027A1697A1902EB1A
:102C00000900081AA0612078C00602D42046FFF708
:102C10003FFC002608E0D4E901211AF8060090479D
:102C2000206A401C761C20624E45F4DB2078C006EA
:102C30000AD52046FFF72CFC06E0D4E9012130201C
:102C40009047206A401C2062381EA7F10107F4DC7F
:102C500007E0D4E9012118F805009047206A401CDC
:102C60002062281EA5F10105F3DC2046FFF726FCB3
:102C70002078000602D50220BDE8F0870120FBE79E
:102C800011680268006A530501D508700AE0D3058F
:102C900001D5088006E0130603D5C217C1E900027A
:102CA00000E00860012070472DE9FF4F0C461E46EA
:102CB0004FF0FF378BB0D2E90001DDF860800A9059
:102CC0008A46C1F30A5505B93D46002108464FF032
:102CD0000000BAF1000F00F4400005DA00EB8000BC
:102CE0004FF4400101EA50004FEA9059B9F1010F49
:102CF00000DDB9460A9850EA4A000ED044F610505A
:102D0000A5F2FF3545432F14B8F1000F1ED07542D0
:102D1000291E1EDDC9F100021CE0B8F1010F4FF0C1
:102D2000000001D0302103E0F24305E02154401CB3
:102D3000B042FBDB30460022002121540B99C1F840
:102D40000880C1E900200FB0BDE8F08FBD1B6D1CED
:102D5000DEE74A4600DA694206A800F0E5FE06AB67
:102D600093E8070003AB83E8070050460A9919F07F
:102D700071FD8DE80700A0F500501F380090039802
:102D8000002D0ADD42F21F014A460844002303A930
:102D9000039068461AF01CF809E0A0F500504A4676
:102DA0001F38002303A9039068461AF03BF88DE80A
:102DB00007000004000C03D04FF0FF30410800E092
:102DC0001046B8F1000F03D00022009215461EE015
:102DD000751E05D400F0FAFB303262556D1EF9D530
:102DE000B3460122084302D000227F1C04E0207871
:102DF000302801D100227F1E002A099784D01DE0CF
:102E0000112D07DA00F0E2FB303262556D1C50EAFA
:102E10000102F5D1084302D00098C8B10EE00021AC
:102E2000681E05E0235C625C63542254401E491C0A
:102E30008142F7DBAB46A81B401E0990002004F836
:102E40000B000B98099AC0F80880C0E9002B7AE7BC
:102E500011264FF0000857E72DE9F04F8846044649
:102E6000D21D22F0070191B0D1E90001CDE90A019C
:102E70001AF0BAF902460B98C00F01D02D2007E0D6
:102E80002068810701D52B2002E0202101EAC00043
:102E9000032A099001D0072A05DB03464146204654
:102EA00000F0B0FD0BE12078800601D5E06900E07C
:102EB0000620B8F1650F814606D0B8F1660F18D02C
:102EC000B8F1670F70D131E00020B9F1110F009017
:102ED00001DB112301E009F101030AAA01A90CA8F1
:102EE000FFF7E2FEDDE90C70002609F101058346DB
:102EF00047E001204B4600904FF000470AAA01A985
:102F00000CA8FFF7D1FEDDE90DB00C995D46002657
:102F100010B909F101000D18B9EB050003D4C0F197
:102F2000FF3609F10105A5EB09002BE0B9F1010F0E
:102F300001DA4FF001090020B9F1110F0090484665
:102F400001DD112300E003460AAA01A90CA8FFF73E
:102F5000ABFEDDE90C704D46002683462078000765
:102F60000AD4AB4500DA5D4601A8012D04DD411904
:102F700011F8011C302907D04F4502DA17F1040F70
:102F800004DA012082460FE06D1EEEE7002F02DC1E
:102F9000ED1B3E4403E0781CA84200DD7D1CB81BFD
:102FA00000F1010A4FF000472078000703D4AA453A
:102FB00001DB4FF0FF3A0021B7F1004F0DF143085C
:102FC0008DF8431024D002202B23002F01DA7F42FA
:102FD0002D230A21021EA0F1010000DC5FB197FB46
:102FE000F1FC97FBF1F201FB1C7C17460CF1300C55
:102FF00008F801CDEEE7A8F101000370218809056A
:1030000001D5452100E06521A0F1010800F8011C6F
:1030100009980FA9A1EB0807FF1D00B10120411974
:1030200001EBEA70A1693844081A401EA0612078BB
:10303000C00602D42046FFF72BFA099828B1D4E93C
:1030400001219047206A401C20622078C00622D5CA
:103050002046FFF71DFA1EE0002E04DBB34502DD1B
:1030600001A8805D00E03020D4E901219047206A6A
:10307000401C2062761CAAF101005FEA000A0AD116
:10308000FFF784FDC0680168405CD4E901219047E6
:10309000206A401C2062281EA5F10105DCDC07E047
:1030A000D4E9012118F8010B9047206A401C2062E6
:1030B000381EA7F10107F3DC2046FFF7FFF90320D4
:1030C00011B041E601694A1C02610878704700B5F9
:1030D0008FB0CDE901310021059105497944CDE951
:1030E000031011466846FFF7A9FA0FB000BD0000B3
:1030F000E5FFFFFF0A6802F8010B0A607047D1E99B
:1031000000239A4202D2531C0B601070704710B516
:10311000436913B1AFF3008001E0FFF7E0F901204C
:1031200010BD127800F124010A7000224A700122B9
:10313000EDE711684FF0FF32E9E70000074B70B58B
:103140000D467B44FFF7C3FF0446284600F05EFDB2
:1031500010B14FF0FF3070BD204670BD138D0100DF
:103160002DE9FF5F15468A460446DFF8AC80F84437
:103170000027D8E900103E46CDE9001010E03AF8EB
:1031800016106A4602A800F0ECFF411C07D0217817
:10319000890603D5E269391891420DD80744761C97
:1031A0002078800602D5E069B84205DDAE42E6DB54
:1031B0003AF816000028E2D1A069C01BA0612046A1
:1031C000FFF766F9D8E90010CDE90010002017E0FC
:1031D0003AF818106A4602A800F0C3FFB0F1FF3FAA
:1031E00081460BD000250DF1080B05E0D4E9012143
:1031F0001BF8050090476D1C4D45F7D308F1010001
:10320000B0428046E4DB206A384420622046FFF763
:1032100055F9BDE8FF9F0000B6B801002DE9F04167
:103220008046D21D22F007020025D2E90002F529CE
:1032300015A614D0011E72F1000106DA0023D0EBAE
:10324000030063EB020211A608E0D8F800108B0718
:1032500001D50FA602E0490701D50EA601251146AA
:10326000002408F1240704E000F0B0F930323A55A8
:10327000641C50EA0102F7D12B46324621464046F3
:10328000BDE8F041FFF7A3BC000000002D000000E6
:103290002B0000002000000030B4002100F12404C5
:1032A00008E002F00705D208303542EA4372DB0835
:1032B0006554491C52EA0305F3D10468002310A2A7
:1032C000250708D504F020040C4304D0C469012369
:1032D0000CA2641EC46130BCFFF779BC10B5044673
:1032E00021461068FFF76AFC02462046BDE8104000
:1032F0000023D1E7D21D22F00701D1E90023CBE75B
:10330000000000003000000070B50446C06881076E
:1033100013D0800601D5A56A04E0A169606808445D
:103320002169451A204600F025FD0022064629465F
:10333000204600F06FFC304670BD002070BD70B5B7
:1033400010B1BDE87040DFE70025074C6E1E07E0B6
:103350002046FFF7D9FF00B13546206D20F001046B
:10336000002CF5D1284670BD10F001202DE9F04168
:1033700098461746044602FB01F609B100250AE00B
:103380001046BDE8F08114F8010B414618F064FDC9
:10339000401CF6D06D1CB542F5DB3846F1E71AF05B
:1033A00010BB0000CA68431C0FD00D4B1A420CD151
:1033B000D3070AD081F825004B680B6300238B608C
:1033C00012F0C06F0B6003D004E04FF0FF30704785
:1033D00042F00072034B1A40034B1A43CA60704715
:1033E00080200800BFFFDFFF001048002DE9F041FA
:1033F000074615460E46102000F030F804000AD0AB
:103400006760C4E9026500F021F80168216004608A
:103410000020BDE8F0810120FBE710B500F0F8FEC8
:10342000BDE8104000F0EFBE10B5044602E0641C99
:1034300000F004F820780028F9D110BD08B56946DD
:103440008DF800000320ABBE08BD704700487047F0
:1034500044F10120004870470CF1012070B5064688
:1034600001F092F9056806F10B0020F00704B44260
:103470009CBF002070BD2B466A68BAB11068A0429C
:1034800010D304F1080188423CBF5068586007D34C
:103490005168101941601168091B0160586014607F
:1034A000101D70BD13465268002AE7D121462846F8
:1034B00001F072F90028DED170BD70B50446051F19
:1034C00001F062F90068002C14BF446870BD002C44
:1034D00018BFAC423CBF20466468F8D301680A18A4
:1034E000AA4218BF456003D12A680546114401600D
:1034F00028684119A1421CBF6C6070BD6168696099
:1035000021680844286070BD70B50D460646041F4A
:1035100001F03AF90268BDB1DEB105F10B0020F00F
:103520000701A9423CBF002070BD23688B4238BF11
:10353000506813D35A1A082A36D3601840F8042B5F
:103540002160FFF7BAFF2FE03046FFF7B6FF0020FB
:1035500070BD2846BDE87040FFF780BF002818BF47
:10356000A0423CBF02464068F8D303EB040C8445FC
:103570001CD1D0F800C06344994217D8A3EB010CCA
:10358000BCF1080F0DD3D0F804C06318C3F804C011
:10359000D4F800C000686044401A1860216053608D
:1035A00002E0236040685060201D70BD2846FFF790
:1035B00055FF050008D031462068021F2846FFF756
:1035C000FDF9201DFFF779FF284670BD30B5B0F139
:1035D0000A0271F100034FEA900E4EEA817EB0EBD1
:1035E0000E0061EB91014FEA101E4EEA017E10EBD6
:1035F0000E0041EB11114FEA102E4EEA016E10EB56
:103600000E0041EB11214FEA104E4EEA014E10EB35
:103610000E0041EB1141401841F100014FEAD0008A
:1036200040EA41704FEAD1014FEA810444EA9074C4
:1036300010EB800544EB01046D1944EB0404521BAC
:10364000A3414FF0000348BF0A3200D530BD401CF3
:1036500041F1000130BD10B501F0E8F800F00800BC
:1036600010BD2DE9F0410F46134615460A460646A1
:1036700000210846FEF7E6FE0446401CFFF7EEFE7A
:10368000306030B1611C2B463A46BDE8F041FEF790
:10369000D9BE4FF0FF30BDE8F08100000FB47CB51B
:1036A0000C0009AA009001D02044401E084B7B4426
:1036B000694601900898FFF70AFD05461CB10020F5
:1036C0006946FFF717FD28467CBC5DF814FB000037
:1036D0004DFAFFFF7CB51D4616460C00009001D048
:1036E0002044401E074B7B442A46694601903046E1
:1036F000FFF7EDFC05461CB100206946FFF7FAFC18
:1037000028467CBD15FAFFFF2DE9F04F04460D4613
:10371000D21D22F0070089B0D0E90097484639460B
:1037200019F062FD0246F80F01D02D2307E0206852
:10373000810701D52B2302E0202101EAC0038DF887
:1037400020300BB1012000E00020032A824601D086
:10375000072A04DB2946204600F054F93FE120788F
:10376000800601D40D2500E0E569C7F30A560D2D4A
:1037700049DA00214FEA175B08464FF00000002F9E
:1037800000F4400007DA00EB80004FF4400100EB4A
:10379000D07001EA60008115012901DD4FF0FF3191
:1037A00000224FEA850CBCF1180F06D31346ACF18A
:1037B00018004FF08052C24003E04FF4801323FA08
:1037C0000CF30CF10C0CBCF1200F04D3ACF1200C69
:1037D00009FA0CF001E007FA0CF000294FF000485C
:1037E00001DD18B90FE00ED140450CD319EB0209E9
:1037F0005F4121B9404502D19F4329EA0209BBEB51
:10380000175F00D0761C2088000502D57B487844DD
:1038100002E07A487844193808AA302302F80A30BE
:10382000037C0AF10101002E0AF1020A53546A4690
:1038300002DC4FF0300101E04FF031014FF00108A0
:103840008DF8001002D0A6F2FF3603E059EA4701D6
:1038500000D06B4E002D02DC2178090704D54FF013
:1038600002082E218DF80110C44600210BE0C7F399
:1038700003433F01C35C491C6D1E02F80830052953
:1038800008F1010801DA002DF1DC00210CE000EB69
:103890001973491C1B786D1E082902F808304FEA7D
:1038A000091908F1010801DA002DF0DC21688B0606
:1038B00002D516E0A8F10108E04505DD02EB08039A
:1038C00013F8013C302BF5D0B8F1000F09DD02EB05
:1038D000080313F8013C2E2B03D1090701D4A8F1EA
:1038E0000108002D05DD3E2102F808106D1E08F1CB
:1038F0000108407C002E02F8080008F1010804DAF3
:103900002D20764202F8080002E02B2002F8080081
:103910000A214FF47A70864208F101080BDB96FB0E
:10392000F0F3303302F8083096FBF0F308F10108A9
:1039300000FB136601E0642E0CDB642096FBF0F3C1
:10394000303302F8083096FBF0F308F1010800FB71
:10395000136601E00A2E06DB96FBF1F0303002F828
:10396000080008F1010896FBF1F001FB106030300F
:1039700002F80800A16908F1010808EB050202EB52
:103980000A00081AA0612078C00602D42046FEF77B
:103990007FFD216A08AE01EB0A00206204E0D4E951
:1039A000012116F8010B9047BAF1010AF7D22078ED
:1039B000C00602D52046FEF76BFD6E4609E016F8FC
:1039C000010B3E280FD0D4E901219047206A401C0A
:1039D0002062B8F10108F2D22046FEF76FFD09B06F
:1039E0000320BDE8F08F206A2844206203E0D4E978
:1039F0000121302090476D1EEBD3F8E751B2010052
:103A000002FCFFFF2DE9F0411F4604460326016832
:103A1000072A01F4006004DB08B116A505E016A52D
:103A200003E008B115A500E015A521F01000206005
:103A3000A069C01EA0610FB1401EA0612046FEF724
:103A400027FD4FB1D4E9012138469047206A401C38
:103A50002062C01C206206E0206AFAE7D4E9012156
:103A600015F8010B9047761EF8D22046FEF726FD8A
:103A7000BDE8F0814E414E006E616E00494E460039
:103A8000696E660010B5436913B1AFF3008001E0C1
:103A9000FFF766FB012010BD128800F1240182842B
:103AA0000022C2840122EDE711684FF0FF32E9E7FE
:103AB00000B58DB0099000920B904FF0FF300A9046
:103AC00000200C90054878440690054878446A46E2
:103AD000079009A801F036FB0DB000BD9B16000051
:103AE000B31600000FB400B58DB010A90990009175
:103AF0000B904FF0FF300A9000200C90064878445D
:103B00000690064878446A4607900F9909A801F084
:103B100019FB0DB05DF814FB631600007B16000066
:103B200001F09CBB01F0E2BB2DE9F047814616464F
:103B30008AB0354878440DC88DE80D003248784485
:103B4000801C03AC0DC884E80D0041F69B3008448E
:103B5000372190FBF1F290FBF1F5A5F1800501FB17
:103B600012041B3C02D56442012000E00020DFF873
:103B700098A080460027FA44AAF1BE0A0EE0E007AA
:103B80000AD03246684607EB470101230AEB810160
:103B900019F048F98DE8070064107F1C002CEED165
:103BA000194F7F44AE3F19E0E80715D007EB04102A
:103BB0000DF1180A90E80E008AE80E00C068F04285
:103BC00001D1981908903246012306A903A819F0DB
:103BD00029F903AB83E807006D10641C002DE3D1C5
:103BE0004FF0010332466946B8F1000F03A802D036
:103BF00019F0EEF801E019F015F9C9E90001C9F86A
:103C000008200AB0BDE8F087BCAF0100007B00F0DF
:103C1000800070472DE9F041044616460D4647697D
:103C2000007B80072ED0384600F099FD50BB3EB394
:103C3000012E02D0022E25D104E0204601F017FE0D
:103C400005441DE0384600F098FDE168002841F089
:103C50001001E16005DA204600F058F80120BDE8C7
:103C6000F081C9030BD56268E16A914200D8114620
:103C7000A26911442269891A814200DD084605447F
:103C8000002D01DA0220EAE7E16A6068E268814219
:103C900006D29103E06203D522F4003141F0100214
:103CA000A6690027AE4213DCE16A814201D90B46C6
:103CB00000E0034603EB060C2369ACEB030CAC45B8
:103CC00006DD814201D98C4600E084469C4505D141
:103CD000A760276042F02000A5620DE0AD1BE669F9
:103CE000AE1B8142A66000D90846C01A281A20607F
:103CF0005819606022F0200003490840E06000206D
:103D000084F84870ABE70000BFCFD7FFC16821F44B
:103D1000001141F08001C1600021816001607047A5
:103D20002DE9F047814614460E464FF0FF383248E1
:103D3000D5685769054209D03846A16900F015FDDC
:103D4000002811DB2C48C0430540E5602B46324675
:103D50004946384600F0F4FCA16920F00042B21A4E
:103D600011440028A16103D02046FFF7CFFF404651
:103D7000BDE8F08770B504460569C06A616888428D
:103D800000D80846E16821F42011E160C90312D58A
:103D9000A84208D02246411B2846FFF7C1FF10B1B8
:103DA0004FF0FF3070BD0020E562C4E90150E068CB
:103DB00020F48030E060002070BD10B50446C0687B
:103DC00020F02000E060A16AA06988420DD0204662
:103DD000FFF7D0FFE06820F4405040F01000E060B2
:103DE000A06AA0612069E062606044F24001E0687E
:103DF0008843E06010BD00001000020010B542488A
:103E00005421FEF73FFE41485421FEF73BFE404857
:103E10005421FEF737FE3F493B483C4A3F4B086080
:103E20003D490A603A491960531C0365481C1065F6
:103E3000012008653B48344A39A1784401F05CFD13
:103E400020B9384878440A3801F08FFE37482F4AA5
:103E500035A1784401F050FD20B9344878440A383F
:103E600001F083FE32482A4A2FA1784401F044FD34
:103E700020B92F4878440A3801F077FE40232248C1
:103E8000DC000021224601F013FD20B125487844D2
:103E9000543801F06AFE1D4822464023002101F0FB
:103EA00007FD20B121487844543801F05EFE1848DF
:103EB00022461023002101F0FBFC002806D01C48FC
:103EC0007844BDE81040563801F04FBE10BD104890
:103ED00070B5006D20F001040B4801F085FD0B4822
:103EE00001F082FD0A4801F07FFD09E0206D20F01D
:103EF0000105204601F078FD2046FFF7DEFA2C464A
:103F0000002CF3D170BD000010F0012064F00120FE
:103F1000B8F0012000F0012004F0012008F0012099
:103F200072000000CEAC010077000000BAAC0100C6
:103F3000A6AC01002DE9FE430E461746804600213F
:103F40000846AFF3008005460020009001905EB166
:103F500030784FF0FF3900B1AFB11DB1D5E90001A4
:103F6000CDE9000100240CE00020BDE8FE83315DB6
:103F70006A46641C02A801F0B6FD411C03D001286A
:103F800003D0BC42F3D34846EFE71DB1DDE90001A1
:103F9000C5E90001B8F1000F03D0BDF80810A8F87A
:103FA0000010BDF808000028DFD02046DDE770B51E
:103FB0000C4605460AB1104603E004210020AFF389
:103FC000008022462946BDE870400346002000F0EC
:103FD00039B82DE9F84F9146884607464FF000045E
:103FE0005FEA030A0D681BD107210020AFF30080B0
:103FF000824615E015F8011B5246684601F073FD34
:104000000646401C13D0B61C0AD01FB1BDF80000F4
:1040100027F81400BDF80000641C70B1C8F8005007
:10402000002FE7D04C45E5D32046BDE8F88FFFF7D9
:1040300011FA042101603046F7E70021601EC8F83C
:104040000010F2E701F0F6BC01F030BD2DE9F84FA9
:104050009B461746894680460024DDF828A00D6857
:104060005FEA0A001ED10921AFF30080824619E001
:1040700007B315F8011B524668467F1E01F033FD59
:104080000646401C19D0B61C0CD0B8F1000F03D066
:10409000BDF8001028F81410BDF80000641C90B1A1
:1040A000C9F80050B8F1000FE2D05C45E0D32046DB
:1040B000BDE8F88FC9F80050F9E7FFF7CBF9042104
:1040C00001603046F4E70021601EC9F80010EFE7F8
:1040D0002DE9FF4F91468846824683B00024109F09
:1040E0000E688FBB0A210020AFF3008007462BE04B
:1040F00017B1D7E900B102913A466846318800F01D
:1041000030F80546401C0BD0BAF1000F16D00698C7
:10411000291981420CD9EFB10299C7E900B119E020
:10412000FFF798F904210160284607B0BDE8F08F39
:104130000AEB04002A466946FEF7FBFB30882C4454
:1041400050B1B61CC8F80060D8F8000010B1B9F141
:104150000109CDD22046E8E70021641EC8F800100E
:10416000F8E72DE9F04116460C460546FEF75CF9E6
:10417000036893F80101012807D0FF2C12D8185DBD
:1041800080B101202C70BDE8F081D3F807013246E0
:10419000214603F20713C7182846BC46BDE8F04184
:1041A000002360474FF0FF30EDE710B5FEF73CF914
:1041B000006890F80111012901D0012010BDD0F84C
:1041C0000B0110BD2DE9F0410646FFF73FF980468F
:1041D000454613E016B1E068B0420ED12068286071
:1041E000D4E90101D8F8007088472046FFF765F947
:1041F000D8F80000B842EBD100E025462C68002C2E
:10420000E8D1BDE8F081002801D0FEF7B9BC7047C5
:1042100010B5002102A001F08FFC012010BD0000AC
:10422000534947414252543A2041626E6F726D6168
:104230006C207465726D696E6174696F6E00000048
:1042400010B5431C02E010F8011B71B18107FAD1CF
:104250004FF0013202C88C1A8C4314EAC211F9D013
:10426000C01A0A0603D0C01E10BDC01A10BD0A0431
:1042700001D0801E10BD0902FCD0401E10BD5200AE
:1042800001F086BC2DE9F0410F46144605468046F4
:10429000800704D084B12F80541E08F10205022C3F
:1042A0000AD3284624F0010647EA07427100FEF7C8
:1042B000EBFBA41B05EB460504B12F804046BDE88F
:1042C000F081431A28BF9A427EF633AB1044114462
:1042D000032A40F2268010F0030F1EBF11F8013DA3
:1042E000521E00F8013D10F0030F7FF4F6AF11F0FD
:1042F000030300F03B80083AC0F00B8051F8043D06
:10430000083A51F804CD40F8043D40F804CDFFF7D9
:10431000F3BF121D5CBF51F8043D40F8043DAFF3FC
:104320000080D20724BF11F8013D11F801CD48BF2C
:1043300011F8012C24BF00F8013D00F801CD48BF61
:1043400000F8012C7047431A28BF9A427EF636AB1C
:104350001044114410F0030F1EBF11F8013D521E0E
:1043600000F8013D10F0030F7FF4F6AF103AC0F0F3
:104370000A8010B531E9185020E91850103ABFF4FE
:10438000F9AFBDE81040530724BF31E9081020E918
:10439000081044BF51F8043D40F8043D12F0030FEB
:1043A00008BF7047D20728BF31F8023D48BF11F857
:1043B000012C28BF20F8023D48BF00F8012C7047AF
:1043C00070B5054601B90721541A241DB4F5B67F0E
:1043D00009DD286800F05DF9A04204DC2868401C73
:1043E0002860012070BD002C05DA2868401E286076
:1043F00000F04FF90444072094FBF0F0401C70BD1E
:104400002DE9F04F1F4615468B468246002689B09F
:10441000FEF7BCFBD0F810800024BBF1000F70D079
:1044200015F8010B10B125280DD10FE024B1641E41
:1044300006A850F82450F3E7002130460AF8061089
:1044400009B0BDE8F08F0AF80600C7E0E94615F8A4
:10445000010B592870D023DC49286ED014DC442885
:104460006DD008DC2528EED041283ED0422849D026
:1044700043282CD156E04528E9D0462869D0472862
:1044800076D0482823D17AE04D380C281FD2DFE8B7
:1044900000F0881E061E1E9BA0A9B3B5C1CFD6E7AB
:1044A0005A38212813D2DFE800F01112121212122A
:1044B000121A2637455012592612741212797E129A
:1044C0008012891296A212B3BDCB1100A8E7252055
:1044D0000AF80600761C5E4513D26D1EA0E7D8F8D8
:1044E0000010BA69D8F8240011E0D8F80410BA69AD
:1044F000D8F828000BE0D8F808103A69D8F82C0052
:1045000005E0B2E0D8F80C103A69D8F8300002FBA8
:10451000001101EB0809AAE006A840F82450D8F8D9
:1045200018108AE07969642091FBF0F21332484652
:1045300068A192E0FA6889E08AE022E0FFE706A835
:1045400040F8245065A5641C6AE7FA6866A14846ED
:1045500083E006A840F8245064A5F4E7384600F04C
:10456000ADF8642190FBF1F201FB120258E0FFE785
:10457000384600F0A3F802465FA168466DE0BA68CD
:1045800064E0B8680C210B3090FBF1F201FB1202E1
:1045900005E0FA6959A14846521C5EE03A694DA10E
:1045A000F9E77A6852E00A2116E0B8680C2802DAC6
:1045B000D8F81010ADE7D8F81410AAE706A840F80C
:1045C0002450D8F8341038E006A840F824504DA5FF
:1045D000B9E73A683AE009210AF80610761C5E4508
:1045E000B2D342E006A840F8245048A5ABE7BA6928
:1045F00002B9072248A1AAE700210CE0786900F27D
:104600006C700890D7E9061208A8FFF7D9FE06E0FB
:10461000BA69EFE70121D7E9062000F02EF802463B
:104620002CA1AAE706A840F82450D8F81C1004E0F2
:1046300006A840F82450D8F8201001EB080582E7BE
:104640007969642091FBF0F200FB121221A17EE750
:104650007A69484628A102F26C7200F019F906E066
:104660000AF80600761C5E4501D30020E8E619F83A
:10467000010B00283FF4DFAEF2E7511A00D5C91D47
:10468000401A01D500207047072190FBF1F0401C33
:10469000704781070CD1642190FBF1F201FB1201FC
:1046A00051B94FF4C87190FBF1F201FB120018B13F
:1046B000002000F26D1070470120FAE708B541694B
:1046C00001F26C710091D0E906126846FFF778FE9E
:1046D000009808BD252E326400000000256D2F25AE
:1046E000642F2579000000002532640025592D250E
:1046F0006D2D25640000000025640000252E336424
:104700000000000025483A254D00000025483A25C4
:104710004D3A255300000000252E316400000000B2
:104720000EB5CDE90001FFF78BFD0290694601202F
:10473000ABBE0EBD08B5694600900220ABBE08BDF9
:104740001FB58DE8070069460520ABBE04B010BD5B
:104750001FB58DE80F0069460620ABBEF6E708B529
:10476000694600900920ABBE08BD1CB5CDE900012B
:1047700069460A20ABBE1CBD704708B5694600906B
:104780000C20ABBE08BD00000048704714F10120AA
:10479000704770477047704738B504460A46002096
:1047A0006946AFF30080002808BF38BD0246009973
:1047B000204601F0F1F9012038BD012001F090BC44
:1047C000F8B5AFF30080054600200C46102000BF6E
:1047D0000646A819A0420DD9324669460020AFF31B
:1047E0000080070008BF01F07BFC0098A04218BFC2
:1047F0000546C419FFF7C8FF05600746F01D20F005
:1048000007004619284600F00AF8B44208BFF8BD70
:10481000A21B31463868BDE8F84001F0BDB900215F
:104820000160C0E9011070471020704710B50446C0
:10483000FF2801D9002010BDFDF7F6FD0068005DDE
:1048400010F0980F03D0C10701D140F4806010F43C
:10485000846F01D040F4006010F0BA0F01D040F432
:10486000807010F0BE0F01D040F40070810604D5B6
:10487000010602D440F0800001E020F02000C107D2
:1048800001D0410601D5092CD5D140F4805010BD8E
:104890000FB41CB5084B06AA7B44694600900598E6
:1048A000FEF715FC044600206946FEF723FC20466F
:1048B0001CBC5DF814FB000059E8FFFF2DE9FF4F19
:1048C0001C4691464FF0FF3581B000218A4688464C
:1048D000D4E90167A16902986D1C8847216A834663
:1048E00088470028F6D1BBF1FF3F0CD0002F26F4FB
:1048F000C0661ADD700615D5BBF12B0F0AD0BBF1CF
:104900002D0F0FD104E04FF0FF3005B0BDE8F08F60
:1049100046F48066A16902986D1C88477F1E834615
:10492000002F02DDBBF1300F03D0B9F1000F2AD008
:1049300025E0A1696D1C02987F1E46F40076884729
:10494000002F834605DDBBF1780F06D0BBF1580F71
:1049500003D0B9F1000F10D011E0B9F1000F02D06F
:10496000B9F1100F0BD1A1696D1C02987F1E26F4BE
:10497000007688478346102000E0082081464FEAF1
:10498000E970009017E00A20F8E74346AAFB0928DF
:10499000DDF800C07F1E03FB098046F4007605F1B8
:1049A00001050AFB0C0112EB0B0A029841EBEB78B4
:1049B000A16988478346002F06DD4946584601F025
:1049C00021F95FEA000BE0D5E16902988847B0055C
:1049D00002D46FF0010098E7F00718D1700610D5E7
:1049E0005146700505D50023D1EB030163EB0802A6
:1049F00000E042462068031D23600068C0E9001201
:104A000005E02068011D21600068C0E900A8284673
:104A10007BE72DE9FF5F1D464FF0FF3B91464FF0CE
:104A200000085F46D5E90146A96901987F1C8847BF
:104A3000296A824688470028F6D1BAF1FF3F0CD098
:104A4000002E24F4C06419DD600614D5BAF12B0FD2
:104A500009D0BAF12D0F0ED103E0584604B0BDE8DD
:104A6000F09F44F48064A96901987F1C8847761EF2
:104A70008246002E02DDBAF1300F03D0B9F1000FEB
:104A800026D032E0A969761E01987F1C44F4007498
:104A90008847002E824605DDBAF1780F06D0BAF1BC
:104AA000580F03D0B9F1000F10D01EE0B9F1000F7C
:104AB00002D0B9F1100F18D1A969761E01987F1C98
:104AC00024F4007488478246102002E0082000E0A9
:104AD0000A20814609E0A96908FB0908761E0198A9
:104AE0007F1C44F4007488478246002E05DD494649
:104AF000504601F087F80028EDDAE9690198884707
:104B0000A00502D46FF00100A8E7E00725D16006F8
:104B100013D5600502D5C8F1000000E040462968C1
:104B20000A1D2A600968220501D5087015E02207D0
:104B300001D5088011E008600FE02868011D296098
:104B40000068210502D580F8008006E0210702D523
:104B5000A0F8008001E0C0F8008038467EE72DE92B
:104B6000FF5F4FF000089946144646469169D2E926
:104B700001A7DDF838B001988847054659EA0B00CF
:104B800005D009E0A1690198761C88470546216A8D
:104B9000284688470028F5D1681C03D05FEACA7010
:104BA00005D015E04FF0FF3004B0BDE8F09F20685D
:104BB000011D2160D0F800800AE05FEACA7001D1CF
:104BC00008F8015BA169761C01987F1E884705469D
:104BD000002F1ADD681C18D0B9F1000F0DD0E817AE
:104BE00005EBD060421120F01F0059F822102A1A5C
:104BF000012090400142E0D107E0BBF1000FDCD181
:104C00002846216A88470028D7D0E169019888475B
:104C1000BBF1000F07D1002E05DD5FEACA7002D19B
:104C2000002188F80010A068B84203DDBBF1000F36
:104C300003D017B16FF00100B6E73046B4E70000CB
:104C40002DE9FF4F06468BB00878FF2806D0491C97
:104C50002D2805D000244FF0000908E000200CE0CA
:104C60000124F8E709EB8903491C00EB43090878A4
:104C7000FF28F7D114B1C9F1000081461078002552
:104C80002C46AA4629462D2801D02B2804D1521C97
:104C90002D2813D0002082468B461078FF280FD095
:104CA0004FF0000C0A21521CA5FB017804FB018186
:104CB00005FB0C11C5194BEB0104EEE70120EAE7F7
:104CC000002108464FF00000BAF1000F02D000EBBF
:104CD00080004008C0F38157012F01DD4FF0FF37FE
:104CE0000E9955EA040009EB01080BD04FF00209B8
:104CF00018F5FA7F16DA4FEACA70002F706008DDE7
:104D0000012007E04FEACA70C6E900B00FB0BDE865
:104D1000F08F00203060FEF79DFBC0F80090182156
:104D2000084616E0B8F5FA7F18DD002F02DAF748DA
:104D3000784401E0F6487844D0E90010C6E9001054
:104D400040EACA707060FEF785FBC0F8009014213D
:104D500008460FB0BDE8F04F19F062BD00210846CB
:104D60004FF00000B8F10001099002DAC7F100022B
:104D700000E03A4601DAC8F1000106A8FEF7D4FEC9
:104D800006AB93E8070003AB83E8070044F23E005C
:104D90005BEA04010090584604D144F21E012C46FF
:104DA0005D460091210C0904014306D100992404B9
:104DB00044EA15442D041039009104F07F41014369
:104DC00006D10099240244EA15642D0208390091A5
:104DD00004F07041014306D10099240144EA15749E
:104DE0002D01091F009104F04041014306D10099B3
:104DF000A40044EA9574AD00891E009104F00041BE
:104E0000084304D100986D196441401E00904FF092
:104E100001033A466846B8F1000FCDE9014503A900
:104E200002DD18F014F801E017F0E7FFBAF1000F07
:104E300004460D4601D084F00044002108464FF09E
:104E40000000099940F2FF77484010F00C0F07D19D
:104E500024F00040284303D0C4F30A50B84212D1D2
:104E6000FEF7F8FAC0F80090C4F30A50B8420AD12D
:104E7000A8487844D0E90010C6E9001004F00041C9
:104E80000843706042E7C6E900543FE72DE9FF4F51
:104E90001F464FF0000A4FF0FF38454691B0D7E962
:104EA0000146CDF83CA0FDF771FEC0680168405C8A
:104EB0001090B96912986D1C8847396A81468847F5
:104EC0000028F6D1B9F1FF3F0AD0002E24F4D064B7
:104ED00011DDB9F12B0F08D0B9F12D0F0BD102E084
:104EE000404615B013E744F48064B96912986D1C0C
:104EF0008847761E8146600504A901D52D2000E073
:104F00002B20002E01F1010B0DF130088DF810005F
:104F10003FDDB9F1690F08D0B9F1490F05D0B9F1FA
:104F20006E0F02D0B9F14E0F1CD13B4601A800957F
:104F300080E85002DDE912126FF0020019F03DFD29
:104F4000C11CCED10EE0B96912986D1C884781460C
:104F50001398761E44F4007405600F98401C002ED0
:104F60000F9016DDB9F1300FEDD0B9F1780F02D006
:104F7000B9F1580F0DD10F9801280AD13B46CDE960
:104F80000054DDE91212001F029619F014FDC11C35
:104F9000A7D1109989453ED144F0800406E01399C9
:104FA000681CAAF1010A44F400740860B9696D1C18
:104FB0001298761E884730288146F0D02BE0109951
:104FC000894505D1200603D4761E44F0800418E0FC
:104FD000484618F0EFFC08B3761E0DF12302934506
:104FE000A9F1300044F4007406D20BF8010B20063E
:104FF00007D5AAF1010003E0200602D40AF101005E
:105000008246A00502D51399681C0860B9691298F8
:105010006D1C88478146002ED1DC53E0002E51DD07
:10502000B9F1650F02D0B9F1450F4BD1A00549D5B3
:10503000B9696D1C1298761E24F440748847002EBE
:1050400081460CDD2B2804D0B9F12D0F07D144F493
:105050008074B96912986D1C8847761E8146E005F8
:1050600001D52D2100E02B2108F8011BCDF800808F
:1050700021E0761E0DF13901884544F400740CD20C
:10508000A9F1300010F0FF0088F8000002D100996B
:10509000884509D908F1010806E0E00501D51E4858
:1050A00001E042F20F708246B96912986D1C884780
:1050B000814613980560002E04DD484618F07AFCFE
:1050C0000028D6D1F96912988847FF2053468BF8FB
:1050D000000088F8000000200A900B9004AA0CA998
:1050E0000AA8FFF7ADFDA00502D46FF00100F8E6B5
:1050F00014F0240F12D0E0071CD13868DDE90A1241
:10510000031D3B600068C0E9001213E090E4010059
:1051100082E4010046E30100F1D8FFFF0AA96846D6
:1051200018F08AFBE00705D13868009A011D396044
:10513000006802602846D4E60268114413780160D2
:1051400018467047D1600549794451610449794452
:10515000116200211161114600F062BDEDFFFFFFF9
:10516000A10A0000426842B1016811F8013B23B175
:10517000521EC0E90012184670470121C160881E06
:10518000704742685AB1C368016843B983688B426B
:1051900005D0491E521CC0E90012002070474FF094
:1051A000FF3070470FB40B0010B54FF000048AB009
:1051B0000FA900910E99CC60234C7C44234A7A4479
:1051C000CDE9064200D004236FF00042CDE9013260
:1051D0001F4A7A446B4608920246002019F0E9FB08
:1051E0000AB010BC5DF814FBF0B507464FF0FF3075
:1051F0001E4615460C463B4685B06A460091CDE9F1
:10520000010131460020049004A8FFF7CBFF049968
:105210000346601825B109B1024600E022462A6023
:1052200000290ED0002B02DD0099814209D03B46B7
:105230006A463146001B0094CDE9010404A8FFF73B
:10524000B1FF05B0F0BD0000A7FFFFFFC1FFFFFFEA
:105250001D0A000000230360FFF7C6BF2DE9F047D9
:1052600091460E4680460446002514F8017B2FB176
:10527000FDF7DAF80068C05DC007F6D12B2F02D029
:105280002D2F1ED0641E4A463146204600F082FE75
:1052900026B13268A24201D1C6F800804FF0020464
:1052A0006A0518D50023D0EB030563EB01025D1BF3
:1052B000934109DB0023D0EB030063EB0101BDE860
:1052C000F08745F48065DEE7FEF7C4F8046000204F
:1052D0004FF00041F3E7021E71F10002EFDAFEF732
:1052E000B9F804604FF0FF304108E8E72DE9F05FBE
:1052F00093460F46804604460026FEF7ABF8D0F8EA
:105300000090824614F8015B2DB1FDF78DF800681E
:10531000405DC007F6D12B2D02D02D2D1FD0641E6D
:105320000021CAF800105A463946204600F032FEE5
:10533000024627B13868A04201D1C7F80080DAF8E8
:10534000000002280ED0CAF8009070050AD500208F
:105350000346D2EB000063EB0101BDE8F09F46F489
:105360008066DDE71046F8E72DE9FF4F4FF00008B3
:105370009A461446C146464683B0D2E901B7CDF8F5
:105380000080CDF8048091690498884710990546FB
:105390005AEA010005D009E0A1690498761C884703
:1053A0000546216A284688470028F5D1681C03D0A5
:1053B0005FEACB7005D02AE04FF0FF3007B0BDE8C0
:1053C000F08F2068011D2160D0F800801FE002A846
:1053D0006A46E9B200F087FB411C07D0801C09D067
:1053E0004FF000095FEACB7007D00AE0E16904984A
:1053F00088473EE04FF0010904E0BDF8081028F8A6
:10540000021B7F1EA1690498761C88470546002F61
:105410001ADD681C18D0BAF1000F0DD0E81705EBA3
:10542000D060421120F01F005AF822102A1A0120E1
:1054300090400142CBD107E010980028C7D1284600
:10544000216A88470028C2D0E16904988847B9F1E9
:10545000000F0ED1109830B9002E04DD5FEACB703A
:1054600001D1A8F80000A068B84202DD109818B178
:1054700017B16FF00100A1E730469FE72DE9FF4F1C
:105480004FF000089B461446454683B0D2E901968A
:10549000CDF80080CDF804809169DDF848A004982B
:1054A000884707465BEA0A0005D009E0A16904982D
:1054B0006D1C88470746216A384688470028F5D181
:1054C000781C03D05FEAC97005D01BE04FF0FF30B5
:1054D00007B0BDE8F08F2068011D2160D0F8008082
:1054E00010E05FEAC97007D16A464046B9B2FEF7DC
:1054F00038FE411C31D08044A1696D1C0498761E91
:1055000088470746002E14DD781C12D0BBF100003E
:1055100007D03B46DDE9101200F09DFD0028E0D1E8
:1055200007E0BAF1000FDCD13846216A884700282D
:10553000D7D0E16904988847BAF1000F06D1002D51
:1055400004DD5FEAC97001D188F80000A068B042AC
:1055500003DDBAF1000F03D016B16FF00100B7E719
:105560002846B5E72DE9FF5F9B46144600273D46D8
:105570009169D2E90196DDF840A0019888478046FC
:105580005BEA0A0005D009E0A16901986D1C884713
:105590008046216A404688470028F5D1B8F1FF3F90
:1055A00003D05FEAC97005D014E04FF0FF3004B0BB
:1055B000BDE8F09F2068011D216007680AE05FEAEE
:1055C000C97001D127F8028BA1696D1C0198761E64
:1055D00088478046002E15DDB8F1FF3F12D0BBF1A1
:1055E000000007D04346DDE90E1200F034FD00282C
:1055F000E5D107E0BAF1000FE1D14046216A8847C2
:105600000028DCD0E16901988847BAF1000F05D184
:10561000002D03DD5FEAC97000D13880A068B04278
:1056200003DDBAF1000F03D016B16FF00100BEE741
:105630002846BCE770B50D4601461446D36850694C
:105640002A46FFF785F8002807DA411C07D0E168F1
:1056500020F0004041F48041E160281A70BD2046EE
:10566000FEF754FB4FF0FF3070BDC16800220260AE
:1056700021F4805141F0400111F4C06FC16001D0AC
:105680008260704702694168891AC269891A81601B
:1056900070472DE9F0470446C06840F48000E060A0
:1056A000010312D520F40020E060810606D4E26AEE
:1056B00061688A4200D80A46511A216040F40010FD
:1056C000E06094F82500BDE8F08720F40010E06069
:1056D000800602D52046FEF770FBE06842F28101A9
:1056E0004FF0FF390140012903D02046FEF70EFBA1
:1056F000B6E02168002600290ADAC94340F4805048
:105700002160C4E902606068411C61600078DAE7EA
:1057100044F2400108420CD020F4A04040F0400088
:105720002660E06021696068401AE169401AA06063
:1057300096E0216991B9C00310D4E069FDF78EFEAF
:105740002061B0B1E06840F4006010F4407FE06098
:1057500002D140F48070E06020696060E068D4F8B5
:1057600014A0C1061AD5C0030ED52046FEF702FBD1
:1057700014E004F1240020610120E061E06820F4DD
:10578000407040F48060E6E721696068401AA169D2
:1057900001445046FEF7E9FF0028A6DBE068C0039D
:1057A0002AD56168E06A884200D808462169451A0E
:1057B000E069471B1BD02046D4F81880FEF7DAFAC0
:1057C00008EB05015046C4F81880FEF7CEFF00280C
:1057D0008BDBE06840F40030E060000202D5A06995
:1057E0002844A061E1692069C91B45180DE02046E5
:1057F000FEF7C0FAE769F5E725696168D4E90607AD
:10580000491BE56208446560A061E06820F0100073
:1058100010F4C06FE06002D0204600F02BFCE0687E
:1058200040F48050C4E90260000205D52069E062BE
:1058300060606FF0010046E7224639462846FFF7D0
:10584000F9FE411C0CD02918E16258B1401E2060BD
:10585000681C6060E06840F40030E060287832E75F
:10586000484630E765602046FFF7FFFEF8E710B5D1
:105870000146C268900703D0900607D5886A0AE0FF
:10588000FDF7E8FD01210160881E10BD8B694868A5
:1058900018440B69C01A91F848301BB191F84910AF
:1058A000401A10BD1103FCD50028FADD401E10BDC2
:1058B00070B5C468A50713D0650211D4B2F5807F16
:1058C00009D0B2F5007F06D0B2F5806F08D1012370
:1058D00000F1240106E05D1E6FF07F46B54201D362
:1058E000012070BD0161C361416024F47061114306
:1058F000C160002070BD00002DE9F0410C46164645
:10590000070047D0104600F06FF82078611C61282E
:105910000AD0722802D077283CD102E00125002469
:1059200005E00225042402E0082448F2020511F8EB
:10593000010B2B2806D0622809D011F8010C74281D
:105940000AD00BE045F0030544F00204EFE745F010
:10595000040544F00104EAE744F010043846214607
:10596000FEF7DEFE411C15D00021316171604FF45D
:105970000071F560F1617061200704D530460222A4
:105980000021FEF747F9306D40F0010030653046E8
:10599000BDE8F0810020FBE72DE9F0410D46064609
:1059A000104C206DC10704D0410804D020F0010440
:1059B000F7E722460EE05420FDF750FD07000ED019
:1059C000206D47F001010843542120653846FDF75A
:1059D00059F83A4629463046BDE8F0418CE70020A8
:1059E000D6E7000010F001202DE9F04704464FF003
:1059F00000094FF0FF37C568D4E90486A80707D02F
:105A00002046FEF7B7F93046FEF794FE002802DA8A
:105A10003846BDE8F087280502D54046FDF74DFD24
:105A20004C212046FDF72EF8206D20F00100206566
:105A30004846EEE72DE9F8439946174680464FF071
:105A400000060C0002D18846012717A4B9F1000F07
:105A500025D105210020AFF3008081461FE014F816
:105A6000011B4A46684600F03EF8761C0546401C7D
:105A70000FD0AD1C13D0B8F1000F03D0BDF800104B
:105A8000A8F80010BDF80000002800D03046BDE89E
:105A9000F883FDF7DFFC042101602846F7E77F1E4D
:105AA000DDD26FF00100F2E7000000007CB50C468B
:105AB000054622B906210020AFF3008002462146A8
:105AC0006846FEF74EFB0446401C07D025B122462F
:105AD00069462846FCF72DFF20467CBDFDF7BAFC41
:105AE00004210160F8E7F8B516460C460546FCF7B8
:105AF0009BFC036893F80101012804D0185D78B17C
:105B000001202C80F8BDD3F803013246214603F270
:105B10000313C71868460023B84700992980F8BDC9
:105B20004FF0FF30F8BD10B50446AFF300802046BB
:105B3000BDE81040FCF772BC70B505460C460A2063
:105B400000E06D1CFDF77AFC35B128780028F8D10B
:105B500002E0641CFDF772FC14B120780028F8D133
:105B6000BDE870400A20FDF769BC10B500F09EFA50
:105B7000BDE81040FEF747BB520000F0B8BA002164
:105B800001E0801C491C0288002AFAD108467047AF
:105B900001B5FCF7CEFE01BD034640688C460028E7
:105BA00018BF88423CBF03464068F8D318681844C1
:105BB000884207D00CF1030020F00700001D411AB5
:105BC000521A0146081D0A60FDF777BCB2F12003A6
:105BD0000AD5C2F1200301FA02F120FA03F341EAE7
:105BE000030100FA02F0704700FA03F14FF00000E1
:105BF000704710B50446FCF717FC0068005D00F024
:105C0000010010BD3A2800D2303820F02002412A8D
:105C100001D3A2F13700884201D34FF0FF30704723
:105C20002DE9F34F4FF0000A0C4656468DB0012087
:105C30000C9001F10C000B9062690B9801219047C8
:105C4000051E2DD0252D2CD0216A8847C0B1626950
:105C50000B9801219047216A88470028F7D1626993
:105C6000411E0B98904700E0761CA1690D9888476B
:105C7000216A88470028F7D1E1690D988847DBE75A
:105C8000A1690D988847A842074601D1761CD3E741
:105C9000E1690D9888477F1C02D1BAF1000F6FD0DF
:105CA0006BE162690B9800273D46394690472A28E8
:105CB00004D162690B98012190470125DFF8D08259
:105CC00062690B9801219047A0F130010A290AD29C
:105CD0004745E5DC07EB870100EB4107303FDFD4A8
:105CE00045F01005ECE7E90601D46FF000476C2899
:105CF0000AD04C2814D0682815D06A280DD07428F2
:105D00001CD07A281AD01DE062690B9801219047B7
:105D10006C2802D045F0040514E045F002050DE0C2
:105D200045F020050AE062690B9801219047682838
:105D300002D045F0080505E045F4006562690B985E
:105D400001219047C4E9015765283DD019DC582846
:105D50007AD00CDC452837D004DC252826D0412811
:105D60009ED131E046282FD0472899D12CE05B28DE
:105D700077D0612828D063287CD0642823D15AE0CA
:105D8000F6E06F2848D008DC66281DD067281BD0B5
:105D9000692821D06E2816D127E0702845D07328B5
:105DA00068D0752847D078280DD14DE0A1690D98AD
:105DB0008847252805463FF469AFE1690D98884773
:105DC0006D1C3FF46AAFD8E00D9923466A466FF028
:105DD000010018F0EEFDC5E045F0400023464FF00D
:105DE00000026060A80736D43EE0E8077FF447AFC2
:105DF0002068011D21600068290501D506701BE798
:105E0000290701D5068017E7A90703D5F117C0E9CF
:105E1000006111E706600FE745F0400023464FF0B0
:105E200008026060A80716D41EE040F60E0125EABD
:105E30000100606016E045F0400023464FF00A0282
:105E40006060A80707D40FE045F040006060A80735
:105E500008D5234610220D996FF00100FEF72EFDA4
:105E600080E007E0102223460D996FF00100FEF755
:105E7000D0FD77E04FF0000963284F46C8464B46F7
:105E8000CB4602D05B2806D038E0E80601D40120DA
:105E9000A060012732E06269D4F80CB00B980121B0
:105EA00090475E2807D14FF0010949466269D4F84E
:105EB0000CB00B989047216939B900210A4603AB11
:105EC00043F82120491C0829FADBD8B3216949B3DA
:105ED00008F1010862690B98012190475D28F4D10F
:105EE000B9F1000F09D0002003A951F82020D243B6
:105EF00041F82020401C0828F7DB03AB206900286C
:105F000020794FEA40701ED05B462246CDF80080D3
:105F1000CDE901970D9900286FF0010020DAFFF715
:105F200021FB1FE0C11703AA00EBD1614B1121F047
:105F30001F0102EB8302411A1368012088400343CA
:105F40001360C7E719E00D99224600286FF00100A1
:105F5000009702DAFFF708FA04E0FEF700FE01E01E
:105F6000FFF78CFA00280ADA401C06D10C9820B101
:105F70004FF0FF300FB0BDE8F08F5046FAE7E90769
:105F800001D10AF1010A064400200C9054E60000F9
:105F9000CCCCCC0C2DE9F74F4FF000091546CA4682
:105FA000009C14F8010B302801D0ADB115E014F8B5
:105FB000010B4FF00109782803D0582801D04DB1CA
:105FC0000BE00DB1102D08D14FF0000914F8010BB2
:105FD000102502E0082500E00A2500274FEAE57BAE
:105FE0003E46B84616E0A5FB07234FF0010905FB26
:105FF00008000BFB0731030C05FB0616D7181FFA28
:1060000080F846F10006381E76F5803000D3CA4687
:1060100014F8010B2946FFF7F5FD0028E3DA019893
:1060200038B1B9F1000F01D0641E00E0009C019866
:106030000460BAF1000F08D0FDF70CFA02210160EC
:10604000C81E014603B0BDE8F08F310441EA174194
:1060500048EA0740F6E710B508E030F8024B9C42EA
:1060600004D10AB1002010BD012010BD491EF4D298
:10607000104610BD70B5054640F202260A4C0FE0EE
:1060800094F85000C00708D0AC4206D0E06836EA69
:10609000000002D12046FDF737F9206D20F0010401
:1060A000002CEDD170BD000010F0012010B50146AC
:1060B00002A0FFF741FD012010BD000053494752E7
:1060C000545245443A2052656469726563743A20BB
:1060D00063616E2774206F70656E3A2000000000C7
:1060E00010B500F033FABDE81040FEF78CB801B5EA
:1060F000FEF7E7F801BD00002DE9FF4F1F464FF006
:106100003C0987B04FF00042DDE9141001F10108AD
:10611000DDF858A002EA4050039000200590834625
:10612000054604460490B969461E08988847AAF1B6
:10613000010A0290BAF1000F3BDD02982E2815D01B
:106140001021FFF75FFD00282EDB4FF0010B0599B2
:10615000014317D0B9F1000F0BDB4A46C117FFF717
:1061600035FD05430C43A9F1040905E00120049025
:106170000BE008B145F0010501200590049820B915
:10618000361D02E0049800B1361FB969089808F17D
:1061900001088847BBF1000FAAF1010A0290C9D09B
:1061A0000999C1F80080C5E70298702808D05028E6
:1061B00006D0F96908988847BBF1000F14D04FE06A
:1061C000002002900120BBF1000F049009D0B969B2
:1061D000089808F101088847AAF10109B9F1000FF0
:1061E00007DCF969089888476FF001000BB0BDE83B
:1061F000F08F2B2804D02D280CD14FF0FF300490C5
:10620000B969089808F101088847A9F10109B9F1AD
:10621000000FE6DD411CE4D00A21FFF7F3FC002863
:10622000DFDB029908F1010801EB810100EB41007D
:106230000290B969089888470A21FFF7E3FC099A98
:10624000A9F10109B9F1000FC2F8008001DD0028B1
:10625000E7DAF969089888470499029800FB016613
:1062600055EA040004D004F04041090002D006E0E1
:10627000039898E0A40044EA9574AD00B61E04F0BB
:106280000041080002D16D196441761E159810F086
:10629000240F03D04FF00B095C4803E04FF02809AE
:1062A0006FF07D008246564507DAAAEB0601894465
:1062B000B9F1410F01DD4FF0410901200021A9F1A1
:1062C0000102FFF783FC024628400B4621400843A9
:1062D00001D0012100E00021501E029143F1FF3165
:1062E00028402140084301D0012000E0002002990D
:1062F000834651EA0B014FD0002108464FF00000C1
:10630000039900F4400039B100EB80004FF44001E4
:1063100000EBD07001EA60008015012802DD4FF02B
:10632000FF3000E013D0401C36D0029860B3BBF1C0
:10633000000F0CD14A4601200021FFF747FC2840FE
:106340002140084301D0012000E00020E0B10120FD
:106350004A460021FFF73AFC034640190A466141CC
:106360002D1A8C4111D3B9F1400F09DD159810F0A9
:10637000240F02D0AAF1340603E0AAF1170600E0C8
:10638000761C00254FF0004406E05B1E42F1FF3210
:1063900020EA030521EA0204CAF10100B04206DA4C
:1063A0001B49039808430190002000900EE0039AD7
:1063B000C4F3D321E80A0A43164940EA44500A4389
:1063C0003146CDE90002684617F0EAFA159810F058
:1063D000240F0BD01598C00715D13868DDE90012DD
:1063E000031D3B600068C0E900120CE002A869468A
:1063F00017F022FA1598C00705D13868029A011DD6
:106400003960006802604046F0E6000002FCFFFFD1
:106410000000F07F0000F03F2DE9FF4F92461D463F
:1064200085B04FF00041DDE9124BDDE914727F1EAB
:1064300001EA4B50414940F0FF4940EA0108002180
:1064400022F020004928049102D04E2828D04CE0A8
:106450003BA0012607C88DE80700A9690698641CBF
:1064600088477F1E014606D41DF8060018B121F0AA
:10647000200181420BD0E96906988847032E34D069
:10648000082E32D06FF0010009B0BDE8F08F761C05
:10649000032E01D0082EE0D1601CCAF80000DCE712
:1064A000A9690698641C88477F1E2AD420F0200022
:1064B000412826D1A9690698641C88477F1E20D4EC
:1064C00020F020004E281CD1A9690698641C88473A
:1064D0007F1E48F4002849F48009CAF8004001D41E
:1064E000282806D0E969069888475FEACB7012D061
:1064F00022E0A9690698641C88477F1E01D4002801
:1065000003DAE96906988847BCE72928F1D1641CB9
:10651000CAF80040E9E71BF0240F07D02868049967
:10652000031D2B600068C0E9001805E02868021D03
:106530002A600068C0F800902046A5E70000F07FC0
:10654000494E46494E4954590000000010B50128F3
:1065500005D0002103A0FFF7EFFA012010BD09A12B
:10656000F8E7000053494752544D454D3A204F75C6
:1065700074206F662068656170206D656D6F72793B
:10658000000000003A2048656170206D656D6F72F3
:106590007920636F727275707465640080B5FBF763
:1065A0004BFF80BD82B04EF6285715460C46064676
:1065B000CEF2000715F0FAFB41F60C10EFF308815C
:1065C000C1F20200FBF758FF300741F6515041F687
:1065D0007051C1F20200C1F2020158BF0846FCF737
:1065E000F7F816F0040041F6625192A0C1F20201E0
:1065F0000CBF08462C46FCF7EBF892A0FCF7E8F835
:10660000216894A0FBF738FF616896A0FBF734FF80
:10661000A16898A0FBF730FFE1689AA0FBF72CFF78
:1066200021699CA0FBF728FF61699EA0FBF724FF6E
:10663000A169A0A0FBF720FFE169A2A0FBF71CFF66
:10664000A06901907868800705D541F62550C1F210
:106650000200FCF7BDF87868B0F1FF3F05DC41F6B9
:106660003E50C1F20200FCF7B3F87868400040F1F8
:10667000DC8041F61150C1F20200FCF7A9F838683D
:1066800000063ED041F6F340C1F20200FCF7A0F84C
:106690003868C00706D0019941F68A00C1F20200AD
:1066A000FBF7EAFE3868800710D5019941F617001C
:1066B000C1F20200FBF7E0FE3868000606D5F96873
:1066C00041F6FF00C1F20200FBF7D6FE3868000772
:1066D00005D541F6B530C1F20200FCF779F838680B
:1066E000C00605D541F60A40C1F20200FCF770F879
:1066F0003868800605D541F61630C1F20200FCF775
:1067000067F8386810F47F4F46D041F63350C1F235
:106710000200FCF75DF83868C00505D541F6402059
:10672000C1F20200FCF754F83868800510D50199D1
:1067300041F2E070C1F20200FBF79EFE38680004EF
:1067400006D5396941F6FF00C1F20200FBF794FE5D
:106750003868400505D541F6D610C1F20200FCF7B5
:1067600037F83868000505D541F65D40C1F20200F2
:10677000FCF72EF83868C00405D541F6A940C1F2EF
:106780000200FCF725F83868800405D541F6693029
:10679000C1F20200FCF71CF83868B0F5803F44D322
:1067A00041F60450C1F20200FCF712F83868C00349
:1067B00005D541F66210C1F20200FCF709F838680D
:1067C000800305D541F6D920C1F20200FCF700F89C
:1067D0003868400305D541F63410C1F20200FBF7DA
:1067E000F7FF3868000305D541F66D20C1F20200BD
:1067F000FBF7EEFF3868C00205D541F6AD20C1F2C7
:106800000200FBF7E5FF3868C00105D541F60D2011
:10681000C1F20200FBF7DCFF3868800105D541F6C4
:106820009B10C1F20200FBF7D3FF15F091FA00BFF5
:10683000FEE700BF5573696E672075333250737081
:106840002E000000537461636B206672616D653ABF
:1068500000000000523020203A203078253038588F
:106860000A000000523120203A2030782530385874
:106870000A000000523220203A2030782530385863
:106880000A000000523320203A2030782530385852
:106890000A000000523132203A2030782530385832
:1068A0000A0000004C5220203A2030782530385819
:1068B0000A000000504320203A2030782530385814
:1068C0000A000000785053523A203078253038586A
:1068D0000A00000014460D46064615F067FA05A0AA
:1068E00031462A462346FBF7C7FD15F031FA00BFB3
:1068F000FEE700BF4E4D495F48616E646C65723AB9
:1069000020253038582C20253038582C2025303878
:10691000580A000080B500F0F9F980BD172884BF3F
:1069200004A0704740B24EF63C31C1F2010151F86B
:1069300020007047556E6B6E6F776E2074797065AE
:106940000000000080B515F055F880BD80B515F049
:1069500005F980BD80B515F015F980BD10B540F280
:10696000C254C2F20204204611F0F2FE48F2AD70A9
:1069700040F20002C1F20100C1F200022146BDE86E
:106980001040FBF746BF40F2C150C2F2020011F0C6
:10699000DFBE000080B515F009F980BD10B540F2EA
:1069A000C354C2F20204204611F0D2FE48F2AD7088
:1069B00040F20002C1F20100C1F200022146BDE82E
:1069C0001040FBF726BF000080B515F027F880BD0A
:1069D00080B515F037F880BD80B515F047F880BD5B
:1069E00080B515F057F880BD80B515F067F880BD0B
:1069F00080B515F077F880BD80B515F087F880BDBB
:106A000080B515F097F880BD80B515F0E3F815F066
:106A1000F5F880BD83B080B581B00DF10C0C8CE829
:106A20000E0003A9009100F005F801B0BDE8804018
:106A300003B0704780B5FFF7B1FD00F06BF980BD82
:106A400014F07FBE80B5AFF30080BDE8804014F045
:106A5000F5BE80B5AFF30080BDE8804014F0EEBE17
:106A600080B5AFF30080BDE8804014F0E7BE0000C1
:106A7000006809681268002388424FF00001B8BF1F
:106A800001218242B8BF012341EA030070470000A0
:106A900080B590F9000000F01BF880BD80B500784B
:106AA00000F01AF880BD000080B5006800F016F80C
:106AB00080BD000080B5006800F012F880BD0000C5
:106AC00080B5008800F00EF880BD0000704700001F
:106AD00070470000704700007047000070470000DA
:106AE000704700007047000070470000002804BF96
:106AF0000020704710B50446FFF7E8FF2068FFF755
:106B0000EFFF204410BD000010B500EB81042046CB
:106B1000FFF7D0FF204410BD10B500EB81042046E4
:106B2000FFF7C8FF204410BD10B500EB81042046DC
:106B3000FFF7C0FF204410BD10B500EB81042046D4
:106B4000FFF7B8FF204410BD10B500EB81042046CC
:106B5000FFF7B0FF204410BD10B500EB81042046C4
:106B6000FFF7A8FF204410BD80B500EB810090ED39
:106B7000000AFFF7AFFF80BD80B550F82100FFF796
:106B8000ADFF80BD80B500EBC10250F83100516807
:106B9000FFF7AAFF80BD000010B5044605F0C8FF4E
:106BA000002804BF002010BD04442046FFF782FFE8
:106BB000204410BD10B5044605F0BAFF002804BFFC
:106BC000002010BD04442046FFF774FF204410BD90
:106BD00010B5044605F0ACFF002804BF002010BD2E
:106BE00004442046FFF766FF204410BD10B504465C
:106BF00005F09EFF002804BF002010BD044420467D
:106C0000FFF758FF204410BD10B5044605F090FF73
:106C1000002804BF002010BD04442046FFF74AFFAF
:106C2000204410BD10B5044605F082FF002804BFC3
:106C3000002010BD04442046FFF73CFF204410BD57
:106C400010B5044605F074FF002804BF002010BDF5
:106C500004442046FFF72EFF204410BD10B5044623
:106C600005F066FF002804BF002010BD0444204644
:106C7000FFF720FF204410BD10B5044605F058FF73
:106C8000002804BF002010BD04442046FFF712FF77
:106C9000204410BD10B5044605F04AFF002804BF8B
:106CA000002010BD04442046FFF704FF204410BD1F
:106CB00010B5044605F03CFF002804BF002010BDBD
:106CC00004442046FFF7F6FE204410BD10B50446EC
:106CD00005F02EFF002804BF002010BD044420460C
:106CE000FFF7E8FE204410BD10B5044605F020FF74
:106CF000002804BF002010BD04442046FFF7DAFE40
:106D0000204410BD80B5FFF7F1FE80BD042101EBEA
:106D10008000704783B080B581B003A80EC003A97E
:106D200004A00091FFF73AFC01B0BDE8804003B039
:106D3000704700BF0D0A00004FF63031C1F201016B
:106D40000831016070470000FEDE0000704700005F
:106D500008440138B0FBF1F000FB01F0704700007F
:106D60002DE9F041984615460E46074606F08CF888
:106D700004462846414606F087F884420ED138463C
:106D8000314606F081F804462846414606F07CF874
:106D9000A042B8BF04462046BDE8F081FBF72EFDB7
:106DA00016F0DEBBB8FE400A7047000001207047B5
:106DB00010B50446406808B1012010BD206861602C
:106DC000A26083689100204698470028E060F3D0D5
:106DD0002068C16B20468847002010BD10B50B68A5
:106DE000044653F8041B10461A4600F027F9002801
:106DF00044BF002010BD01462068426920469047EC
:106E000010BD000010B54B68044653F8041B104633
:106E10001A4600F013F9002844BF002010BD0146B7
:106E2000206842692046904710BD00002DE9F04FD0
:106E300081B08346406890B3DBF80850002D18BF3E
:106E400001252FD091468A46002600BFDBF80400BA
:106E5000DBF80C1050F8362051F8261000EBC60471
:106E600057183846494600F09DFFDBF80C10AAEB96
:106E7000070251F82630171862683B4493429CBFC2
:106E800041F82630804693420CD9DBF808000136E1
:106E900086424FF0000538BF0125D7D302E04FF0FE
:106EA000000803E0E80708BF4FF00008404601B0C3
:106EB000BDE8F08F80B501464068002808BF80BD5E
:106EC000C86830B1896800291CBF8900FBF7DAFD6A
:106ED00080BDFBF793FC00004FF65C31C1F201016D
:106EE00008310022C0E90012C0E902227047000008
:106EF000FEDE000070470000B0B5072909DA14462D
:106F00000D46016000F008F8AA002146FBF756FD87
:106F1000B0BDFBF773FC00000430704710B50446A9
:106F20000160FFF7E9FF204610BD0000002101606D
:106F300070470000704700002DE9F04F81B06BB33F
:106F40001C468846064602F114074FF0000A4FF02F
:106F5000FF3BE9463878C8B130685146836930460E
:106F60004A46CDF800B09847002818BF054603D020
:106F700060B1002060B912E0009957F8102C41442C
:106F80000AF1010A11600028F3D100BF012030B1DD
:106F9000013C07F11807DDD1002500E00025E8B22B
:106FA00001B0BDE8F08F00002DE9F04381B0D2B30D
:106FB0001446804601F10C0506E000BF0120B8B37D
:106FC000013C05F1180531D0287A0028F6D055F893
:106FD0000C6C04F0D7FB01463046FFF7B9FED5E94B
:106FE000003655F8042C711C014607D0D8F8000073
:106FF000C76840460096B84705E000BFD8F80000D3
:1070000086684046B047002818BF814604D000205B
:107010000028D3D103E000BF01200028CED10020FA
:107020000028CDD104E04FF0000901E04FF0000945
:107030005FFA89F001B0BDE8F0830000002808D4B1
:10704000884206DA52F82000411C08BF4FF0FF309A
:1070500070474FF0FF3070470138042884BF00208C
:107060007047DFE800F0030507090B0001207047B7
:1070700002207047032070470420704705207047A6
:107080002DE9F04FD7B00E69002E00F09B82054627
:107090004EF60840C1F20100026828460C4604F092
:1070A00053FF4EF61041C1F201010A680746284617
:1070B000214604F049FF4EF60441C1F201010A687D
:1070C00083462846214604F03FFF4EF60C41C1F2AC
:1070D00001010A6882462846214604F047FFE46819
:1070E000002C00F06F828146387A092800F09380E6
:1070F000072840D0012840F0EF8031784DA804F0F7
:10710000B5FA27A8394604F061FF384604F046FF77
:107110000DF58C784E4681464046594604F056FFA0
:10712000584604F03BFF0DF1FC0B0446584651460F
:1071300004F04CFF504604F06FFF38AD0746284678
:10714000314604F043FF304604F02EFFCDE9004BFA
:1071500027AC06464DA821464A464346CDE902756E
:10716000049600F097FD2846FFF7E4FE5846FFF727
:10717000E1FE4046A7E09BF80800092840F0B280F5
:10718000BAF1000F0CBF30799AF80800022840F0DD
:10719000F88094F82C0000280A9000F07E814DA819
:1071A000214604F0C3FD606A39460990A06A089040
:1071B00046A804F00BFF384604F0FCFE4F4681461B
:1071C0003FA8594604F002FF584604F0DBFE0DF1DB
:1071D000E00806464046514604F0F8FE504604F0EA
:1071E00021FF31AC05462046394604F0EFFE384613
:1071F00004F0E6FE07463FA801A9CDF8009081E81B
:107200004101DDE908214DA846ABCDE904540697BC
:1072100003F07AFE73E19BF80800092870D0122869
:1072200060D16A6C216A284690474E46814658468E
:1072300004F0A8FE0DF59A7805464046594604F03C
:10724000C5FE404605F02EFE014628464A4600F09F
:10725000D3FC4046FFF76EFE4DA8214604F066FDC4
:1072600027A8394604F0B2FE384604F08BFE0546E6
:1072700046A8594604F0AAFE0DF1FC0840465146C6
:1072800004F0A4FE504604F0CDFE38AF0446384664
:10729000314604F09BFE304604F07AFECDE90098BA
:1072A000CDE9024727AC2A4646AD06464DA8214601
:1072B0002B46049603F0B2FB3846FFF73BFE4046F0
:1072C000FFF738FE2846FFF735FE2046FFF732FE6F
:1072D000002057B0BDE8F08FFFF720FB3A7A014657
:1072E000B9A007E0FFF71AFB3A7A014642F61860A8
:1072F000C1F20200FFF78EFB012057B0BDE8F08F0E
:1073000094F82C0000280A907DD04DA8214604F066
:107310000DFD606A39460990A06A089046A804F0FD
:1073200055FE384604F02EFE4F4681463FA859468A
:1073300004F04CFE584604F025FE0DF1E008064628
:107340004046514604F042FE504604F06BFE31AC1C
:1073500005462046394604F039FE384604F018FE4A
:1073600007463FA801A9CDF8009081E84101DDE979
:1073700008214DA846ABCDE90454069703F02CFD37
:1073800073E094F82C0000280A9000F0C6804DA805
:10739000214604F0CBFC606A39460990A06A089047
:1073A00046A804F013FE384604F004FE4F4681461A
:1073B0003FA8594604F00AFE584604F0E3FD0DF1DB
:1073C000E00806464046514604F000FE504604F0F0
:1073D0002FFE31AC05462046394604F0F7FD38460D
:1073E00004F0EEFD07463FA801A9CDF8009081E822
:1073F0004101DDE908214DA846ABCDE904540697CB
:1074000003F01EFEBBE027A8214604F08FFC20A855
:10741000394604F0DBFD384604F0B4FD099019A8A4
:10742000594604F0D3FD584604F0ACFD0DF1480870
:1074300006464046514604F0C9FD504604F0F2FDB0
:107440000BAF05463846494604F0C0FD484604F0F7
:107450009FFD099A044627A820A919ABCDE9006829
:10746000CDE90257049403F0D9FA0A9850B131A833
:10747000FFF760FD38A8FFF75DFD3FA8FFF75AFD55
:1074800046A823E70BA8FFF755FD12A8FFF752FD0A
:1074900019A8FFF74FFD20A818E727A8214604F0F8
:1074A00045FC20A8394604F091FD384604F082FDE1
:1074B000099019A8594604F089FD584604F062FD68
:1074C0000DF1480806464046514604F07FFD5046FF
:1074D00004F0A8FD0BAF05463846494604F076FD9A
:1074E000484604F06DFD099A044627A820A919AB67
:1074F000CDE90068CDE90257049403F027FB0A9810
:10750000002849D031A8FFF715FD38A8FFF712FD74
:107510003FA8FFF70FFD46A8D8E627A8214604F0AC
:1075200005FC20A8394604F051FD384604F042FD20
:10753000099019A8594604F049FD584604F022FD67
:107540000DF1480806464046514604F03FFD5046BE
:1075500004F06EFD0BAF05463846494604F036FD93
:10756000484604F02DFD099A044627A820A919AB26
:10757000CDE90068CDE90257049403F083FB0A9833
:10758000A8B131A8FFF7D6FC38A8FFF7D3FC3FA875
:10759000FFF7D0FC46A899E60BA8FFF7CBFC12A892
:1075A000FFF7C8FC19A8FFF7C5FC20A88EE60BA8BA
:1075B000FFF7C0FC12A8FFF7BDFC19A8FFF7BAFC43
:1075C00020A883E6FBF71AF9496E70757420747968
:1075D00070652025732028256429206E6F74207320
:1075E0007570706F727465642E00000080B5826BD8
:1075F00012B13021904780BDFBF700F92DE9F04F23
:1076000081B00028009149D08346006801284ADBF8
:10761000002700BF0BEB8700D0F80490B9F1000FF2
:1076200030D409EB4900009901EB80004568D5F89A
:107630000080B8F1010F01D1686818B3B8FA88F07A
:10764000B8F1000F4FEA501416D0686814F0EEF845
:1076500090B16FF0030000EB88060835B6FA86F0AB
:107660004FEA501446B155F8040B14F0DFF8002827
:10767000A6F10406F2D100BF84F00100002C08BF7F
:10768000CA4600E0042040F0040104290CD1DBF8D4
:10769000000001378742BDDB022005E04FF0FF30DC
:1076A00001B0BDE8F08F0220022808BF4FF0FF3A7A
:1076B000504601B0BDE8F08F80B568B101281CBF0D
:1076C000002080BD086804228368084641F20C014E
