:020000041000EA
:100000004B2A110200000000A4030000EEC3A6E981
:100010007EEEE78880B500F087F90020002100F02F
:100020000DF8292000F00FF8202000F011F800F062
:1000300033F900F013F800F025F980BD4CF2B93C1B
:10004000C0F2000C604747F67D1CC0F2000C604710
:1000500047F6D12CC0F2000C6047000080B54FF08D
:10006000A040012100F075F900060BD1032000F03B
:1000700075F9000606D1012000F075F9000604BFED
:10008000002080BD00F074F94FF47A7000F075F92B
:10009000012080BD2DE9F04381B019B343F2B83897
:1000A0000F4606464FF0FF344FF00009C2F2000839
:1000B0003D46B7F5807F28BF4FF480754FF0A040D4
:1000C000314642462B46CDF8009000F05BF960B90E
:1000D00040462946224600F05AF904467F1B2E442A
:1000E000E6D103E04FF0FF3400E00124204601B0E8
:1000F000BDE8F08310B582B004464FF0000C4FF01D
:10010000A0404FF4805122462023CDF800C000F0DB
:1001100039F9000622D120461C214FF0FF3200F0B1
:1001200036F9E169814219D1E078112816D1A07819
:10013000022813D1E168B1F5002F0FD8606846F2AC
:100140007872C4F26A72904208D1A068FFF7A2FFE9
:100150002169401A18BF012002B010BD012002B071
:1001600010BD00002DE9F0410C4605460E184FF079
:100170000008B4F5803F07D3A8B228B94FF4803700
:100180000321102021E000BFB4F5004F08D328461A
:100190006FF3DF3020B94FF4004702210F2014E045
:1001A00029466FF31F31200BB1FA81F1B8EB143FF0
:1001B00018BF0120490901404FF008004FF4807733
:1001C00018BF0C2018BF4FF4805725FA00F082B2F8
:1001D0004FF0A04047F2305300F0DEF800060BD19C
:1001E0003D44B542A4EB070424BF0020BDE8F081E4
:1001F000B4F5803FC0D2C7E700F0BAF84FF47A7088
:1002000000F0BBF80120BDE8F08100002DE9F047C7
:1002100082B04FF000098AB343F2B83814460E4654
:100220000746C2F2000840F6B83A00BF2546B4F5CA
:10023000807F28BF4FF480754FF0A040394642467A
:100240002B46CDF8009000F09DF890B94FF0A040FB
:10025000314642462B46CDF80090CDF804A000F080
:10026000A0F848B92F44641B2E44DFD14FF0000999
:1002700004E04FF0010901E04FF00109484602B0E7
:10028000BDE8F08780B542F20400C1F200000068CA
:1002900000F08CF880BD0000B0B588B06846FFF76C
:1002A00029FF08B101243CE0DDE90501FFF75AFF11
:1002B00038B100F05DF84FF47A7000F05EF8012478
:1002C0002FE0DDE902020599FFF7A0FF38B100F049
:1002D0004FF84FF47A7000F050F8012421E00399B0
:1002E0000598FFF7D7FE0499884213D14FF0A0403C
:1002F0000021102247F23053002400F04DF805464B
:1003000000F036F828060CD04FF47A7000F035F87B
:10031000012406E000F02CF84FF47A7000F02DF87C
:100320000124204608B0B0BDEC20C6F205000168EB
:100330007F2221F002010160016821F004010160C7
:100340006FF0030143180431342943F8D82CF9D154
:10035000704748F6F57CC0F2000C604747F2613CFC
:10036000C0F2000C604747F21D3CC0F2000C604731
:1003700047F6717CC0F2000C604744F2717CC0F219
:10038000000C604748F69D2CC0F2000C604744F218
:10039000C17CC0F2000C604748F6A10CC0F2000C12
:1003A000604749F2D90CC0F2000C604744F62D0CAE
:1003B000C0F2000C604700000000000000000000D8
:1003C000000000000000000000000000000000002D
:1003D000000000000000000000000000000000001D
:1003E000000000000000000000000000000000000D
:1003F00000000000000000000000000000000000FD
:020000041000EA
:101000004B2A040002111100000000000000000043
:020000041000EA
:102000000010032055210010692100107B210010D1
:102010008D2100108F210010912100100000000080
:10202000000000000000000000000000D1020000DD
:1020300095210010000000007503000081030000DE
:102040009B2100109D2100109F210010A121001054
:10205000A3210010A5210010A7210010A921001024
:10206000AB210010AD210010AF210010B1210010F4
:10207000B3210010B5210010B7210010B9210010C4
:10208000BB210010BD210010BF210010C121001094
:10209000C3210010C5210010C7210010C921001064
:1020A000CB210010CD210010CF210010D121001034
:1020B000D3210010D5210010D7210010D921001004
:1020C000DB210010DD210010DF210010E1210010D4
:1020D000E3210010E5210010E7210010E9210010A4
:1020E000EB210010ED210010EF210010F121001074
:1020F000F3210010F5210010F7210010F921001044
:10210000FB210010FD210010FF2100100122001012
:1021100003220010052200100722001009220010DF
:102120000B2200100D2200100F22001000000000F2
:10213000000000000000000000000000000000009F
:10214000DFF80CD000F070F800480047C12A0010FA
:10215000001003202E4880F308882E4880F30A8858
:102160002D4880472D4800475FEA0E00EFF30881B5
:10217000EFF309822A4B9847FEE75FEA0E00EFF380
:102180000881EFF30982274B9847FEE7FEE7FEE759
:10219000FEE7FEE7FEE7FEE7FEE7FEE7FEE7FEE717
:1021A000FEE7FEE7FEE7FEE7FEE7FEE7FEE7FEE707
:1021B000FEE7FEE7FEE7FEE7FEE7FEE7FEE7FEE7F7
:1021C000FEE7FEE7FEE7FEE7FEE7FEE7FEE7FEE7E7
:1021D000FEE7FEE7FEE7FEE7FEE7FEE7FEE7FEE7D7
:1021E000FEE7FEE7FEE7FEE7FEE7FEE7FEE7FEE7C7
:1021F000FEE7FEE7FEE7FEE7FEE7FEE7FEE7FEE7B7
:10220000FEE7FEE7FEE7FEE7FEE7FEE7FEE7FEE7A6
:1022100000100320000003204D2200104121001077
:10222000C526001095230010064C074D06E0E06817
:1022300040F0010394E8070098471034AC42F6D30D
:10224000FFF782FFB4220010F422001042F20002D5
:1022500041F200010020C1F20002C2F2020100BFFF
:1022600052F8203041F8203001304B28F8D14EF69A
:102270001450CEF2000040F80C1C416F41F4700184
:102280004167016841F010010160016841F480710B
:102290000160704702E008C8121F08C1002AFAD185
:1022A00070477047002001E001C1121F002AFBD1D6
:1022B00070470000203900100030002000010100AC
:1022C00094220010203A011000120220040800009D
:1022D000942200102442011000900220040000000B
:1022E00094220010284201100490022024000000D3
:1022F000A42200102DE9F05F0546002092469B467F
:1023000088460646814640241BE02846414647460B
:10231000224600F02FF853465A46C01A914110D376
:1023200011461846224600F016F82D1A67EB0108F0
:102330004F4622460120002100F00DF817EB00095E
:102340004E41201EA4F10104DFDC484631462A46F6
:102350004346BDE8F09F202A04DB203A00FA02F150
:10236000002070479140C2F1200320FA03F3194383
:1023700090407047202A04DB203A21FA02F0002125
:10238000704721FA02F3D040C2F120029140084385
:102390001946704782B04EF6285715460C46064639
:1023A000CEF2000700F050FA43F2A440EFF30881A8
:1023B000C1F2000000F086FD300743F6E90043F665
:1023C0000811C1F20000C1F2000158BF084600F038
:1023D000C1FF16F0040043F6FA0192A0C1F2000119
:1023E0000CBF08462C4600F0B5FF92A000F0B2FFEB
:1023F000216894A000F066FD616896A000F062FD7F
:10240000A16898A000F05EFDE1689AA000F05AFD76
:1024100021699CA000F056FD61699EA000F052FD6C
:10242000A169A0A000F04EFDE169A2A000F04AFD64
:10243000A06901907868800705D543F6BD00C1F218
:10244000000000F087FF7868B0F1FF3F05DC43F63D
:10245000D600C1F2000000F07DFF7868400040F136
:10246000DC8043F6A900C1F2000000F073FF386879
:1024700000063ED043F68B00C1F2000000F06AFF78
:102480003868C00706D0019943F22240C1F200002B
:1024900000F018FD3868800710D5019943F2AF307D
:1024A000C1F2000000F00EFD3868000606D5F9689C
:1024B00043F29740C1F2000000F004FD38680007C5
:1024C00005D543F24D70C1F2000000F043FF3868BB
:1024D000C00605D543F2A270C1F2000000F03AFF39
:1024E0003868800605D543F2AE60C1F2000000F006
:1024F00031FF386810F47F4F46D043F6CB00C1F26D
:10250000000000F027FF3868C00505D543F2D85019
:10251000C1F2000000F01EFF3868800510D5019957
:1025200043F27830C1F2000000F0CCFC38680004BF
:1025300006D5396943F29740C1F2000000F0C2FCB1
:102540003868400505D543F26E50C1F2000000F036
:1025500001FF3868000505D543F2F570C1F20000AF
:1025600000F0F8FE3868C00405D543F64100C1F21A
:10257000000000F0EFFE3868800405D543F20170DA
:10258000C1F2000000F0E6FE3868B0F5803F44D3A9
:1025900043F69C00C1F2000000F0DCFE3868C00386
:1025A00005D543F2FA40C1F2000000F0D3FE3868CE
:1025B000800305D543F27160C1F2000000F0CAFE4D
:1025C0003868400305D543F2CC40C1F2000000F06A
:1025D000C1FE3868000305D543F20560C1F2000072
:1025E00000F0B8FE3868C00205D543F24560C1F27C
:1025F000000000F0AFFE3868C00105D543F2A550D9
:10260000C1F2000000F0A6FE3868800105D543F253
:102610003350C1F2000000F09DFE00F0E7F800BF6B
:10262000FEE700BF5573696E6720753332507370D3
:102630002E000000537461636B206672616D653A11
:1026400000000000523020203A20307825303858E1
:102650000A000000523120203A20307825303858C6
:102660000A000000523220203A20307825303858B5
:102670000A000000523320203A20307825303858A4
:102680000A000000523132203A2030782530385884
:102690000A0000004C5220203A203078253038586B
:1026A0000A000000504320203A2030782530385866
:1026B0000A000000785053523A20307825303858BC
:1026C0000A00000014460D46064600F0BDF805A0BD
:1026D00031462A46234600F0F5FB00F087F800BF9C
:1026E000FEE700BF4E4D495F48616E646C65723A0B
:1026F00020253038582C20253038582C20253038CB
:10270000580A0000B0B549F20C0449F21805C2F2AB
:102710000204C2F2020520682968002200F022FBB0
:1027200020682968002200F022FB49F21000C2F262
:102730000200016840F20042C6F200022D209142E0
:1027400008BF2C20B1F1C04F08BF2B20BDE8B0401E
:1027500000F012BB10B5DDF808C0B2F1C04F0BD0CD
:1027600040F6000EC6F2000E724505D040F2004E53
:10277000C6F2000E724536D14BF2800440F0800E56
:10278000C6F20404A6452ED149F20804C2F202049E
:10279000BCF1000FC4F800C00DD049F2160C49F28C
:1027A0001404C2F2020C4FF0000EC2F20204ACF8A4
:1027B00000E0A4F800E049F21004C2F20204226032
:1027C00049F20C02C2F20202106049F21800C2F291
:1027D0000200016049F21C00C2F202000360BDE881
:1027E000104000F031B8102010BD0000F0B581B0ED
:1027F00049F20804C2F20204206818B349F216052F
:1028000049F21406C2F20205C2F202062888318893
:10281000884217D049F21007C2F20207216882B23B
:1028200009683868895C00F0ACFA288821680130B2
:1028300082B289888A4228BF002081B232882880EB
:102840009142EBD101B0F0BDF0B583B049F2100573
:10285000C2F202052868B0F1C04F0AD040F2004130
:10286000C6F20001884219BF0C242D2008242C2018
:1028700001E004242B2000F089FA49F20C0649F209
:102880001807C2F20206C2F202073068396822460F
:1028900000F081FA08B103B0F0BD30683968022257
:1028A00000F065FA0028F6D149F21C00C2F20200DD
:1028B000006843F221010190C0F2011128680291E1
:1028C00001A900F06DFA03B0F0BD000040F2E8008D
:1028D00042F64941C2F20000C1F20001016040F23B
:1028E000EC0042F6E141C2F20000C1F200010160D9
:1028F0007047000010B582B049F20801C2F202012F
:102900000968044671B149F21402C2F20202086871
:102910001388C454581C83B289888B4228BF002076
:1029200010800BE049F21000C2F2020000680DF1C5
:10293000070101228DF8074000F037FA204602B067
:1029400010BD000080B5FFF77FFF4120BDE880404B
:1029500000F0FABC80B5FFF7D5FE012080BD000075
:1029600070B582B0044649F20400C2F2020004705D
:1029700049F22400C2F20200016049F22000C2F2D2
:10298000020002600DF1070102200122012600F081
:1029900011FA9DF80700C0F3411003280FD0022858
:1029A00079D14BF20005C6F2040528464FF4504198
:1029B000012200F0DCF928464FF4483168E00DF1BF
:1029C00001013A20062200F0F5F99DF801104BF2C2
:1029D0000000C6F2040000F18005202901F01F016B
:1029E000284606FA01F13CBF4BF20000C6F2040093
:1029F000012200F0BCF99DF80210284620293CBFB6
:102A00004BF20000C6F2040001F01F0106FA01F1CA
:102A1000022200F0ACF99DF80310284620293CBFA3
:102A20004BF20000C6F2040001F01F0106FA01F1AA
:102A3000012200F09CF99DF80410284620293CBF93
:102A40004BF20000C6F2040001F01F0106FA01F18A
:102A5000012200F08CF99DF80510284620293CBF82
:102A60004BF20000C6F2040001F01F0106FA01F16A
:102A7000022200F07CF99DF8060020283CBF4BF2B2
:102A80000005C6F2040500F01F0006FA00F1284612
:102A9000022200F06CF9042C09D8201FB0FA80F053
:102AA00040094000032C08BF012000F088F90120F4
:102AB00003210B22092300F087F902B070BD00004A
:102AC00082B04BF20004C6F2040404F5405000F05A
:102AD00080F9642000F082F900F085F90F2000F001
:102AE00087F9022000F089F9012000F08BF9052018
:102AF00000F08DF900F090F9012000F092F9002526
:102B00000DF107010F2001228DF8075000F052F956
:102B10009DF80700002804BF562000F087F90DF14A
:102B200007011020012200F045F99DF80700002858
:102B300008BFA92000F07FF9012000F081F90520ED
:102B40000321B42200F081F901204FF4FA6100F072
:102B500081F9062000F01AF9072000F017F9032088
:102B6000032103224A2300F07AF901204FF4FA717D
:102B700000F07AF901200021002200F07AF92046C5
:102B80004FF000714FF0C0424FF461230095FFF702
:102B9000E1FD1AA026A129A200F094F9FFF796FE04
:102BA000C42000F081F842F6551142F64512C1F2F8
:102BB00000010220C1F20002FFF7D2FE202000F047
:102BC0005DF94FF480304FF4806100F05CF988B912
:102BD00043F20400C2F200000168002000F058F93E
:102BE000292000F0D3F82A2000F0D0F8202000F0AF
:102BF00054F900BF00F056F9FCE700BF5B257320D5
:102C0000542025735D626C6520706572697068651B
:102C100072616C2070726F6A656374286D70292010
:102C2000737461727420746F20776F726B2E0A0058
:102C30004D617920313520323032350031333A342C
:102C4000343A3134000000000C460546FFF7FCFD25
:102C500007A000F07FFB0AA0294600F033F90DA081
:102C6000214600F02FF9FFF7C1FD00BFFEE700BFCE
:102C70006F7320657272206F63637572730000005A
:102C8000636F646520202020203A2030782530387A
:102C9000580A00006F626A6563745F69643A2030A5
:102CA00078253038580A0000B0F5807F84BF1020A6
:102CB000704710B581090122830618BF02EB9011FD
:102CC0004FF0FF308840C4434FF6FF70C0F20F0052
:102CD00000F0EDF8204600F0EFF8002010BD0000F5
:102CE0001C4615460E460746FFF7AEFD08A000F04D
:102CF00031FB0CA03946324600F0E4F811A0294619
:102D0000224600F0DFF8FFF771FD00BFFEE700BFCD
:102D100073797374656D206572726F72206F63636F
:102D2000757273007531364572724D6F64756C65DE
:102D30003A2575207531364572724C696E653A25B3
:102D4000750A0000753332457272496E666F313A0A
:102D5000257520753332457272496E666F323A2599
:102D6000750A000049F2F16CC0F2000C604749F6A8
:102D70009D0CC0F2000C604747F6F10CC0F2000C4D
:102D800060474DF67D7CC0F2000C604747F67D1C25
:102D9000C0F2000C604749F6210CC0F2000C6047FD
:102DA0004DF6656CC0F2000C60474EF2CD1CC0F2CF
:102DB000000C604748F20D7CC0F2000C60474AF6F8
:102DC000256CC0F2000C60474AF68D6CC0F2000C16
:102DD00060474FF6310CC0F2000C604744F2717C42
:102DE000C0F2000C60474AF66D0CC0F2000C604760
:102DF0004AF6E93CC0F2000C60474AF6A95CC0F212
:102E0000000C60474AF6354CC0F2000C60474AF6A9
:102E1000194CC0F2000C60474AF6B12CC0F2000C0D
:102E2000604745F6214CC0F2000C60474AF6596CE9
:102E3000C0F2000C60474AF6696CC0F2000C6047B3
:102E40004AF6B13CC0F2000C604745F6651CC0F282
:102E5000000C604745F6295CC0F2000C604745F65F
:102E6000951CC0F2000C604745F6794CC0F2000C8E
:102E700060474CF2113CC0F2000C604747F6852CCD
:102E8000C0F2000C60474CF2791CC0F2000C6047A5
:102E90004CF2B93CC0F2000C604747F6D12CC0F2AE
:102EA000000C604741F2012CC2F2020C60474AF666
:102EB000510CC0F2000C60474AF6796CC0F2000C6D
:102EC000604700000FB4054B10B503A9044A0298EF
:102ED00000F008F810BC5DF814FB0000F5280010A5
:102EE000009002202DE9FF4F8DB00F4605460026C9
:102EF00006E025280BD0DDE90F1290476D1C761CEB
:102F000028780028F5D111B03046BDE8F08F0024B4
:102F1000A246A1460122EC4900E0044315F8013F16
:102F2000203B02FA03F00842F7D128782A2810D073
:102F30006FF02F022878A0F13001092914D80AEB8C
:102F40008A0102EB410144F0020400EB010A6D1C0E
:102F5000F0E701CF5FEA000A03D544F40054CAF158
:102F6000000A44F002046D1C28782E2817D115F8A9
:102F7000010F44F004042A280ED06FF02F022878A5
:102F8000A0F1300109290AD809EB890102EB4101BE
:102F900000EB01096D1CF2E757F8049B6D1C2878C3
:102FA0006C280FD006DC4C2817D068280DD06A2872
:102FB00014D104E0742810D07A280FD10DE044F425
:102FC00000140AE044F4801401E044F440146978E9
:102FD000814202D104F580146D1C6D1C2A786E2A82
:102FE0001FD00CDC632A31D004DC002A8BD0582A95
:102FF00011D1A3E0642A68D0692A0CD165E0732A54
:103000002ED004DC6F2A73D0702A04D19BE0752A7D
:103010006FD0782A6ED01046DDE90F129047761CEB
:1030200050E1C4F30250022806D0032809D0042836
:1030300001CF09D0066045E101CFF117C0E9006179
:1030400040E101CF06803DE106703BE117F8040B3B
:103050008DF8000000208DF80100EB46012003E010
:1030600057F804BB4FF0FF3061074FF0000102D466
:103070000DE008F10101884649450FDA8045F8DB8B
:103080001BF808100029F4D108E008F10101884676
:103090008142FADB1BF808100029F6D1DDE90F2385
:1030A000AAEB08008146214600F036F9304400EBD7
:1030B000080604E0DDE90F121BF8010B9047B8F198
:1030C0000108F7D221464846F7E00A21C4F302532B
:1030D0004FF0000B0891022B04D001CFC117032B36
:1030E00009D00AE0FF1D27F00707F7E8020108E012
:1030F00032E01FE020E000B2C117042B01D140B242
:10310000C117031E71F1000307DA4FF0000CD0EB7A
:103110000C006CEB01012D2302E0230504D52B23C9
:103120008DF82430012303E0E30701D02023F7E7E3
:10313000984658E00A2110E010210EE010204FF0D0
:10314000000B08900CE010214FF0000B44F0040439
:103150004FF00809089103E008214FF0000B089197
:10316000C4F30253022B04D001CF0021032B06D05D
:1031700006E0FF1D27F00707F7E8020103E080B231
:10318000042B00D1C0B24FF0000823072BD5702AC2
:1031900007D0DDF820C08CF0100C5CEA0B0C05D0D9
:1031A0000EE040238DF82430012308E050EA0103AB
:1031B00006D030238DF824308DF825200223984640
:1031C000DDF820C08CF0080C5CEA0B0C0BD150EA47
:1031D000010301D1630706D530238DF824304FF069
:1031E0000108A9F10109582A04D038A20B9208AAB3
:1031F0000A920BE03AA2F9E75B46089AFFF77AF8E1
:103200000B9B9B5C0A9A521E0A92137050EA0102B1
:10321000F2D10A98ADEB000000F1200B600702D557
:1032200024F4803401E04FF00109D94502DDA9EB17
:103230000B0000E0002000EB0B0141440890AAEBDA
:10324000010AE00306D4DDE90F232146504600F0D1
:1032500063F806444FF0000908E009A911F80900D5
:10326000DDE90F12904709F10109761CC145F4DB35
:10327000E0030CD5DDE90F232146504600F04CF861
:10328000064404E0DDE90F1230209047761C0899CF
:10329000481E08900029F5DC08E00A980A99007891
:1032A000491C0A91DDE90F129047761CBBF1000121
:1032B000ABF1010BF1DC21465046DDE90F2300F0B4
:1032C00019F806446D1C1BE6092801003031323321
:1032D0003435363738396162636465660000000052
:1032E000303132333435363738394142434445463C
:1032F000000000002DE9F041044600251E46174657
:10330000880404D405E039462020B0476D1C641EB3
:10331000F9D52846BDE8F0812DE9F04104460025A5
:103320001E469046C80301D5302700E020278804B8
:1033300004D505E041463846B0476D1C641EF9D5FA
:103340002846BDE8F08100000149FFF7D3BA00002C
:103350000090022010B5044601E0FFF7CBFA14F804
:10336000010B04490028F8D1BDE810400A20FFF7FE
:10337000C1BA0000009002205B50524543495345BA
:1033800052525D20646174612062757320657272AF
:103390006F7220686173206F636375727265642C4D
:1033A000205043203A203078253038780D0A005BD1
:1033B0004441434356494F4C5D2054686520707228
:1033C0006F636573736F7220617474656D7074657B
:1033D000642061206C6F6164206F722073746F725F
:1033E000652061742061206C6F636174696F6E2069
:1033F0007468617420646F6573206E6F74207065EB
:10340000726D697420746865206F7065726174698B
:103410006F6E2C205043203A203078253038780DBC
:103420000A005B4941434356494F4C5D546865204F
:1034300070726F636573736F7220617474656D7001
:1034400074656420616E20696E737472756374694B
:103450006F6E2066657463682066726F6D206120F0
:103460006C6F636174696F6E207468617420646F3F
:103470006573206E6F74207065726D697420657855
:1034800065637574696F6E2C205043203A20307844
:10349000253038780D0A004154203A3078253038EC
:1034A000780D0A005B486172644661756C745F4810
:1034B000616E646C65725D43757272656E74206DC9
:1034C00073703A203078253038580A005B494E56E0
:1034D00050435D616E20696E74656772697479200E
:1034E000636865636B206572726F72206861732018
:1034F0006F636375727265640D005B554E4445469B
:10350000494E5354525D616E20756E646566696EF6
:10351000656420696E737472756374696F6E20657B
:1035200072726F7220686173206F63637572726567
:10353000640D005B44495642595A45524F5D616ED5
:1035400020696E7465676572206469766973696F56
:103550006E206279207A65726F206572726F7220B8
:10356000686173206F636375727265640D005B49F7
:103570004D5052454349534552525D496D707265F5
:10358000636973652064617461206163636573734B
:10359000206572726F7220686173206F6363757249
:1035A0007265640D005B554E414C49474E45445D84
:1035B000616E20756E616C69676E6564206163631E
:1035C000657373206572726F7220686173206F6318
:1035D0006375727265640D005B49425553455252E2
:1035E0005D696E737472756374696F6E2062757352
:1035F000206572726F7220686173206F63637572E9
:103600007265640D005B4E4F43505D6120636F70C7
:10361000726F636573736F722064697361626C6546
:1036200064206F72206E6F742070726573656E74A3
:10363000206572726F7220686173206F63637572A8
:103640007265640D005B53544B4F465D612073748B
:1036500061636B206F766572666C6F77206572723E
:103660006F7220686173206F636375727265640D99
:10367000005B494E5653544154455D20616E2045D0
:103680005053522E54206F7220455053522E49549D
:103690002076616C6964697479206572726F72203A
:1036A000686173206F636375727265640D005B4DB2
:1036B0004C53504552525D41204D656D4D616E61D8
:1036C0006765206661756C74206F636375727265DF
:1036D0006420647572696E6720666C6F6174696ED0
:1036E000672D706F696E74206C617A7920737461D4
:1036F000746520707265736572766174696F6E0DA2
:10370000005B4C53504552525D41206275732066F8
:1037100061756C74206F6363757272656420647583
:1037200072696E6720666C6F6174696E672D706F69
:10373000696E74206C617A7920737461746520708D
:103740007265736572766174696F6E0D005B4D55BD
:103750004E53544B4552525D556E737461636B20EA
:10376000666F7220616E20657863657074696F6E34
:103770002072657475726E20686173206361757361
:103780006564206F6E65206F72206D6F72652061B9
:1037900063636573732076696F6C6174696F6E73B0
:1037A0000D005B4D53544B4552525D537461636B36
:1037B000696E6720666F7220616E20657863657040
:1037C00074696F6E20656E7472792068617320630E
:1037D0006175736564206F6E65206F72206D6F7206
:1037E00065206163636573732076696F6C617469CA
:1037F0006F6E730D005B554E53544B4552525D55E1
:103800006E737461636B20666F7220616E206578E1
:1038100063657074696F6E2072657475726E20686E
:10382000617320636175736564206F6E65206F72CC
:10383000206D6F7265204275734661756C74730DEF
:10384000005B53544B4552525D537461636B696E18
:103850006720666F7220616E206578636570746999
:103860006F6E20656E747279206861732063617574
:10387000736564206F6E65206F72206D6F726520B6
:103880004275734661756C74730D004D656D4D61C5
:103890006E616765204661756C740D0055736167D4
:1038A00065204661756C740D00436F6E66696775BF
:1038B0007261626C65204661756C740D00566563BB
:1038C000746F72204661756C740D004275732046EA
:1038D00061756C740D004465627567204576656E90
:1038E00074204661756C740D004F63637572656476
:1038F00020696E207461736B2E005573696E6720AA
:103900007533324D73702E004F636375726564209A
:10391000696E20696E746572727570742E00000095
:1039200000100220313800203938002049380020AA
:103930000000000000000000000000000000000087
:103940000000000000000000000000001905010058
:1039500000000000000000009D050100A905010015
:10396000593800205B380020A14500205F38002036
:103970006138002063380020653800206738002057
:10398000693800206B3800206D3800206F38002027
:103990007138002073380020E5310020773800208E
:1039A000793800207B380020BD4300207F3800207C
:1039B000813800208338002015440020054900206C
:1039C000893800208B3800208D3800208F38002067
:1039D0005D4A0020933800209538002039490020A6
:1039E0000348854600F006F80048004731AC002047
:1039F00000100220064C0125064E05E0E36807CCC6
:103A00002B430C3C98471034B442F7D3FFF7ECFF3C
:103A1000183100204831002002E008C8121F08C1F8
:103A2000002AFAD170477047002001E001C1121F3F
:103A3000002AFBD17047000080300120F8400120AF
:103A400080000000F8300020F84001208030012084
:103A5000781000008043002000310120F840012050
:103A6000048D000008310020F0B581B0214F387876
:103A700000283DD0EFF31086EFF3108072B61E4899
:103A80000068002802D0804700281BD03878811EAB
:103A900003291BD20124204621460CF091F8052071
:103AA0000507284600F02CF91448016804220A434F
:103AB000026030BF284600F02FF9002120460CF0AC
:103AC0007FF80BE086F3108801B0F0BD012805D126
:103AD0000A48016804229143016030BF0848006829
:103AE000002803D03978022900D1804786F3108856
:103AF00001B0F0BDCC990120A0AD012010ED00E097
:103B00009CAD012070B582B0134C01AD2046294612
:103B10000CF05CF8297820460CF05EF828788007D5
:103B20000AD50E4800900E48022164220D4B0CF07D
:103B300059F80D4801210170084DC8260BA42988A9
:103B400020460CF0A9FE761EAD1C002EF7D10848C9
:103B50000DF0B0FB02B070BD00810050B08B0120B1
:103B6000E8990120448D01202B7E0120256420004E
:103B7000562E012070B50446012001032143094A55
:103B800091420BD10226084D300608D0FF21204675
:103B90002A460CF02DF8761E0028F5D070BD0020C6
:103BA00070BDC0460010005000070100B0B50C46C3
:103BB0000546FFF7DFFF002800D0B0BD28462146AC
:103BC0000CF01CF8B0BDB0B50C460546FFF7D2FFAF
:103BD000002800D0B0BD284621460CF015F8B0BD35
:103BE000B0B50C460546FFF7C5FF002800D0B0BDB4
:103BF000284621460CF00EF8B0BDB0B50C4605467F
:103C0000FFF7B8FF002800D0B0BD284621460CF0D1
:103C100007F8B0BDB0B50C460546FFF7ABFF00286E
:103C200000D0B0BD284621460CF000F8B0BD10B55C
:103C30000446FFF79FFF002800D010BD20460BF080
:103C4000FBFF10BDB0B50C460546FFF793FF0028FB
:103C500000D0B0BD284621460BF0F4FFB0BDC046F1
:103C6000F0B581B00D4604460B2000072118012055
:103C70001F4A114206D1002D04D02046FFF77AFFDB
:103C8000002801D001B0F0BD1A491B4A20460BF0B4
:103C9000AFFF0028F6D100261027A068C00613D574
:103CA000B8B2042800D30420216800231A46DB00A0
:103CB0000E46DE402E707F1E6D1C521C93B2984241
:103CC000F5DC102020610026761C0C4886420BD8BB
:103CD00001200BF0BDFF3804DFD10848411C20460D
:103CE0000BF0BCFF01B0F0BD032001B0F0BDC04639
:103CF000FFEFFFFF4B0080031F070F00871300003B
:103D000010B50446FFF736FF002800D010BD032190
:103D100020460BF0A9FF10BD10B50446FFF72AFF9F
:103D2000002800D010BD20460BF0A4FF10BDC046F7
:103D3000B0B582B00D46044601A8002101800120E3
:103D400001032143154A914205D101A92046FFF7FD
:103D50002DFF002801D002B0B0BD01A80188104A93
:103D60000A40E906490E5118018007200202062187
:103D700020460BF03DFF0028EDD101A800886060CF
:103D80000849094A20460BF033FF0028E3D10749D0
:103D900020460BF063FF02B0B0BDC04600100050DB
:103DA00083BF00000100000500070100983A0000F1
:103DB000F0B581B01C4615460E460746FFF7DAFE01
:103DC000002801D001B0F0BD384631462A462346CE
:103DD0000BF056FF01B0F0BDB0B50C460546FFF73D
:103DE000C9FE002800D0B0BD284621460BF04EFF8A
:103DF000B0BDF0B583B01C4615460E460746FFF72A
:103E0000B9FE002801D003B0F0BD099808990091CF
:103E10000190384631462A4623460BF03DFF03B059
:103E2000F0BDF0B581B01C4615460E460746FFF7BB
:103E3000A1FE002801D001B0F0BD069800903846E0
:103E400031462A4623460BF02DFF01B0F0BDC04697
:103E5000F0B585B00C4605460127380328432449B0
:103E6000884241D103920493EFF310800290EFF364
:103E7000108072B61F4868661F48E86505202866EE
:103E8000032128460BF014FF0190072002020621AF
:103E900028460BF0ADFE0746A86D01263043A86505
:103EA000AE66032C1FD860B2800014A10958039A93
:103EB0008A40EA6415A10958184A28460BF098FE72
:103EC000029981F3108801990F43074304990BD19C
:103ED000286FC007FCD1A86DB043A86528460BF039
:103EE000BDFE074600E01027384605B0F0BDC046CD
:103EF00000100050A008C80C2000C80008000000F6
:103F00000C0000000F000000100000008100000302
:103F10002000000352000003D8000003170702002E
:103F2000F0B587B01D46164604460120030323431F
:103F30005F4A934200D097E0002E00D194E0002D1C
:103F400000D191E0C8B2431901200202934200D986
:103F50008AE005910C9FEFF310800390EFF310803F
:103F600072B6544860665448E06505202066534A9E
:103F7000173A062120460BF03BFEA26D01210A43B1
:103F8000A2650191A166032F04900BD0022F11D0DE
:103F9000002F17D128044949401849494018029078
:103FA0004A4911E028044549401845494018029003
:103FB000444909E028044149401841494018029009
:103FC000414901E000210291042D2A4600D3042238
:103FD000012A06940DDB00231C461F46DB003078C7
:103FE000984004436D1E761C7F1CBBB29A42F5DCE0
:103FF00000E000240698059AC26444600446029AD0
:104000000BF0F6FD04990843290428D005900027F9
:1040100002202061A068800712D4A8B2042800D32F
:104020000420002319461A46DB0034789C402143C3
:104030006D1E761C521C93B29842F5DC069C6160A2
:104040002348874208D001200BF002FE7F1C280481
:10405000DED10399059803E00321059808430399ED
:1040600081F31088002801D007B0F0BD0D9D206FAE
:10407000C007FCD1A06D01998843A065A4202058F9
:10408000C0070BD0069CA4341148461C761E0BD0EA
:1040900001200BF0DDFD2068C007F7D10698294606
:1040A0000BF0DCFD07B0F0BD032007B0F0BDC0464B
:1040B00000100050A008C80C4001C80017070000FD
:1040C0000000FFFF32004303A2004203020040034E
:1040D00087130000F0B587B00E4601460120002A84
:1040E0000BD09CB2002C08D015460C9F08460691B8
:1040F00039460BF0DDFD002801D007B0F0BD059773
:104100000021002C20D002910D9903910490059874
:10411000009003980190F0B201210902081A84422C
:10412000214600D301468FB2069831462A463B46C7
:10413000FFF7F6FE04980028DFD1ED19F619E41B0D
:10414000E5D1029807B0F0BD084607B0F0BD000009
:1041500019488047194800477046EFF30881EFF38C
:104160000982174B9847FEE77046EFF30881EFF39B
:104170000982144B9847FEE7FEE7FEE7FEE7FEE7FD
:10418000FEE7FEE7FEE7FEE7FEE7FEE7FEE7FEE707
:10419000FEE7FEE7FEE7FEE7FEE7FEE7FEE7FEE7F7
:1041A000FEE7FEE7FEE7FEE7FEE7FEE7FEE7FEE7E7
:1041B000FEE7FEE7FEE7FEE75D4B0020C130002092
:1041C000A94500206D440020F0B51FB4064600202C
:1041D00082B005464024019100901BE001992246DF
:1041E0000F46304600F062FC049A059B801A994104
:1041F00010D310461946224600F048FC361A8F416B
:104200000197224601200021009F00F03FFC381852
:104210004D4100902046641E0028DFDC019B009881
:104220002946324607B0F0BD30B5434351435C18D0
:10423000010C130C0D465D432C1980B292B2054659
:10424000554351430A0C09044D1962415843010C6E
:1042500000044019514130BD38B50446C0681821EA
:10426000401E4843A16840183C21484361684018FB
:104270003C2148432168451860690C214843216965
:1042800040186921C900401A302100F0D7FB114ABB
:1042900050434219084600921A2902DB0E49511870
:1042A00000910C2100F0CAFB0C4A5043009A801880
:1042B00000900B4806E0491E425C074B5A43009BA6
:1042C000D21800920029F6DC2146684600F01AFC5C
:1042D000009838BD801F8607805101008033E101BE
:1042E000B409012003460B439B0703D009E008C92A
:1042F000121F08C0042AFAD203E00B780370401C96
:10430000491C521EF9D27047D2B201E00270401C23
:10431000491EFBD270470022F6E710B513460A4645
:1043200004461946FFF7F0FF204610BD421C0178F5
:10433000401C0029FBD1801A7047F8B502464A405C
:10434000D40F42004B0052085B089A4202D2024648
:10435000084611464A0023D0C30D4A00DDB2120EB2
:10436000AD1A202D35DA49020126490AF6058A19C7
:10437000002C00D0524220214F1B1146B9402A4147
:104380001018C20D9A4221D0002C17D0012D08DC44
:10439000DA05801AD20F8019D207DBB20BF08EFC3F
:1043A000F8BDDA05801A012340001B06C0188018EA
:1043B0005A428018CA0F1043490007E04908C20753
:1043C0001143DA05801A8019400880180BF07CFC34
:1043D000F8BD61000122511A001BF7E70122D20744
:1043E0005140AAE70122D2075040A6E7024670B525
:1043F0004A40D30FDB0740002DD04A002AD0010EDF
:10440000140E000212020919400A520A8418E5012A
:1044100004465443000A120A2E045043A4194219B8
:10442000200CC543AA18120C0125AD03521C5219C9
:1044300012047F39240400D0521C104301D44000E0
:10444000491EC2B20C06C0092018401C4008802A30
:1044500002D003E0002070BD40084000002900DACF
:104460000020184370BD70B502464A40D50F400089
:104470004A00ED0740085208002814D0002A12D044
:10448000C40DD30D41020120C0055202490A520A4F
:10449000E41A091812187D34914201D3641C00E01B
:1044A0004900002C01DA002070BD0023914201D3A5
:1044B000891A0343400849000028F7D100290AD08F
:1044C000914202D10121C90705E0914201D20121A7
:1044D00001E00121C943E005C01840190BF0F4FBCD
:1044E00070BD0000F0B507460846584087B0C00FC1
:1044F000049048000E46590040084908BC1A8841FB
:1045000005D2384631461E4617460B46024658002D
:10451000400810434CD0300D039040055900400D29
:10452000490D0590401A0290402872DA18030121C3
:10453000000B09050843019004980092002805D05B
:104540000199524200208841009201900298402136
:104550000A1A0199009800F099FA05460C466B4634
:1045600007CB00F0B4FAC0197141039A0E0D002375
:10457000D71756401A467A40164344D0049A002A68
:104580002DD0029A012A039A15DC1205C01A914116
:1045900001263605001C7141D20F059ED2070093FB
:1045A000019202962A46234600F0F3FA07B0F0BDC6
:1045B00038463146FAE71605224A0F46B218C01AA5
:1045C000B74101210905001C4F4100187F411146E8
:1045D00018187941E20F10436D19644113E0E207A6
:1045E0006D0815436408C2071443039A0126120597
:1045F000C01A91413605001C7141CE074008304376
:104600004908C01851412A46234600F0B5FACDE7C3
:10461000FFE7049801224000C117121A00238B41C2
:1046200004983146C417381AA141EEE730B401248A
:10463000E407634030BC55E730B40124E40761402F
:1046400030BC4FE70000E0FFF0B51FB488B00B9915
:104650000998002448400999C00F49004908099168
:10466000C0070B990090490049080B9109990898D7
:10467000A64608431CD00B990A98084318D00998FD
:1046800001244000420D4800410D09982405000313
:10469000000B204309900B980003000B20430B9064
:1046A00050181C494018002201901446104605E09D
:1046B000002001460DB0F0BD032801DA034600E0FA
:1046C00003239C46C11A0AAE0AE05F0008ADED5B09
:1046D0004F00F75B7D430027AA187C41491C5B1EF5
:1046E0006145F2DD410004AB5A522104120C0A4329
:1046F000240C401C0828DFDB0198029000997046CA
:1047000001910090059B049A0799069800F041FAE0
:10471000D0E700000DFCFFFFF0B50C465C4085B013
:10472000E40FE40703944C00002664085900944603
:10473000490802460296224321D062460A431ED00F
:104740006200570D4A000E032303550D0124024653
:104750002C492405781B1B0B360B4018234326439A
:10476000614600901C46501AB44103D30098401C87
:10477000009002E0921800985B41002803DA0020C4
:10478000014605B0F0BD0020012109050746864617
:1047900011E064461D46141BB54106D36546521B05
:1047A000B341744607430C43A646CD074008490869
:1047B000284392185B4105460D43EAD11046184341
:1047C00013D06046194650407140084306D06046F9
:1047D000101AB34106D20122002306E00022012371
:1047E000DB0702E00122D243531000987446010512
:1047F000381C6141029C039D0019694100F0BCF91D
:10480000BFE70000FD0300000122D207002800DB03
:10481000101A002900DB511A814201D8012070478B
:10482000002070470122D207002800DB101A00295F
:1048300000DB511A814201D20120704700207047ED
:104840000122D207002800DB101A002900DB511AD0
:10485000814201D301207047002070470122D20716
:10486000002800DB101A002900DB511A814201D90F
:10487000012070470020704710B5002904DB0C466A
:104880000121C9074042A141002B04DB1C46012342
:10489000DB075242A341101A8B4101D2012010BD07
:1048A000002010BD10B5002904DB0C460121C9070A
:1048B0004042A141002B04DB1C460123DB0752428E
:1048C000A341101A8B4101D3012010BD002010BD5F
:1048D00010B5002904DB0C460121C9074042A14163
:1048E000002B04DB1C460123DB075242A341801A44
:1048F000994101D2012010BD002010BDC217C10F87
:10490000504010B54018CA07962300210BF0D6F985
:1049100010BD00000EB5C217C10F5040CA074018A5
:104920000021054B0293019200910A460B4600F0CC
:1049300030F903B000BD0000330400000EB5054996
:104940000291002100910A460B46019100F021F9E5
:1049500003B000BD33040000C20F41004002012338
:10496000400ADB05D207090EC0187F2901DA0020B2
:104970007047962903DC9623591AC84001E09639FE
:104980008840002AF4D040427047000070B5CD0F37
:104990004A0009030123090B1B0519430B4BED07C3
:1049A0000024520D9A4201DA002070BD074B3433C7
:1049B0009A4203DC9A1A00F079F802E0044951188F
:1049C00088402C43F1D0404270BD0000FF0300003E
:1049D000CDFBFFFFC20FD207400040080BD0C10D36
:1049E0000723DB01C91840020905400A1143C20828
:1049F00040071143704700200146704770B50446D8
:104A0000002903D000202022012310E0002801D03B
:104A10000020C043C046C0460DE02546D5408D422B
:104A200005D30D469540641B1D469540401915461B
:104A3000521E002DF1DC214670BD000070B500252E
:104A400004462E46002911D0002C01DA01254442EB
:104A5000002901DA012649422046FFF7CFFFB5427F
:104A600000D04042002D00D0494270BD002C02DA37
:104A70000121C90702E0002C00DD03490846C046B9
:104A8000C046214670BD0000FFFFFF7F10B5202A01
:104A900004DB0146203A9140002010BD91402023C4
:104AA0009C1A0346E3401943904010BD10B5202ADC
:104AB00004DB0846203AD040002110BD0B46D3400D
:104AC000D0402024A21A91400843194610BD10B5C9
:104AD000202A06DBCB170846203A1041C1170B43AA
:104AE00006E00B461341D0402024A21A914008430F
:104AF000194610BD10B5024900F004F810BD0000C1
:104B0000F840012070B50C4600683C21FFF776FFA5
:104B100021603C21FFF772FF61601821FFF76EFFF3
:104B20000546A1600721001DFFF768FFA1610F483E
:104B3000A90008180E49FFF761FF024644328808B1
:104B40006261E0613B2802D3910700D0401C002144
:104B5000084B0A462161995C814203D8401A521CD5
:104B60002261F8E7401CE060204670BD6C0B00003D
:104B7000B5050000C009012010B5002B08DA00249B
:104B8000401C614192185B411A4301D1400840002A
:104B900010BDF0B51FB482B005460C0003D0084626
:104BA0000BF0A6FE02E00BF0A3FE203002460090C0
:104BB00021462846FFF76AFF049B059A04460F46E4
:104BC00018431143084314D0184610431BD00098D3
:104BD00040210A1A18460599FFF768FF05460E4658
:104BE000009A05990498FFF751FF084305D001206A
:104BF00004E02046394607B0F0BD0020C117054348
:104C00000E432C43374300990E986305401A7905EB
:104C1000E40A00220C43FD0A0A3002D500200146B6
:104C2000E9E70105101969410C9C0D9D00196941C6
:104C3000FFF7A2FFDFE700004A0009030123090B89
:104C40001B0519430A4B10B5520D9A4202DA002097
:104C5000014610BD064B34339A4203DC9A1AFFF723
:104C600025FF10BD034BD218FFF710FF10BD000049
:104C7000FF030000CDFBFFFF10B5002904DB01247A
:104C8000E40740428C412146002B04DB1C460123F3
:104C9000DB075242A341994200D1904210BD00006F
:104CA00030B58C180278401C13071B0F01D1037814
:104CB000401C120906D10278401C03E005780D70F3
:104CC000401C491C5B1EF9D101E00B70491C521EAF
:104CD000FBD1A142E6D3002030BD000070B582B008
:104CE000114C20460AF0F6FF01AD204629460AF095
:104CF0006DFF297820460AF06FFF2878800611D0D2
:104D00006D46204629460AF0EBFF084802682988CC
:104D1000074E3046904729883046FFF7FCFA204678
:104D20000AF0E4FF02B070BDC0810050F44F0120D2
:104D3000287C012070B582B00020019000900120F5
:104D400044020D4D01AE2846214632460AF0D4FFFA
:104D5000284621460AF0D6FF7078800709D56A46B2
:104D6000284621460AF0D4FF0098414241410348B9
:104D7000017002B070BDC04680B00460C66A0120F8
:104D8000014800787047C0462841012015460C466E
:104D9000064601F059FCEFF308811D480BF07CFD3D
:104DA000300701D51C4800E01A480CF083FA0420B3
:104DB000064001D01AA000E018480CF07BFA1CA0B5
:104DC0000CF078FA002E00D02C4621681CA00BF0C5
:104DD00063FD61681EA00BF05FFDA16820A00BF0D1
:104DE0005BFDE16822A00BF057FD216924A00BF0C8
:104DF00053FD616926A00BF04FFDA16928A00BF0BF
:104E00004BFDE1692AA00BF047FD01F0F1FBFEE745
:104E1000A20B0120E90B0120CA0B0120DB0B0120B2
:104E20005573696E67207533325073702E00000021
:104E3000537461636B206672616D653A0000000017
:104E4000523020203A203078253038580A000000AF
:104E5000523120203A203078253038580A0000009E
:104E6000523220203A203078253038580A0000008D
:104E7000523320203A203078253038580A0000007C
:104E8000523132203A203078253038580A0000005C
:104E90004C5220203A203078253038580A00000043
:104EA000504320203A203078253038580A0000003E
:104EB000785053523A203078253038580A00000094
:104EC00080B50AF02BFF80BD14460D46064601F062
:104ED000BBFB04A031462A4623460BF0DDFC01F063
:104EE00087FBFEE74E4D495F48616E646C65723A20
:104EF00020253038582C20253038582C20253038A3
:104F0000580A0000F0B58DB0002630460AF00CFFBC
:104F1000984F0125384629462A460AF00BFF3846A5
:104F2000294632460AF00CFF6C04384621463246C8
:104F30000AF000FF38460494214632460AF006FF84
:104F40006C053846214632460AF0F4FE38462146C2
:104F500032460AF0FBFE07A803900680864F3E7299
:104F60008820F8800C2038718448386006A80290A8
:104F7000068017200AF0F0FE0E2130460AF0F2FEFD
:104F8000A8037F490860FF2109047E4A13688B4308
:104F900003218905591811607B4908607BA008A985
:104FA0000A4628C828C238C838C27D4D28460AF0AB
:104FB000DFFE042128460AF0E1FE022128460AF01D
:104FC000E3FE28460AF092FE4221384607F0CCFC68
:104FD00008213846039A07F043FC80213846029A9C
:104FE00007F03EFC6F4F387800280AD103E0701CB0
:104FF000132E064605D264200AF02AFE38780028CF
:10500000F5D002200AF090FE01250024594E3046CA
:10501000294622460AF08EFE3046294622460AF0EC
:1050200095FE3046049D294622460AF083FE30460E
:10503000294622460AF08AFE07A8008841424141DB
:105040003878424242410A4306A800884142414121
:10505000114308D053208200714855490BF01CFCC5
:1050600000200DB0F0BD504E2046315B4018A41C0E
:10507000C82CFAD16421FFF7C1FC054607A80580BA
:10508000002108467218C823D25A8018891CC829E2
:10509000F8D16421FFF7B2FC06A908800E460491FE
:1050A000ABB253208400224608324048404D294686
:1050B0000BF0F2FB3388224609323E4829460BF0BA
:1050C000EBFB08AF00263E8005AD2E8007A80288C6
:1050D000294808213B4607F05BFC049802888021A0
:1050E00025482B4607F054FC3B88224611323248B3
:1050F0002F490BF0D1FB2B88049412342FA02C499C
:1051000022460BF0C9FB3F882888C01BFFF702FC32
:10511000354B3246FFF798FA04460D463846FFF7FE
:105120000DFC02460B4620462946FFF7F5FA0746D6
:105130000C4632463346FFF79FFB0028354600D128
:105140003D460028374600D12746284B2846394699
:105150003246FFF7E1FA00900191049A1A3224A036
:1051600013490BF099FB28463946FFF70FFC0DB0A9
:10517000F0BDC04680B00460E899012000040260E0
:1051800080E200E00CE400E000E100E000040260E6
:10519000448D0120E8030000080169012900000096
:1051A000008100502B7E0120B08B012017270120A9
:1051B0009229012054270120B91B01205B25735D32
:1051C0005B25645D203A204869676820566F6C74DF
:1051D000616765205265666572656E63653A202574
:1051E00075206D560A00000000607D4000002440DC
:1051F0005B25735D5B25645D203A2043616C6375BC
:105200006C6174656420526573697374616E636563
:105210003A20252E3166204F686D730D0A0000007C
:10522000EC1A012010B582B001AC20460AF0B2FDA4
:1052300001980AF0B5FD6078000601D502F066FC21
:1052400001A84078400602D502480AF0AFFD02B03E
:1052500010BDC046CC800000F0B585B00025039598
:10526000434C04AE204631460AF0A6FD30880821A2
:10527000014001200190C707002907D020460AF00D
:10528000A1FD64200AF0E4FC3A480760032103AA68
:1052900020460AF09DFD3848046804E0304609F0D5
:1052A000B3F834480760002C22D02646A46A307D2B
:1052B0000028F3D1707D0028F0D1B07D0228F2D112
:1052C00002A92B480AF08AFDB168F268029891425F
:1052D00004D28842E7D3904204D3E4E7904201D35A
:1052E0008842E0D3F1690029D8D0306A8847D5E7F1
:1052F00021480168002923D00020039A054603E0D5
:105300003546896A00291CD08B7D022BF9D18B6828
:10531000C4070AD0CC6895420AD2AB421E4600D3DD
:105320002E46A342ECD31E46EAE71D460198E8E765
:10533000AB421E4600D32E46A342E1D22E46DFE703
:10534000284603996A1A51425141C007084803D0C0
:10535000002904D005B0F0BD01990029FAD103213C
:105360002A460AF041FD0348076005B0F0BDC0467B
:105370000030056000E200E0889A012070B582B03C
:1053800000246D46204629460AF034FD297820463F
:105390000AF036FD2878002840D0022001A90AF042
:1053A00035FD019D002D36D0204C214E13E0052007
:1053B00029460AF005FC02200AF02EFD00200AF022
:1053C0002BFD01200AF044FC022001A90AF01EFD79
:1053D000019D002D1FD000200AF024FD0028F0D1EF
:1053E000284606F029FA00281AD12846214606F058
:1053F0002DFA0228E5D13268002ADFD02168201D6D
:105400009047054602200AF00DFD0028CFD001206C
:105410000AF01EFCF6E707A00BF04CFF02B070BDCF
:1054200000200AF0F9FC02B070BDC046C897012008
:10543000D89901205468652072782071756575656A
:10544000206964206973204E554C4C0080B5064895
:1054500001210A460AF074FCE3204200034804A13B
:105460000BF01AFA80BDC04600B00460E92A0120A2
:10547000536C656570416665000000000148024993
:105480000160704708ED00E00030002080B582B078
:105490000F4803880F481818A02804D81EA00BF046
:1054A00009FF02B080BD0CA013A1184A0BF0F4F95B
:1054B00005F01EFB4B21C904019115490091694675
:1054C0000AF0B6FC13480BF0F5FE02B080BDC046F2
:1054D000BE72012030FDFFFF5B25735D5B25645DBF
:1054E000203A20436F6E6E496E74762054696D6564
:1054F000722025640A000000557064617465436F72
:105500006E6E496E747654696D6572009508000080
:1055100020032003AA28012054686520636F6E6E63
:10552000656374696F6E20696E74657276616C2054
:1055300069732077697468696E2074686520726188
:105540006E6765206F66203930306D7320746F2070
:10555000313130306D73000010B582B00020019001
:10556000104C012101AA20460AF068FC019800288D
:1055700007D1012120460A460AF0E2FB64200AF026
:1055800063FC0121002220460AF0DAFB32200AF0F7
:105590005FFBFF22C03204A013A10BF07DF902B023
:1055A00010BDC04600B004605B25735D5B25645D83
:1055B000203A20494F204353206F75747075742032
:1055C0006C6F772C2077616B657570206166652C38
:1055D0002064656C6179207761697420616665205B
:1055E00072656164790D0A0057616B65557041669B
:1055F00065000000F0B583B002AC284D2580FF2483
:105600002403002814D0019119461346A41C002538
:10561000234A57193E79864207D0FE88A419A41C54
:105620002D1D242DF5D10022D4431A460B46019995
:10563000651C11D06118CD18AE1C8000184D2818BB
:1056400040882018801CB0420DD220A01E4988221C
:105650000BF022F901251DE028481B4981220BF09F
:105660001BF9012516E0881C002511461A462B4619
:1056700004F070FE002806D005460AA012498F22C9
:105680000BF00AF906E0089B02A90222204604F06A
:1056900061FE0546284603B0F0BDC0465A5A0000D8
:1056A0007A0B01205B25735D5B25645D203A204DFC
:1056B0004D552057726974652044617461204661BC
:1056C000696C65640A0000005C0C01205B25735D59
:1056D0005B25645D203A204D4D55205772697465F5
:1056E0002044617461204265796F6E6420456E6468
:1056F00020416464726573730A000000220C01206B
:1057000070B5184C0020E072A07260722072E071D7
:10571000A071607120710421E170D121A1700D216F
:105720006170552121700146225C5118401C0C28E3
:10573000FAD1484220730D21204609F06BFE0AA0E1
:1057400010A19A220BF0A8F80026124DA15D284660
:105750000BF0A2F8761C0D2EF8D10FA00BF0AAFDCD
:1057600070BDC046D2CD01205B25735D5B25645DB5
:10577000203A205374617274204D656173757265AF
:105780003A20000073746172745F6D6561737572A5
:10579000650000008B1101200D000000F0B5C5B0C0
:1057A0008B2002010E921F32CDA0DD490BF074F860
:1057B000DCA014AA114638C838C138C838C1052041
:1057C00010210AF047FBDD490860002802D1DCA067
:1057D0000BF070FD05F09CFDDF49086000280E9A73
:1057E00004D12532DD48CE490BF056F8DC4EDD48B9
:1057F0007080DD483080FF2108463830F0800D9100
:1058000008460A30B08000250F9508F06DFC304640
:1058100002F08CFAD54F0A243C873D850FAA04205C
:105820002946034605F0BCFE0125EA0200280A9538
:105830000C920B9424D00F32CD48CE490BF02CF8AB
:105840003088F88570883886B088788638462E305B
:10585000B17981710FAC3046214602F0BBFC009556
:10586000002104202246034605F06EFF00283D4635
:105870001BD00C9A1632C048BE490BF00DF814E04C
:10588000D21DBE48BB490BF007F80F9814AC214657
:1058900002F0BEFB1498F8856088388615987886E3
:1058A00038462E30A17981713D462F462E370D980E
:1058B00038728020F8713388B078F1783279747951
:1058C000B679009001910292039404960C9C2246B2
:1058D0001F32AB48A7490AF0DFFFEB8DB878F978A3
:1058E0003A797D790997BE7900AF67C72234A54818
:1058F000A04922460AF0D0FF02F0C6FD072000268C
:10590000A14D042331462A4605F04AFE002812D054
:105910000346222824D12E600A9F1497009707205F
:1059200014AA0423314605F00FFF00280E9C21D055
:10593000224632320FE02868401C14900A9F0097DC
:105940000720002114AA042305F0FEFE00280E9C67
:1059500010D0224642328D4871490AF09DFF09E07D
:10596000F04328600E9C2246383289486C490AF080
:1059700093FF0A9F2B6822464532864868490AF001
:105980008BFF08200021844D04232A4605F008FEE1
:10599000002810D00B9828600097082000210423CD
:1059A0002A4605F0D1FE002805D022464E327B481B
:1059B0005B490AF071FF2B682246513278485849FA
:1059C0000AF06AFF09200025764E04232946324654
:1059D00005F0E6FD002810D03C203060009709203B
:1059E00000210423324605F0AFFE002805D02246F0
:1059F0005A326D484A490AF04FFF336822465D32F9
:105A00006A4847490AF048FF05F000F902F02CF80F
:105A1000674801F087FE1995189517951695159505
:105A20001495052014AA1723294605F0B9FD00286E
:105A300005D061485F4922460AF02EFF0AE0221D88
:105A4000FA48F94914AC23460AF026FF20460E9C7A
:105A500002F04EF9454D062000260FAA02230690BB
:105A6000314605F09DFD002806D022460A32F7484F
:105A7000ED490AF011FF13E00FAC2088FEF75EFF3E
:105A80000022F34BFEF7E0FD009001910E9A0F32D9
:105A9000F048E5490AF000FF20880E9C02F014F956
:105AA00002F0E0F801F0EEFAEB4801F03DF8EB48C7
:105AB00009F0C6F9EA4806F0A5FBEA48EA49EB4ACC
:105AC0000260416001F048FA2E62E949284602F07E
:105AD0000BFC002872D0E7A00BF0ECFB45B0F0BD4A
:105AE0005B25735D5B25645D203A202D2D2D2D2DCA
:105AF0002D2D2D2D2D2D2D2D2D2D43474D2050722B
:105B00006F66696C65204578616D706C652D2D2D13
:105B10002D2D2D2D2D2D2D2D2D2D2D2D2D0A000032
:105B2000682901209728012000000000D072012080
:105B3000340000000473012018010000C86A01202D
:105B4000637265617465204170704D7367496420AC
:105B50006661696C65640000D46A0120D720012069
:105B60008E710120031F0000E907000098710120D9
:105B700053220120072A01201C1701207E22012028
:105B8000F91801203D190120E43001202A200120CC
:105B9000DC1B0120E827012024410120F61F012001
:105BA000C02701205C410120292301205B24012022
:105BB000E9680020C7280120AC220120B24809F082
:105BC000C5F9002805D07F34B048B14922460AF013
:105BD00063FEB0481621079109F01CFC08F074FB25
:105BE000AD48AE4A394600F0A1FEAD48AD4A314657
:105BF00000F09CFE7D02AC4802240B94294622460C
:105C00000AF098F8A848294622460AF09FF830463C
:105C100007990AF0A7F80423A348294622460AF068
:105C20001FF9204631460AF021F99F4C204608957D
:105C300029463A460AF020F90E20072339462A461B
:105C40000AF020F9204629460AF05CF82046294649
:105C50000AF01EF9B805F54908600D990904F44ADF
:105C600013688B430321890559181160F8490860AE
:105C70002546803C204639463A460AF05BF82046E5
:105C8000394632460AF00AF9204639463A460AF0C1
:105C900057F82846394632460AF04CF82846394625
:105CA00032460AF053F87C042846214632460AF070
:105CB00041F8284621460E9C32460AF047F828460D
:105CC0000C9D29463A460AF035F87748294632466F
:105CD0000AF0E4F8744829463A460AF031F804F02C
:105CE00087FF30460AF020F86F480B9932460AF0D9
:105CF0002DF8384614AF31460596BE723E81050236
:105D0000FD800C2038710FAE3180E44814902120C2
:105D10000101384606F028FE38462946324606F08C
:105D20000BFE3388089A483ADD48DE490AF0B4FD94
:105D30000B9809F0F9FF3188DB480180DB480AF055
:105D4000ABFDDB48808BFFF7DDF804F089FDD94916
:105D5000088081B2D8480AF09FFD7D20C0000790DE
:105D60000598C743D54D0B9705E02246AE32D4487F
:105D700047490AF091FD28680FA9002632463B46A4
:105D80000AF092F80028F0D10FA800780228CD4937
:105D900017D0012839D00028EDD10FA84078052868
:105DA00000D19DE0022800D1ACE00128E3D104F04D
:105DB0009FFEC549888000223948C44900F02EFE64
:105DC000D9E7EFF31086EFF3108072B6C04C20686D
:105DD00005F003FB0546206814AC21462A4605F071
:105DE000D9FA86F3108804F083FE21462A46B94B7F
:105DF00005F0F4FD002805D00C9AA43AB648B7493E
:105E00000AF04AFD0E9CAD4DB5E70FA84078421E42
:105E1000062A00D97DE0119F3D46303538463B309B
:105E2000930003A2D2589746C72801208B24012053
:105E30008D55002001560020AF560020D15600207D
:105E400015570020575700201B580020D82201204A
:105E50000000E43F9F260120E5A00020FDDB00209C
:105E60001DB7002068720120CD660020AD650020BE
:105E70005D7E002043474D5320496E697420466182
:105E8000696C65640000000035E7002057170120A9
:105E900068290120A1170120EC7101202180002038
:105EA0001C7201206D4B002080B00460AB7A8C4ADC
:105EB0001E328C480AF0F0FC8348007F00287F4D9A
:105EC0000B9F00D157E7884E304600F0CDFD874844
:105ED0000168079841430022304600F09FFD4AE7E1
:105EE0001198808882490880282800D043E704F070
:105EF00073FE002800D13EE7002008F0ADF900F065
:105F0000A9FD38E77A4806806F48868008F0DCF9FA
:105F100031E70C9ABF3A774877490AF0BDFC2AE787
:105F2000A87A002800D142E1744E30460C4601F0B8
:105F300037FF3088F885274670882880B0886880C9
:105F4000B079287114AC3046214602F043F90A9822
:105F50000090002104202246034605F0F5FB0028AE
:105F60005F4E04D06648394632460AF095FC02F08E
:105F7000B5FB04F035FE5C4C204600F075FD5B4837
:105F80000168079841430022204600F047FD0A3689
:105F90005C48394632460AF07FFC4B48C38D099E67
:105FA000B078F17832797479B679009001910292E3
:105FB000039404964A4C22460D32534839460AF05F
:105FC0006BFCAB7A22460E3250483946EBE0444D2A
:105FD0002A4616324E480E460AF05EFC00203885EE
:105FE000414800F041FD2A4619324A483146E1E075
:105FF0000D9702784078401E0528089200D9DEE00F
:106000004000C04678448088400087440500E00096
:10601000F400080124012E01314A3E323E483F4936
:106020000AF03AFC0D9802F0D9FE27E180E200E088
:1060300014E400E00D97407814A90E80401E052856
:1060400000D938E103A14000085A40008744C04607
:1060500000E100E008003E01530168018501900164
:106060001F4A80322E482D490AF016FC14A90D98BB
:1060700003F068FA86E10D974178491E052900D999
:106080009BE10278089249007944898849008F444D
:1060900049009E01B101C401E101EC010000026070
:1060A000AB1601205C290120B07201208F2701204E
:1060B00028410120BC720120A4270120C86A0120C8
:1060C00088190120C429012098710120B80B000013
:1060D000D46A0120C9AF0020B12001209A290120F3
:1060E00015060000FD250120EC710120244101204E
:1060F000BE720120F8260120DC2901208E710120CA
:1061000077200120E22301203D190120562601209D
:10611000BF230120E8170120D2250120AC2901204E
:106120009D250120EF4ABC32F548F0490AF0B4FB46
:106130000D9C204602F004FEA1E1F98D14A8018017
:10614000298841806988818029798171139613ACEF
:10615000214602F03FF80A9800900420314622467A
:10616000034605F0F1FA00280C9EF54C05D03246A6
:10617000CA3ADA4821460AF08FFB3246C73AF1485C
:1061800021460AF089FBD448C38D099DA878EF7891
:106190002A7921466C79AD790090019702A834C024
:1061A0003246C43ACE480AF077FB0E9C04E0CD4A52
:1061B0001132E2480AF070FBC64D0B9FDBE5C94A7D
:1061C0006332D248C9490AF067FB334657E00D9D58
:1061D00028463E30002109F06DFE0446C14A453292
:1061E000D548C24923460AF057FB284621460E9C53
:1061F00003F020F942E00D9D28463E30002109F0D1
:1062000059FE0446B74A4C32CA48B84923460AF0F8
:1062100043FB284621460E9C02F05AFF2EE00D9DBE
:106220002C463E340021204609F044FE0746022158
:10623000204609F03FFE04460090AA4A5432BC486A
:10624000AA493B460AF028FB2846394622460E9CBE
:1062500003F0E4FB12E0A34A5932B448A3490AF020
:106260001BFB0D9802F060FE08E09E4A5E32AE48CD
:106270009E490AF011FB0D9802F0FCFF0346954D74
:106280000B9F222B07D0042B0D9800D117E1002B78
:106290000ED1012300E0062306210D98089A03F091
:1062A0004DFC00280D9800D109E18E4A7432FFE0C0
:1062B0008C4A6E3207E18B4AA53294488B490AF02A
:1062C000EBFA844D0B9F0D98467754E50D9D2846BB
:1062D0003E30002109F0EEFD0446824A87329048A4
:1062E000824923460AF0D8FA14AA284621460E9C71
:1062F00003F030FA46E00D9D28463E30002109F0BB
:10630000D9FD0446774A8E328448784923460AF0FC
:10631000C3FA14AA284621460E9C03F075F931E011
:106320000D9D2C463E340021204609F0C3FD074652
:106330000221204609F0BEFD04460090694A9632CB
:1063400075486A493B460AF0A7FA14AB2846394615
:1063500022460E9C03F06CFA14E0624A9B326D48B0
:1063600062490AF099FA14A90D9803F017F909E0A7
:106370005C4AA03266485D490AF08EFA14A90D986D
:1063800003F0B0F9534D0B9F042800D194E014ACF6
:106390002388544AAC32634854490AF07DFA208875
:1063A0000E9CC2B2030A05210D9803F0C7FB00281A
:1063B00000D181E04B4AB0327AE04A4AE132534898
:1063C0004A490AF069FA434D0D980B9F77E00D9DFD
:1063D00028463E30002109F06DFD0446414AC33293
:1063E0004648424923460AF057FA2846214602F019
:1063F00093FF2CE00D9D28463E30002109F05AFD08
:106400000446384ACA323C48384923460AF044FA1E
:106410002846214602F0D0FD19E00D9D2C463E3461
:106420000021204609F046FD07460221204609F0DA
:1064300041FD044600902B4AD2322E482B493B4660
:106440000AF02AFA28463946224603F059FA03464A
:10645000284616E0234AD732254824490AF01CFA78
:106460000D9C204602F01CFD09E01E4ADC321E484D
:106470001E490AF011FA0D9C204602F0B1FE0346B7
:106480002046144D0B9F222B069C05D0042B0E9CFE
:1064900015D0002B15D10A9C06210D98089A234689
:1064A00003F04CFB00280D980E9C08D00D4AF232E8
:1064B00014480E490AF0F0F90D9846775BE44677E8
:1064C00059E4084AED32104808490AF0E5F90D98F8
:1064D000467750E4C86A0120987101201C170120FA
:1064E0003D190120150600001D210120AC290120C5
:1064F000A8210120F11C0120E31D0120771D0120AE
:1065000072250120F6160120D4160120392401201D
:1065100048210120D42101202F1D0120141E01201B
:10652000A81D0120701801207D2101200A220120D0
:10653000D22401204125012010250120062401201C
:10654000DC2901207517012070B55B4D2968594E73
:1065500030680024224609F0EDFB306829682246A5
:1065600009F0F4FB514801685148814201D02D20C7
:1065700000E02C2003225207914200D12B2009F089
:106580009FFC70BD70B5032465071024AA4205D096
:10659000B44DAA4202D0464DAA4219D180250543E6
:1065A000AF4EB54214D1049C244D2C60002C04D075
:1065B000244C00252580224C25803E4C20603B4801
:1065C00002603D4801603E48036000F03DF804462B
:1065D000204670BD1B48008819490988081A4142A5
:1065E0004141164802685042504108437047C04636
:1065F000F0B581B0114C2068002805D0104D2888D6
:10660000104E3188884201D101B0F0BD274F04E01F
:10661000288081B232889142F6D080B22168096820
:10662000095C386809F052FC206881882888401C81
:1066300082B28A42ECD30020EAE7C046DC9901200E
:10664000949A0120929A0120F0B583B0174D2868E2
:1066500003214907884205D01549884205D10824FD
:106660002C2004E004242B2001E00C242D2009F030
:1066700073FB104E3068104F3968224609F02CFC2D
:10668000002801D003B0F0BD39683068022209F05B
:106690005DFB0028F6D10948029009480068019086
:1066A000286801A909F01EFC03B0F0BDE49901209F
:1066B00000040060E0990120A09A0120213001012E
:1066C000A49A012070B584B0282009F045FB0A2067
:1066D00009F042FB0B2009F03FFB0C2009F03CFBCA
:1066E0000D26304609F038FB0E2009F035FB0F204F
:1066F00009F032FB102009F02FFB352009F02CFBAC
:10670000112009F029FB122009F026FB0024204665
:106710002146224609F0ECFB09F0F0FB09F0F4FBFE
:1067200000F03EF90325142207233046294609F0DC
:10673000F1FB01263003494988800094B102E12031
:1067400003034748474AFFF71DFF47A053A156A23E
:106750000AF0A2F803F050FD04F0B6FD1721204620
:1067600009F000FBF00553490860FF210906524A71
:1067700013688B4313605149086002205049514A05
:1067800004F0CCFE50480AF095FD50A00AF092FDAE
:1067900001A8294603F022FD002805D05648574994
:1067A000F8220AF079F850E055A05449FC220AF08A
:1067B00073F8594D01A8015D28460AF06DF8641C74
:1067C000032CF7D10A200AF06DFD02A8062103F080
:1067D000F8FC41218C00002805D05048474922464A
:1067E0000AF05AF831E0221D4D4844490AF054F8A5
:1067F0000026494D02A8815D28460AF04DF8761C16
:10680000062EF7D10A200AF04DFD02A8062103F05A
:10681000CBFC002806D00C344248384922460AF006
:106820003BF812E010344048344922460AF034F86C
:106830000025394C02A8415D20460AF02DF86D1C58
:10684000062DF7D10A200AF02DFDFEF7A7FF09F06B
:1068500067FB09F06BFB04B070BDC046707201208D
:1068600080B00460000800605B257320542025730D
:106870005D626C65207065726970686572616C201C
:1068800070726F6A65637428637029207374617213
:106890007420746F20776F726B2E0A004D6179201F
:1068A000313520323032350031333A34343A3030F9
:1068B0000000000080E200E014E400E000E100E0FD
:1068C000D5AB0020C5AB0020911101202D2D2D2D21
:1068D0002D2D2D2D4265666F7265204465766963A6
:1068E0006520496E666F2057726974652D2D2D2DB8
:1068F0002D2D2D2D00000000D1100120DA110120D6
:106900005B25735D5B25645D203A20446576696391
:1069100065204944203A2000891101201F110120DF
:106920004C110120F31001206B110120B0B503467A
:106930001020002B22D0012920D8EFF31084EFF390
:10694000108572B69D7D002D02D084F31088B0BDF5
:1069500000209862DA611976012199752D490A683B
:10696000002A02D10B600021D9622B490A68002A53
:1069700001D09362DA620B6084F31088B0BDC04628
:1069800001461020002909D08A7D002A06D0012264
:106990004A750020C875D1073B4A11607047C04650
:1069A000F0B581B0052009F0D7F9294D002428461B
:1069B000214609F0C1FA0127F80713490860FF26AC
:1069C0003106124A13688B43032189075918116055
:1069D0000F4908601F21204609F0C4F979022846B2
:1069E00009F0B0FA0821284609F0B2FA28463146E3
:1069F00009F0B4FA284609F0B7FA064804600648D8
:106A00000460204601B0F0BD80E200E01CE400E03C
:106A100000E100E0889A01208C9A012010B504461C
:106A20001020002C13D0A37D002B10D06262616077
:106A300021461031064809F0D1F90220E075FF2007
:106A40000230A0820120C0070F490860002010BD5D
:106A50000030056080B54B20010102480022FFF79D
:106A6000DDFF80BD7872012001461020002909D089
:106A70008A7D002A06D001204875C875C0070249E2
:106A8000086000207047C04600E200E084B0104C6F
:106A9000104D04E0621C81B2104609F06BFA2868C0
:106AA0000022D34301A909F0FFF90028F2D101A87F
:106AB00009F066FA02990029F1D00398002802D063
:106AC00009F064FAEBE7204609F070F9E7E7C04601
:106AD00002600000DC41012080B50A460021FFF77A
:106AE00025FF4142484180BD80B5FFF749FF414243
:106AF000484180BD80B5FFF791FF4142484180BDCC
:106B000080B5FFF7B1FF4142484180BD3E48008853
:106B1000421A50425041354A12888A4201D0400000
:106B2000704701207047C046B0B582B000282ED013
:106B30002F49086018490025184B28462A4605F0B9
:106B400001FE0124002823D00095019589204300EF
:106B5000134928462A4605F089FD24490880002863
:106B600016D009F019FA28490880002810D00D48DD
:106B7000022100252A462B4609F014FA002807D0E6
:106B800005F0A6FD2148012101702C4600E01024EB
:106B9000204602B0B0BDC0460F1800008C30012066
:106BA000192A000008290000B0B51D460F480088CA
:106BB00088420BD10124002D14D00D480068804775
:106BC000642800D3642028702046B0BD0E48008899
:106BD000884209D10224002D04D0002068700B489F
:106BE000007828702046B0BD0020B0BD887101201B
:106BF0008071012004480088884203D10098007801
:106C000002490870002070478A7101208C710120B0
:106C1000F0B593B07F48012109F0CAF90026002899
:106C200000D1DBE07C4809F0C9F9002800D1D5E0AB
:106C30007A4809F0C9F9002800D1CFE0784801244A
:106C4000214609F0C7F9002800D1C7E004200090D0
:106C50007448754A10210B4609F0C2F9002800D18A
:106C6000BCE07248062109F0C1F9002800D1B5E066
:106C70006F48022109F0C0F9002800D1AEE02502DA
:106C800000206C496C4A131859601D8149191C3049
:106C90007028F8D100206949694A131859602826DC
:106CA0001E8128311C307028F7D166480D9065A0F0
:106CB00041688268C06810900F920E910DA809F08B
:106CC000A1F9002800D186E001940020614A624BBE
:106CD0001918CA600D82412189005218303060288D
:106CE000F6D10395BF20C5435C4F28465C4A141873
:106CF000CC22A750D023E6522C373030F6D1029266
:106D00000024584F58480019C7600A460399018269
:106D10001146BF183034602CF4D15449544C029AB7
:106D200060198150C6522C313035F9D151A104A8D7
:106D3000024678C978C278C978C209F069F9002892
:106D4000039C4AD000205349534A13189C819960F0
:106D5000091920304028F8D14F480222214609F075
:106D60005DF9002839D000204C494D4A11501318C4
:106D70009C80091910302028F8D149480222214668
:106D800009F052F90026002828D046480DAA1146DD
:106D900038C838C138C838C14020082109F05AF82D
:106DA0004149086000281CD0404804AA114638C850
:106DB00038C138C838C138C838C13D4800263146C6
:106DC00009F038F907463B480760002F0DD03A48D4
:106DD00009F036F90CE0002600E00026304613B03A
:106DE000F0BD39480AF066FAF8E734480AF062FA6A
:106DF000019C002FF2D009F029F90398F43009F032
:106E00002BF92F482F4909F02DF909F031F92646C1
:106E1000E4E7C04628550120F8570120C05601205C
:106E200098500120705A0120805A0120805C012076
:106E3000105A0120B0600120E0580120C0680120F4
:106E4000905A0120E058012000010400905A0120CE
:106E500028000400B8660120B0590120106A012002
:106E6000C05B0120B06401205059012060690120FD
:106E7000005B0120B059012000010200C05B01202D
:106E8000280004005059012000010200005B01208D
:106E900028000400B05C012058500120B05E0120A1
:106EA00008550120F0090120AC7E0120CC09012009
:106EB00079AB0020747E0120D1D800205E0E012025
:106EC000AC0D0000B80B0000470E0120F0B585B0F6
:106ED0000646144D284600F063FF002737722888C5
:106EE000308068887080A888B080E888F0800EA024
:106EF0001749184E324609F0CFFC2C88A878E9785B
:106F00002A796B79AD7900900191029203930495EF
:106F1000B21C57480E49234609F0BEFC384605B05E
:106F2000F0BDC0468E7101205B25735D5B25645DFD
:106F3000203A2043474D2043545320476574205343
:106F4000797374656D2054696D650D0A0000000049
:106F5000E02801203A080000B0B582B010240028D3
:106F60002ED0016800292BD0174A1160174901243F
:106F70000C7040681649086016490025164B2846D3
:106F80002A4605F0DFFB00281AD0009501958D20D8
:106F90004300124928462A4605F068FB104908803C
:106FA00000280DD008F0F8FF0E490880002807D00F
:106FB00005F08EFB0C48417A01220A4342722C46AE
:106FC000204602B0B0BDC046607201205E72012052
:106FD0006472012005180000A43001202B2A000053
:106FE000587201205C7201204C720120F0B585B00E
:106FF0000188124C2180418861808188A180C088ED
:10700000E080204601F0AEF80DA0174D174E29463E
:10701000324609F041FC2388A078E178227967792B
:10702000A47900900191029203970494B21C104835
:10703000294609F031FC002005B0F0BD8E71012019
:107040005B25735D5B25645D203A2043474D2043FB
:107050005453205365742053797374656D205469BB
:107060006D650D0A00000000FA2801205308000099
:10707000F918012062480088401A41424141C80085
:107080007047C046F0B583B043490025434B2846BE
:107090002A4605F057FB002867D00095019581200E
:1070A00043003F4C284621462A4605F0DFFA0028D7
:1070B00060D0534908800D2001903A480090611C2F
:1070C00000200223024605F0D1FA002857D00E26F0
:1070D000019635480090A11C0025022328462A4627
:1070E00005F0C4FA00284FD0122701972F480090CE
:1070F000E11C0296022628462A46334605F0B6FAD7
:1071000001972B480090211D28462A46334605F05A
:10711000ADFA019727480090611D28462A4633465C
:1071200005F0A4FA019724480090A11D28462A469C
:10713000334605F09BFA0298019020480090E11D2B
:1071400028462A46334605F091FA072001901C484C
:1071500000902D34284621462A46334605F086FA0B
:1071600005F0B6FA08F08AFF12E016480AF0A2F815
:1071700001250DE013480AF09DF8012508E01148AB
:107180000AF098F8012503E00E480AF093F801256B
:10719000284603B0F0BDC0460A1800000C0A0120C2
:1071A000232A0000880A0120980A01204C0A0120A5
:1071B000600A0120A80A0120740A0120300A012077
:1071C000DD300120280E012010B50D4800888842CE
:1071D00014D10820002B10D00A490A684968197197
:1071E0001A700C0EDC710C0C9C71090A5971110E8D
:1071F000D970110C9970110A597010BD002010BD82
:10720000989A012000AD0120B0B584B013460C4619
:10721000EFF305856946487000220A7002940193D5
:10722000002D01D0134600E0D3430A48006808F05F
:107230002BFF00280CD0034607480849084C22467B
:1072400009F02AFB113407A010A1224609F024FB03
:1072500004B0B0BDC86A01209D1E01204A2901204A
:10726000BB0200005B25735D5B25645D203A205303
:10727000656E6420426C65204D657373616765209F
:107280004661696C65640D0A00000000626C655F10
:107290006576656E745F63616C6C6261636B000040
:1072A00070B582B0401E622800D9B7E10C464E1C72
:1072B0004000C046784480884000874462007600E1
:1072C0008A009E00C300DB00EC0000011D012D01BF
:1072D000AF01AF01AF01AF01AF01AF01AF01AF012E
:1072E000AF01AF01AF01AF01AF01AF01AF01AF011E
:1072F000AF01AF01AF01AF01AF014501480153013B
:107300006101AF0164016A016E01AF01AF01AF011C
:10731000AF01AF01AF01AF01AF01AF01AF01AF01ED
:10732000AF01AF01AF01AF01AF01AF01AF01AF01DD
:10733000AF01AF01AF01AF01AF017B01AF01AF0101
:10734000840187018A018D019001930196019901C1
:107350009C01AF019F01AF01AF01AF01AF01AF01D0
:10736000AF01AF01AF01AF01AF01AF01A201AF01AA
:10737000AF01AF01AF01AF01AF01AF01AF01A50197
:10738000AB01A078E17809020918E54809F084FA10
:10739000A078E17809020818DF490880C948036825
:1073A000002B00D13AE1012010E030787178090219
:1073B0000918E278D94809F06FFAD748002101800E
:1073C000C0480368002B00D128E1022000210A46B2
:1073D0004DE02079617909020918E3783278C748CD
:1073E00008F058FE2079617909020918307872781E
:1073F00012021218E378C2485DE02079617909022F
:107400000918B14808F0B6FD211DB048082208F05F
:1074100047FE2079617909020818A179E279120200
:10742000511809040A18207A617A09020818A17A09
:10743000E37A1B02591809040B18A5A009F02CFACD
:1074400002B070BD15462389E288A1889B4808F0E8
:107450002DFE2389E288A188994809F01DFA9948F0
:107460000368002B00D1D9E0AAB205202146984735
:1074700002B070BD3078717809020918B078F278DE
:1074800012021218B079F3791B021B188A4808F00F
:107490000DFE02B070BDA078E17809020918637989
:1074A0002279834808F0F6FDA078E17809020918EE
:1074B000637922797F4809F0EFF902B070BDE27874
:1074C0003178924808F0F8FD30787178090209188F
:1074D000E2788F4809F0E0F94B20C00401908D4814
:1074E00000908D4C2088694608F0A2FC2088C821B5
:1074F00008F0E8FD02B070BD307871780902091813
:10750000804808F037FD30787178090209187E4804
:1075100009F0C2F902B070BD20786178090209183B
:10752000A078E27812021218524808F0D1FD2078B3
:10753000617809020918A078E278120212184EA0A8
:1075400009F0AAF902B070BD218848485EE0A01C8D
:10755000002108F0C3FD014620786278120212185B
:10756000414809E0A01C002108F0B8FD0146207840
:107570006278120212183B4808F0B6FD02B070BDE6
:107580002188374842E02078617809020918334899
:107590003CE0A2782178304811E020786178090237
:1075A0000918A07AE27A120212182A4808F090FD0F
:1075B00002B070BD2178E0784042C2B2244808F0A1
:1075C0007BFD02B070BD21781E481FE021781C4869
:1075D0001CE02178194819E02178174816E0217835
:1075E000144813E02178124810E021780F480DE08C
:1075F00021780D480AE021780A4807E021780848F8
:1076000004E02178104801E02178104808F0B2FC2D
:1076100002B070BD2178164808F0ACFC02B070BD15
:107620002BA000002AA0000029A0000028A0000034
:1076300027A0000026A0000025A0000024A0000034
:1076400023A0000022A000002CA0000033A0000016
:1076500021A0000016A0000015A0000014A000004A
:1076600013A0000012A0000011A0000010A0000054
:1076700034A000000FA000005B4D53475F424C4513
:107680005F4D54555F45584348414E4745445F4917
:107690004E445D2048616E646C65203D2030782545
:1076A000582C206D7475203D2025640A00000000D0
:1076B0000EA00000DE0E01200DA000000CA00000B6
