:020000042000DA
:1030000000100220313800203938002049380020D3
:1030100000000000000000000000000000000000B0
:103020000000000000000000000000001905010081
:1030300000000000000000009D050100A90501003E
:10304000593800205B380020A14500205F3800205F
:103050006138002063380020653800206738002080
:10306000693800206B3800206D3800206F38002050
:103070007138002073380020E531002077380020B7
:10308000793800207B380020BD4300207F380020A5
:103090008138002083380020154400200549002095
:1030A000893800208B3800208D3800208F38002090
:1030B0005D4A0020933800209538002039490020CF
:1030C0000348854600F006F80048004731AC002070
:1030D00000100220064C0125064E05E0E36807CCEF
:1030E0002B430C3C98471034B442F7D3FFF7ECFF66
:1030F000183100204831002002E008C8121F08C122
:10310000002AFAD170477047002001E001C1121F68
:10311000002AFBD17047000080300120F8400120D8
:1031200080000000F8300020F840012080300120AD
:10313000781000008043002000310120F840012079
:10314000048D000008310020F0B581B0214F38789F
:1031500000283DD0EFF31086EFF3108072B61E48C2
:103160000068002802D0804700281BD03878811ED4
:1031700003291BD20124204621460CF091F805209A
:103180000507284600F02CF91448016804220A4378
:10319000026030BF284600F02FF9002120460CF0D5
:1031A0007FF80BE086F3108801B0F0BD012805D14F
:1031B0000A48016804229143016030BF0848006852
:1031C000002803D03978022900D1804786F310887F
:1031D00001B0F0BDCC990120A0AD012010ED00E0C0
:1031E0009CAD012070B582B0134C01AD204629463C
:1031F0000CF05CF8297820460CF05EF828788007FF
:103200000AD50E4800900E48022164220D4B0CF0A6
:1032100059F80D4801210170084DC8260BA42988D2
:1032200020460CF0A9FE761EAD1C002EF7D10848F2
:103230000DF0B0FB02B070BD00810050B08B0120DA
:10324000E8990120448D01202B7E01202564200077
:10325000562E012070B50446012001032143094A7E
:1032600091420BD10226084D300608D0FF2120469E
:103270002A460CF02DF8761E0028F5D070BD0020EF
:1032800070BDC0460010005000070100B0B50C46EC
:103290000546FFF7DFFF002800D0B0BD28462146D5
:1032A0000CF01CF8B0BDB0B50C460546FFF7D2FFD8
:1032B000002800D0B0BD284621460CF015F8B0BD5E
:1032C000B0B50C460546FFF7C5FF002800D0B0BDDD
:1032D000284621460CF00EF8B0BDB0B50C460546A8
:1032E000FFF7B8FF002800D0B0BD284621460CF0FB
:1032F00007F8B0BDB0B50C460546FFF7ABFF002898
:1033000000D0B0BD284621460CF000F8B0BD10B585
:103310000446FFF79FFF002800D010BD20460BF0A9
:10332000FBFF10BDB0B50C460546FFF793FF002824
:1033300000D0B0BD284621460BF0F4FFB0BDC0461A
:10334000F0B581B00D4604460B200007211801207E
:103350001F4A114206D1002D04D02046FFF77AFF04
:10336000002801D001B0F0BD1A491B4A20460BF0DD
:10337000AFFF0028F6D100261027A068C00613D59D
:10338000B8B2042800D30420216800231A46DB00C9
:103390000E46DE402E707F1E6D1C521C93B298426A
:1033A000F5DC102020610026761C0C4886420BD8E4
:1033B00001200BF0BDFF3804DFD10848411C204636
:1033C0000BF0BCFF01B0F0BD032001B0F0BDC04662
:1033D000FFEFFFFF4B0080031F070F008713000064
:1033E00010B50446FFF736FF002800D010BD0321BA
:1033F00020460BF0A9FF10BD10B50446FFF72AFFC9
:10340000002800D010BD20460BF0A4FF10BDC04620
:10341000B0B582B00D46044601A80021018001200C
:1034200001032143154A914205D101A92046FFF726
:103430002DFF002801D002B0B0BD01A80188104ABC
:103440000A40E906490E51180180072002020621B0
:1034500020460BF03DFF0028EDD101A800886060F8
:103460000849094A20460BF033FF0028E3D10749F9
:1034700020460BF063FF02B0B0BDC0460010005004
:1034800083BF00000100000500070100983A00001A
:10349000F0B581B01C4615460E460746FFF7DAFE2A
:1034A000002801D001B0F0BD384631462A462346F7
:1034B0000BF056FF01B0F0BDB0B50C460546FFF766
:1034C000C9FE002800D0B0BD284621460BF04EFFB3
:1034D000B0BDF0B583B01C4615460E460746FFF753
:1034E000B9FE002801D003B0F0BD099808990091F9
:1034F0000190384631462A4623460BF03DFF03B083
:10350000F0BDF0B581B01C4615460E460746FFF7E4
:10351000A1FE002801D001B0F0BD06980090384609
:1035200031462A4623460BF02DFF01B0F0BDC046C0
:10353000F0B585B00C4605460127380328432449D9
:10354000884241D103920493EFF310800290EFF38D
:10355000108072B61F4868661F48E8650520286617
:10356000032128460BF014FF0190072002020621D8
:1035700028460BF0ADFE0746A86D01263043A8652E
:10358000AE66032C1FD860B2800014A10958039ABC
:103590008A40EA6415A10958184A28460BF098FE9B
:1035A000029981F3108801990F43074304990BD1C5
:1035B000286FC007FCD1A86DB043A86528460BF062
:1035C000BDFE074600E01027384605B0F0BDC046F6
:1035D00000100050A008C80C2000C800080000001F
:1035E0000C0000000F00000010000000810000032C
:1035F0002000000352000003D80000031707020058
:10360000F0B587B01D461646044601200303234348
:103610005F4A934200D097E0002E00D194E0002D45
:1036200000D191E0C8B2431901200202934200D9AF
:103630008AE005910C9FEFF310800390EFF3108068
:1036400072B6544860665448E06505202066534AC7
:10365000173A062120460BF03BFEA26D01210A43DA
:10366000A2650191A166032F04900BD0022F11D007
:10367000002F17D1280449494018494940180290A1
:103680004A4911E02804454940184549401802902C
:10369000444909E028044149401841494018029032
:1036A000414901E000210291042D2A4600D3042261
:1036B000012A06940DDB00231C461F46DB003078F0
:1036C000984004436D1E761C7F1CBBB29A42F5DC09
:1036D00000E000240698059AC26444600446029AF9
:1036E0000BF0F6FD04990843290428D00590002723
:1036F00002202061A068800712D4A8B2042800D359
:103700000420002319461A46DB0034789C402143EC
:103710006D1E761C521C93B29842F5DC069C6160CB
:103720002348874208D001200BF002FE7F1C2804AA
:10373000DED10399059803E0032105980843039916
:1037400081F31088002801D007B0F0BD0D9D206FD7
:10375000C007FCD1A06D01998843A065A420205822
:10376000C0070BD0069CA4341148461C761E0BD013
:1037700001200BF0DDFD2068C007F7D1069829462F
:103780000BF0DCFD07B0F0BD032007B0F0BDC04674
:1037900000100050A008C80C4001C8001707000026
:1037A0000000FFFF32004303A20042030200400377
:1037B00087130000F0B587B00E4601460120002AAD
:1037C0000BD09CB2002C08D015460C9F08460691E1
:1037D00039460BF0DDFD002801D007B0F0BD05979C
:1037E0000021002C20D002910D990391049005989E
:1037F000009003980190F0B201210902081A844256
:10380000214600D301468FB2069831462A463B46F0
:10381000FFF7F6FE04980028DFD1ED19F619E41B36
:10382000E5D1029807B0F0BD084607B0F0BD000032
:1038300019488047194800477046EFF30881EFF3B5
:103840000982174B9847FEE77046EFF30881EFF3C4
:103850000982144B9847FEE7FEE7FEE7FEE7FEE726
:10386000FEE7FEE7FEE7FEE7FEE7FEE7FEE7FEE730
:10387000FEE7FEE7FEE7FEE7FEE7FEE7FEE7FEE720
:10388000FEE7FEE7FEE7FEE7FEE7FEE7FEE7FEE710
:10389000FEE7FEE7FEE7FEE75D4B0020C1300020BB
:1038A000A94500206D440020F0B51FB40646002055
:1038B00082B005464024019100901BE00199224608
:1038C0000F46304600F062FC049A059B801A99412D
:1038D00010D310461946224600F048FC361A8F4194
:1038E0000197224601200021009F00F03FFC38187C
:1038F0004D4100902046641E0028DFDC019B0098AB
:103900002946324607B0F0BD30B5434351435C18F9
:10391000010C130C0D465D432C1980B292B2054682
:10392000554351430A0C09044D1962415843010C97
:1039300000044019514130BD38B50446C068182113
:10394000401E4843A16840183C2148436168401824
:103950003C2148432168451860690C21484321698E
:1039600040186921C900401A302100F0D7FB114AE4
:1039700050434219084600921A2902DB0E49511899
:1039800000910C2100F0CAFB0C4A5043009A8018A9
:1039900000900B4806E0491E425C074B5A43009BCF
:1039A000D21800920029F6DC2146684600F01AFC85
:1039B000009838BD801F8607805101008033E101E7
:1039C000B409012003460B439B0703D009E008C953
:1039D000121F08C0042AFAD203E00B780370401CBF
:1039E000491C521EF9D27047D2B201E00270401C4D
:1039F000491EFBD270470022F6E710B513460A466F
:103A000004461946FFF7F0FF204610BD421C01781E
:103A1000401C0029FBD1801A7047F8B502464A4085
:103A2000D40F42004B0052085B089A4202D2024671
:103A3000084611464A0023D0C30D4A00DDB2120EDB
:103A4000AD1A202D35DA49020126490AF6058A19F0
:103A5000002C00D0524220214F1B1146B9402A4170
:103A60001018C20D9A4221D0002C17D0012D08DC6D
:103A7000DA05801AD20F8019D207DBB20BF08EFC68
:103A8000F8BDDA05801A012340001B06C018801813
:103A90005A428018CA0F1043490007E04908C2077C
:103AA0001143DA05801A8019400880180BF07CFC5D
:103AB000F8BD61000122511A001BF7E70122D2076D
:103AC0005140AAE70122D2075040A6E7024670B54E
:103AD0004A40D30FDB0740002DD04A002AD0010E08
:103AE000140E000212020919400A520A8418E50154
:103AF00004465443000A120A2E045043A4194219E2
:103B0000200CC543AA18120C0125AD03521C5219F2
:103B100012047F39240400D0521C104301D4400009
:103B2000491EC2B20C06C0092018401C4008802A59
:103B300002D003E0002070BD40084000002900DAF8
:103B40000020184370BD70B502464A40D50F4000B2
:103B50004A00ED0740085208002814D0002A12D06D
:103B6000C40DD30D41020120C0055202490A520A78
:103B7000E41A091812187D34914201D3641C00E044
:103B80004900002C01DA002070BD0023914201D3CE
:103B9000891A0343400849000028F7D100290AD0B8
:103BA000914202D10121C90705E0914201D20121D0
:103BB00001E00121C943E005C01840190BF0F4FBF6
:103BC00070BD0000F0B507460846584087B0C00FEA
:103BD000049048000E46590040084908BC1A884124
:103BE00005D2384631461E4617460B460246580057
:103BF000400810434CD0300D039040055900400D53
:103C0000490D0590401A0290402872DA18030121EC
:103C1000000B09050843019004980092002805D084
:103C2000019952420020884100920190029840215F
:103C30000A1A0199009800F099FA05460C466B465D
:103C400007CB00F0B4FAC0197141039A0E0D00239E
:103C5000D71756401A467A40164344D0049A002A91
:103C60002DD0029A012A039A15DC1205C01A91413F
:103C700001263605001C7141D20F059ED207009324
:103C8000019202962A46234600F0F3FA07B0F0BDEF
:103C900038463146FAE71605224A0F46B218C01ACE
:103CA000B74101210905001C4F4100187F41114611
:103CB00018187941E20F10436D19644113E0E207CF
:103CC0006D0815436408C2071443039A01261205C0
:103CD000C01A91413605001C7141CE07400830439F
:103CE0004908C01851412A46234600F0B5FACDE7ED
:103CF000FFE7049801224000C117121A00238B41EC
:103D000004983146C417381AA141EEE730B40124B3
:103D1000E407634030BC55E730B40124E407614058
:103D200030BC4FE70000E0FFF0B51FB488B00B993E
:103D30000998002448400999C00F49004908099191
:103D4000C0070B990090490049080B910999089800
:103D5000A64608431CD00B990A98084318D0099826
:103D600001244000420D4800410D0998240500033C
:103D7000000B204309900B980003000B20430B908D
:103D800050181C494018002201901446104605E0C6
:103D9000002001460DB0F0BD032801DA034600E023
:103DA00003239C46C11A0AAE0AE05F0008ADED5B32
:103DB0004F00F75B7D430027AA187C41491C5B1E1E
:103DC0006145F2DD410004AB5A522104120C0A4352
:103DD000240C401C0828DFDB0198029000997046F3
:103DE00001910090059B049A0799069800F041FA0A
:103DF000D0E700000DFCFFFFF0B50C465C4085B03D
:103E0000E40FE40703944C0000266408590094462C
:103E1000490802460296224321D062460A431ED038
:103E20006200570D4A000E032303550D012402467C
:103E30002C492405781B1B0B360B401823432643C3
:103E4000614600901C46501AB44103D30098401CB0
:103E5000009002E0921800985B41002803DA0020ED
:103E6000014605B0F0BD0020012109050746864640
:103E700011E064461D46141BB54106D36546521B2E
:103E8000B341744607430C43A646CD074008490892
:103E9000284392185B4105460D43EAD1104618436A
:103EA00013D06046194650407140084306D0604622
:103EB000101AB34106D20122002306E0002201239A
:103EC000DB0702E00122D24353100098744601053B
:103ED000381C6141029C039D0019694100F0BCF946
:103EE000BFE70000FD0300000122D207002800DB2D
:103EF000101A002900DB511A814201D801207047B5
:103F0000002070470122D207002800DB101A002988
:103F100000DB511A814201D2012070470020704716
:103F20000122D207002800DB101A002900DB511AF9
:103F3000814201D301207047002070470122D2073F
:103F4000002800DB101A002900DB511A814201D938
:103F5000012070470020704710B5002904DB0C4693
:103F60000121C9074042A141002B04DB1C4601236B
:103F7000DB075242A341101A8B4101D2012010BD30
:103F8000002010BD10B5002904DB0C460121C90733
:103F90004042A141002B04DB1C460123DB075242B7
:103FA000A341101A8B4101D3012010BD002010BD88
:103FB00010B5002904DB0C460121C9074042A1418C
:103FC000002B04DB1C460123DB075242A341801A6D
:103FD000994101D2012010BD002010BDC217C10FB0
:103FE000504010B54018CA07962300210BF0D6F9AF
:103FF00010BD00000EB5C217C10F5040CA074018CF
:104000000021054B0293019200910A460B4600F0F5
:1040100030F903B000BD0000330400000EB50549BF
:104020000291002100910A460B46019100F021F90E
:1040300003B000BD33040000C20F41004002012361
:10404000400ADB05D207090EC0187F2901DA0020DB
:104050007047962903DC9623591AC84001E0963927
:104060008840002AF4D040427047000070B5CD0F60
:104070004A0009030123090B1B0519430B4BED07EC
:104080000024520D9A4201DA002070BD074B3433F0
:104090009A4203DC9A1A00F079F802E004495118B8
:1040A00088402C43F1D0404270BD0000FF03000067
:1040B000CDFBFFFFC20FD207400040080BD0C10D5F
:1040C0000723DB01C91840020905400A1143C20851
:1040D00040071143704700200146704770B5044601
:1040E000002903D000202022012310E0002801D065
:1040F0000020C043C046C0460DE02546D5408D4255
:1041000005D30D469540641B1D4695404019154644
:10411000521E002DF1DC214670BD000070B5002557
:1041200004462E46002911D0002C01DA0125444214
:10413000002901DA012649422046FFF7CFFFB542A8
:1041400000D04042002D00D0494270BD002C02DA60
:104150000121C90702E0002C00DD03490846C046E2
:10416000C046214670BD0000FFFFFF7F10B5202A2A
:1041700004DB0146203A9140002010BD91402023ED
:104180009C1A0346E3401943904010BD10B5202A05
:1041900004DB0846203AD040002110BD0B46D34036
:1041A000D0402024A21A91400843194610BD10B5F2
:1041B000202A06DBCB170846203A1041C1170B43D3
:1041C00006E00B461341D0402024A21A9140084338
:1041D000194610BD10B5024900F004F810BD0000EA
:1041E000F840012070B50C4600683C21FFF776FFCF
:1041F00021603C21FFF772FF61601821FFF76EFF1D
:104200000546A1600721001DFFF768FFA1610F4867
:10421000A90008180E49FFF761FF024644328808DA
:104220006261E0613B2802D3910700D0401C00216D
:10423000084B0A462161995C814203D8401A521CFE
:104240002261F8E7401CE060204670BD6C0B000066
:10425000B5050000C009012010B5002B08DA0024C4
:10426000401C614192185B411A4301D14008400053
:1042700010BDF0B51FB482B005460C0003D008464F
:104280000BF0A6FE02E00BF0A3FE203002460090E9
:1042900021462846FFF76AFF049B059A04460F460D
:1042A00018431143084314D0184610431BD00098FC
:1042B00040210A1A18460599FFF768FF05460E4681
:1042C000009A05990498FFF751FF084305D0012093
:1042D00004E02046394607B0F0BD0020C117054371
:1042E0000E432C43374300990E986305401A790515
:1042F000E40A00220C43FD0A0A3002D500200146E0
:10430000E9E70105101969410C9C0D9D00196941EF
:10431000FFF7A2FFDFE700004A0009030123090BB2
:104320001B0519430A4B10B5520D9A4202DA0020C0
:10433000014610BD064B34339A4203DC9A1AFFF74C
:1043400025FF10BD034BD218FFF710FF10BD000072
:10435000FF030000CDFBFFFF10B5002904DB0124A3
:10436000E40740428C412146002B04DB1C4601231C
:10437000DB075242A341994200D1904210BD000098
:1043800030B58C180278401C13071B0F01D103783D
:10439000401C120906D10278401C03E005780D701C
:1043A000401C491C5B1EF9D101E00B70491C521ED8
:1043B000FBD1A142E6D3002030BD000070B582B031
:1043C000114C20460AF0F6FF01AD204629460AF0BE
:1043D0006DFF297820460AF06FFF2878800611D0FB
:1043E0006D46204629460AF0EBFF084802682988F6
:1043F000074E3046904729883046FFF7FCFA2046A2
:104400000AF0E4FF02B070BDC0810050F44F0120FB
:10441000287C012070B582B000200190009001201E
:1044200044020D4D01AE2846214632460AF0D4FF23
:10443000284621460AF0D6FF7078800709D56A46DB
:10444000284621460AF0D4FF0098414241410348E2
:10445000017002B070BDC04680B00460C66A012021
:10446000014800787047C0462841012015460C4697
:10447000064601F059FCEFF308811D480BF07CFD66
:10448000300701D51C4800E01A480CF083FA0420DC
:10449000064001D01AA000E018480CF07BFA1CA0DE
:1044A0000CF078FA002E00D02C4621681CA00BF0EE
:1044B00063FD61681EA00BF05FFDA16820A00BF0FA
:1044C0005BFDE16822A00BF057FD216924A00BF0F1
:1044D00053FD616926A00BF04FFDA16928A00BF0E8
:1044E0004BFDE1692AA00BF047FD01F0F1FBFEE76F
:1044F000A20B0120E90B0120CA0B0120DB0B0120DC
:104500005573696E67207533325073702E0000004A
:10451000537461636B206672616D653A0000000040
:10452000523020203A203078253038580A000000D8
:10453000523120203A203078253038580A000000C7
:10454000523220203A203078253038580A000000B6
:10455000523320203A203078253038580A000000A5
:10456000523132203A203078253038580A00000085
:104570004C5220203A203078253038580A0000006C
:10458000504320203A203078253038580A00000067
:10459000785053523A203078253038580A000000BD
:1045A00080B50AF02BFF80BD14460D46064601F08B
:1045B000BBFB04A031462A4623460BF0DDFC01F08C
:1045C00087FBFEE74E4D495F48616E646C65723A49
:1045D00020253038582C20253038582C20253038CC
:1045E000580A0000F0B58DB0002630460AF00CFFE6
:1045F000984F0125384629462A460AF00BFF3846CF
:10460000294632460AF00CFF6C04384621463246F1
:104610000AF000FF38460494214632460AF006FFAD
:104620006C053846214632460AF0F4FE38462146EB
:1046300032460AF0FBFE07A803900680864F3E72C2
:104640008820F8800C2038718448386006A80290D1
:10465000068017200AF0F0FE0E2130460AF0F2FE26
:10466000A8037F490860FF2109047E4A13688B4331
:1046700003218905591811607B4908607BA008A9AE
:104680000A4628C828C238C838C27D4D28460AF0D4
:10469000DFFE042128460AF0E1FE022128460AF046
:1046A000E3FE28460AF092FE4221384607F0CCFC91
:1046B00008213846039A07F043FC80213846029AC5
:1046C00007F03EFC6F4F387800280AD103E0701CD9
:1046D000132E064605D264200AF02AFE38780028F8
:1046E000F5D002200AF090FE01250024594E3046F4
:1046F000294622460AF08EFE3046294622460AF016
:1047000095FE3046049D294622460AF083FE304637
:10471000294622460AF08AFE07A800884142414104
:104720003878424242410A4306A80088414241414A
:10473000114308D053208200714855490BF01CFCEE
:1047400000200DB0F0BD504E2046315B4018A41C37
:10475000C82CFAD16421FFF7C1FC054607A80580E3
:10476000002108467218C823D25A8018891CC8290B
:10477000F8D16421FFF7B2FC06A908800E46049127
:10478000ABB253208400224608324048404D2946AF
:104790000BF0F2FB3388224609323E4829460BF0E3
:1047A000EBFB08AF00263E8005AD2E8007A80288EF
:1047B000294808213B4607F05BFC049802888021C9
:1047C00025482B4607F054FC3B88224611323248DC
:1047D0002F490BF0D1FB2B88049412342FA02C49C5
:1047E00022460BF0C9FB3F882888C01BFFF702FC5C
:1047F000354B3246FFF798FA04460D463846FFF728
:104800000DFC02460B4620462946FFF7F5FA0746FF
:104810000C4632463346FFF79FFB0028354600D151
:104820003D460028374600D12746284B28463946C2
:104830003246FFF7E1FA00900191049A1A3224A05F
:1048400013490BF099FB28463946FFF70FFC0DB0D2
:10485000F0BDC04680B00460E89901200004026009
:1048600080E200E00CE400E000E100E0000402600F
:10487000448D0120E80300000801690129000000BF
:10488000008100502B7E0120B08B012017270120D2
:104890009229012054270120B91B01205B25735D5B
:1048A0005B25645D203A204869676820566F6C7408
:1048B000616765205265666572656E63653A20259D
:1048C00075206D560A00000000607D400000244005
:1048D0005B25735D5B25645D203A2043616C6375E5
:1048E0006C6174656420526573697374616E63658D
:1048F0003A20252E3166204F686D730D0A000000A6
:10490000EC1A012010B582B001AC20460AF0B2FDCD
:1049100001980AF0B5FD6078000601D502F066FC4A
:1049200001A84078400602D502480AF0AFFD02B067
:1049300010BDC046CC800000F0B585B000250395C1
:10494000434C04AE204631460AF0A6FD30880821CB
:10495000014001200190C707002907D020460AF036
:10496000A1FD64200AF0E4FC3A480760032103AA91
:1049700020460AF09DFD3848046804E0304609F0FE
:10498000B3F834480760002C22D02646A46A307D54
:104990000028F3D1707D0028F0D1B07D0228F2D13B
:1049A00002A92B480AF08AFDB168F2680298914288
:1049B00004D28842E7D3904204D3E4E7904201D383
:1049C0008842E0D3F1690029D8D0306A8847D5E71A
:1049D00021480168002923D00020039A054603E0FE
:1049E0003546896A00291CD08B7D022BF9D18B6852
:1049F000C4070AD0CC6895420AD2AB421E4600D307
:104A00002E46A342ECD31E46EAE71D460198E8E78E
:104A1000AB421E4600D32E46A342E1D22E46DFE72C
:104A2000284603996A1A51425141C007084803D0E9
:104A3000002904D005B0F0BD01990029FAD1032165
:104A40002A460AF041FD0348076005B0F0BDC046A4
:104A50000030056000E200E0889A012070B582B065
:104A600000246D46204629460AF034FD2978204668
:104A70000AF036FD2878002840D0022001A90AF06B
:104A800035FD019D002D36D0204C214E13E0052030
:104A900029460AF005FC02200AF02EFD00200AF04B
:104AA0002BFD01200AF044FC022001A90AF01EFDA2
:104AB000019D002D1FD000200AF024FD0028F0D118
:104AC000284606F029FA00281AD12846214606F081
:104AD0002DFA0228E5D13268002ADFD02168201D96
:104AE0009047054602200AF00DFD0028CFD0012096
:104AF0000AF01EFCF6E707A00BF04CFF02B070BDF9
:104B000000200AF0F9FC02B070BDC046C897012031
:104B1000D899012054686520727820717565756593
:104B2000206964206973204E554C4C0080B50648BE
:104B300001210A460AF074FCE3204200034804A164
:104B40000BF01AFA80BDC04600B00460E92A0120CB
:104B5000536C6565704166650000000001480249BC
:104B60000160704708ED00E00030002080B582B0A1
:104B70000F4803880F481818A02804D81EA00BF06F
:104B800009FF02B080BD0CA013A1184A0BF0F4F984
:104B900005F01EFB4B21C90401911549009169469E
:104BA0000AF0B6FC13480BF0F5FE02B080BDC0461B
:104BB000BE72012030FDFFFF5B25735D5B25645DE8
:104BC000203A20436F6E6E496E74762054696D658D
:104BD000722025640A000000557064617465436F9B
:104BE0006E6E496E747654696D65720095080000AA
:104BF00020032003AA28012054686520636F6E6E8D
:104C0000656374696F6E20696E74657276616C207D
:104C100069732077697468696E20746865207261B1
:104C20006E6765206F66203930306D7320746F2099
:104C3000313130306D73000010B582B0002001902A
:104C4000104C012101AA20460AF068FC01980028B6
:104C500007D1012120460A460AF0E2FB64200AF04F
:104C600063FC0121002220460AF0DAFB32200AF020
:104C70005FFBFF22C03204A013A10BF07DF902B04C
:104C800010BDC04600B004605B25735D5B25645DAC
:104C9000203A20494F204353206F7574707574205B
:104CA0006C6F772C2077616B657570206166652C61
:104CB0002064656C61792077616974206166652084
:104CC00072656164790D0A0057616B6555704166C4
:104CD00065000000F0B583B002AC284D2580FF24AC
:104CE0002403002814D0019119461346A41C002562
:104CF000234A57193E79864207D0FE88A419A41C7E
:104D00002D1D242DF5D10022D4431A460B460199BE
:104D1000651C11D06118CD18AE1C8000184D2818E4
:104D200040882018801CB0420DD220A01E49882245
:104D30000BF022F901251DE028481B4981220BF0C8
:104D40001BF9012516E0881C002511461A462B4642
:104D500004F070FE002806D005460AA012498F22F2
:104D60000BF00AF906E0089B02A90222204604F093
:104D700061FE0546284603B0F0BDC0465A5A000001
:104D80007A0B01205B25735D5B25645D203A204D25
:104D90004D552057726974652044617461204661E5
:104DA000696C65640A0000005C0C01205B25735D82
:104DB0005B25645D203A204D4D552057726974651E
:104DC0002044617461204265796F6E6420456E6491
:104DD00020416464726573730A000000220C012094
:104DE00070B5184C0020E072A07260722072E07101
:104DF000A071607120710421E170D121A1700D2199
:104E00006170552121700146225C5118401C0C280C
:104E1000FAD1484220730D21204609F06BFE0AA00A
:104E200010A19A220BF0A8F80026124DA15D284689
:104E30000BF0A2F8761C0D2EF8D10FA00BF0AAFDF6
:104E400070BDC046D2CD01205B25735D5B25645DDE
:104E5000203A205374617274204D656173757265D8
:104E60003A20000073746172745F6D6561737572CE
:104E7000650000008B1101200D000000F0B5C5B0E9
:104E80008B2002010E921F32CDA0DD490BF074F889
:104E9000DCA014AA114638C838C138C838C105206A
:104EA00010210AF047FBDD490860002802D1DCA090
:104EB0000BF070FD05F09CFDDF49086000280E9A9C
:104EC00004D12532DD48CE490BF056F8DC4EDD48E2
:104ED0007080DD483080FF2108463830F0800D9129
:104EE00008460A30B08000250F9508F06DFC30466A
:104EF00002F08CFAD54F0A243C873D850FAA042086
:104F00002946034605F0BCFE0125EA0200280A9561
:104F10000C920B9424D00F32CD48CE490BF02CF8D4
:104F20003088F88570883886B088788638462E3084
:104F3000B17981710FAC3046214602F0BBFC00957F
:104F4000002104202246034605F06EFF00283D465E
:104F50001BD00C9A1632C048BE490BF00DF814E075
:104F6000D21DBE48BB490BF007F80F9814AC214680
:104F700002F0BEFB1498F88560883886159878860C
:104F800038462E30A17981713D462F462E370D9837
:104F900038728020F8713388B078F178327974797A
:104FA000B679009001910292039404960C9C2246DB
:104FB0001F32AB48A7490AF0DFFFEB8DB878F978CC
:104FC0003A797D790997BE7900AF67C72234A54841
:104FD000A04922460AF0D0FF02F0C6FD07200026B5
:104FE000A14D042331462A4605F04AFE002812D07E
:104FF0000346222824D12E600A9F14970097072089
:1050000014AA0423314605F00FFF00280E9C21D07E
:10501000224632320FE02868401C14900A9F009705
:105020000720002114AA042305F0FEFE00280E9C90
:1050300010D0224642328D4871490AF09DFF09E0A6
:10504000F04328600E9C2246383289486C490AF0A9
:1050500093FF0A9F2B6822464532864868490AF02A
:105060008BFF08200021844D04232A4605F008FE0A
:10507000002810D00B9828600097082000210423F6
:105080002A4605F0D1FE002805D022464E327B4844
:105090005B490AF071FF2B68224651327848584923
:1050A0000AF06AFF09200025764E0423294632467D
:1050B00005F0E6FD002810D03C2030600097092064
:1050C00000210423324605F0AFFE002805D0224619
:1050D0005A326D484A490AF04FFF336822465D3222
:1050E0006A4847490AF048FF05F000F902F02CF839
:1050F000674801F087FE199518951795169515952F
:105100001495052014AA1723294605F0B9FD002897
:1051100005D061485F4922460AF02EFF0AE0221DB1
:10512000FA48F94914AC23460AF026FF20460E9CA3
:1051300002F04EF9454D062000260FAA02230690E4
:10514000314605F09DFD002806D022460A32F74878
:10515000ED490AF011FF13E00FAC2088FEF75EFF67
:105160000022F34BFEF7E0FD009001910E9A0F3202
:10517000F048E5490AF000FF20880E9C02F014F97F
:1051800002F0E0F801F0EEFAEB4801F03DF8EB48F0
:1051900009F0C6F9EA4806F0A5FBEA48EA49EB4AF5
:1051A0000260416001F048FA2E62E949284602F0A7
:1051B0000BFC002872D0E7A00BF0ECFB45B0F0BD73
:1051C0005B25735D5B25645D203A202D2D2D2D2DF3
:1051D0002D2D2D2D2D2D2D2D2D2D43474D20507254
:1051E0006F66696C65204578616D706C652D2D2D3D
:1051F0002D2D2D2D2D2D2D2D2D2D2D2D2D0A00005C
:10520000682901209728012000000000D0720120A9
:10521000340000000473012018010000C86A012056
:10522000637265617465204170704D7367496420D5
:105230006661696C65640000D46A0120D720012092
:105240008E710120031F0000E90700009871012002
:1052500053220120072A01201C1701207E22012051
:10526000F91801203D190120E43001202A200120F5
:10527000DC1B0120E827012024410120F61F01202A
:10528000C02701205C410120292301205B2401204B
:10529000E9680020C7280120AC220120B24809F0AB
:1052A000C5F9002805D07F34B048B14922460AF03C
:1052B00063FEB0481621079109F01CFC08F074FB4E
:1052C000AD48AE4A394600F0A1FEAD48AD4A314680
:1052D00000F09CFE7D02AC4802240B942946224635
:1052E0000AF098F8A848294622460AF09FF8304666
:1052F00007990AF0A7F80423A348294622460AF092
:105300001FF9204631460AF021F99F4C20460895A6
:1053100029463A460AF020F90E20072339462A4644
:105320000AF020F9204629460AF05CF82046294672
:105330000AF01EF9B805F54908600D990904F44A08
:1053400013688B430321890559181160F8490860D7
:105350002546803C204639463A460AF05BF820460E
:10536000394632460AF00AF9204639463A460AF0EA
:1053700057F82846394632460AF04CF8284639464E
:1053800032460AF053F87C042846214632460AF099
:1053900041F8284621460E9C32460AF047F8284636
:1053A0000C9D29463A460AF035F877482946324698
:1053B0000AF0E4F8744829463A460AF031F804F055
:1053C00087FF30460AF020F86F480B9932460AF002
:1053D0002DF8384614AF31460596BE723E8105025F
:1053E000FD800C2038710FAE3180E44814902120EC
:1053F0000101384606F028FE38462946324606F0B6
:105400000BFE3388089A483ADD48DE490AF0B4FDBD
:105410000B9809F0F9FF3188DB480180DB480AF07E
:10542000ABFDDB48808BFFF7DDF804F089FDD9493F
:10543000088081B2D8480AF09FFD7D20C000079007
:105440000598C743D54D0B9705E02246AE32D448A8
:1054500047490AF091FD28680FA9002632463B46CD
:105460000AF092F80028F0D10FA800780228CD4960
:1054700017D0012839D00028EDD10FA84078052891
:1054800000D19DE0022800D1ACE00128E3D104F076
:105490009FFEC549888000223948C44900F02EFE8D
:1054A000D9E7EFF31086EFF3108072B6C04C206896
:1054B00005F003FB0546206814AC21462A4605F09A
:1054C000D9FA86F3108804F083FE21462A46B94BA8
:1054D00005F0F4FD002805D00C9AA43AB648B74967
:1054E0000AF04AFD0E9CAD4DB5E70FA84078421E6C
:1054F000062A00D97DE0119F3D46303538463B30C5
:10550000930003A2D2589746C72801208B2401207C
:105510008D55002001560020AF560020D1560020A6
:1055200015570020575700201B580020D822012073
:105530000000E43F9F260120E5A00020FDDB0020C5
:105540001DB7002068720120CD660020AD650020E7
:105550005D7E002043474D5320496E6974204661AB
:10556000696C65640000000035E7002057170120D2
:1055700068290120A1170120EC7101202180002061
:105580001C7201206D4B002080B00460AB7A8C4A05
:105590001E328C480AF0F0FC8348007F00287F4DC3
:1055A0000B9F00D157E7884E304600F0CDFD87486D
:1055B0000168079841430022304600F09FFD4AE70A
:1055C0001198808882490880282800D043E704F099
:1055D00073FE002800D13EE7002008F0ADF900F08E
:1055E000A9FD38E77A4806806F48868008F0DCF924
:1055F00031E70C9ABF3A774877490AF0BDFC2AE7B1
:10560000A87A002800D142E1744E30460C4601F0E1
:1056100037FF3088F885274670882880B0886880F2
:10562000B079287114AC3046214602F043F90A984B
:105630000090002104202246034605F0F5FB0028D7
:105640005F4E04D06648394632460AF095FC02F0B7
:10565000B5FB04F035FE5C4C204600F075FD5B4860
:105660000168079841430022204600F047FD0A36B2
:105670005C48394632460AF07FFC4B48C38D099E90
:10568000B078F17832797479B6790090019102920C
:10569000039404964A4C22460D32534839460AF088
:1056A0006BFCAB7A22460E3250483946EBE0444D53
:1056B0002A4616324E480E460AF05EFC0020388517
:1056C000414800F041FD2A4619324A483146E1E09E
:1056D0000D9702784078401E0528089200D9DEE038
:1056E0004000C04678448088400087440500E000C0
:1056F000F400080124012E01314A3E323E483F4960
:105700000AF03AFC0D9802F0D9FE27E180E200E0B1
:1057100014E400E00D97407814A90E80401E05287F
:1057200000D938E103A14000085A40008744C04630
:1057300000E100E008003E0153016801850190018D
:105740001F4A80322E482D490AF016FC14A90D98E4
:1057500003F068FA86E10D974178491E052900D9C2
:105760009BE10278089249007944898849008F4476
:1057700049009E01B101C401E101EC010000026099
:10578000AB1601205C290120B07201208F27012077
:1057900028410120BC720120A4270120C86A0120F1
:1057A00088190120C429012098710120B80B00003C
:1057B000D46A0120C9AF0020B12001209A2901201C
:1057C00015060000FD250120EC7101202441012077
:1057D000BE720120F8260120DC2901208E710120F3
:1057E00077200120E22301203D19012056260120C7
:1057F000BF230120E8170120D2250120AC29012078
:105800009D250120EF4ABC32F548F0490AF0B4FB6F
:105810000D9C204602F004FEA1E1F98D14A8018040
:10582000298841806988818029798171139613AC18
:10583000214602F03FF80A980090042031462246A3
:10584000034605F0F1FA00280C9EF54C05D03246CF
:10585000CA3ADA4821460AF08FFB3246C73AF14885
:1058600021460AF089FBD448C38D099DA878EF78BA
:105870002A7921466C79AD790090019702A834C04D
:105880003246C43ACE480AF077FB0E9C04E0CD4A7B
:105890001132E2480AF070FBC64D0B9FDBE5C94AA6
:1058A0006332D248C9490AF067FB334657E00D9D81
:1058B00028463E30002109F06DFE0446C14A4532BB
:1058C000D548C24923460AF057FB284621460E9C7C
:1058D00003F020F942E00D9D28463E30002109F0FA
:1058E00059FE0446B74A4C32CA48B84923460AF022
:1058F00043FB284621460E9C02F05AFF2EE00D9DE8
:105900002C463E340021204609F044FE0746022181
:10591000204609F03FFE04460090AA4A5432BC4893
:10592000AA493B460AF028FB2846394622460E9CE7
:1059300003F0E4FB12E0A34A5932B448A3490AF049
:105940001BFB0D9802F060FE08E09E4A5E32AE48F6
:105950009E490AF011FB0D9802F0FCFF0346954D9D
:105960000B9F222B07D0042B0D9800D117E1002BA1
:105970000ED1012300E0062306210D98089A03F0BA
:105980004DFC00280D9800D109E18E4A7432FFE0E9
:105990008C4A6E3207E18B4AA53294488B490AF053
:1059A000EBFA844D0B9F0D98467754E50D9D2846E4
:1059B0003E30002109F0EEFD0446824A87329048CD
:1059C000824923460AF0D8FA14AA284621460E9C9A
:1059D00003F030FA46E00D9D28463E30002109F0E4
:1059E000D9FD0446774A8E328448784923460AF026
:1059F000C3FA14AA284621460E9C03F075F931E03B
:105A00000D9D2C463E340021204609F0C3FD07467B
:105A10000221204609F0BEFD04460090694A9632F4
:105A200075486A493B460AF0A7FA14AB284639463E
:105A300022460E9C03F06CFA14E0624A9B326D48D9
:105A400062490AF099FA14A90D9803F017F909E0D0
:105A50005C4AA03266485D490AF08EFA14A90D9896
:105A600003F0B0F9534D0B9F042800D194E014AC1F
:105A70002388544AAC32634854490AF07DFA20889E
:105A80000E9CC2B2030A05210D9803F0C7FB002843
:105A900000D181E04B4AB0327AE04A4AE1325348C1
:105AA0004A490AF069FA434D0D980B9F77E00D9D26
:105AB00028463E30002109F06DFD0446414AC332BC
:105AC0004648424923460AF057FA2846214602F042
:105AD00093FF2CE00D9D28463E30002109F05AFD31
:105AE0000446384ACA323C48384923460AF044FA48
:105AF0002846214602F0D0FD19E00D9D2C463E348B
:105B00000021204609F046FD07460221204609F003
:105B100041FD044600902B4AD2322E482B493B4689
:105B20000AF02AFA28463946224603F059FA034673
:105B3000284616E0234AD732254824490AF01CFAA1
:105B40000D9C204602F01CFD09E01E4ADC321E4876
:105B50001E490AF011FA0D9C204602F0B1FE0346E0
:105B60002046144D0B9F222B069C05D0042B0E9C27
:105B700015D0002B15D10A9C06210D98089A2346B2
:105B800003F04CFB00280D980E9C08D00D4AF23211
:105B900014480E490AF0F0F90D9846775BE4467711
:105BA00059E4084AED32104808490AF0E5F90D9821
:105BB000467750E4C86A0120987101201C17012023
:105BC0003D190120150600001D210120AC290120EE
:105BD000A8210120F11C0120E31D0120771D0120D7
:105BE00072250120F6160120D41601203924012047
:105BF00048210120D42101202F1D0120141E012045
:105C0000A81D0120701801207D2101200A220120F9
:105C1000D224012041250120102501200624012045
:105C2000DC2901207517012070B55B4D2968594E9C
:105C300030680024224609F0EDFB306829682246CE
:105C400009F0F4FB514801685148814201D02D20F0
:105C500000E02C2003225207914200D12B2009F0B2
:105C60009FFC70BD70B5032465071024AA4205D0BF
:105C7000B44DAA4202D0464DAA4219D1802505430F
:105C8000AF4EB54214D1049C244D2C60002C04D09E
:105C9000244C00252580224C25803E4C20603B482A
:105CA00002603D4801603E48036000F03DF8044654
:105CB000204670BD1B48008819490988081A4142CE
:105CC0004141164802685042504108437047C0465F
:105CD000F0B581B0114C2068002805D0104D2888FF
:105CE000104E3188884201D101B0F0BD274F04E049
:105CF000288081B232889142F6D080B2216809684A
:105D0000095C386809F052FC206881882888401CAA
:105D100082B28A42ECD30020EAE7C046DC99012037
:105D2000949A0120929A0120F0B583B0174D28680B
:105D300003214907884205D01549884205D1082426
:105D40002C2004E004242B2001E00C242D2009F059
:105D500073FB104E3068104F3968224609F02CFC56
:105D6000002801D003B0F0BD39683068022209F084
:105D70005DFB0028F6D109480290094800680190AF
:105D8000286801A909F01EFC03B0F0BDE4990120C8
:105D900000040060E0990120A09A01202130010157
:105DA000A49A012070B584B0282009F045FB0A2090
:105DB00009F042FB0B2009F03FFB0C2009F03CFBF3
:105DC0000D26304609F038FB0E2009F035FB0F2078
:105DD00009F032FB102009F02FFB352009F02CFBD5
:105DE000112009F029FB122009F026FB002420468F
:105DF0002146224609F0ECFB09F0F0FB09F0F4FB28
:105E000000F03EF90325142207233046294609F005
:105E1000F1FB01263003494988800094B102E1205A
:105E200003034748474AFFF71DFF47A053A156A267
:105E30000AF0A2F803F050FD04F0B6FD1721204649
:105E400009F000FBF00553490860FF210906524A9A
:105E500013688B4313605149086002205049514A2E
:105E600004F0CCFE50480AF095FD50A00AF092FDD7
:105E700001A8294603F022FD002805D056485749BD
:105E8000F8220AF079F850E055A05449FC220AF0B3
:105E900073F8594D01A8015D28460AF06DF8641C9D
:105EA000032CF7D10A200AF06DFD02A8062103F0A9
:105EB000F8FC41218C00002805D050484749224673
:105EC0000AF05AF831E0221D4D4844490AF054F8CE
:105ED0000026494D02A8815D28460AF04DF8761C3F
:105EE000062EF7D10A200AF04DFD02A8062103F084
:105EF000CBFC002806D00C344248384922460AF030
:105F00003BF812E010344048344922460AF034F895
:105F10000025394C02A8415D20460AF02DF86D1C81
:105F2000062DF7D10A200AF02DFDFEF7A7FF09F094
:105F300067FB09F06BFB04B070BDC04670720120B6
:105F400080B00460000800605B2573205420257336
:105F50005D626C65207065726970686572616C2045
:105F600070726F6A6563742863702920737461723C
:105F70007420746F20776F726B2E0A004D61792048
:105F8000313520323032350031333A34343A303022
:105F90000000000080E200E014E400E000E100E026
:105FA000D5AB0020C5AB0020911101202D2D2D2D4A
:105FB0002D2D2D2D4265666F7265204465766963CF
:105FC0006520496E666F2057726974652D2D2D2DE1
:105FD0002D2D2D2D00000000D1100120DA110120FF
:105FE0005B25735D5B25645D203A204465766963BB
:105FF00065204944203A2000891101201F11012009
:106000004C110120F31001206B110120B0B50346A3
:106010001020002B22D0012920D8EFF31084EFF3B9
:10602000108572B69D7D002D02D084F31088B0BD1E
:1060300000209862DA611976012199752D490A6864
:10604000002A02D10B600021D9622B490A68002A7C
:1060500001D09362DA620B6084F31088B0BDC04651
:1060600001461020002909D08A7D002A06D001228D
:106070004A750020C875D1073B4A11607047C04679
:10608000F0B581B0052009F0D7F9294D0024284644
:10609000214609F0C1FA0127F80713490860FF26D5
:1060A0003106124A13688B4303218907591811607E
:1060B0000F4908601F21204609F0C4F979022846DB
:1060C00009F0B0FA0821284609F0B2FA284631460C
:1060D00009F0B4FA284609F0B7FA06480460064801
:1060E0000460204601B0F0BD80E200E01CE400E066
:1060F00000E100E0889A01208C9A012010B5044646
:106100001020002C13D0A37D002B10D062626160A0
:1061100021461031064809F0D1F90220E075FF2030
:106120000230A0820120C0070F490860002010BD86
:106130000030056080B54B20010102480022FFF7C6
:10614000DDFF80BD7872012001461020002909D0B2
:106150008A7D002A06D001204875C875C00702490B
:10616000086000207047C04600E200E084B0104C98
:10617000104D04E0621C81B2104609F06BFA2868E9
:106180000022D34301A909F0FFF90028F2D101A8A8
:1061900009F066FA02990029F1D00398002802D08C
:1061A00009F064FAEBE7204609F070F9E7E7C0462A
:1061B00002600000DC41012080B50A460021FFF7A3
:1061C00025FF4142484180BD80B5FFF749FF41426C
:1061D000484180BD80B5FFF791FF4142484180BDF5
:1061E00080B5FFF7B1FF4142484180BD3E4800887D
:1061F000421A50425041354A12888A4201D040002A
:10620000704701207047C046B0B582B000282ED03C
:106210002F49086018490025184B28462A4605F0E2
:1062200001FE0124002823D0009501958920430018
:10623000134928462A4605F089FD2449088000288C
:1062400016D009F019FA28490880002810D00D4806
:10625000022100252A462B4609F014FA002807D00F
:1062600005F0A6FD2148012101702C4600E0102414
:10627000204602B0B0BDC0460F1800008C3001208F
:10628000192A000008290000B0B51D460F480088F3
:1062900088420BD10124002D14D00D48006880479E
:1062A000642800D3642028702046B0BD0E480088C2
:1062B000884209D10224002D04D0002068700B48C8
:1062C000007828702046B0BD0020B0BD8871012044
:1062D0008071012004480088884203D1009800782A
:1062E00002490870002070478A7101208C710120DA
:1062F000F0B593B07F48012109F0CAF900260028C3
:1063000000D1DBE07C4809F0C9F9002800D1D5E0D4
:106310007A4809F0C9F9002800D1CFE07848012473
:10632000214609F0C7F9002800D1C7E004200090F9
:106330007448754A10210B4609F0C2F9002800D1B3
:10634000BCE07248062109F0C1F9002800D1B5E08F
:106350006F48022109F0C0F9002800D1AEE0250203
:1063600000206C496C4A131859601D8149191C3072
:106370007028F8D100206949694A13185960282605
:106380001E8128311C307028F7D166480D9065A019
:1063900041688268C06810900F920E910DA809F0B4
:1063A000A1F9002800D186E001940020614A624BE7
:1063B0001918CA600D8241218900521830306028B6
:1063C000F6D10395BF20C5435C4F28465C4A14189C
:1063D000CC22A750D023E6522C373030F6D102928F
:1063E0000024584F58480019C7600A460399018293
:1063F0001146BF183034602CF4D15449544C029AE1
:1064000060198150C6522C313035F9D151A104A800
:10641000024678C978C278C978C209F069F90028BB
:10642000039C4AD000205349534A13189C81996019
:10643000091920304028F8D14F480222214609F09E
:106440005DF9002839D000204C494D4A11501318ED
:106450009C80091910302028F8D149480222214691
:1064600009F052F90026002828D046480DAA114606
:1064700038C838C138C838C14020082109F05AF856
:106480004149086000281CD0404804AA114638C879
:1064900038C138C838C138C838C13D4800263146EF
:1064A00009F038F907463B480760002F0DD03A48FD
:1064B00009F036F90CE0002600E00026304613B063
:1064C000F0BD39480AF066FAF8E734480AF062FA93
:1064D000019C002FF2D009F029F90398F43009F05B
:1064E0002BF92F482F4909F02DF909F031F92646EB
:1064F000E4E7C04628550120F8570120C056012086
:1065000098500120705A0120805A0120805C01209F
:10651000105A0120B0600120E0580120C06801201D
:10652000905A0120E058012000010400905A0120F7
:1065300028000400B8660120B0590120106A01202B
:10654000C05B0120B0640120505901206069012026
:10655000005B0120B059012000010200C05B012056
:10656000280004005059012000010200005B0120B6
:1065700028000400B05C012058500120B05E0120CA
:1065800008550120F0090120AC7E0120CC09012032
:1065900079AB0020747E0120D1D800205E0E01204E
:1065A000AC0D0000B80B0000470E0120F0B585B01F
:1065B0000646144D284600F063FF002737722888EE
:1065C000308068887080A888B080E888F0800EA04D
:1065D0001749184E324609F0CFFC2C88A878E97884
:1065E0002A796B79AD790090019102920393049519
:1065F000B21C57480E49234609F0BEFC384605B088
:10660000F0BDC0468E7101205B25735D5B25645D26
:10661000203A2043474D204354532047657420536C
:10662000797374656D2054696D650D0A0000000072
:10663000E02801203A080000B0B582B010240028FC
:106640002ED0016800292BD0174A11601749012468
:106650000C7040681649086016490025164B2846FC
:106660002A4605F0DFFB00281AD0009501958D2001
:106670004300124928462A4605F068FB1049088065
:1066800000280DD008F0F8FF0E490880002807D038
:1066900005F08EFB0C48417A01220A4342722C46D7
:1066A000204602B0B0BDC046607201205E7201207B
:1066B0006472012005180000A43001202B2A00007C
:1066C000587201205C7201204C720120F0B585B037
:1066D0000188124C2180418861808188A180C08816
:1066E000E080204601F0AEF80DA0174D174E294668
:1066F000324609F041FC2388A078E1782279677955
:10670000A47900900191029203970494B21C10485E
:10671000294609F031FC002005B0F0BD8E71012042
:106720005B25735D5B25645D203A2043474D204324
:106730005453205365742053797374656D205469E4
:106740006D650D0A00000000FA28012053080000C2
:10675000F918012062480088401A41424141C800AE
:106760007047C046F0B583B043490025434B2846E7
:106770002A4605F057FB002867D000950195812037
:1067800043003F4C284621462A4605F0DFFA002800
:1067900060D0534908800D2001903A480090611C58
:1067A00000200223024605F0D1FA002857D00E2619
:1067B000019635480090A11C0025022328462A4650
:1067C00005F0C4FA00284FD0122701972F480090F7
:1067D000E11C0296022628462A46334605F0B6FA00
:1067E00001972B480090211D28462A46334605F084
:1067F000ADFA019727480090611D28462A46334686
:1068000005F0A4FA019724480090A11D28462A46C5
:10681000334605F09BFA0298019020480090E11D54
:1068200028462A46334605F091FA072001901C4875
:1068300000902D34284621462A46334605F086FA34
:1068400005F0B6FA08F08AFF12E016480AF0A2F83E
:1068500001250DE013480AF09DF8012508E01148D4
:106860000AF098F8012503E00E480AF093F8012594
:10687000284603B0F0BDC0460A1800000C0A0120EB
:10688000232A0000880A0120980A01204C0A0120CE
:10689000600A0120A80A0120740A0120300A0120A0
:1068A000DD300120280E012010B50D4800888842F7
:1068B00014D10820002B10D00A490A6849681971C0
:1068C0001A700C0EDC710C0C9C71090A5971110EB6
:1068D000D970110C9970110A597010BD002010BDAB
:1068E000989A012000AD0120B0B584B013460C4643
:1068F000EFF305856946487000220A7002940193FF
:10690000002D01D0134600E0D3430A48006808F088
:106910002BFF00280CD0034607480849084C2246A4
:1069200009F02AFB113407A010A1224609F024FB2C
:1069300004B0B0BDC86A01209D1E01204A29012073
:10694000BB0200005B25735D5B25645D203A20532C
:10695000656E6420426C65204D65737361676520C8
:106960004661696C65640D0A00000000626C655F39
:106970006576656E745F63616C6C6261636B000069
:1069800070B582B0401E622800D9B7E10C464E1C9B
:106990004000C0467844808840008744620076000A
:1069A0008A009E00C300DB00EC0000011D012D01E8
:1069B000AF01AF01AF01AF01AF01AF01AF01AF0157
:1069C000AF01AF01AF01AF01AF01AF01AF01AF0147
:1069D000AF01AF01AF01AF01AF0145014801530164
:1069E0006101AF0164016A016E01AF01AF01AF0146
:1069F000AF01AF01AF01AF01AF01AF01AF01AF0117
:106A0000AF01AF01AF01AF01AF01AF01AF01AF0106
:106A1000AF01AF01AF01AF01AF017B01AF01AF012A
:106A2000840187018A018D019001930196019901EA
:106A30009C01AF019F01AF01AF01AF01AF01AF01F9
:106A4000AF01AF01AF01AF01AF01AF01A201AF01D3
:106A5000AF01AF01AF01AF01AF01AF01AF01A501C0
:106A6000AB01A078E17809020918E54809F084FA39
:106A7000A078E17809020818DF490880C94803684E
:106A8000002B00D13AE1012010E030787178090242
:106A90000918E278D94809F06FFAD7480021018037
:106AA000C0480368002B00D128E1022000210A46DB
:106AB0004DE02079617909020918E3783278C748F6
:106AC00008F058FE20796179090209183078727847
:106AD00012021218E378C2485DE020796179090258
:106AE0000918B14808F0B6FD211DB048082208F089
:106AF00047FE2079617909020818A179E27912022A
:106B0000511809040A18207A617A09020818A17A32
:106B1000E37A1B02591809040B18A5A009F02CFAF6
:106B200002B070BD15462389E288A1889B4808F011
:106B30002DFE2389E288A188994809F01DFA994819
:106B40000368002B00D1D9E0AAB20520214698475E
:106B500002B070BD3078717809020918B078F27807
:106B600012021218B079F3791B021B188A4808F038
:106B70000DFE02B070BDA078E178090209186379B2
:106B80002279834808F0F6FDA078E1780902091817
:106B9000637922797F4809F0EFF902B070BDE2789D
:106BA0003178924808F0F8FD3078717809020918B8
:106BB000E2788F4809F0E0F94B20C00401908D483D
:106BC00000908D4C2088694608F0A2FC2088C821DE
:106BD00008F0E8FD02B070BD30787178090209183C
:106BE000804808F037FD30787178090209187E482E
:106BF00009F0C2F902B070BD207861780902091865
:106C0000A078E27812021218524808F0D1FD2078DC
:106C1000617809020918A078E278120212184EA0D1
:106C200009F0AAF902B070BD218848485EE0A01CB6
:106C3000002108F0C3FD0146207862781202121884
:106C4000414809E0A01C002108F0B8FD0146207869
:106C50006278120212183B4808F0B6FD02B070BD0F
:106C60002188374842E020786178090209183348C2
:106C70003CE0A2782178304811E020786178090260
:106C80000918A07AE27A120212182A4808F090FD38
:106C900002B070BD2178E0784042C2B2244808F0CA
:106CA0007BFD02B070BD21781E481FE021781C4892
:106CB0001CE02178194819E02178174816E021785E
:106CC000144813E02178124810E021780F480DE0B5
:106CD00021780D480AE021780A4807E02178084821
:106CE00004E02178104801E02178104808F0B2FC57
:106CF00002B070BD2178164808F0ACFC02B070BD3F
:106D00002BA000002AA0000029A0000028A000005D
:106D100027A0000026A0000025A0000024A000005D
:106D200023A0000022A000002CA0000033A000003F
:106D300021A0000016A0000015A0000014A0000073
:106D400013A0000012A0000011A0000010A000007D
:106D500034A000000FA000005B4D53475F424C453C
:106D60005F4D54555F45584348414E4745445F4940
:106D70004E445D2048616E646C65203D203078256E
:106D8000582C206D7475203D2025640A00000000F9
:106D90000EA00000DE0E01200DA000000CA00000DF
:106DA00031100120F04F01200AA000000BA00000CC
:106DB0005B4D53475F424C455F4C4C5F46454154E9
:106DC0005255455F494E445D2048616E646C6520B4
:106DD0003D203078254C580A0000000009A0000032
:106DE000A60F012008A00000770F012007A00000D7
:106DF0002D0F012020032003B4720120F80F012081
:106E0000A010012010B50446024808F0E3FC024837
:106E1000046010BD81690020F04F01202F480088D8
:106E2000411A4842484170472C480088884205D1A1
:106E30000120002B01D000211970704700207047FD
:106E4000F0B583B014460D460146202D00D3202511
:106E50001F4F38462A46FCF7B5FD200A1D4E7070BC
:106E600034700320C10200201B4B024604F0DAFFFD
:106E70000124002828D00097019515204502002004
:106E80000227294602463B4604F060FF00281BD03B
:106E900000960197691C0026304632463B4604F0B6
:106EA00055FF002810D000960196A635812043009A
:106EB00030462946324604F049FF002804D00749ED
:106EC000088004F075FF3446204603B0F0BDC0468C
:106ED000A8970120A4970120240A0120909A01205C
:106EE0000020704725480088401A4142414148002F
:106EF0007047C04621490988814208D10220002BF1
:106F000004D0002159701E4909781970704700207B
:106F10007047C046B0B582B010490024104B2046DF
:106F2000224604F07FFF0125002813D0009401942D
:106F3000112003010B492046224604F007FF0028D8
:106F400008D008F099FB002804D00C49088004F010
:106F50002FFF2546284602B0B0BDC04601180000EC
:106F6000180A0120052A000004480088884203D13D
:106F7000009800780249087000207047408D012079
:106F800030A00120F0B597B00124A1024448454A41
:106F900010252B4604F0A4FF43A00BA94CC84CC1FC
:106FA0004CC84CC146A002AA1146C8C8C8C1C8C82E
:106FB000C8C12421284608F013FC4749086000286E
:106FC00012D046A011AA114668C868C168C868C135
:106FD0000820802108F004FC46490860002807D1F9
:106FE00003204003401C01E00320400308F04EFA58
:106FF00040200C210BAA08F09DFA3F4908600028A8
:1070000018D03EA002AA114668C868C168C868C105
:1070100068C868C14248002108F07CFB0546414829
:107020000560002D0AD0802008F0E0FB3E4808F003
:10703000E3FB08E00025002D2ED008E003204003EC
:10704000093008F023FA681E8541002D24D026025D
:107050000096102128220823204608F0D3FB68362A
:107060003248314608F0D4FB33208101304808F023
:10707000D5FB30480221302208F0D6FB08F0DAFBBD
:107080002D4808F0DDFB2D4808F0E0FB2C4808F007
:10709000E3FB2C4808F0E6FB284617B0F0BDC046DD
:1070A000309C0120089A0120890E01200000000078
:1070B000A841012034000000E0410120000600004A
:1070C000C30E01200000000008AD012024000000D4
:1070D0006495012040020000D49901209C0E0120FB
:1070E000000000002CAD012024000000649101206C
:1070F00000040000D0990120DC410120B60E0120DF
:10710000010000006041012044000000E047012030
:107110000008000020000000000000000000000047
:107120006D610020A4410120EDD70020C89A012004
:1071300038A00120F84F0120B9610020D56100205E
:10714000E1610020C961002010B506F0E7F90024D4
:107150000221204608F076F9124804220260FF203E
:10716000000411490B6883430B60104802600F2034
:107170000321072308F03EFA00F03CF8FFF7B8F8C7
:10718000002807D0FFF7FEFE002805D004F08CFD94
:10719000204610BD06A000E00CA009F0FBFB01207A
:1071A00010BDC04680E200E000E400E000E100E045
:1071B000626C655F636F6E74726F6C6C65725F6931
:1071C0006E6974206572726F722E0000626C655F6A
:1071D000686F73745F696E6974206572726F722E66
:1071E0000000000080B508F043FB80BD80B508F0CA
:1071F00045FB80BD10B52B4808F046FB2A4808F037
:1072000049FB2A4808F04CFB294808F04FFB294865
:1072100008F052FB284808F055FB284808F058FBB6
:10722000274808F05BFB274808F05EFB264808F07B
:1072300061FB264808F064FB254808F067FB2548F9
:1072400008F06AFB244808F06DFB244808F070FB46
:10725000234808F073FB234808F076FB224808F027
:1072600079FB224808F07CFB214808F07FFB21488D
:1072700008F082FB204808F085FB204808F088FBD6
:107280001F4808F08BFB1F4808F08EFB0020C4430A
:107290002046214608F08EFB2046214608F090FB50
:1072A00010BDC046D3BC0200B3BC0200BBBC020090
:1072B000CBBC0200C3BC0200B955010069560100F5
:1072C000612702000127020015270200710B02004E
:1072D0005D240200312602009D2502008D26020059
:1072E000F9250200C52602007D270200752702004D
:1072F0007D0B0200D9E9030001E803003DE703002C
:10730000C5EA03009DEA030003480088401A414291
:10731000414148007047C046D0CD01200020704751
:1073200080B50298002807D0044A12888A4203D107
:107330000399034A12689047002080BDCECD0120FA
:10734000CC6A012010B584B0684615498180154883
:10735000009002A8002484800294062102F0A1FA81
:10736000204602A9095D4018641C062CF9D10004CE
:1073700004D068460399818002980090684608F01E
:1073800025FB214C2046FCF741FB0D210A02C1B22E
:107390002046FFF755FDFFF7BDFD04B010BDC04608
:1073A000AC0400001111114406494118203989B27A
:1073B000054A914201D210207047044908800020FC
:1073C0007047C0461FC0FFFF1FC00000D83001201B
:1073D00070B51024002814D00546FCF717FB1728B9
:1073E0000FD8094E002434607460B460F4603461D6
:1073F00074612846FCF70AFB024630462946FCF732
:10740000E1FA204670BDC046B0300120F0B583B02F
:10741000002830D00746B54E002434607460B1486F
:107420000460B1480460AE4D2C60AA480470304638
:1074300000F026F83888798809040818B988FA888D
:107440001204511803C6083E3046294600F032FAAD
:1074500001940094684608F0BFFA9D4804604460B7
:107460009A480199009A0260416028689E49086024
:107470009C49086000E01024204603B0F0BDC046DF
:10748000F0B58FB0099008F0ADFA8F490A880A92DA
:107490000B90088000260D960C960CA808F09CFA1C
:1074A0008A4908680C9B0B604A680D9C4C60FF2160
:1074B0005F1E61411D1A2546954103D33546002DB7
:1074C00003D003E00125002D00D12146002D00D17D
:1074D0001F46381A91410B9A0A9B9A185208334654
:1074E000FCF712FA8A06800983188A09ED4C206895
:1074F00018182060616851416160764C2478002C36
:1075000006D0754C2568EB182360636853416360AF
:10751000724A00242346FCF7C7F9E14909680F18AD
:10752000E3480760E1480068DC4AD1790A9196791E
:1075300055791379D1780B919178128887424BD97C
:10754000381A801986B23C2E089749D307910592C4
:1075500006933C2730463946FCF7C0FD3946414387
:10756000761A2D18E8B23C283ED389214143480BB6
:107570004743ED1B069BC318D8B2182837D3009693
:1075800006930395AB2141430E0B18200490AC48A1
:1075900007990818401E007802900B9830180B903D
:1075A000C0B2019019200101059F3846FCF796FDF5
:1075B000002921D003223A40504250419F4A7A4349
:1075C0000223DA41F74B9A4200D90124039D049A21
:1075D000019B029F044014E0099F002F69D171E0D4
:1075E000099F0646AD4C56E0099F069B00E0099FA7
:1075F000059A0799A94C4EE00124039D049A019B2A
:10760000029F72430A983618E019984210D2002956
:1076100011D013460320059A104041424141E048F1
:1076200050430222D041DF4A904206D8002005E0B4
:10763000099F9A4C1DE0012003E0012008401A46F2
:10764000019B0799491C0791C9B20C29049202D9E0
:10765000059A521C0592099F904C0C2901D90121D1
:107660000791029941181846FCF738FD0B91039DCC
:10767000049A069B9B1AF0B225214143080A311A4D
:10768000C9B249080818800807214143701A0A90B6
:10769000059A0799009E0A98E071A6716571237199
:1076A0000B98E070A17022800898804C2060002F19
:1076B00008D00A98F871BE717D713B710B98F87013
:1076C000B9703A800FB0F0BD969A0120B09A0120AF
:1076D000B89A0120F8AC0120C09A01200024F400DF
:1076E000AC9A01209C9A0120A89A0120009A0120BE
:1076F000F0B583B0002976D0012202928A700F463D
:10770000AB4C0C80E1210091C90145183C2628466C
:107710003146FCF7E3FC01903146FCF7DFFC797160
:10772000009801012846FCF7D9FC1821FCF7D6FC8B
:10773000397101984643A81BB871A1492846FCF746
:10774000CDFC0546001D0721FCF7C8FC0197F97127
:107750000AE00320074078427841641C01990C80BC
:1077600040009649085A2D1AA7B21920010138463F
:10777000FCF7B4FC0E460029029A10460CD088484B
:1077800078430221C8418C49884204D303213940FF
:107790004842484100E0002040008849085A85429C
:1077A0000BD3002E1046D8D07D4878430221C84123
:1077B00081498842CDD20020CFE7032004406042B7
:1077C0006041009064213846FCF788FC481E0A4658
:1077D0008241002E029802D00098024010461F2DD0
:1077E00004D2019A24E0102003B0F0BD624262414D
:1077F0004B1E9941002E01D01140029101998978C8
:1078000000221F261446029B1A40AD1BAD1AE6B299
:107810007242724117460740641CE6B20346634851
:10782000865D1846BF19491CBD42ECD2019A917081
:10783000681CD070002003B0F0BDC046295C8FC228
:107840003E0A0120B0B582B0002822D001884288CB
:10785000120451188288C38810481B049A1806C065
:107860000F4D2946083800F025F8002401940094B3
:10787000684608F0B1F80B48046044600A48019972
:10788000009A026041602868084908600849086059
:1078900000E01024204602B0B0BDC046009A01208E
:1078A000AC9A0120B89A0120B09A0120A89A012030
:1078B0009C9A0120F0B583B002461020002A6DD0BA
:1078C00000296BD0108893780127022B0291019236
:1078D0000ED3032101404C424C41314D454302211E
:1078E0002E46CE412F4900228E4203D8164602E092
:1078F000002213E001260421CD412B498D423D4653
:1079000001D326403546294959188C1E2178511833
:107910004A19641E5B1ED9B20129F7D8244DA8422A
:1079200020D9461E0CE003233340594259414900F7
:10793000224B595A8A18761E401E81B2A94211D98B
:10794000174971431B4BCB1804211C46CC411649E7
:107950008C423946EBD30221CB4117498B42E2D20C
:107960000021E4E7019DE8781018401E84B2201D34
:107970000721FCF7B3FBE971E120000129794143BC
:107980000F486043081869793C224A438018A97956
:1079900040180C49401802990860002003B0F0BD5F
:1079A000295C8FC2285C8F020BD7A3003E0A0120FE
:1079B000B207000050B81E05295C8F02080A01209A
:1079C00080510100808FFFFFF0B585B0002800D105
:1079D0009DE005462A30594F3D60594A1160002408
:1079E0002C7701210291017056492960017C002900
:1079F00001D10121017403A8848003945249534B9F
:107A00002046224604F00EFA3968C880009401949A
:107A10004F4E314655314F4B0E332046224604F02F
:107A200095F9002875D0288107F026FE002872D02D
:107A30003A68136A03A90B701C0C8C701B0A4B70FC
:107A400068812420105C24325278434B8B800F23B2
:107A5000034010011818C8700620009101903146AB
:107A6000563100243D4B2046224604F06FF9002891
:107A700053D0A881009401943146573120462246C4
:107A8000344F3B4604F062F9002848D0E881009466
:107A90000194314658313B4608332046224604F0D3
:107AA00055F900283DD0288200940194314659317F
:107AB000204622463B4604F049F9002833D068822C
:107AC0000094019426372046314622463B4604F076
:107AD0003DF9002829D0A88207F0CEFD002826D045
:107AE000E882009401945A362046314622463B46AD
:107AF00004F02CF900281CD0288307F0BDFD0028D5
:107B0000029917D0688304F053F9214612E001214D
:107B100010E002990EE002990CE002990AE0029945
:107B200008E0029906E0029904E0029902E0029955
:107B300000E00299084605B0F0BDC046D06A0120B9
:107B4000EC4F0120619300201F18000098300120A5
:107B5000522A000002050000FFFF0000020400009E
:107B6000BB4800887047C046F0B581B01920850138
:107B700001200024334A21462B4603F081F80028D7
:107B800001D03F2214E000212F4E0220324603464E
:107B900003F076F8002801D0462209E003200027F0
:107BA0002A4A6423394603F06BF800283CD04D2262
:107BB00027A0334E314608F0DFF932A05722314674
:107BC00008F0DAF9204804801E4F38462946FBF7B2
:107BD00012FF1E486421FF22FBF706FF00940126D6
:107BE000304621463A462B4603F01EF9002812D1B2
:107BF0000094154A02202146034603F015F9002897
:107C000009D1012000900320104A6423214603F08B
:107C10000BF9002805D025A019496F2208F0ACF90E
:107C20003446204601B0F0BD2B48154C5122214668
:107C300008F0A2F9338829485222214608F09CF91D
:107C40003C46EEE7D86A0120BA7201201C7101207F
:107C50005B25735D5B25645D203A2043474D5320CF
:107C60004461746162617365204E6F7420466F7564
:107C70006E6420696E20466C6173680D0A00000016
:107C8000A71201205B25735D5B25645D203A2043CC
:107C9000474D53204372656174652061204E6577BE
:107CA0002044617461626173650D0A005B25735D38
:107CB0005B25645D203A2043474D53204461746145
:107CC0006261736520437265617465204661696C09
:107CD00065640D0A000000003F12012075120120AA
:107CE000F0B581B00646214F3888B04239D92048D6
:107CF000805D01011F48002444540094421801256E
:107D00001023284603F090F8002823D11848821940
:107D10003888411E3980881B89B2B14210D007D9FA
:107D2000891B13465F781F70491E5B1C0029F9D11F
:107D3000009483B20320314603F076F8002809D17D
:107D400001200090094A02202146034603F06CF806
:107D5000002807D008A013A1F82208F00DF92C463E
:107D600000E02224204601B0F0BDC046BA720120D6
:107D70001C710120D86A01205B25735D5B25645D61
:107D8000203A2043474D532044617461626173651A
:107D90002044656C657465204661696C65640D0AF4
:107DA0000000000063676D735F64625F7265636FFC
:107DB00072645F64656C657465000000F0B581B045
:107DC00023480024048019208601234F3846314679
:107DD000FBF711FE1F486421FF22FBF705FE00940C
:107DE0000125284621463A46334603F01DF800286F
:107DF00012D10094164A02202146034603F014F8DB
:107E0000002809D1012000900320124A6423214652
:107E100003F00AF8002800D02C46204601B0F0BD3F
:107E200010B502460A480388222093420ED9094B16
:107E30009A5C1201084B9C5C002C07D09818831C9C
:107E40000E2208461946FBF7BDFD002010BDC046B6
:107E5000BA7201201C710120D86A012010B584B0CB
:107E60000B46EFF3058469464870012008700293C1
:107E700001920022002C01D0134600E0D3430A48AF
:107E8000006807F071FC00280CD003460748084939
:107E9000084C224608F070F8213407A010A12246B1
:107EA00008F06AF804B010BDC86A01209D1E0120C8
:107EB0004A290120BB0200005B25735D5B25645DE0
:107EC000203A2053656E642043474D204D657373FF
:107ED000616765204661696C65640D0A00000000F9
:107EE00063676D735F6576656E745F63616C6C620A
:107EF00061636B000B480268538902208B420ED0ED
:107F0000538B8B420BD0D38A8B4208D0D0898842C6
:107F100001D106207047108A884201D002207047A4
:107F200009207047D06A01203C4800787047C0465D
:107F3000B0B50C460546FFF7F7FF002804D02846E9
:107F4000214600F003F8B0BD0020B0BDF0B587B009
:107F50000D46029003AE0020B0810590049003907E
:107F60004C784A8802213046019107F041FDAA88E9
:107F70000421304607F03CFDA879002805D003A96C
:107F8000887120200443072600E00626E8790028AF
:107F9000029B04D003A9885540200443761C287A0C
:107FA000002804D003A9885580200443761C0127AB
:107FB00020463840414241412120185C8022024045
:107FC00050425041084306D16A8903A8314607F060
:107FD0000FFD029BB61C01992140484248412221D5
:107FE000595CC90700D00746002F05D1AA8903A80C
:107FF000314607F0FDFC029B03AA547016701989E4
:108000009888334607F0FAFC411E884107B0F0BD5E
:1080100001210140014801707047C046DC30012059
:10802000F0B587B0404D2846FEF78EF87D20C000A1
:108030003E4F39684143002428462246FEF75EF849
:108040003B4D2888401C2880396880B248433C2832
:108050004BD32C803C21FCF741F8364E318D08186B
:1080600030853548808BFCF7BDFA01F069FF334954
:10807000088081B2324807F07FFF308D314941439B
:108080000126F141304881422FD8204607F0BCF943
:108090002E4802210291224607F0C8F904AFBC72B3
:1080A0003C8130020190F8800C20387103AE34809E
:1080B0002748049021200101384603F0C5FF3846C7
:1080C0001A4F0199324603F0A7FF33883720C200C8
:1080D0002048214907F050FF029807F095F93188B0
:1080E0001E4801801E4807F047FF2988386848432A
:1080F0003C21FBF7F3FF0F48038D009119481A4C00
:108100001A4D21462A4607F037FF194808F042FC6D
:108110006A1D18A0214607F02FFFFCF78DFDFCF724
:108120005FFE07B0F0BDC046EC7101202441012084
:10813000E04F01209871012028410120BC720120EC
:10814000A4270120CDCCCCCC9999991980B004609A
:1081500000000260AB1601205C290120B0720120F2
:108160008F27012041180120162A012096050000C2
:10817000562E01205B25735D5B25645D203A2054FB
:10818000696D654F7574205374617274204D65611B
:108190007375726520414645205745310D0A000030
:1081A000F0B591B016460C4607463B3017210390B8
:1081B000FBF721FC25783B203D54022E02D360784A
:1081C0000399487002973D37032E09D3162E00DB22
:1081D0001626B01E3875C2B2A11C3846FBF7F2FB5A
:1081E00003984078009043208600644864493246F2
:1081F0002B4607F0C1FE387D002809D0002561A478
:10820000795D204607F0B8FE6D1C387D8542F7D3B6
:108210005EA008F0BFFB039801780298407F002819
:1082200009D00020032901464AD10398407800284C
:108230001AD0032042E0491E03292BD80720C0464C
:108240007944097949008F44011439010398417830
:1082500006292DD80320C0467944097949008F4466
:108260002D151B1B29151500387D00281ED1012056
:1082700024E00398417806291AD803207944097923
:1082800049008F441B03090917030300387D0028A8
:1082900014D012E0022011E0387D03280DD1397886
:1082A00048424841022901D0C00007E0092005E00A
:1082B000042003E0387D0528F1D0052041424141EA
:1082C00000290DD00120029C6077039800780428D3
:1082D00042D0022843D0012846D12168042040E042
:1082E000002831D037460021029E7177039A147816
:1082F00004ADA9820223AB75049106222A80AC70DA
:10830000E8700891079106910591002E17D020483A
:108310000078002813D00AA84170027004A8847D58
:10832000002C07D00AA8801C04A9891C2246FBF750
:1083300049FBA31CB18AB0880AAA07F065FB3A463C
:108340001A3214A00E4903E01F361CA00C49324615
:1083500007F012FE11B0F0BD2168052001E0216890
:108360000620884711B0F0BD11361EA004493246E0
:1083700007F002FE0020607711B0F0BDE811012087
:108380002B12012030782530325820000D000000DB
:10839000DB3001205B25735D5B25645D203A204363
:1083A000474D53205241435020496E76616C6964B9
:1083B00020436F6D6D616E640A0000005B25735D84
:1083C0005B25645D203A2043474D53205241435082
:1083D0002049676E6F726520436F6D6D616E640A30
:1083E000000000005B25735D5B25645D203A20433F
:1083F000474D532052414350204552524F52203A4C
:1084000020556E6B6E6F776E205374617475730AAE
:1084100000000000014800787047C046DB300120B2
:10842000B0B500280DD00546FFF79AFB00280AD00A
:108430000446687F00280ED0FFF7C0FC002813D048
:10844000B0BD1020B0BD89208200D8481A4907F07D
:1084500093FD2220B0BD89208000821DD14816499D
:1084600007F08AFD0420B0BD892082000F3203A0EE
:108470001149234607F080FD0020B0BD5B25735DE8
:108480005B25645D203A2043474D532044656C656D
:10849000746520416C6C2053746F72656420526562
:1084A000636F726473205375636365737366756C71
:1084B000203A2025750D0A0022140120F0B589B05C
:1084C000002832D00546FFF74BFB049000282ED041
:1084D00000263446687F00282BD0A0B205A9FFF7FC
:1084E0009FFC00282DD105A92846FFF721FD002873
:1084F0002CD105AF788806F081F805F023FAFBF758
:10850000D9FDBA8800AB07C3761C9222EA481B4902
:10851000334607F031FD0127384607F005F8641CA3
:108520000498B042D6D139460DE0002022E07922ED
:108530001BE0E2481149812207F01EFDB7B204207A
:108540000BE0B7B20121002914D009E0D8480B494B
:108550008C2207F011FDB7B201200021002909D0BB
:10856000002F01D0002005E09822E848034907F0D9
:1085700003FD2220C0B209B0F0BDC046E9140120BD
:1085800010B500280CD0407F00280BD00020FFF74A
:10859000A7FB04460A4A00280BD0D21D09480AE06E
:1085A000102010BDEA480849054A07F0E5FC042000
:1085B00010BD0B3205A0044907F0DEFC204610BDBB
:1085C000CF020000051301205B1401205B25735DC1
:1085D0005B25645D203A2043474D532044656C651C
:1085E0007465642046697273742053746F72656495
:1085F000205265636F726473205375636365737390
:1086000066756C0D0A00000070B588B0002812D0A5
:108610000646407F002810D0002004A9FFF700FC88
:10862000FF253E35002810D00446EA1DED481949C3
:1086300007F0A2FC2AE0102428E0FF223E32ED4899
:10864000144907F099FC042420E004A93046FFF700
:108650006FFC002807D00E35E4480E492A4607F083
:108660008BFC012412E0044604AE708805F0C6FFBE
:1086700005F068F9FBF71EFDB28800AB07C31335A0
:10868000DB48044901232A4607F076FC204608B05F
:1086900070BDC04622150120F0B58DB008900028AD
:1086A00056D00D469D208400FFF75AFA0690002808
:1086B00050D00898407F41424141002801940791E1
:1086C0004FD0029500263046039685B20746FFF745
:1086D00047FA85421BD2044605960497029EB8B21B
:1086E00009AD2946FFF79CFBA9880025B14201D3BB
:1086F000294600E00121421E9041084301280CD187
:108700007F1CB9B2A142EAD32225049A06E02225B1
:1087100003983A46002806D12BE03A46012148400A
:10872000059E002825D0174694B22046FFF7D8FAB8
:10873000054600281DD1761C0698844219D2089857
:10874000407F41424141079100283846BDD10AE0AF
:10875000102524E0EE481449224607F00DFC22259E
:108760001DE000252E46019A0832E6480E4907F022
:1087700003FC0798C00701D0042510E0300408D09E
:10878000019A1932B3B2E148074907F0F5FB002519
:1087900005E0019A1D32DE48034907F0EDFB28464B
:1087A0000DB0F0BDDE120120D3130120051301200E
:1087B000F0B58DB00891002859D00746FFF7D0F9E1
:1087C0000590002855D000260120079034460497D4
:1087D000787F00284FD00696A5B2FFF7C1F98542F1
:1087E00018D207462546A8B209AE3146FFF718FB56
:1087F000B188089A914201D3002100E001210028AC
:10880000079800D10846012806D16D1CA9B2B942CB
:10881000E9D302E0002002E02C4601214840069EF8
:10882000049F00281FD009A93846FFF781FB0028C4
:1088300028D109AD688805F0E1FE05F083F8FBF763
:1088400039FCAA8800AB07C3761CB3B2F622F34802
:10885000184907F091FB012006F066FE641CA0B2E7
:1088600005998842B4D3079900291ED013E010203F
:108870001BE0DD2214E0F7480E49E52207F07CFBFF
:10888000042005E0E3480B49F02207F075FB0120C6
:108890000021002909D0300401D0002005E0FC228D
:1088A000DF48044907F068FB2220C0B20DB0F0BDDC
:1088B000B41201209A14012068130120DE12012055
:1088C00010B500280FD0407F00280ED0FFF748F9E0
:1088D000401E80B2FFF704FA04460B4A00280BD072
:1088E000D21D0A480AE0102010BDF4480849064A83
:1088F00007F042FB042010BD0B3206A0044907F02C
:108900003BFB204610BDC046E902000005130120D4
:108910003E1401205B25735D5B25645D203A204396
:10892000474D532044656C65746564204C617374D5
:108930002053746F726564205265636F7264732094
:108940005375636365737366756C0D0A00000000F0
:10895000DE12012070B588B0002815D00646407F91
:10896000002813D0FFF7FCF8401E80B204A9FFF7DF
:1089700057FAFF256035002810D00446EA1DA848A4
:10898000194907F0F9FA2AE0102428E0FF226032A2
:10899000CA48154907F0F0FA042420E004A930463B
:1089A000FFF7C6FA002807D00E359A480E492A4626
:1089B00007F0E2FA012412E0044604AE708805F0E4
:1089C0001DFE04F0BFFFFBF775FBB28800AB07C3C9
:1089D00013359248044901232A4607F0CDFA204670
:1089E00008B070BD0513012005150120B412012047
:1089F00068130120DE120120F0B58BB0069000282C
:108A000054D00D463E4CFFF7ABF8049000284FD0F1
:108A10000698407F41424141002805914FD0009582
:108A200000263046019685B20746FFF799F8854241
:108A30001BD2044603960297009EB8B207AD2946A2
:108A4000FFF7EEF9A9880025B14201D8294600E0D8
:108A50000121421E9041084301280CD17F1CB9B26C
:108A6000A142EAD32225029A06E0222501983A463D
:108A7000002806D12BE03A4601214840039E0028F9
:108A800025D0174694B22046FFF72AF9054600285C
:108A90001DD1761C0498844219D20698407F414229
:108AA0004141059100283846BDD10AE0102523E058
:108AB0005B481549224607F05FFA22251CE0002595
:108AC0002E460F4A0832D0480F4907F055FA05984C
:108AD000C00701D004250FE0094A300407D019323D
