:020000042000DA
:1030000000700120B1310020B9310020C931002009
:1030100000000000000000000000000000000000B0
:103020000000000000000000000000001905010081
:1030300000000000000000009D050100A90501003E
:10304000D9310020DB31002091340020DF31002015
:10305000E1310020E3310020E5310020E73100209C
:10306000E9310020EB310020ED310020EF3100206C
:10307000F1310020F3310020F5310020F73100203C
:10308000F9310020FB310020FD310020FF3100200C
:10309000013200200332002005320020D534002008
:1030A000093200200B3200200D3200200F320020A8
:1030B000113200201332002015320020F534002098
:1030C0000348854600F006F80048004735490020CF
:1030D00000700120064C0125064E05E0E36807CC90
:1030E0002B430C3C98471034B442F7D3FFF7ECFF66
:1030F000183100202831002002E008C8121F08C142
:10310000002AFAD170477047002001E001C1121F68
:10311000002AFBD170470000207D0020207D002088
:10312000BC6400000831002070B51D4E30780028C6
:1031300034D0EFF31085EFF3108072B619480068B1
:10314000002802D08047002813D03078811E032940
:1031500012D201242046214603F062FC1248016885
:1031600004220A43026030BF0021204603F058FCCD
:103170000AE085F3108870BD012805D10A4801686E
:1031800004229143016030BF08480068002803D042
:103190003178022900D1804785F3108870BDC04680
:1031A0005CBA0020D8E1002010ED00E0D4E100205E
:1031B00019488047194800477046EFF30881EFF33C
:1031C0000982174B9847FEE77046EFF30881EFF34B
:1031D0000982144B9847FEE7FEE7FEE7FEE7FEE7AD
:1031E000FEE7FEE7FEE7FEE7FEE7FEE7FEE7FEE7B7
:1031F000FEE7FEE7FEE7FEE7FEE7FEE7FEE7FEE7A7
:10320000FEE7FEE7FEE7FEE7FEE7FEE7FEE7FEE796
:10321000FEE7FEE7FEE7FEE7D9350020C1300020DB
:10322000993400205D330020F0B51FB4064600201D
:1032300082B005464024019100901BE0019922468E
:103240000F46304600F079F8049A059B801A9941A0
:1032500010D310461946224600F05FF8361A8F4107
:103260000197224601200021009F00F056F83818EF
:103270004D4100902046641E0028DFDC019B009831
:103280002946324607B0F0BD30B5434351435C1880
:10329000010C130C0D465D432C1980B292B2054609
:1032A000554351430A0C09044D1962415843010C1E
:1032B00000044019514130BD03460B439B0703D026
:1032C00009E008C9121F08C0042AFAD203E00B78EB
:1032D0000370401C491C521EF9D2704770B5044659
:1032E000002903D000202022012310E0002801D073
:1032F0000020C043C046C0460DE02546D5408D4263
:1033000005D30D469540641B1D4695404019154652
:10331000521E002DF1DC214670BD10B5202A04DBC1
:103320000146203A9140002010BD914020239C1A74
:103330000346E3401943904010BD10B5202A04DB3A
:103340000846203AD040002110BD0B46D340D04063
:103350002024A21A91400843194610BD15460C4678
:10336000064600F011FAEFF308811D4804F032F828
:10337000300701D51C4800E01A4804F075FA042013
:10338000064001D01AA000E0184804F06DFA1CA015
:1033900004F06AFA002E00D02C4621681CA004F02C
:1033A00019F861681EA004F015F8A16820A004F0C7
:1033B00011F8E16822A004F00DF8216924A004F0BE
:1033C00009F8616926A004F005F8A16928A004F0B5
:1033D00001F8E1692AA003F0FDFF00F0A9F9FEE77A
:1033E000327A0020797A00205A7A00206B7A002005
:1033F0005573696E67207533325073702E0000006C
:10340000537461636B206672616D653A0000000061
:10341000523020203A203078253038580A000000F9
:10342000523120203A203078253038580A000000E8
:10343000523220203A203078253038580A000000D7
:10344000523320203A203078253038580A000000C6
:10345000523132203A203078253038580A000000A6
:103460004C5220203A203078253038580A0000008D
:10347000504320203A203078253038580A00000088
:10348000785053523A203078253038580A000000DE
:1034900080B503F0CBFA80BD14460D46064600F019
:1034A00073F904A031462A46234603F093FF00F047
:1034B0003FF9FEE74E4D495F48616E646C65723AB4
:1034C00020253038582C20253038582C20253038ED
:1034D000580A000010B582B001AC204603F0ACFAE7
:1034E000019803F0AFFA6078000601D500F020FFE4
:1034F00002B010BDF0B583B000250195354C02AE89
:103500002046314603F0A4FA30880821014007D054
:10351000204603F0A3FA642003F0A6FA03F07CFA35
:10352000032101AA204603F0A5FAD64F3C6804E027
:10353000304603F0E3F903F06FFA002C22D0264660
:10354000A46A307D0028F3D1707D0028F0D1B07DD1
:103550000228F2D16946E94803F092FAB168F268AC
:103560000098914204D28842E7D3904204D3E4E722
:10357000904201D38842E0D3F1690029D8D0306A63
:103580008847D5E73968002915D00027009A3D46BD
:10359000DA4804E001271D46896A00290DD08B7D99
:1035A000022BF9D18B68FC07F4D0AC1A9E1AA64204
:1035B000F1D32B46EFE72F46DF4801998D4207D024
:1035C000F90705D003212A4603F060FA03F024FA34
:1035D00003B0F0BD0030056001480249016070474A
:1035E00008ED00E0003000200120C0070649086017
:1035F0007047C04604480421016070470120C0059F
:10360000014908607047C04680E200E00120C00721
:10361000064908607047C0460448042101607047AD
:103620000120C005014908607047C04600E100E084
:103630000120C007014908607047C04600E200E071
:10364000FF20000603490A68824303208007101800
:10365000086070471CE400E0FF20000402490A688B
:1036600082430A607047C04600E400E0FF20000685
:1036700002490A6882430A607047C04614E400E0C9
:1036800070B55D4D29685B4E30680024224603F01A
:1036900003FA30682968224603F004FA53480168A7
:1036A0005348814201D02D2000E02C2003225207F4
:1036B000914200D12B2003F0FBF970BD70B50324BB
:1036C00065071024AA4205D0104DAA4202D0484DE9
:1036D000AA4219D1802505430D4EB54214D1049C50
:1036E000264D2C60002C04D0264C00252580244C2F
:1036F0002580404C20603D4802603F4801604048C2
:10370000036000F041F80446204670BD00080060E8
:1037100080B004601B48008819490988081A414292
:103720004141164802685042504108437047C04624
:10373000F0B581B0114C2068002805D0104D2888C4
:10374000104E3188884201D101B0F0BD274F04E00E
:10375000288081B232889142F6D080B2216809680F
:10376000095C386803F0AAF9206881882888401C21
:1037700082B28A42ECD30020EAE7C04668BA002051
:103780000ABB002008BB0020F0B583B0174D2868A5
:1037900003214907884205D01549884205D10824EC
:1037A0002C2004E004242B2001E00C242D2003F025
:1037B0008BF9104E3068104F3968224603F08AF9B1
:1037C000002801D003B0F0BD39683068022203F050
:1037D00069F90028F6D1094802900948006801906B
:1037E000286801A903F07CF903B0F0BD70BA00208D
:1037F000000400606CBA002010BB002021300101E1
:1038000014BB002080B502F0F1FF02F0A3FD00F030
:1038100047FD00F091FC00F019FE00F08DFE01F074
:103820001FF803F047F803F061F903F065F980BD74
:10383000B0B503461020002B22D0012920D8EFF389
:103840001084EFF3108572B69D7D002D02D084F3B5
:103850001088B0BD00209862DA611976012199754F
:1038600027490A68002A02D10B600021D962254944
:103870000A68002A01D09362DA620B6084F3108830
:10388000B0BDC046FCBA002010B51024002808D0F6
:10389000817D002905D0012141750024C47503F004
:1038A000BBF8204610BD0000B0B5052003F00CF9B0
:1038B000214D00242846214603F024F9FFF794FE09
:1038C000FFF7BEFEFFF7A2FE1F21204603F020F9FE
:1038D00001204102284603F021F90821284603F07F
:1038E00023F9FF21284603F025F9284603F028F99B
:1038F00003480460034804602046B0BD0030056002
:10390000FCBA002000BB002010B504461020002C9B
:1039100011D0A37D002B0ED0626261602146103170
:10392000054803F0ADF80220E075FF200230A082C8
:1039300003F072F8002010BD0030056080B501462C
:103940001020002908D08A7D002A05D00120487562
:10395000C87503F061F8002080BD0000B0B590B0DC
:103960001A480AAC21462CC82CC12CC82CC100F026
:103970005FF840200C21224603F0E8F82B4908604C
:10398000002818D0124801AA114638C838C138C8D2
:1039900038C138C838C10F48002103F0DDF80446AB
:1039A0000D480460002C08D0802003F0DBF80B48A1
:1039B00003F0DEF804E0002404E0094803F0DEF838
:1039C000601E8441204610B0B0BDC04688780020FB
:1039D000A0780020E5390020647D0020A166002049
:1039E0000960000084B0104C104D04E0621C81B2EC
:1039F000104603F0C9F828680022D34301A903F058
:103A0000C9F80028F2D101A803F0CAF802990029E8
:103A1000F1D00398002802D003F0C8F8EBE7204665
:103A200003F0ACF8E7E7C046026000009C7D002090
:103A3000B0B58CB0144806AA114638C838C138C889
:103A400038C11020242103F0B7F81049086000287D
:103A500010D00F486A46114638C838C138C838C136
:103A60000820802103F0A8F80A490860002804D043
:103A70000CB0B0BD0320400302E003204003401C13
:103A800003F07CF80CB0B0BDDC78002064BA0020F4
:103A9000C478002060BA002080B50A460021FFF7F4
:103AA000C7FE4142484180BD80B5FFF7EDFE41426F
:103AB000484180BD80B5FFF727FF4142484180BDA6
:103AC00080B5FFF73BFF4142484180BD10B500245F
:103AD00000F04AFD002810D000F03AFE00280CD07B
:103AE00003F070F87D24A00003F072F8600104492F
:103AF00003F074F803F078F80124204610BDC046A6
:103B0000AC0D00006A480088401A41424141C8009B
:103B10007047C046F0B583B043490025434B284663
:103B20002A4601F0ABF9002867D000950195812065
:103B300043003F4C284621462A4601F033F900282D
:103B400060D03C4908800D2001903B480090611CEA
:103B500000200223024601F025F9002857D00E2646
:103B6000019636480090A11C0025022328462A46CB
:103B700001F018F900284FD0122701973048009023
:103B8000E11C0296022628462A46334601F00AF92D
:103B900001972C480090211D28462A46334601F003
:103BA00001F9019728480090611D28462A463346AE
:103BB00001F0F8F8019725480090A11D28462A46F3
:103BC000334601F0EFF80298019021480090E11D82
:103BD00028462A46334601F0E5F8072001901D48A3
:103BE00000902D34284621462A46334601F0DAF863
:103BF00001F00AF902F0FEFF12E017A003F034FE14
:103C000001250DE014A003F02FFE012508E012A00D
:103C100003F02AFE012503E00FA003F025FE012595
:103C2000284603B0F0BDC0460A1800009C79002069
:103C3000232A00000EBB0020007A0020107A00200A
:103C4000C4790020D8790020207A0020EC79002067
:103C5000B4790020147D002044657620696E666F7B
:103C6000207365727669636520696E697420666188
:103C7000696C7572652E000010B50D480088884289
:103C800014D10820002B10D00A490A68496819711C
:103C90001A700C0EDC710C0C9C71090A5971110E12
:103CA000D970110C9970110A597010BD002010BD07
:103CB0000EBB002040E10020B0B5401E622800D9B4
:103CC000B6E10C464D1C4000784480884000874493
:103CD000620077008B00A100C500D200E200F50071
:103CE00003011201AF01AF01AF01AF01AF01AF019D
:103CF000AF01AF01AF01AF01AF01AF01AF01AF0144
:103D0000AF01AF01AF01AF01AF01AF01AF012901B9
:103D10002E013B014801AF014D0155015B01AF018F
:103D2000AF01AF01AF01AF01AF01AF01AF01AF0113
:103D3000AF01AF01AF01AF01AF01AF01AF01AF0103
:103D4000AF01AF01AF01AF01AF01AF01AF0167013B
:103D5000AF01AF016F01740179017E018301880118
:103D60008D0192019701AF019C01AF01AF01AF013D
:103D7000AF01AF01AF01AF01AF01AF01AF01AF01C3
:103D8000A101AF01AF01AF01AF01AF01AF01AF01C1
:103D9000AF01A601AB01A078E17809020918E44857
:103DA00002F0F2FEA078E17809020918E14803F078
:103DB00011FBA078E17809020818DC490880B0BD41
:103DC000E2782978D74802F01BFF28786978090241
:103DD0000918E278D44803F0FDFAD449002008809D
:103DE000012102F013FFB0BD2079617909020918A1
:103DF000E3782A78C54802F00FFF2079617909023B
:103E0000091828786A7812021218E378C04803F07B
:103E1000E1FAB0BD2079617909020918AE4802F0D3
:103E2000B3FE211DAD48082202F0FCFE2079617925
:103E300009020818A179E2791202511809040A1836
:103E4000207A617A09020818A17AE37A1B025918CC
:103E500009040B18A2A003F0BDFAB0BD2389E288C3
:103E6000A1889B4802F0E4FE2389E288A188994852
:103E700003F0B0FAB0BD2878697809020918A8786B
:103E8000EA7812021218A879EB791B021B188F48E6
:103E900002F0CEFEB0BDA078E1780902091863797E
:103EA0002279884802F0B8FEA078E1780902091862
:103EB00063792279844803F08DFAB0BDE2782978DD
:103EC000964802F09DFE2878697809020918E27880
:103ED000934803F07FFAB0BD287869780902091881
:103EE0008C4802F051FE28786978090209188A483E
:103EF00003F070FAB0BD2078617809020918A07843
:103F0000E27812021218604802F098FE2078617878
:103F100009020918A078E278120212185BA003F0D7
:103F200059FAB0BD2188564802F02EFEB0BDA01C43
:103F3000002102F089FE01462078627812021218F0
:103F40004E4802F087FEB0BDA01C002102F07CFEAE
:103F500001462078627812021218474802F07AFE71
:103F6000B0BD2188434802F00FFEB0BD20786178D3
:103F7000090209183E4802F007FEB0BDA278217878
:103F80003A4802F03DFEB0BD207861780902091878
:103F9000A07AE27A12021218334802F04FFEB0BD46
:103FA0002178E0784042C2B22E4802F029FEB0BD2E
:103FB0002178294802F0E8FDB0BD2178254802F0BB
:103FC000E3FDB0BD2178224802F0DEFDB0BD2178CE
:103FD0001E4802F0D9FDB0BD21781B4802F0D4FD87
:103FE000B0BD2178174802F0CFFDB0BD217814484C
:103FF00002F0CAFDB0BD2178104802F0C5FDB0BD89
:1040000021780D4802F0C0FDB0BD2178094802F0CA
:10401000BBFDB0BD2178114802F0B6FDB0BD2178DE
:104020000F4802F0B1FDB0BD2178164802F0ACFD9A
:10403000B0BDC0462BA000002AA0000029A00000AF
:1040400028A0000027A0000026A0000025A0000056
:1040500024A0000023A0000022A000002CA000004B
:1040600033A0000021A0000016A0000015A0000051
:1040700014A0000013A0000012A0000011A0000076
:1040800010A0000034A000000FA000005B4D5347BB
:104090005F424C455F4D54555F45584348414E473C
:1040A00045445F494E445D2048616E646C65203D27
:1040B00020307825582C206D7475203D2025640A09
:1040C000000000000EA00000007B00200DA00000FA
:1040D0000CA00000537C00200AA000000BA00000F0
:1040E0005B4D53475F424C455F4C4C5F46454154E6
:1040F0005255455F494E445D2048616E646C6520B1
:104100003D203078254C580A0000000009A000002E
:10411000C87B002008A00000997B002007A00000B9
:104120004F7B002005A000001A7C002006BB002069
:1041300003A00000C27C002080B5024802F090FD80
:1041400080BDC046B93C00202F480088411A484233
:10415000484170472C480088884205D10120002B37
:1041600001D000211970704700207047F0B583B06E
:1041700014460D460146202D00D320251F4F3846FA
:104180002A46FFF799F8200A1D4E707034700320FC
:10419000C10200201B4B024600F070FE01240028E3
:1041A00028D00097019515204502002002272946B6
:1041B00002463B4600F0F6FD00281BD00096019712
:1041C000691C0026304632463B4600F0EBFD0028D5
:1041D00010D000960196A63581204300304629462E
:1041E000324600F0DFFD002804D00749088000F0C7
:1041F0000BFE3446204603B0F0BDC0463CBA00205A
:1042000038BA0020A879002004BB002000207047A5
:1042100070B582B00125A9021848194A102300F090
:104220008BFEFFF79BFB0446002824D02E0200964D
:10423000102128220823284602F018FD683611486C
:10424000314602F019FD332081010F4802F01AFDBA
:104250000E480221302202F01BFD02F01FFD0C4827
:1042600002F022FD0B4802F025FD0B4802F028FD6C
:104270000A4802F02BFD204602B070BD80D000201D
:104280007CBA002018BF002080D40020A08B002022
:10429000993A0020B53A0020C13A0020A93A0020FE
:1042A00010B502F0A9F800240221204602F030FCEB
:1042B000FFF7A0F9FFF7D0F9FFF7AEF90F200321C0
:1042C0000422072302F008FD00F036F8FFF7FEFB9A
:1042D000002807D0FFF79CFF002805D000F010FD54
:1042E000204610BD03A000E009A003F0BDFA0120A4
:1042F00010BDC046626C655F636F6E74726F6C6CEC
:1043000065725F696E6974206572726F722E00004B
:10431000626C655F686F73745F696E697420657243
:10432000726F722E0000000080B502F0DBFC80BDD1
:1043300080B502F0DDFC80BD10B52B4802F0DEFC3C
:104340002A4802F0E1FC2A4802F0E4FC294802F085
:10435000E7FC294802F0EAFC284802F0EDFC284876
:1043600002F0F0FC274802F0F3FC274802F0F6FCCC
:10437000264802F0F9FC264802F0FCFC254802F031
:10438000FFFC254802F002FD244802F005FD244808
:1043900002F008FD234802F00BFD234802F00EFD59
:1043A000224802F011FD224802F014FD214802F0DB
:1043B00017FD214802F01AFD204802F01DFD20489B
:1043C00002F020FD1F4802F023FD1F4802F026FDE9
:1043D0000020C4432046214602F026FD2046214607
:1043E00002F028FD10BDC046D3BC0200B3BC0200E1
:1043F000BBBC0200CBBC0200C3BC0200B95501002B
:1044000069560100612702000127020015270200FA
:10441000710B02005D240200312602009D2502007E
:104420008D260200F9250200C52602007D27020024
:10443000752702007D0B0200D9E9030001E80300A3
:104440003DE70300C5EA03009DEA030070B58EB0A6
:10445000022002F0F5FC0CAC204600F03DF82046AE
:1044600002F0F4FC1A4808A90A4638C838C2038882
:104470001380807890700024204602F0EDFC07A99C
:1044800006208870812040000880032520462A46A7
:1044900002F0E8FC6E46092070701A203070B01CE3
:1044A0000C491922FEF708FF1B222046314602F074
:1044B000DFFC204602F0E2FC05211022284602F033
:1044C000E3FC0121204602F0A1FB0EB070BDC04606
:1044D000F4780020F47C0020B0B582B000281FD012
:1044E000044609206D460622294602F0D3FC2878AE
:1044F000002803D169464978002913D069464A79D2
:1045000062714A78E2708A78A2700209000180180C
:104510002071C8783F2210406070087910402070E8
:1045200002B0B0BD034906222046FEF7C5FE02B028
:10453000B0BDC0460379002080B504A01921002237
:10454000FFF714FEFFF7E6FA80BDC0464854333249
:104550004636373578355F424C455F5045524950B5
:10456000484552414C000000F0B58FB05E48012133
:1045700002F096FC0024002800D1B1E05B4802F074
:1045800095FC002800D1ABE0594802F095FC0028CA
:1045900000D1A5E057480125294602F093FC0028E8
:1045A00000D19DE0042000905348544A10210B464E
:1045B00002F08EFC002800D192E05148062102F062
:1045C0008DFC002800D18BE04E48022102F08CFCCB
:1045D000002800D184E02C0200204B494B4A1318DC
:1045E00059601C8109191C307028F8D100204849F5
:1045F000484A1318596028251D8128311C3070281D
:10460000F7D145480EC800680E900BA80EC00BA845
:1046100002F070FC00285ED00020404A404B191880
:10462000CA600C8241218900521830306028F6D1CE
:104630000294BF20C4433B4E20463B4A1718CC226D
:10464000BE50D023FD522C363030F6D101920026D8
:10465000364F37488019C7600A46029901821146D1
:10466000BF183036602EF4D13249334E019A3019DA
:104670008150C5522C313034F9D1304903A802465B
:1046800078C978C278C978C202F03AFC002824D0F0
:1046900000202B492B4A029C13189C819960091910
:1046A00020304028F8D127480222214602F02EFC73
:1046B000002814D000202449244A115013189C804B
:1046C000091910302028F8D120480222214602F092
:1046D00023FC044604E0002402E0002400E000245F
:1046E00020460FB0F0BDC046D0900020A09300201F
:1046F00068920020408C0020189600202896002008
:1047000028980020B8950020589C0020889400200C
:1047100068A40020389600200C79002060A20020B8
:1047200058950020B8A500206897002058A00020C8
:10473000F894002008A50020A89600201C790020ED
:1047400058980020008C0020589A0020B09000203B
:10475000B0B590B018480AAA114638C838C138C850
:1047600038C14020082102F0F1F9144908600028FE
:1047700015D0134801AA114638C838C138C838C105
:1047800038C838C10F48002102F0E6F904460E4847
:104790000460002C08D00D4802F0C4FB07E010A014
:1047A00003F062F8002404E009A003F05DF8601E45
:1047B0008441204610B0B0BD60790020F4A60020EE
:1047C0003C79002085480020BCA600208567002099
:1047D0006C6C635461736B4964204E554C4C000003
:1047E0006C6C635461736B4D736751756575654986
:1047F00064204E554C4C00000348044901600448B5
:10480000044901607047C046300B00203568002025
:104810002C0B00206549002010B582B004460D48DD
:10482000016800290BD00C4802880B689C548B88C7
:10483000511C8AB29A4200D30021018006E001A9EE
:104840000C7006480068012202F072FB204602B09C
:1048500010BDC04668BA002008BB002070BA002016
:104860000148024901607047280B00207148002070
:1048700080B5FEF75DFF7D20800002F0F5F8FEF7C1
:1048800053FC80BD82B00A4D0AA403E001462046D5
:1048900002F0A0FD28680022D343694602F07AF9AD
:1048A0000028F3D10199009802F048FBF2E7C046D6
:1048B000F4A600206C6C635F7461736B2067657491
:1048C000206D7367206661696C65643A25750A001E
:1048D00080B5FEF759FF02F037FB80BD10B500240C
:1048E000FFF722FD002808D0FEF714FF002804D0AF
:1048F000FEF7C6FE02F02EFB0124204610BD00008C
:1049000010B5094B19600949087009480260012077
:104910000024214602F084F803210A2205232046C0
:1049200002F0DAF910BDC046D8E100205CBA0020E0
:10493000D4E100208AB0094801AC21462CC82CC122
:104940002CC82CC12CC82CC102F00AFB0448002141
:10495000224602F001F902F009FBFEE77879002017
:10496000053800200C460546FEF70EFF06A002F0B3
:104970007BFF09A0294602F02DFD0CA0214602F084
:1049800029FDFEF7D5FEFEE76F7320657272206F7A
:104990006363757273000000636F646520202020DC
:1049A000203A203078253038580A00006F626A6556
:1049B00063745F69643A203078253038580A000003
:1049C000F0B583B01C4616460F460290098913487D
:1049D000089D2A4602F032F9F888C00513D40294E3
:1049E0003C8A0E48401C2146324602F027F9A01BA3
:1049F00081B2A94200D80546AAB278698119029805
:104A0000FEF75AFC07E039890095029832462346A2
:104A100000F0E4FD0546A8B203B0F0BD155100005A
:104A2000F0B585B01D4616460F4601210170147879
:104A3000384602F0A1FA002800D16EE000970195F7
:104A40000746C8379D490546481C214602F09CF898
:104A5000D8350295601E512800D9D9E04000C046E3
:104A6000784480884000874451005D006F009500C5
:104A70009A00A100A700AE00B400BB00C000C700B0
:104A8000CC00D300D300D900DF00E600EC00D30057
:104A9000D300F300F90000010501D3000C01D3009D
:104AA00013011A01D300D300D300D300D300D300E5
:104AB000D300D300D300D300D300D300D300D3005E
:104AC000D300D300D300D300D300D300D300D3004E
:104AD000D300D300D300D300D300D300D300D3003E
:104AE000D300D300D300D300D300D300D300D3002E
:104AF000D300D300D300D300D300D300D300D3001E
:104B0000D300D300D300D300D3001E01029C204663
:104B10003146019A02F036FACBE0684802F02EF8EE
:104B200005B0F0BD3846314602F032FA0028029C4A
:104B300000D0BEE004A900980880388848800A2088
:104B4000042202F02BFAB4E00121304602F02CFAE4
:104B50007A889042014600D311463A88914202D2A7
:104B6000172900D339803A7854498B1CC1B21846B2
:104B700002F046F80220B8713988009C204602F005
:104B800019FA03A90C80388848800A20042202F010
:104B900005FA8DE03846314602F012FA88E0029CB0
:104BA00020463146019A02F011FA82E03846314639
:104BB000019A02F011FA7BE0029C20463146019AEC
:104BC00002F010FA75E038463146019A00F0ECFA2E
:104BD0006EE0029C20463146019A02F009FA68E034
:104BE0003846314600F0D6FB62E0029C2046314652
:104BF000019A02F003FA5CE03846314600F066FAAA
:104C000056E0029C20463146019A02F0FDF950E040
:104C100006223846214602F0FDF949E03846314681
:104C2000019A02F0FDF943E0029C20463146019AC8
:104C300002F0FCF93DE038463146019A00F042FCB2
:104C400036E0029C20463146019A02F0F5F930E048
:104C500038463146019A00F0D1F929E0029C2046FD
:104C60003146019A02F0EEF923E03846314600F071
:104C700093F91DE0029C20463146019A02F0E8F9C2
:104C800017E0029C20463146019A02F0E7F910E055
:104C9000029C20463146019A02F0E6F909E03846C6
:104CA00000F0D4FB04E038463146019A00F0DDFB09
:104CB000029C204602F0DEF905B0F0BD145200005F
:104CC0000148024941607047BC0A0020214A002087
:104CD00010B50C46C988C90503D5218900F066FCCA
:104CE000208210BD0148024901617047640900201B
:104CF000F54C00200121017000487047FFFF0000C3
:104D000080B5114802F03CF8104802F03FF8104816
:104D100002F042F80F4802F045F80F4802F048F858
:104D200001F01AFA01F04AF801F032F800F09CFCA8
:104D300001F034F801F012F800F09CFCFFF7D2FF0C
:104D4000FFF7BEFF80BDC046716100203D620020BC
:104D5000A96100209962002005620020B0B50146DB
:104D60008B4A1088002810D013888A4A14680022C1
:104D700004E00834521C9A42184608D225888D4215
:104D8000F7D865888D42F4D302E0002200E018468F
:104D9000D100804B1B6859184968002900D0104683
:104DA000B0BDC046F0B581B01C4617460D4615494A
:104DB000079B069A00280DD00D46002F1BD03846C1
:104DC000214602F05DF90646681C1022394601F0C2
:104DD00029FF0AE028460F46214602F057F9064609
:104DE000B81C294601F0D0FE3D46E81C314622465B
:104DF00001F024FF03E0284601F0C0FE0026304603
:104E000001B0F0BDA5520000F0B581B06048018846
:104E1000002912D002885F480368002004E00833AC
:104E2000401C9042114606D25C88002CF7D11C88A9
:104E3000002CF4D002E0114600E000200E4C884225
:104E400006D181B2204601F09FFE002001B0F0BDE6
:104E5000C60002F021F905464E4F3868801945809A
:104E600002F020F90246601C294601F0E7FE38688E
:104E70008019408801B0F0BDA3520000F0B583B0A6
:104E800001920E46424D29880024002902930FD03A
:104E9000404A12681788002F0AD029880832012357
:104EA0001C468B4204D2631C17880832002FF7D1AE
:104EB0008C4205D1A1B21F4801F066FE002735E003
:104EC0001C4D002813D02E46019D002D2AD0052010
:104ED000C102284602F0ECF80746B01C1022294611
:104EE000354601F09FFE002F0DD100271EE0052062
:104EF000C102304602F0E2F80746E81C314601F0F4
:104F000043FE002FF1D0E000224909680F52081833
:104F10000299416000214180281DA2B2394601F06A
:104F20008DFE03E0701C01F029FE0027384603B017
:104F3000F0BDC04699520000F0B581B0134D002875
:104F40001FD0002A1DD00C4600291AD0002B18D0E3
:104F50000F490B800F490A6000210F460E46FF00E3
:104F6000D151761CF7B29F42F9D30022009221461C
:104F7000134602F0A9F8681C214601F005FE01B0B5
:104F8000F0BD284601F0FAFD01B0F0BD97520000D7
:104F900068A600206CA6002070B582B00E460446BC
:104FA000102002F097F800280AD005466189A088F1
:104FB0007278002300930193012A06D0032205E0B2
:104FC0000D4801F0DBFD02B070BD022200F026FBAF
:104FD000010607D0C3B218210022284602F080F84B
:104FE000024602E0192028700122A088294602F01A
:104FF0007DF802B070BDC04623510000F0B58BB003
:1050000004920C4605460121204601F0CDFF0746DB
:105010000321204601F0C8FF03902E462888001D7A
:1050200080B202F057F8002813D0054605A839468B
:1050300002F062F8002811D005A8C088010701D548
:10504000C00512D4162128463A4602F05BF8024603
:1050500028E01D4801F092FD0BB0F0BD1621284656
:105060003A4602F055F802461CE005A9304602F027
:1050700055F8002801D003460EE0B0880499491F76
:1050800089B2621D0092019101223946039B00F012
:10509000C5FA01060CD0C3B2162128463A4602F0E2
:1050A0001FF80246B088294602F020F80BB0F0BD88
:1050B00028462146049C2246FEF7FEF81720287059
:1050C00077812246EEE7C04622510000F0B589B054
:1050D0000D4604460121284601F066FF06460321DD
:1050E000284601F061FF029003A8314602F004F85F
:1050F00007462088001D80B201F0ECFF00280CD08C
:105100000546002F0ED003A8C088800710D40C21BC
:105110002846324602F008F83BE0224801F02EFD16
:1051200009B0F0BD0C212846324601F0F1FF30E015
:1051300003A9204601F0F2FF002806D003460C2107
:105140002846324601F0CCFF23E0A08803AF394661
:10515000FFF7BEFD388A029A824205D90C21284603
:10516000324601F0E7FF14E0801A411C208881429A
:1051700003DD1018401E03A908820798801A81B227
:10518000A08800916B1C03A9FFF71AFC0D21297060
:10519000401CA18882B20846294601F0A7FF09B049
:1051A000F0BDC0461F510000F0B591B014460E4648
:1051B000074601213046099101F0F6FE054603211C
:1051C000304601F0F1FE024671480A95294605462F
:1051D000089201F033FD7279681C214601F02EFD22
:1051E00007973888001D80B201F074FF002804D0B2
:1051F0000746082C06D3102005E0A81C01F0BEFCD1
:1052000011B0F0BD022006900A9A0899501E80B293
:1052100088420AD2701D05900BA801F091FF00266C
:1052200003960296099804900FE00821384601F091
:105230006FFF9EE00BA9079C204601F06FFF00283E
:1052400034D00390099C002C75D10BA801F07EFF8F
:10525000002870D00BAC204601F07EFF2289A18887
:10526000E81C01F0EBFC0E98017840780002401831
:1052700082B2E188281D01F0E1FC20890028E1D0FC
:1052800000240A998842DED308998842DAD80BA80C
:105290000599069A01F066FF0028D4D00BA8C088B3
:1052A0008007C7D43004CED10D9ECCE7A0880BA9CF
:1052B000FFF70EFD0F98801C049989B2002203921B
:1052C000022904D382B2029B9BB29342BAD1012934
:1052D00003D17870049B5B1C01E0049B0298029050
:1052E00080B299B20A1820888242049306D9022912
:1052F000A8D8001F0BAA1082801C78700BAC2289E2
:10530000384601F035FF07988088218A009104997A
:10531000891C049189B27B18002203922146FFF771
:105320004FFB0446681D214601F02EFC049820180E
:105330000490039C87E7049988B2022802D30920CD
:10534000387017E00399080606D0CBB2082138461A
:105350000A9A01F0C5FE0CE0300405D0B2B2082173
:10536000384601F0E1FE04E0082138460A9A01F0CF
:1053700005FF0146A81D8CB2214601F005FC0798E7
:1053800080883946224601F0B1FE11B0F0BDC0461A
:1053900017510000F0B587B00A46044601211046B7
:1053A00001F002FE064601A8314601F0A5FE0746BF
:1053B0002088001D80B201F08DFE00280CD005462B
:1053C000002F0ED001A8C088800710D40A212846DB
:1053D000324601F0A9FE2EE01B4801F0CFFB07B0DA
:1053E000F0BD0A212846324601F092FE23E001A9D1
:1053F000204601F093FE002806D003460A212846E5
:10540000324601F06DFE16E0A08801AE3146FFF78E
:105410005FFC2088318A814202D3401E01A90882A4
:10542000A08801A90A8A00926B1C0022FFF7C8FA23
:105430000B212970401CA18882B20846294601F040
:1054400055FE07B0F0BDC0461E51000080B582B0C9
:105450000189002907D000230381808800930193EC
:10546000042200F0DBF802B080BDF0B589B015462B
:105470000C4607460121204601F096FD064603A88A
:10548000314601F039FE00280CD04120800003A9EC
:10549000C9880140814205D103A9384601F03EFE8A
:1054A000002801D009B0F0BDB888E91E89B2E21C1D
:1054B0000092019100223146134600F0AFF809B086
:1054C000F0BD0000F0B58BB003920C4607460126F4
:1054D0000846314601F068FD014605A8049101F037
:1054E0000BFE0546102001F0F5FD00280CD0002D24
:1054F0000FD005A9CA8811073D4613D412210446CE
:10550000049A01F0FFFD1AE0274801F037FB0BB0C9
:10551000F0BD12210446049A01F0FAFD2146064628
:105520003D460EE005A9D20511D4098AC91C039B8A
:1055300099420CD212210446049A01F025FE21461C
:105540000646A888324601F0D1FD0BB0F0BD002A16
:10555000D4D5074605A9284601F0E0FD002805D06E
:10556000034612213C463846049A13E0A888039962
:10557000C91E89B2E21C009201910022049C2146BE
:10558000134600F04BF8010609D0C3B2122122469F
:105590003C46384601F0A4FD39460646D1E71320C3
:1055A00039463870CDE7C04621510000B0B50C46F1
:1055B00005460846FFF7D2FB01462948028800202D
:1055C00091420AD0C900274A1268511849680A68EE
:1055D000002A02D0284621469047B0BDF0B581B0E0
:1055E0001C4615460E4607460846FFF7B7FB014620
:1055F0001B480288002091420ED02346C900194A58
:105600001268511849684C68002C05D00698009023
:10561000384631462A46A04701B0F0BDF0B583B008
:105620001C4615460E4607460846FFF797FB0146FF
:105630000B4802880020914210D02346C900094A35
:105640001268511849688C68002C07D0099808998D
:1056500000910190384631462A46A04703B0F0BD7C
:1056600068A600206CA6002008480149C164704764
:10567000995A0020092040010449054A0A50E2488D
:105680000021044A026041607047C046500B002070
:10569000D5620020ED490000F0B587B00546D84836
:1056A0002E184520000128180290F8482B5C039121
:1056B000497B9768D0682C4650340278002B45D03F
:1056C000002965D0092A00D0B1E0FF2109020F406E
:1056D000092109028F4200D0FCE0027A04A90A7273
:1056E000027943791B029A188379C5792D02EB1848
:1056F0001B049A180592027843781B029A18837843
:10570000C0780002C018000480180490481C01F002
:1057100041FD07460D46012030700026039A96721F
:1057200010208143B9482F303840029B03C3517B7E
:10573000B448401C01F028FAB64A3A40512085434B
:10574000218830462B4601F02BFD55E1002970D011
:10575000092A00D1CAE0072A00D008E1FF231B0272
:105760001F40012673029F4200D015E140780E28A9
:1057700000D041E1002603988672A248401D01F046
:1057800003FA21881A203246334601F009FD33E13D
:105790000E2A00D09CE0FF210902394009231B0298
:1057A000994200D0E7E0027A04A90A7202794379AB
:1057B0001B029A188379C4792402E3181B049A18EF
:1057C0000592027843781B029A188378C078000209
:1057D000C018000480180490481C01F0DBFC019103
:1057E000894A0ACA894A0090084011402F2404407F
:1057F0000A191027BB43284601F0D8FC002800D125
:10580000F7E00246F8430121317081499161039923
:10581000D161019B034000987C4E304004430298C4
:1058200004604360284601F0C7FC0026E4E001263E
:10583000E2E0082A00D09CE0FF2109023940092358
:105840001B02994200D0C1E0027A04A90A720279CF
:1058500043791B029A188379C4792402E3181B0444
:105860009A180592027843781B029A188378C078B8
:105870000002C018000480180490481C01F08AFC43
:105880000191614A0ACA614A0090084011402F24E0
:1058900004400A191027BB43284601F087FC002862
:1058A00000D1A8E00246F8430121317058499161C6
:1058B0000399D161019B03400098544E304004434A
:1058C000029804604360284601F076FC002693E0CD
:1058D000012691E02846039C214601F073FC002636
:1058E000A672617B474801F04FF985E0FF2109026C
:1058F0000F4009210902434B8F425AD1027A04A971
:105900000A72027943791B029A188379C5792D02AC
:10591000EB181B049A180592027843781B029A1818
:105920008378C0780002C018000480180490481CD6
:1059300001F030FC07460D46012030700026039A26
:1059400096721020814331482F303840029B03C3A8
:10595000517B2C48C01D01F017F92E4A3A405120C6
:105960008543218830462B4601F01AFC44E001268D
:1059700042E0012640E02846039D294601F022FC32
:10598000204CA01C394601F023FC0026AE72697B36
:10599000E01C01F0F9F82FE02846039C214601F0B5
:1059A00011FC0026A672617B1648001D01F0ECF880
:1059B00022E02846039C21461D4601F003FC0026F8
:1059C000A672617BA81D01F0DFF815E02846039C54
:1059D000214601F0F7FB0B4D28460830394601F00F
:1059E000F7FB0026A672617B0935284601F0CCF84A
:1059F00002E0022600E00226304607B0F0BDC046B5
:105A000049040000CE36000070A6002000CF87F7C2
:105A1000A98002002FCF87F770B5002810D00D465F
:105A200000290DD0002A0BD0D168097800240E2956
:105A30000FD0082927D11549405C002823D10CE05C
:105A40001620492100242246234601F0C7FB2046A8
:105A500070BD0E49405C002815D001242C7300262F
:105A6000EE72FF2004302881304601F0BDFB03C5F3
:105A70000748EE806E716E61AE61E861AC700548FA
:105A8000314601F081F8204670BDC0465103000048
:105A900099560020CD36000010B5044600F078FD80
:105AA000002802D00C21012006E000F04BFD002868
:105AB00001D1014600E00C212070084610BD000015
:105AC00010B50A46002911D00446906B00280DD06D
:105AD000107C072811D0062816D005281DD11048A3
:105AE0000068D060104600F075FD13E08520C1000D
:105AF0001C20002301F072FB10BD09480068D06033
:105B0000104600F06BFD05E005480068D0601046C7
:105B100000F06AFD0120207010BD0020207010BD33
:105B200050080020B0B50D4600290FD00446A86BE0
:105B300000280BD0287C07280FD0062812D0052873
:105B400017D12846114600F046FD0FE01C200A49F7
:105B500000232A4601F042FBB0BD2846114600F062
:105B600040FD03E02846114600F048FD012020706A
:105B7000B0BD00202070B0BD8D04000010B50A46F5
:105B8000002918D00446906B002814D0107C0728F8
:105B900017D0062823D0052831D140480178D06895
:105BA000484318490968884200D80146D160104628
:105BB00000F012FD20E01C201349002301F00EFB31
:105BC00010BD36480178D06848430E4909688842BC
:105BD00000D80146D160104600F004FD0CE02F48CB
:105BE0000178D068484307490968884200D80146CF
:105BF000D160104600F021FD0120207010BD002072
:105C0000207010BD5408002053040000B0B50D46AC
:105C1000002919D00446A86B002815D0287C072835
:105C200019D0062826D0052835D1E8681B490978FF
:105C3000FDF754FB1A490968884200D30146E96020
:105C4000284600F0CAFC23E01C20164900232A46FF
:105C500001F0C4FAB0BDE86810490978FDF73EFBD1
:105C60000F490968884200D30146E960284600F0E0
:105C7000BAFC0DE0E86809490978FDF72FFB0849EF
:105C80000968884200D30146E960284600F0E8FC34
:105C900001202070B0BD00202070B0BD5C08002045
:105CA00058080020B5040000B0B50446012500F0F6
:105CB000D7FB002801D0284608E000F069FC002846
:105CC00001D0012002E000F03DFC0546207028468E
:105CD000B0BD70B504460C26012500F0F5FB002888
:105CE0000BD100F062FC002807D100F038FC05461B
:105CF000002801D12E4600E00C262570304670BDEC
:105D000070B504460C26012500F0DEFB00280BD1FF
:105D100000F04BFC002807D100F021FC05460028CC
:105D200001D12E4600E00C262570304670BD10B51E
:105D3000044600F0C9FB002803D100F036FC00281F
:105D400003D0002020700C2010BD00F008FC0021C2
:105D50002170002800D00C2010BD0000152000018B
:105D60001249074A0A5053208000064A0A50292047
:105D7000C000054A0A5051208000044A0A5070476A
:105D80000D5C0020255B00207D5B0020C15A0020B7
:105D90000648014901667047A95C00200348044990
:105DA000044A054B8363C26301647047500B0020B3
:105DB0002F5D0020D35C0020015D002070470000B3
:105DC000B0B584B0002808D004468168022001F0F4
:105DD00011FA002804D004B0B0BD042004B0B0BD56
:105DE000E389A289607C014601F00AFA0028F2D119
:105DF0006269A369217C607C012500950190029075
:105E00000025284601F002FA0028E4D1206A01F0BA
:105E100003FA0028DFD1A18B606A01F003FA0028A1
:105E2000D9D106480570627C03CC01F001FA002844
:105E3000D1D101F003FA284604B0B0BD0C0D00200A
:105E400070B501260670274800780024002801D08C
:105E5000204670BDEFF31085EFF3108072B601F0AD
:105E6000F3F900280CD0344C2078002804D11F48C6
:105E700001F0F0F90120207085F31088012070BD39
:105E80002F490846683800682B4A1278002A1DD02E
:105E900030401BD0052208680B68984204D0531E7E
:105EA00012061A46F7D1FF22110613D023490968BA
:105EB000814213D90C4A128885F31088081A5109B7
:105EC000884200D800263446204670BD85F31088ED
:105ED000204670BD85F31088204670BD85F310887C
:105EE000204670BD5F09002022080020FFFFFF1F31
:105EF000B0B501210170EFF31084EFF3108072B69A
:105F00000D4D2878002813D00C4800680C4909680A
:105F1000814205D2491D814204D201F0A1F905E078
:105F2000642001E04B20800000F09EFD00202870DE
:105F300084F31088B0BDC0465B090020800000409B
:105F4000E8010040B0B584B0002808D0044681685C
:105F5000042001F04FF9002804D004B0B0BD0420A3
:105F600004B0B0BDE389A289607C014601F048F924
:105F70000028F2D16269A369217C607C012500952B
:105F8000019002900025284601F040F90028E4D154
:105F9000206A01F041F90028DFD1A18B606A01F08D
:105FA00041F90028D9D103CC627A01F05FF90028C9
:105FB000D3D10348057001F05FF9284604B0B0BDA5
:105FC0009C0D002070B584B0002808D0044681687C
:105FD000062001F00FF9002804D004B070BD0420A1
:105FE00004B070BDE389A289A17C607C01F008F94E
:105FF0000028F2D16269A369217C607CA57C01261E
:106000000096019002950025284601F0FFF800282F
:10601000E3D1206A01F000F90028DED1A18B606A8B
:1060200001F000F90028D8D103CC627A01F000F920
:106030000028D2D10348057001F024F9284604B0A5
:1060400070BDC0469D0D0020B0B584B0002808D0BA
:1060500004468168032001F0CDF8002804D004B084
:10606000B0BD042004B0B0BDE389A289607C0146C4
:1060700001F0C6F80028F2D16269A369217C607C36
:1060800001250095019002900025284601F0BEF8F8
:106090000028E4D1206A01F0BFF80028DFD1A18BED
:1060A000606A01F0BFF80028D9D103CC627A01F010
:1060B000DDF80028D3D10348057001F0E9F828463F
:1060C00004B0B0BDBC0D002070B584B0002808D06D
:1060D00004468168052001F08DF8002804D004B042
:1060E00070BD042004B070BD638A228AA17D607DEA
:1060F00001F086F80028F2D1A17DE06801F0CEF829
:106100000028ECD1A269E369217D607DA57D01268F
:106110000096019002950025284601F077F80028A6
:10612000DDD1606A01F078F80028D8D1218CA06A0E
:1061300001F078F80028D2D103CCA27B01F096F8C8
:106140000028CCD10348057001F0AEF8284604B011
:1061500070BDC046BD0D002002480349816403495B
:1061600041657047200D0020F15E0020415E002057
:1061700070B50546554E3068002801D0012070BD2D
:1061800001F098F82846FFF71BFE0446002801D0CE
:10619000204670BD0348306003CD01F091F82046E1
:1061A00070BDC04684270200F0B581B00446474F59
:1061B0003868002801D001261EE001F07BF803CCEE
:1061C000637A00252A46083C01F080F803C4206861
:1061D000627A2946083C01F07FF8A0602046FFF76C
:1061E000B1FE0646284601F07DF8002E04D1044891
:1061F000386003CC01F064F8304601B0F0BDC04611
:10620000D427020070B50546304E3068002801D012
:10621000012070BD01F04EF82846FFF7D3FE04467A
:10622000002801D0204670BD0348306003CD01F046
:1062300047F8204670BDC046E4270200F0B581B0A3
:106240000446224F3868002801D001261EE001F0E4
:1062500031F803CC637A00252A46083C01F036F871
:1062600003C42068627A2946083C01F035F8A06032
:106270002046FFF7E9FE0646284601F033F8002ED7
:1062800004D10448386003CC01F01AF8304601B05C
:10629000F0BDC046F427020070B505460B4E3068CD
:1062A000002801D0012070BD01F004F82846FFF756
:1062B0000BFF0446002801D0204670BD0448306022
:1062C00003CD00F0FDFF204670BDC046C00D00208C
:1062D00004280200B0B501230370D06804780020C0
:1062E000162C35D87123DB00CB18C0467C442479AA
:1062F0006400A744151A2D0B2D2D2D2D102D0B2DBF
:106300001F2D102D2D2D2D2D242D29000846194629
:1063100000F0EEFFB0BD08461946FFF77DFBB0BDAB
:106320000846194600F0EAFFB0BD0846194600F0DD
:10633000EBFFB0BD0846194600F0ECFFB0BD0846C3
:10634000194600F0EDFFB0BD0846194600F0EEFF1B
:10635000B0BD000080B582B000200146024600F0CA
:10636000EBFF00F0EFFF00F0F3FFFDF79DFA0120D7
:1063700001030A4881800A4A02600090E120C302BA
:106380000848094AFDF79AF908A015A117A201F0DB
:1063900021F8FEF731FA02B080BDC04674BA002081
:1063A00080C0002080B00460000400605B25732082
:1063B000542025735D626C65207065726970686534
:1063C00072616C2070726F6A656374286370292033
:1063D000737461727420746F20776F726B2E0A0071
:1063E00041756720313920323032360030383A3545
:1063F000313A31370000000080B500F0AFFF00F007
:10640000B3FF00F0B7FF002800D080BD00F0B8FF58
:10641000054800F0BBFF022000F012FD0B2000F049
:10642000BBFF002080BDC04620F501000849096877
:106430000A4A1278824203D80020002907D105E0D9
:106440003522D20042438818002900D108467047FF
:1064500090930020014800787047C0466AA600204B
:10646000F0B581B0FFF7F6FF002827D004460025DD
:106470000126E8B2FFF7DAFF00280FD09930017843
:10648000002907D04078002804D000203746002893
:106490000FD114E0304600280BD110E0912001010B
:1064A0001E202A46234600F099FE00273846002881
:1064B00005D06D1CAC42DCD1002700E00027012094
:1064C000384001B0F0BD0000F0B581B0FFF7C2FF69
:1064D000002828D0044600250126E8B2FFF7A6FFD1
:1064E00000280DD08D30017B002905D0417B00298B
:1064F00002D00078002811D0304600280AD115E0DB
:106500001E200C492A46234600F068FE0027384624
:1065100000280BD06D1CAC42DFD106E000203746CE
:106520000028F7D102E0002700E0002701203840D2
:1065300001B0F0BD26090000014800687047C04660
:106540009493002080B5FFF7F7FF002805D0332192
:10655000C900405C411E884180BD002080BD80B5DF
:10656000FFF7EAFF0146002000290AD03322D200BB
:106570008A181278002A04D091310878411E4842C6
:10658000484180BD014800687047C046989300208C
:1065900080B5FFF7F7FF002805D047218900405C50
:1065A000411E884180BD002080BD80B5FFF7EAFF15
:1065B0000146002000290CD0472292008A18127848
:1065C000002A06D0A531097802220A43032A00D105
:1065D000012080BD70477047704770471721817454
:1065E0007047704770477047FF217431826B642396
:1065F00053548374501819214170704770B50A467E
:106600000446FF2108462030A36B1E18B920400025
:106610001D18185C002807D0FF2A00D8D1B268786E
:106620001A2200F036F868703078002801D0012076
:1066300000E00220285CA07470BDB0B50446FF20C5
:10664000A16B024620328A5C002A08D074300D18F3
:10665000287801211A2200F01CF82870A074B0BD1F
:10666000B0B50446FF20A16B024620328A5C002AA6
:1066700008D074300D1828783221642200F003F815
:106680002870A074B0BD4018904200D80246D0B225
:1066900070475318834200D2421AD0B270470000AC
:1066A000F0B585B016460546EFF3058002AA957051
:1066B0001180D67000240394002800D1E443002EFA
:1066C0002DD0242E18D801932C480090006800216A
:1066D00000F068FE0390002809D127480090006868
:1066E0000027394600F05EFE039000283BD000985A
:1066F0000068049003980EE0802E28D801931E486D
:1067000000680027394600F04DFE0390002825D090
:1067100019490968049101993246FCF7CDFD154EDF
:10672000F01C294600F030FA1548006802A900253F
:106730002A46234600F03CFE47424741002815D038
:10674000321D81B2104600F01FFA2F460EE00948B4
:10675000801C314600F018FA002707E00548401C6D
:1067600000F00CFA02E0034800F008FA384605B0E1
:10677000F0BDC0460460000060BA002064BA00208A
:106780009C7D002010B582B0019100900022EFF3B3
:106790000580002801D0134600E0D3430748006875
:1067A000694600F005FE0446002803D004A02146F7
:1067B00000F010FE6042604102B010BDF4A600205F
:1067C000626C655F7461736B5F73656E645F6D733C
:1067D000675F746F5F6C6C635F7461736B2066617D
:1067E000696C65643A25750A0000000080B52820B0
:1067F00000F06AF90A2000F067F90B2000F064F954
:106800000C2000F061F90D2000F05EF90E2000F080
:106810005BF90F2000F058F9102000F055F93520F1
:1068200000F052F9112000F04FF9122000F04CF95D
:1068300080BD00001C4615460E460746FCF7A4FF27
:1068400007A001F011F80BA03946324600F0C2FD56
:1068500010A02946224600F0BDFDFCF769FFFEE7C7
:1068600073797374656D206572726F72206F6363E4
:10687000757273007531364572724D6F64756C6553
:106880003A2575207531364572724C696E653A2528
:10689000750A0000753332457272496E666F313A7F
:1068A000257520753332457272496E666F323A250E
:1068B000750A000080B50020172100F029F9FCF7C7
:1068C0009DFEFCF7D3FEFCF7ABFE02200249034A13
:1068D000FEF716F880BDC046DD480020D1480020F4
:1068E000B0B582B00C46054601A9104600F06AF822
:1068F00001980019A860EC6002B0B0BD10B582B07C
:106900000446407D217D00290CD0EFF31081EFF388
:10691000108272B60022227562682260626A226268
:1069200081F3108800280AD0EFF31081EFF3108272
:1069300072B600226275E27DA27581F31088A17D96
:1069400002291ED0002934D1EFF31080EFF310811B
:1069500072B6E16A002901D0A26A8A6217490A6800
:10696000A24201D1A26A0A6015490A68A24201D175
:10697000E26A0A6080F310880020A062E06202B040
:1069800010BD002803D02169019122680AE0207E11
:1069900001280CD100200190074801A900F070F8EF
:1069A000226801992046FFF79BFF02B010BD01202D
:1069B000A07502B010BDC04600300560FCBA0020D2
:1069C00000BB0020F0B583B00191064602A800F09C
:1069D000F5FC0298012801D10D4D02E000F0F4FC15
:1069E00005460C48048805807D2042030027304678
:1069F00039463B46FCF748FC002C01D0621955088B
:106A00002A463B46FCF710FC0199086003B0F0BD34
:106A1000127A00000CBB002080B5FCF709FE80BD97
:106A200003B40148019001BD39C4010003B4014819
:106A3000019001BD610E020003B40148019001BD47
:106A400045A3010003B40148019001BDADA00100C0
:106A500003B40148019001BD65BF010003B40148C2
:106A6000019001BDBDBD010003B40148019001BD0D
:106A700051F8020003B40148019001BD1DBF01009F
:106A800003B40148019001BD45BF010003B40148B2
:106A9000019001BDCDBF010003B40148019001BDCB
:106AA000698D010003B40148019001BD058F01000B
:106AB00003B40148019001BDE971010003B401482C
:106AC000019001BD79DC010003B40148019001BDD2
:106AD0005572010003B40148019001BD858E01008B
:106AE00003B40148019001BD89DB010003B40148F2
:106AF000019001BD0922010003B40148019001BDCC
:106B0000D123010003B40148019001BD79C0010007
:106B100003B40148019001BD89C2010003B40148DA
:106B2000019001BDBDBE010003B40148019001BD4B
:106B300081BE010003B40148019001BDF9BD01000F
:106B400003B40148019001BDD9C0010003B401485C
:106B5000019001BD0114010003B40148019001BD81
:106B60001D23010003B40148019001BD51EC030055
:106B700003B40148019001BDE105030003B40148DD
:106B8000019001BDE9F6020003B40148019001BD86
:106B9000FDF6020003B40148019001BDF9120100A5
:106BA00003B40148019001BDB9A0030003B401483A
:106BB000019001BDA511010003B40148019001BD80
:106BC0009D12010003B40148019001BD611802004B
:106BD00003B40148019001BD2D20020003B4014817
:106BE000019001BDFD23020003B40148019001BDE5
:106BF0006982020003B40148019001BDB13C030069
:106C000003B40148019001BDC5F7020003B4014877
:106C1000019001BDC923030003B40148019001BDE7
:106C200039F7020003B40148019001BDD9F7020011
:106C300003B40148019001BD25F7020003B40148E7
:106C4000019001BD11F7020003B40148019001BD9C
:106C500003F9020003B40148019001BD61F702008D
:106C600003B40148019001BDD505030003B40148F8
:106C7000019001BD6D18030003B40148019001BDEE
:106C8000B95A030003B40148019001BDDD59030066
:106C900003B40148019001BD8518030003B4014805
:106CA000019001BDAF28030003B40148019001BD6C
:106CB000FD05030003B40148019001BD0506030072
:106CC00003B40148019001BDF505030003B4014878
:106CD000019001BDED05030003B40148019001BD21
:106CE00089A6010003B40148019001BDF11A020018
:106CF00003B40148019001BD7923020003B40148A7
:106D0000019001BD7520020003B40148019001BD4E
:106D10003920020003B40148019001BD4520020062
:106D200003B40148019001BD8120020003B4014871
:106D3000019001BD6920020003B40148019001BD2A
:106D40005120020003B40148019001BD5D20020002
:106D500003B40148019001BD31E0020003B40148D1
:106D6000019001BD19E0020003B40148019001BD8A
:106D700025E0020003B40148019001BDB9DF020023
:106D800003B40148019001BDD1DF020003B4014802
:106D9000019001BDF5DF020003B40148019001BD7F
:106DA000DDDF020003B40148019001BD01E00200F3
:106DB00003B40148019001BDE9DF020003B40148BA
:106DC000019001BD0DE0020003B40148019001BD36
:106DD00049E0020003B40148019001BD3DE002001A
:106DE00003B40148019001BDADDF020003B40148C6
:106DF000019001BD5DE9030003B40148019001BDAC
:106E000075E9030003B40148019001BD69E903007D
:106E100003B40148019001BD51E9030003B40148E6
:106E2000019001BD45E9030003B40148019001BD93
:106E300049E2030003B40148019001BD55E203009B
:106E400003B40148019001BD0559010003B4014894
:106E5000019001BD7927030003B40148019001BDF1
:106E6000E523030003B40148019001BD8D23030015
:106E700003B40148019001BD5D28030003B401483B
:106E8000019001BD9F28030003B40148019001BD9A
:106E9000EB28030003B40148019001BDF57E010019
:106EA00003B40148019001BD3594020003B40148C8
:106EB000019001BD25AA020003B40148019001BD63
:106EC00049A0020003B40148019001BDCD39020080
:106ED00003B40148019001BD7DDC020003B4014808
:106EE000019001BD11F4020003B40148019001BDFD
:106EF00015D0020003B40148019001BD192C020015
:106F000003B40148019001BD1959020003B40148BE
:106F1000019001BD5129020003B40148019001BD57
:106F20002982020003B40148019001BDC5DF0200BF
:106F300003B40148019001BD7DDE010003B40148A6
:106F4000019001BDA5BC020003B40148019001BD40
:106F50007D08010003B40148019001BD61080100F2
:106F600003B40148019001BD4D10010003B4014874
:106F7000019001BDE110010003B40148019001BD81
:106F8000D952030003B40148019001BD3930030018
:106F900003B40148019001BD2944030003B4014832
:106FA000019001BDB105030003B40148019001BD8A
:106FB00099A7030003B40148019001BDA530030067
:106FC00003B40148019001BD4946030003B40148E0
:106FD000019001BD8931030003B40148019001BD56
:106FE000ED44030003B40148019001BD09310300E1
:106FF00003B40148019001BDE132030003B401482C
:10700000019001BDA934030003B40148019001BD02
:107010003532030003B40148019001BD814E0300E5
:1070200003B40148019001BD3549030003B4014890
:10703000019001BD6932030003B40148019001BD14
:10704000B135030003B40148019001BDC331030011
:1070500003B40148019001BDDD30030003B40148D1
:10706000019001BD8D35030003B40148019001BDBD
:107070005935030003B40148019001BD09360300EE
:1070800003B40148019001BDF50B030003B40148AE
:10709000019001BD410C030003B40148019001BD02
:1070A000E10C030003B40148019001BDF10C0300A1
:1070B00003B40148019001BD910C030003B40148E1
:1070C000019001BDA30C030003B40148019001BD70
:1070D000110D030003B40148019001BDC15D03001F
:1070E00003B40148019001BD3166030003B40148B7
:1070F000019001BDED16030003B40148019001BDEC
:10710000190F030003B40148019001BD8766030015
:1071100003B40148019001BD5766030003B4014860
:10712000019001BD4D17030003B40148019001BD5A
:107130007B66030003B40148019001BD6366030050
:1071400003B40148019001BD1D10030003B40148C0
:10715000019001BD1510030003B40148019001BD69
:10716000AF0F030003B40148019001BD29100300D3
:1071700003B40148019001BDD1A7030003B4014845
:10718000019001BD4B66030003B40148019001BDAD
:107190006F66030003B40148019001BD57EF020080
:1071A00003B40148019001BDDDE0030003B40148D0
:1071B000019001BDFD7A020003B40148019001BDB8
:1071C000CD52020003B40148019001BD05520200F6
:1071D00003B40148019001BD4DF7020003B401481A
:1071E000019001BD6942010003B40148019001BD55
:1071F00031EE020003B40148019001BDA117020065
:1072000003B40148019001BDDD10020003B4014840
:10721000019001BDF115020003B40148019001BDC8
:107220004917020003B40148019001BD491302004F
:1072300003B40148019001BD7115020003B4014877
:10724000019001BD9D0F020003B40148019001BDF2
:10725000E11A020003B40148019001BD1D180200AB
:1072600003B40148019001BD4D18020003B4014868
:10727000019001BD9112020003B40148019001BDCB
:10728000F111020003B40148019001BD3512020062
:1072900003B40148019001BDD513020003B40148B5
:1072A000019001BD6114020003B40148019001BDC9
:1072B0001514020003B40148019001BD112402001D
:1072C00003B40148019001BDE922020003B4014862
:1072D000019001BD3D1E020003B40148019001BDB3
:1072E000751E020003B40148019001BDC91D0200D2
:1072F00003B40148019001BD2178020003B40148A4
:10730000019001BD8543020003B40148019001BD15
:10731000B12D020003B40148019001BD11F102003A
:1073200003B40148019001BDC961020003B40148E2
:10733000019001BDE9C0020003B40148019001BD04
:10734000ADC3010003B40148019001BD43D7010062
:1073500003B40148019001BD41F9020003B40148A2
:10736000019001BD5D52010003B40148019001BDCF
:107370005D58010003B40148019001BDD9530100DB
:1073800003B40148019001BDE955010003B401486F
:10739000019001BD195A010003B40148019001BDDB
:1073A00091B2010003B40148019001BD4D110100EB
:1073B00003B40148019001BD3514010003B4014834
:1073C000019001BDED72010003B40148019001BDBF
:1073D000BD7201000FB410B503A9044B044A029812
:1073E00000F008F810BC08BC04B018471948002089
:1073F000107D0020FFB591B00F460546002606E03F
:1074000025280AD0149A139990476D1C761C287869
:107410000028F5D1304615B0F0BD002400940121BC
:10742000F34A029400E004436D1C2B780846203B8D
:1074300098401042F7D128782A280ED002212878C7
:107440000246303A092A15D8009A0A235A43303A9C
:1074500080180C436D1C0090F1E701CF00900028CC
:1074600005DA0120400304430098404200900220C6
:1074700004436D1C28782E2815D104200443687815
:107480006D1C2A280AD101CF6D1C02900BE00299D5
:107490000A225143303940186D1C02902878014669
:1074A00030390929F3D928786C2810D006DC4C280B
:1074B0001AD068280ED06A2817D104E0742813D097
:1074C0007A2812D110E00120400504430CE001218C
:1074D000090501E0032109050C436978814203D1C4
:1074E0000120000524186D1C6D1C287803906E285F
:1074F0001ED00CDC632831D004DC00288AD0582848
:1075000011D1B2E064287BD069280CD178E07328CF
:107510002DD004DC6F2870D0702804D1A7E0752826
:107520006CD078286BD0149A13999047761C62E03F
:107530006002400F022807D003280AD004283868C8
:107540000AD006603F1D56E03868F11706604160BA
:10755000F8E738680680F5E70670F3E7387869469B
:1075600008740020487404A80390012003E03868E0
:1075700003900020C0433F1D61070FD5002101E0AB
:107580000199491C029A0191914213DA8142F7DB79
:10759000019A0399895C0029F2D10BE0002101E0F6
:1075A0000199491C01918142FADB019A0399895C96
:1075B0000029F5D101990098139A401A00902146AC
:1075C000149B00F03BF901998019461807E00398D5
:1075D00003990078491C0391149A139990470198D4
:1075E000401E0190401CF2D12146149B139A009832
:1075F00000F014F986196D1C09E741E033E034E02E
:107600000A200021049005916002410F022905D053
:1076100001CFC2179446032905D007E0FF1DFF08DC
:10762000FF0003CF06E000B2C2179446042902D13E
:1076300040B2C1178C4600226146944506DA0A46DC
:107640000021404291418C462D2102E0210504D5C4
:107650002B216A461176012103E0E10701D02021A8
:10766000F7E7019154E00A200BE0102009E0102018
:10767000049000210420044308200591029003E0B7
:1076800008200021059104906002410F022905D0D5
:1076900001CF00229446032906D006E0FF1DFF0813
:1076A000FF0003CF8C4603E080B2042900D1C0B2B2
:1076B0000021019121072BD50399702906D0049A46
:1076C0001021059B4A401A4305D00EE040216A462E
:1076D0001176012108E06146014306D030216A4657
:1076E00011760399517602210191049A0821059B94
:1076F0004A401A430CD16146014301D1610707D5C5
:1077000030216A461176012101910299491E0291A8
:107710000399582904D037A103910FA90F910DE0C7
:1077200039A1F9E76146059B049AFBF77DFD039BB0
:107730008C469B5C0F9A521E0F9213706146014358
:10774000F0D10F9807A9081A20300390600704D5DC
:10775000012000048443029801E001200290039973
:10776000884201DD401A00E0002041180290019893
:1077700009180098401A0090E00306D42146149B93
:10778000139A009800F05AF886190020049008E037
:1077900006A9085C149A139990470498401C761C1B
:1077A000049001998842F3DBE0030CD52146149B39
:1077B000139A009800F042F8861904E0149A3020D9
:1077C00013999047761C0299481E02900029F5DC17
:1077D00008E00F980F990078491C0F91149A13999B
:1077E0009047761C0399481E03900029F1DCFBE6C4
:1077F0000928010030313233343536373839616287
:10780000636465660000000030313233343536374A
:10781000383941424344454600000000F8B504466B
:1078200000251E461746880404D405E0394620206A
:10783000B0476D1C641EF9D52846F8BDFFB5044657
:10784000002581B01E46C80301D5302700E020275F
:10785000880404D505E038460399B0476D1C641EC2
:10786000F9D5284605B0F0BD10B5044601E0FCF797
:10787000D3FF2078641C03490028F8D10A20FCF7C4
:10788000CBFF10BD107D0020AB7A0020000000006F
:10789000687D002034000000A07D0020000600006C
:1078A000D87A002001000000207D00204400000064
:1078B000A08300200008000020000000000000005D
:1078C00000000000BE7A0020000000006CE10020F3
:1078D00024000000F8B3002000040000E57A002036
:1078E0000000000048E1002024000000F8B700205C
:1078F00040020000A000A000000200000000000004
:1079000000070055404D0303BA0000008894002092
:10791000000104003896002028000400589500203B
:10792000000102006897002028000400F89400205D
:1079300000010200A896002028000400A27A00207E
:107940000100000078A6002044000000F8AB0020F1
:1079500000080000200000000000000000000000FF
:107960008F7A002000000000C0A600203400000034
:10797000F8A6002000050000EA7C002001000000BD
:1079800090E100204400000018BB0020000400002B
:10799000180000000000000000000000053B00206F
:1079A000793C0020000000004941002055410020A2
:1079B0000D420020FE006578706572696D656E7419
:1079C000616C00004669726D776172652052657660
:1079D0006973696F6E000000486172647761726557
:1079E000205265766973696F6E0000004D616E7597
:1079F0006661637475726572204E616D650000008A
:107A00004D6F64656C204E756D62657200000000FC
:107A100053657269616C204E756D6265720000007D
:107A2000536F667477617265205265766973696F0A
:107A30006E005B486172644661756C745F48616E8C
:107A4000646C65725D43757272656E74206D7370DF
:107A50003A203078253038580A004F6363757265D4
:107A60006420696E207461736B2E005573696E67B4
:107A7000207533324D73702E004F636375726564E9
:107A800020696E20696E746572727570742E006C58
:107A90006C635F7461736B5F6D73675F7175657540
:107AA00065006C6C635F7461736B00626C6553742A
:107AB00061636B5F6D73675F717565756500626C9F
:107AC00065537461636B5461736B5F4D656D506F8B
:107AD0006F6C5F6C6F6E6700626C65537461636B93
:107AE0005461736B00626C65537461636B546173B2
:107AF0006B5F4D656D506F6F6C5F73686F72740074
:107B00005B4D53475F424C455F5048595F55504469
:107B10004154455F434F4D504C4554455F494E4499
:107B20005D2048616E646C65203D20307825582CBE
:107B30002054585F504859203D20307825582C203B
:107B400052585F504859203D20307825580A005B34
:107B50004D53475F424C455F454E43525950544543
:107B6000445F4348414E4745445F494E445D204889
:107B7000616E646C65203D20307825582C20456E60
:107B80006372797074696F6E5F456E61626C656473
:107B9000203D20307825580A005B4D53475F424C0A
:107BA000455F454E435259505445445F52454652F5
:107BB0004553485F494E445D2048616E646C6520C2
:107BC0003D20307825580A005B4D53475F424C45B5
:107BD0005F4C4C5F56455253494F4E5F494E445D92
:107BE000204D616E7566616374757265725F4E617A
:107BF0006D65203D20307825582C2048616E646CDE
:107C000065203D20307825582C2056657273696FA9
:107C10006E203D20307825580A005B4D53475F4267
:107C20004C455F444953434F4E4E45435445445F92
:107C3000494E445D2048616E646C65203D2030787B
:107C400025582C20726561736F6E203D2030782599
:107C5000580A005B4D53475F424C455F434F4E4EC1
:107C6000454354494F4E5F5550444154455F434F3F
:107C70004D504C4554455F494E445D20436F6E6EF8
:107C80005F496E74657276616C203D2030782558AE
:107C90002C20436F6E6E5F4C6174656E6379203D7E
:107CA00020307825582C2053757065727669736979
:107CB0006F6E5F54696D656F75203D203078255873
:107CC0000A005B4D53475F424C455F434F4E4E4564
:107CD000435445445F494E445D48616E646C652081
:107CE0003D203078253034580A006170705F6D6136
:107CF000696E0000485433324636373578355F4276
:107D00004C455F5045524950484552414C00000097
:107D10000000000001000000001001000000000051
:04000005200031B1F5
:00000001FF
