:020000042000DA
:1030000000700120BD310020C5310020D5310020E5
:1030100000000000000000000000000000000000B0
:103020000000000000000000000000001905010081
:1030300000000000000000009D050100A90501003E
:10304000E5310020E73100209D340020EB310020E5
:10305000ED310020EF310020F1310020F33100206C
:10306000F5310020F7310020F9310020FB3100203C
:10307000FD310020FF31002001320020033200200A
:103080000532002007320020093200200B320020D8
:103090000D3200200F32002011320020E1340020D8
:1030A0001532002017320020193200201B32002078
:1030B0001D3200201F320020213200200135002067
:1030C0000348854600F006F800480047ED49002017
:1030D000007001201CB50948009009480190054680
:1030E0000126009C05E0E36807CC33430C3C98477D
:1030F0001034AC42F7D3FFF7E7FF00002431002083
:103100003431002002E008C8121F08C1002AFAD199
:1031100070477047002001E001C1121F002AFBD157
:1031200070470000107C0020107C0020BC64000070
:103130001431002070B51D4E3078002834D0EFF3E4
:103140001085EFF3108072B619480068002802D08D
:103150008047002813D03078811E032912D2012421
:103160002046214603F024FC1248016804220A4349
:10317000026030BF0021204603F01AFC0AE085F30C
:10318000108870BD012805D10A48016804229143C6
:10319000016030BF08480068002803D03178022958
:1031A00000D1804785F3108870BDC0464CB900201F
:1031B000C8E0002010ED00E0C4E00020194880477E
:1031C000194800477046EFF30881EFF30982174B67
:1031D0009847FEE77046EFF30881EFF30982144B3E
:1031E0009847FEE7FEE7FEE7FEE7FEE7FEE7FEE7BD
:1031F000FEE7FEE7FEE7FEE7FEE7FEE7FEE7FEE7A7
:10320000FEE7FEE7FEE7FEE7FEE7FEE7FEE7FEE796
:10321000FEE7FEE7FEE7FEE7FEE7FEE7FEE7FEE786
:10322000FEE7FEE705360020C1300020A53400206F
:1032300069330020F0B51FB40646002082B0054671
:103240004024019100901BE0019922460F46304630
:1032500000F079F8049A059B801A994110D3104622
:103260001946224600F05FF8361A8F410197224630
:1032700001200021009F00F056F838184D410090C1
:103280002046641E0028DFDC019B00982946324658
:1032900007B0F0BD30B5434351435C18010C130C2B
:1032A0000D465D432C1980B292B2054655435143F9
:1032B0000A0C09044D1962415843010C00044019DD
:1032C000514130BD03460B439B0703D009E008C9B9
:1032D000121F08C0042AFAD203E00B780370401CC6
:1032E000491C521EF9D2704770B50446002903D01C
:1032F00000202022012310E0002801D00020C0433C
:10330000C046C0460DE02546D5408D4205D30D464A
:103310009540641B1D46954040191546521E002DD0
:10332000F1DC214670BD10B5202A04DB0146203AAD
:103330009140002010BD914020239C1A0346E34099
:103340001943904010BD10B5202A04DB0846203AEE
:10335000D040002110BD0B46D340D0402024A21AFB
:1033600091400843194610BD15460C46064600F02C
:10337000D5F9EFF308811D4803F0F4FF300701D5BC
:103380001C4800E01A4804F037FA0420064001D037
:103390001AA000E0184804F02FFA1CA004F02CFA40
:1033A000002E00D02C4621681CA003F0DBFF6168D2
:1033B0001EA003F0D7FFA16820A003F0D3FFE168AF
:1033C00022A003F0CFFF216924A003F0CBFF6169A5
:1033D00026A003F0C7FFA16928A003F0C3FFE1699D
:1033E0002AA003F0BFFF00F06DF9FEE7FA78002095
:1033F0004179002022790020337900205573696ECD
:1034000067207533325073702E000000537461636F
:103410006B206672616D653A00000000523020201A
:103420003A203078253038580A00000052312020E8
:103430003A203078253038580A00000052322020D7
:103440003A203078253038580A00000052332020C6
:103450003A203078253038580A00000052313220A6
:103460003A203078253038580A0000004C5220208D
:103470003A203078253038580A0000005043202088
:103480003A203078253038580A00000078505352DE
:103490003A203078253038580A00000080B503F013
:1034A0008DFA80BD14460D46064600F037F904A09B
:1034B00031462A46234603F055FF00F003F9FEE7A4
:1034C0004E4D495F48616E646C65723A2025303814
:1034D000582C20253038582C20253038580A000028
:1034E00010B582B001AC204603F06EFA019803F0EB
:1034F00071FA6078000601D501F0D4F802B010BD71
:10350000F0B585B0002503953B4C04AE204631460E
:1035100003F066FA30880821014001200190C607B7
:10352000002907D0204603F061FA642003F064FA12
:1035300032480660032103AA204603F063FA3048AC
:10354000046803E003F0A6F92C480660002C25D09F
:103550002046A46A017D0029F4D1417D0129F1D0E2
:10356000817D0229F2D102A90746234803F050FACF
:103570003846BA68FB6802999A4204D29142E5D370
:10358000994204D3E2E7994201D39142DED3C16963
:103590000029D7D0006A88473846D3E70096E94823
:1035A0000668002E18D00021029A0D46124804E049
:1035B0001D461148B66A002E10D0B37D022BF9D1FA
:1035C000B368CC0705D0AC1A9F1AA742F0D32B469C
:1035D000EEE71D460199EDE729460748C90709D0DE
:1035E00003998D4206D003212A4603F017FA00986A
:1035F000DD49086005B0F0BD0030056000E200E084
:10360000ECB90020014802490160704708ED00E074
:103610000030002070B55C4D29685A4E3068002497
:10362000224603F001FA30682968224603F002FAC4
:10363000534801689048814201D02D2000E02C20A1
:1036400003225207914200D12B2003F0F9F970BDFB
:1036500070B5032465071024AA4205D0104DAA4274
:1036600002D0854DAA4219D180250543814EB5422D
:1036700014D1049C264D2C60002C04D0264C00252F
:103680002580244C25803F4C20603D4802603E4808
:1036900001603F48036000F041F80446204670BDD9
:1036A000000800601C48008880B21A49098889B265
:1036B000081A4142414116480268504250410843AD
:1036C0007047C046F0B581B0114C2068002805D085
:1036D000104D2888104E3188884201D101B0F0BDCC
:1036E000274F04E0288081B232889142F6D080B220
:1036F00021680968095C386803F0A8F920688188A6
:103700002888401C82B28A42ECD30020EAE7C046F7
:1037100058B90020FAB90020F8B90020F0B583B0FC
:10372000174D286803214907884205D0524988422D
:1037300005D108242C2004E004242B2001E00C24D3
:103740002D2003F089F90F4E30680F4F396822465B
:1037500003F088F9002801D003B0F0BD3968306863
:10376000022203F067F90028F6D1084802900848C1
:1037700000680190286801A903F07AF903B0F0BD50
:1037800060B900205CB9002000BA0020213001019E
:1037900004BA0020B0B582B0282003F05DF90A20F9
:1037A00003F05AF90B2003F057F90C2003F054F9F9
:1037B0000D2003F051F90E2003F04EF90F2003F015
:1037C0004BF9102003F048F9352003F045F911209A
:1037D00003F042F9122003F03FF90024204621466D
:1037E000224603F04BF903F04FF903F053F900F0D0
:1037F000BDF8012529031D4881801D4A0260009003
:10380000E120C3021B481C4AFFF722FF1BA028A18E
:103810002AA203F0A7FD01F049F800F0F1FE00F044
:103820009FFD00F0CDFF28A01921224600F0B2FD37
:1038300000F0ACFA01F070F81721204603F030F9DF
:10384000E80564490860FF210906264A13688B438E
:1038500013606249086002202349244A01F0ACF851
:1038600003F024F903F028F902B0B0BD64B90020D8
:1038700070BF002080B00460000400605B257320EE
:10388000542025735D626C6520706572697068658F
:1038900072616C2070726F6A65637428637029208E
:1038A000737461727420746F20776F726B2E0A00CC
:1038B00053657020313420323032360031343A349E
:1038C000393A323200000000485433324636373538
:1038D00078355F424C455F5045524950484552410A
:1038E0004C00000014E400E09549002089490020C4
:1038F000B0B503461020002B22D0012920D8EFF3C9
:103900001084EFF3108572B69D7D002D02D084F3F4
:103910001088B0BD00209862DA611976012199758E
:103920002F490A68002A02D10B600021D9622D4973
:103930000A68002A01D09362DA620B6084F310886F
:10394000B0BDC046ECB9002001461020002909D0C6
:103950008A7D002A06D001224A750020C875D10749
:10396000384A11607047C04600E200E0F0B581B00F
:10397000052003F071F82A4D00242846214603F063
:10398000A1F80127F80713490860FF263106124AFB
:1039900013688B4303218907591811600F49086088
:1039A0001F21204603F07CF87902284603F090F8A6
:1039B0000821284603F092F82846314603F094F88F
:1039C000284603F097F8064804600648046020463D
:1039D00001B0F0BD80E200E01CE400E000E100E0A6
:1039E000ECB90020F0B9002010B51023002815D044
:1039F000847D002C12D04262416001461031084A99
:103A00000446104603F004F80220E075FF2002305F
:103A1000A0820120C0070B4908600023184610BD92
:103A20000030056001461020002909D08A7D002A57
:103A300006D001204875C875C007024908600020FB
:103A40007047C04600E200E084B0104C104D04E026
:103A5000621C81B2104603F053F828680022D34359
:103A600001A903F053F80028F2D101A803F054F89B
:103A700002990029F1D00398002802D003F052F8EF
:103A8000EBE7204603F054F8E7E7C0460260000089
:103A90008C7C002080B50A460021FFF729FF4142B7
:103AA000484180BD80B5FFF74FFF4142484180BD8E
:103AB00080B5FFF799FF4142484180BD80B5FFF7CF
:103AC000B1FF4142484180BDF0B593B07E4801212D
:103AD00003F034F80026002800D1D9E07B4803F039
:103AE00033F8002800D1D3E0794803F033F80028F8
:103AF00000D1CDE077480124214603F031F80028B9
:103B000000D1C5E0042000907348744A10210B4690
:103B100003F02CF8002800D1BAE07148062103F028
:103B20002BF8002800D1B3E06E48022103F02AF8F8
:103B3000002800D1ACE0250200206B496B4A131825
:103B400059601D8149191C307028F8D1002068493E
:103B5000684A1318596028261E8128311C307028A5
:103B6000F7D165480D9064A041688268C0681090E4
:103B70000F920E910DA803F00BF8002800D186E0FB
:103B800001940020604A614B1918CA600D824121DE
:103B90008900521830303028F6D00395BF20C54335
:103BA0005B4F28465B4A1418CC22A750D023E6521C
:103BB0002C373030F6D102920024574F5748001965
:103BC000C7600A46039901821146BF183034302C71
:103BD000F4D05349534C029A60198150C6522C318B
:103BE0003035F9D150A104A8024678C978C278C905
:103BF00078C202F0D3FF0028039C48D0002052492D
:103C0000524A13189C819960091920302028F8D055
:103C10004E480222214602F0C7FF002837D000207C
:103C20004B494C4A115013189C8009191030102828
:103C3000F8D048480222214602F0BCFF00260028A6
:103C400026D045480DAA114638C838C138C838C1F1
:103C50004020082102F0B4FF4049086000281AD033
:103C60003F4804AA114638C838C138C838C138C8D6
:103C700038C13C480026314602F0A8FF07463A48C2
:103C80000760002F0BD0394802F0A6FF0AE000269B
:103C9000304613B0F0BD384803F0AEFDF8E73448C5
:103CA00003F0AAFD019C002FF2D002F09BFF0398C5
:103CB000F43002F09DFF7D2040012E4902F09EFF6E
:103CC00002F0A2FF2646E3E7C08F0020909200207A
:103CD00058910020308B0020089500201895002076
:103CE00018970020A8940020489B0020789300207B
:103CF00058A300202895002078930020000104009C
:103D0000289500202800040050A10020489400209D
:103D1000A8A4002058960020489F0020E893002087
:103D2000F8A300209895002048940020000102008C
:103D30005896002028000400E893002000010200AB
:103D4000989500202800040048970020F08A002061
:103D500048990020A08F00204C780020E4A5002086
:103D6000287800203D490020ACA50020AD67002048
:103D70008D790020AC0D0000767900205A4800882B
:103D8000081A41424141C8007047C046F0B583B0AF
:103D90003B4900253B4B28462A4601F0DBF800282A
:103DA00067D00095019581204300374C2846214675
:103DB0002A4601F063F800285BD04B4908800D20AB
:103DC000019032480090611C00200223024601F05D
:103DD00055F800284DD00E2601962D480090A11CC4
:103DE0000025022328462A4601F048F8002840D042
:103DF0001227019727480090E11C029602262846C8
:103E00002A46334601F03AF8019723480090211DD5
:103E100028462A46334601F031F801971F480090A2
:103E2000611D28462A46334601F028F801971C48B0
:103E30000090A11D28462A46334601F01FF802983B
:103E4000019018480090E11D28462A46334601F0AB
:103E500015F807200190144800902D34284621467B
:103E60002A46334601F00AF801F03AF802F0D2FE91
:103E700003E00E4803F0C0FC0125284603B0F0BD66
:103E80000A18000064780020232A0000C878002067
:103E9000D87800208C780020A0780020E8780020D6
:103EA000B47800207C780020047C00205779002022
:103EB00010B50D480088814214D10820002B10D085
:103EC0000A490A68496819711A700C0EDC710C0CE9
:103ED0009C71090A5971110ED970110C9970110A4F
:103EE000597010BD002010BDFEB9002030E0002048
:103EF00070B5401E622800D9AEE14D1C4000C0469E
:103F000078448088400087446200E000A3002A01D2
:103F10005001BE00F6000B0178015F01A701A70167
:103F2000A701A701A701A701A701A701A701A70151
:103F3000A701A701A701A701A701A701A701A70141
:103F4000A701A701A7018800CE0091007F00A7016B
:103F50001B0121019001A701A701A701A701A7014A
:103F6000A701A701A701A701A701A701A701A70111
:103F7000A701A701A701A701A701A701A701A70101
:103F8000A701A701A7018701A701A7017900A00048
:103F90009D017C008E008500DD008200A301A70149
:103FA000A001A701A701A701A701A701A701A701D8
:103FB000A701A701A701A7018B00A701A701A701DE
:103FC000A701A701A701A701A701BB0027018878C6
:103FD000CA7812021218E0480C46114602F090FD11
:103FE000A078E17809020918DC4803F0BBF9A07851
:103FF000E17809020818D749088070BD0978A048FF
:1040000028E109789B4825E10988A44822E109783C
:1040100094481FE1097895481CE10988A24819E1F4
:104020000978984816E10978914813E1881C002224
:104030000C46114602F0F4FD014620786278120227
:104040001218974802F0F2FD70BD09788B4801E123
:1040500008794A7912021418CB782A78B5480E46A6
:10406000214602F0E9FD30797179090209182878B2
:104070006A7812021218F378AF4803F073F970BD32
:1040800009788148E6E02878697809020918A87853
:10409000EA7812021218A879EB791B021B189548CE
:1040A00002F0D0FD70BD881C00220C46114602F0C3
:1040B000B7FD01462078627812021218794802F0A2
:1040C000B5FD70BD09786848C4E0CA782B789F4870
:1040D0000C46194602F0BCFD2878697809020918D7
:1040E000E2789B4803F03EF99A49002008800121BC
:1040F00002F0B4FD70BD8878CA78120214184B79AA
:104100000A797A480D46214602F096FDA878E978AA
:10411000090209186B792A79754803F023F970BDF3
:10412000CA782B7887480C46194602F091FD28780A
:10413000697809020918E278834803F013F970BD21
:104140000878497809020918534883E08A78097881
:10415000504802F07DFD70BD097854487AE0087936
:104160004A791202121866480C46114602F0C8FC41
:10417000211D6448082202F077FD20796179090247
:104180000818A1790904E279120651180A18207A50
:10419000617A09020818A17A0904E37A1B06591802
:1041A0000B1859A003F0DEF870BD0B89CA888C8803
:1041B00051480D46214602F045FD2B89EA88A98821
:1041C0004E4803F0CFF870BD08784A7812021318F1
:1041D0008878CA781202121835480C46194602F03F
:1041E00049FD2078617809020918A078E278120266
:1041F000121830A003F0B6F870BD2878697809026B
:1042000009184E4802F07CFC2878697809020918E0
:104210004B4803F0A7F870BD0B78C8784042C2B293
:104220001A48194602F014FD70BD08784A78120247
:104230001318887AC97A09020A181548194602F033
:1042400019FD70BD09780C4804E00978034801E0C5
:104250000978034802F054FC70BDC0462BA0000052
:104260002AA0000029A0000028A0000027A000002C
:1042700026A0000025A0000024A0000023A000002C
:1042800022A000002CA0000033A0000021A000000C
:1042900016A0000015A0000014A0000013A000004C
:1042A00012A0000011A0000010A0000034A0000027
:1042B0000FA000005B4D53475F424C455F4D545586
:1042C0005F45584348414E4745445F494E445D2051
:1042D00048616E646C65203D20307825582C206D37
:1042E0007475203D2025640A000000000EA0000027
:1042F0000D7A00200DA000000CA00000607B0020C3
:104300000AA000000BA000005B4D53475F424C45E4
:104310005F4C4C5F464541545255455F494E445DA4
:104320002048616E646C65203D203078254C580A29
:104330000000000009A00000D57A002008A00000BD
:10434000A67A002007A000005C7A002005A00000EB
:10435000277B0020F6B9002003A00000CF7B0020BF
:1043600080B5024802F08CFC80BDC046F13E0020C2
:104370002F480088411A4842484170472C4800881D
:10438000884205D10120002B01D00021197070470F
:1043900000207047F0B583B014460D460146202D2D
:1043A00000D320251F4F38462A46FEF78BFF200AF0
:1043B0001D4E707034700320C10200201B4B02465A
:1043C00000F0C8FD0124002828D000970195152091
:1043D000450200200227294602463B4600F04EFDDA
:1043E00000281BD000960197691C002630463246F3
:1043F0003B4600F043FD002810D000960196A635FC
:104400008120430030462946324600F037FD00281F
:1044100004D00749088000F063FD3446204603B00D
:10442000F0BDC0462CB9002028B9002070780020CB
:10443000F4B9002000207047F0B597B00124A10224
:104440004548464A10252B4600F0E2FD44A00BA942
:104450004CC84CC14CC84CC147A002AA1146C8C8A0
:10446000C8C1C8C8C8C12421284602F00FFC484969
:104470000860002812D047A011AA114668C868C178
:1044800068C868C10820802102F000FC4749086024
:10449000002807D103204003401C01E00320400313
:1044A00002F046FB40200C210BAA02F089FB404998
:1044B000086000281CD03FA002AA114668C868C145
:1044C00068C868C168C868C14348002102F07EFB23
:1044D00042490860411E05468D41002833D08020A6
:1044E00002F0DAFB3E4802F0DDFB002D03D127E0AD
:1044F0000025002D24D02602009610212822082312
:10450000204602F0D5FB68363648314602F0D6FB2D
:1045100033208101344802F0D7FB34480221302295
:1045200002F0D8FB02F0DCFB314802F0DFFB31483F
:1045300002F0E2FB304802F0E5FB304802F0E8FB15
:10454000284617B0F0BD03204003093002F0F0FA0E
:10455000002DD0D1F4E7C04670CF00206CB9002008
:10456000B879002000000000587C002034000000D2
:10457000907C002000060000F2790020000000007E
:1045800038E0002024000000E8B6002040020000CF
:1045900054B90020CB790020000000005CE000202E
:1045A00024000000E8B200200004000050B9002000
:1045B0008C7C0020E579002001000000107C0020A8
:1045C000440000009082002000080000200000004D
:1045D0000000000000000000493A0020547C002048
:1045E000D566002008BE002070D30020908A0020ED
:1045F000953A0020B13A0020BD3A0020A53A0020AB
:1046000010B501F013FF00240221204602F048FA01
:10461000124804220260FF20000411490B68834302
:104620000B60104802600F200321072302F076FB85
:1046300000F03CF8FFF748FA002807D0FFF7FCFE2F
:10464000002805D000F0C8FB204610BD06A000E001
:104650000CA003F0D1F8012010BDC04680E200E0BC
:1046600000E400E000E100E0626C655F636F6E747F
:10467000726F6C6C65725F696E6974206572726FBF
:10468000722E0000626C655F686F73745F696E699B
:1046900074206572726F722E0000000080B502F007
:1046A00043FB80BD80B502F045FB80BD10B52B48B3
:1046B00002F046FB2A4802F049FB2A4802F04CFB74
:1046C000294802F04FFB294802F052FB284802F02B
:1046D00055FB284802F058FB274802F05BFB2748AF
:1046E00002F05EFB264802F061FB264802F064FB04
:1046F000254802F067FB254802F06AFB244802F0D7
:104700006DFB244802F070FB234802F073FB234842
:1047100002F076FB224802F079FB224802F07CFB93
:10472000214802F07FFB214802F082FB204802F082
:1047300085FB204802F088FB1F4802F08BFB1F48D6
:1047400002F08EFB0020C4432046214602F08EFB7F
:104750002046214602F090FB10BDC046D3BC0200AB
:10476000B3BC0200BBBC0200CBBC0200C3BC020055
:10477000B9550100695601006127020001270200B6
:1047800015270200710B02005D2402003126020091
:104790009D2502008D260200F9250200C526020093
:1047A0007D270200752702007D0B0200D9E9030076
:1047B00001E803003DE70300C5EA03009DEA0300AA
:1047C000F0B58FB0022002F05DFB092401AE062592
:1047D000204631462A4602F05BFB317870780A4663
:1047E0000243120605D10DA82649818026480D9066
:1047F00012E0C2B20DA8C27001AA53794371937836
:1048000083700B090901C9180171D1783F23194040
:1048100041701179194001700DA802F03FFB1B484F
:1048200009A90A46C8C8C8C2038813808078907056
:104830000026304602F038FB08A98D708120400028
:104840000880032530462A4602F034FB01AF7C7015
:104850001A203870B81C0EA11922FEF733FD1B2256
:104860003046394602F02CFB304602F02FFB052182
:104870001022284602F030FB0121304602F0EEF90A
:104880000FB0F0BD03BA000055404D03187800206A
:10489000485433324636373578355F424C455F50A1
:1048A00045524950484552414C00000003480449D4
:1048B00001600448044901607047C046300B002085
:1048C000156800202C0B00203D4A002010B582B056
:1048D0000E490A68002A0CD00D490B881468E05470
:1048E00094885A1C93B2A34200D300220A8002B0DB
:1048F00010BD01A90870074A136801220446184632
:1049000002F0F0FA204602B010BDC04658B90020AF
:10491000F8B9002060B900200148024901607047E1
:10492000280B00202949002080B5FEF7CBFE7D2012
:10493000800002F061F8FEF7FDFB80BD82B00A4DF9
:104940000AA403E00146204602F00CFD286800227C
:10495000D343694602F0DAF80028F3D101990098B0
:1049600002F0C6FAF2E7C046E4A500206C6C635F73
:104970007461736B20676574206D7367206661696D
:104980006C65643A25750A0080B5FEF7C7FE02F033
:10499000B5FA80BD10B50024FFF780FE002808D0CE
:1049A000FEF780FE002804D0FEF734FE02F0ACFAD9
:1049B0000124204610BD000010B5094B19600949BB
:1049C00008700948026001200024214601F0F0FF30
:1049D00003210A220523204602F0A0F910BDC0469B
:1049E000C8E000204CB90020C4E000208AB009A033
:1049F00001AC21462CC82CC12CC82CC12CC82CC100
:104A000002F088FA0C480021224602F0DFF802F09A
:104A100087FAFEE7F77B00200100000080E000201D
:104A20004400000008BA0020000400001800000044
:104A30000000000000000000953700200C460546ED
:104A4000FEF76CFE06A002F0D7FE09A0294602F090
:104A500089FC0CA0214602F085FCFEF733FEFEE740
:104A60006F7320657272206F63637572730000004C
:104A7000636F646520202020203A2030782530386C
:104A8000580A00006F626A6563745F69643A203097
:104A900078253038580A0000F0B583B01C46164619
:104AA0000F46029009891348089D2A4602F0E2F851
:104AB000F888C00513D402943C8A0E48401C214655
:104AC000324602F0D7F8A01B81B2A94200D80546B1
:104AD000AAB2786981190298FEF7F4FB07E03989D8
:104AE000009502983246234600F0E4FD0546A8B240
:104AF00003B0F0BD15510000F0B585B01D46164657
:104B00000F46012101701478384602F00FFA002890
:104B100000D16EE0009701950746C8379D490546CC
:104B2000481C214601F0ECFFD8350295601E512843
:104B300000D9D9E04000C0467844808840008744CE
:104B400051005D006F0095009A00A100A700AE0023
:104B5000B400BB00C000C700CC00D300D300D90014
:104B6000DF00E600EC00D300D300F300F900000101
:104B70000501D3000C01D30013011A01D300D300A7
:104B8000D300D300D300D300D300D300D300D3008D
:104B9000D300D300D300D300D300D300D300D3007D
:104BA000D300D300D300D300D300D300D300D3006D
:104BB000D300D300D300D300D300D300D300D3005D
:104BC000D300D300D300D300D300D300D300D3004D
:104BD000D300D300D300D300D300D300D300D3003D
:104BE000D3001E01029C20463146019A02F0A4F92E
:104BF000CBE0684801F09CFF05B0F0BD3846314677
:104C000002F0A0F90028029C00D0BEE004A90098A0
:104C10000880388848800A20042202F099F9B4E01C
:104C20000121304602F09AF97A889042014600D379
:104C300011463A88914202D2172900D339803A7836
:104C400054498B1CC1B2184602F002F80220B87118
:104C50003988009C204602F087F903A90C80388827
:104C600048800A20042202F073F98DE0384631466C
:104C700002F080F988E0029C20463146019A02F059
:104C80007FF982E038463146019A02F07FF97BE0F5
:104C9000029C20463146019A02F07EF975E03846C2
:104CA0003146019A00F0ECFA6EE0029C2046314653
:104CB000019A02F077F968E03846314600F0D6FBF9
:104CC00062E0029C20463146019A02F071F95CE0F4
:104CD0003846314600F066FA56E0029C20463146DE
:104CE000019A02F06BF950E006223846214602F0A4
:104CF0006BF949E038463146019A02F06BF943E01E
:104D0000029C20463146019A02F06AF93DE038469D
:104D10003146019A00F042FC36E0029C20463146C2
:104D2000019A02F063F930E038463146019A00F00A
:104D3000D1F929E0029C20463146019A02F05CF943
:104D400023E03846314600F093F91DE0029C2046EE
:104D50003146019A02F056F917E0029C204631468E
:104D6000019A02F055F910E0029C20463146019A62
:104D700002F054F909E0384600F0D4FB04E038466C
:104D80003146019A00F0DDFB029C204602F04CF90E
:104D900005B0F0BD1452000001480249416070475F
:104DA000BC0A0020F94A002010B50C46C988C90584
:104DB00003D5218900F066FC208210BD014802491C
:104DC0000161704764090020CD4D00200121017070
:104DD00000487047FFFF000080B5114801F0F2FF66
:104DE000104801F0F5FF104801F0F8FF0F4801F0FE
:104DF000FBFF0F4801F0FEFF01F01AFA01F04AF83C
:104E000001F032F800F09CFC01F034F801F012F8E7
:104E100000F09CFCFFF7D2FFFFF7BEFF80BDC0464D
:104E20004962002015630020816200207163002028
:104E3000DD620020B0B501468B4A1088002810D0F2
:104E400013888A4A1468002204E00834521C9A42EB
:104E5000184608D225888D42F7D865888D42F4D34C
:104E600002E0002200E01846D100804B1B68591870
:104E70004968002900D01046B0BDC046F0B581B0E9
:104E80001C4617460D461549079B069A00280DD06B
:104E90000D46002F1BD03846214602F0CBF80646BF
:104EA000681C1022394601F0DFFE0AE028460F4652
:104EB000214602F0C5F80646B81C294601F020FE3E
:104EC0003D46E81C3146224601F0D4FE03E0284668
:104ED00001F02EFE0026304601B0F0BDA5520000C4
:104EE000F0B581B060480188002912D002885F487F
:104EF0000368002004E00833401C9042114606D2AB
:104F00005C88002CF7D11C88002CF4D002E01146FC
:104F100000E000200E4C884206D181B2204601F00C
:104F2000EFFD002001B0F0BDC60002F08FF805468D
:104F30004E4F38688019458002F08EF80246601C9A
:104F4000294601F097FE38688019408801B0F0BD0D
:104F5000A3520000F0B583B001920E46424D29885D
:104F60000024002902930FD0404A12681788002FAE
:104F70000AD02988083201231C468B4204D2631CC4
:104F800017880832002FF7D18C4205D1A1B21F48F3
:104F900001F0B6FD002735E01C4D002813D02E4649
:104FA000019D002D2AD00520C102284602F05AF8A2
:104FB0000746B01C10222946354601F055FE002F49
:104FC0000DD100271EE00520C102304602F050F846
:104FD0000746E81C314601F093FD002FF1D0E000B8
:104FE000224909680F520818029941600021418046
:104FF000281DA2B2394601F03DFE03E0701C01F00D
:1050000097FD0027384603B0F0BDC0469952000016
:10501000F0B581B0134D00281FD0002A1DD00C46DA
:1050200000291AD0002B18D00F490B800F490A60B5
:1050300000210F460E46FF00D151761CF7B29F4269
:10504000F9D3002200922146134602F017F8681C9B
:10505000214601F055FD01B0F0BD284601F068FD84
:1050600001B0F0BD9752000058A500205CA50020BB
:1050700070B582B00E460446102002F005F80028F4
:105080000AD005466189A0887278002300930193B5
:10509000012A06D0032205E00D4801F049FD02B0C7
:1050A00070BD022200F026FB010607D0C3B2182112
:1050B0000022284601F0EEFF024602E01920287087
:1050C0000122A088294601F0EBFF02B070BDC04666
:1050D00023510000F0B58BB004920C460546012127
:1050E000204601F03BFF07460321204601F036FF32
:1050F00003902E462888001D80B201F0C5FF0028CD
:1051000013D0054605A8394601F0D0FF002811D07C
:1051100005A8C088010701D5C00512D4162128466C
:105120003A4601F0C9FF024628E01D4801F000FDA3
:105130000BB0F0BD162128463A4601F0C3FF0246E7
:105140001CE005A9304601F0C3FF002801D003464A
:105150000EE0B0880499491F89B2621D0092019146
:1051600001223946039B00F0C5FA01060CD0C3B2F8
:10517000162128463A4601F08DFF0246B08829469E
:1051800001F08EFF0BB0F0BD28462146049C22465C
:10519000FEF798F81720287077812246EEE7C04680
:1051A00022510000F0B589B00D4604460121284681
:1051B00001F0D4FE06460321284601F0CFFE0290FE
:1051C00003A8314601F072FF07462088001D80B217
:1051D00001F05AFF00280CD00546002F0ED003A87E
:1051E000C088800710D40C212846324601F076FF93
:1051F0003BE0224801F09CFC09B0F0BD0C212846A0
:10520000324601F05FFF30E003A9204601F060FF65
:10521000002806D003460C212846324601F03AFF0A
:1052200023E0A08803AF3946FFF7BEFD388A029A13
:10523000824205D90C212846324601F055FF14E080
:10524000801A411C2088814203DD1018401E03A9EA
:1052500008820798801A81B2A08800916B1C03A96C
:10526000FFF71AFC0D212970401CA18882B2084664
:10527000294601F015FF09B0F0BDC0461F510000DE
:10528000F0B591B014460E4607460121304609910B
:1052900001F064FE05460321304601F05FFE024640
:1052A00071480A9529460546089201F0E3FC727997
:1052B000681C214601F0DEFC07973888001D80B28B
:1052C00001F0E2FE002804D00746082C06D3102087
:1052D00005E0A81C01F02CFC11B0F0BD02200690E6
:1052E0000A9A0899501E80B288420AD2701D059011
:1052F0000BA801F0FFFE0026039602960998049081
:105300000FE00821384601F0DDFE9EE00BA9079C66
:10531000204601F0DDFE002834D00390099C002CCB
:1053200075D10BA801F0ECFE002870D00BAC204624
:1053300001F0ECFE2289A188E81C01F09BFC0E988C
:10534000017840780002401882B2E188281D01F0FF
:1053500091FC20890028E1D000240A998842DED3FC
:1053600008998842DAD80BA80599069A01F0D4FE6C
:105370000028D4D00BA8C0888007C7D43004CED171
:105380000D9ECCE7A0880BA9FFF70EFD0F98801C9F
:10539000049989B200220392022904D382B2029BAB
:1053A0009BB29342BAD1012903D17870049B5B1C54
:1053B00001E0049B0298029080B299B20A182088FA
:1053C0008242049306D90229A8D8001F0BAA108292
:1053D000801C78700BAC2289384601F0A3FE079838
:1053E0008088218A00910499891C049189B27B18D4
:1053F000002203922146FFF74FFB0446681D214619
:1054000001F07EFB049820180490039C87E7049920
:1054100088B2022802D30920387017E003990806E1
:1054200006D0CBB2082138460A9A01F033FE0CE0D0
:10543000300405D0B2B20821384601F04FFE04E036
:10544000082138460A9A01F073FE0146A81D8CB265
:10545000214601F055FB079880883946224601F025
:105460001FFE11B0F0BDC04617510000F0B587B067
:105470000A4604460121104601F070FD064601A8C7
:10548000314601F013FE07462088001D80B201F06E
:10549000FBFD00280CD00546002F0ED001A8C088C7
:1054A000800710D40A212846324601F017FE2EE06C
:1054B0001B4801F03DFB07B0F0BD0A2128463246EB
:1054C00001F000FE23E001A9204601F001FE0028C2
:1054D00006D003460A212846324601F0DBFD16E0DD
:1054E000A08801AE3146FFF75FFC2088318A8142F7
:1054F00002D3401E01A90882A08801A90A8A00924D
:105500006B1C0022FFF7C8FA0B212970401CA188F0
:1055100082B20846294601F0C3FD07B0F0BDC0467F
:105520001E51000080B582B00189002907D00023F8
:105530000381808800930193042200F0DBF802B01D
:1055400080BDF0B589B015460C46074601212046BE
:1055500001F004FD064603A8314601F0A7FD00282E
:105560000CD04120800003A9C9880140814205D1A7
:1055700003A9384601F0ACFD002801D009B0F0BD08
:10558000B888E91E89B2E21C0092019100223146DE
:10559000134600F0AFF809B0F0BD0000F0B58BB0D5
:1055A00003920C46074601260846314601F0D6FC18
:1055B000014605A8049101F079FD0546102001F08F
:1055C00063FD00280CD0002D0FD005A9CA88110753
:1055D0003D4613D412210446049A01F06DFD1AE0F1
:1055E000274801F0A5FA0BB0F0BD12210446049A39
:1055F00001F068FD214606463D460EE005A9D205AC
:1056000011D4098AC91C039B99420CD21221044669
:10561000049A01F093FD21460646A888324601F01F
:105620003FFD0BB0F0BD002AD4D5074605A928469A
:1056300001F04EFD002805D0034612213C463846B5
:10564000049A13E0A8880399C91E89B2E21C00924B
:1056500001910022049C2146134600F04BF80106FC
:1056600009D0C3B2122122463C46384601F012FD51
:1056700039460646D1E7132039463870CDE7C04693
:1056800021510000B0B50C4605460846FFF7D2FB95
:10569000014629480288002091420AD0C900274AC1
:1056A0001268511849680A68002A02D02846214623
:1056B0009047B0BDF0B581B01C4615460E46074672
:1056C0000846FFF7B7FB01461B48028800209142BD
:1056D0000ED02346C900194A1268511849684C680F
:1056E000002C05D006980090384631462A46A0473F
:1056F00001B0F0BDF0B583B01C4615460E46074616
:105700000846FFF797FB01460B48028800209142AC
:1057100010D02346C900094A1268511849688C689C
:10572000002C07D00998089900910190384631461D
:105730002A46A04703B0F0BD58A500205CA5002074
:1057400008480149C1647047715B0020092040018D
:105750000449054A0A50E2480021044A02604160B7
:105760007047C046500B0020AD630020ED4900009B
:10577000F0B587B00546D8482E18452000012818F6
:105780000290F8482B5C0391497B9768D0682C46BF
:1057900050340278002B45D0002965D0092A00D06A
:1057A000B1E0FF2109020F40092109028F4200D018
:1057B000FCE0027A04A90A72027943791B029A1862
:1057C0008379C5792D02EB181B049A18059202788B
:1057D00043781B029A188378C0780002C01800042E
:1057E00080180490481C01F0AFFC07460D460120CC
:1057F00030700026039A967210208143B9482F30EA
:105800003840029B03C3517BB448401C01F078F937
:10581000B64A3A4051208543218830462B4601F054
:1058200099FC55E1002970D0092A00D1CAE0072A65
:1058300000D008E1FF231B021F40012673029F4294
:1058400000D015E140780E2800D041E100260398F1
:105850008672A248401D01F053F921881A20324671
:10586000334601F077FC33E10E2A00D09CE0FF21A3
:105870000902394009231B02994200D0E7E0027A6D
:1058800004A90A72027943791B029A188379C479B0
:105890002402E3181B049A180592027843781B022D
:1058A0009A188378C0780002C01800048018049009
:1058B000481C01F049FC0191894A0ACA894A0090B2
:1058C000084011402F2404400A191027BB432846E2
:1058D00001F046FC002800D1F7E00246F843012120
:1058E0003170814991610399D161019B0340009816
:1058F0007C4E30400443029804604360284601F027
:1059000035FC0026E4E00126E2E0082A00D09CE015
:10591000FF210902394009231B02994200D0C1E04E
:10592000027A04A90A72027943791B029A188379D0
:10593000C4792402E3181B049A180592027843786C
:105940001B029A188378C0780002C01800048018DF
:105950000490481C01F0F8FB0191614A0ACA614AAF
:105960000090084011402F2404400A191027BB431F
:10597000284601F0F5FB002800D1A8E00246F843D4
:1059800001213170584991610399D161019B034014
:105990000098544E30400443029804604360284607
:1059A00001F0E4FB002693E0012691E02846039CE9
:1059B000214601F0E1FB0026A672617B474801F019
:1059C0009FF885E0FF2109020F4009210902434B9E
:1059D0008F425AD1027A04A90A72027943791B02D2
:1059E0009A188379C5792D02EB181B049A18059231
:1059F000027843781B029A188378C0780002C01896
:105A0000000480180490481C01F09EFB07460D46D8
:105A1000012030700026039A96721020814331488D
:105A20002F303840029B03C3517B2C48C01D01F02E
:105A300067F82E4A3A4051208543218830462B464C
:105A400001F088FB44E0012642E0012640E02846C0
:105A5000039D294601F090FB204CA01C394601F023
:105A600091FB0026AE72697BE01C01F049F82FE043
:105A70002846039C214601F07FFB0026A672617B2D
:105A80001648001D01F03CF822E02846039C214600
:105A90001D4601F071FB0026A672617BA81D01F076
:105AA0002FF815E02846039C214601F065FB0B4DBD
:105AB00028460830394601F065FB0026A672617B56
:105AC0000935284601F01CF802E0022600E0022613
:105AD000304607B0F0BDC04649040000CE36000095
:105AE00060A5002000CF87F7A98002002FCF87F79D
:105AF00070B5002810D00D4600290DD0002A0BD01B
:105B0000D168097800240E290FD0082927D115491A
:105B1000405C002823D10CE01620492100242246B5
:105B2000234601F035FB204670BD0E49405C00283D
:105B300015D001242C730026EE72FF20043028813A
:105B4000304601F02BFB03C50748EE806E716E6195
:105B5000AE61E861AC700548314600F0D1FF2046E7
:105B600070BDC0465103000071570020CD360000C3
:105B700010B5044600F026FD002802D00C210120BB
:105B800006E000F0F9FC002801D1014600E00C21FC
:105B90002070084610BD000010B50A46002911D03B
:105BA0000446906B00280DD0107C072811D00628E1
:105BB00016D005281DD110480068D060104600F0AE
:105BC00023FD13E08520C1001C20002301F0E0FA32
:105BD00010BD09480068D060104600F019FD05E0CE
:105BE00005480068D060104600F018FD01202070C4
:105BF00010BD0020207010BD50080020B0B50D462B
:105C000000290FD00446A86B00280BD0287C072859
:105C10000FD0062812D0052817D12846114600F0CB
:105C2000F4FC0FE01C200A4900232A4601F0B0FAD8
:105C3000B0BD2846114600F0EEFC03E028461146B0
:105C400000F0F6FC01202070B0BD00202070B0BD37
:105C50008D04000010B50A46002918D00446906B48
:105C6000002814D0107C072817D0062823D0052838
:105C700031D140480178D0684843184909688842C2
:105C800000D80146D160104600F0C0FC20E01C2086
:105C90001349002301F07CFA10BD36480178D06822
:105CA00048430E490968884200D80146D160104631
:105CB00000F0B2FC0CE02F480178D0684843074957
:105CC0000968884200D80146D160104600F0CFFC38
:105CD0000120207010BD0020207010BD540800204D
:105CE00053040000B0B50D46002919D00446A86B36
:105CF000002815D0287C072819D0062826D005288A
:105D000035D1E8681B490978FDF7EEFA1A490968A8
:105D1000884200D30146E960284600F078FC23E081
:105D20001C20164900232A4601F032FAB0BDE8686B
:105D300010490978FDF7D8FA0F490968884200D35D
:105D40000146E960284600F068FC0DE0E868094972
:105D50000978FDF7C9FA08490968884200D3014665
:105D6000E960284600F096FC01202070B0BD0020BC
:105D70002070B0BD5C08002058080020B504000069
:105D8000B0B50446012500F085FB002801D0284667
:105D900008E000F017FC002801D0012002E000F02C
:105DA000EBFB054620702846B0BD70B504460C26B6
:105DB000012500F0A3FB00280BD100F010FC002807
:105DC00007D100F0E6FB0546002801D12E4600E091
:105DD0000C262570304670BD70B504460C26012592
:105DE00000F08CFB00280BD100F0F9FB002807D154
:105DF00000F0CFFB0546002801D12E4600E00C261E
:105E00002570304670BD10B5044600F077FB0028C1
:105E100003D100F0E4FB002803D0002020700C2008
:105E200010BD00F0B6FB00212170002800D00C202E
:105E300010BD0000152000011249074A0A505320E6
:105E40008000064A0A502920C000054A0A50512005
:105E50008000044A0A507047E55C0020FD5B00208A
:105E6000555C0020995B0020064801490166704797
:105E7000815D002003480449044A054B8363C263E3
:105E800001647047500B0020075E0020AB5D0020CE
:105E9000D95D002070470000B0B584B0002808D05C
:105EA00004468168022001F07FF9002804D004B084
:105EB000B0BD042004B0B0BDE389A289607C014676
:105EC00001F078F90028F2D16269A369217C607C35
:105ED00001250095019002900025284601F070F9F7
:105EE0000028E4D1206A01F071F90028DFD1A18BEC
:105EF000606A01F071F90028D9D106480570627C0A
:105F000003CC01F06FF90028D1D101F071F92846D6
:105F100004B0B0BD0C0D002070B5012606702748F6
:105F200000780024002801D0204670BDEFF31085D2
:105F3000EFF3108072B601F061F900280CD0344CF8
:105F40002078002804D11F4801F05EF9012020705C
:105F500085F31088012070BD2F4908466838006815
:105F60002B4A1278002A1DD030401BD00522086829
:105F70000B68984204D0531E12061A46F7D1FF222E
:105F8000110613D023490968814213D90C4A12889B
:105F900085F31088081A5109884200D80026344633
:105FA000204670BD85F31088204670BD85F31088AB
:105FB000204670BD85F31088204670BD5F09002023
:105FC00022080020FFFFFF1FB0B501210170EFF391
:105FD0001084EFF3108072B60D4D2878002813D08E
:105FE0000C4800680C490968814205D2491D81426C
:105FF00004D201F00FF905E0642001E04B2080009D
:1060000000F0FAFC0020287084F31088B0BDC04670
:106010005B09002080000040E8010040B0B584B07A
:10602000002808D004468168042001F0BDF800284B
:1060300004D004B0B0BD042004B0B0BDE389A2898F
:10604000607C014601F0B6F80028F2D16269A369CC
:10605000217C607C01250095019002900025284656
:1060600001F0AEF80028E4D1206A01F0AFF8002872
:10607000DFD1A18B606A01F0AFF80028D9D103CC41
:10608000627A01F0CDF80028D3D10348057001F001
:10609000CDF8284604B0B0BD9C0D002070B584B08A
:1060A000002808D004468168062001F07DF8002809
:1060B00004D004B070BD042004B070BDE389A2898F
:1060C000A17C607C01F076F80028F2D16269A369B6
:1060D000217C607CA57C012600960190029500251C
:1060E000284601F06DF80028E3D1206A01F06EF82F
:1060F0000028DED1A18B606A01F06EF80028D8D1AB
:1061000003CC627A01F06EF80028D2D10348057002
:1061100001F092F8284604B070BDC0469D0D0020E5
:10612000B0B584B0002808D004468168032001F08F
:106130003BF8002804D004B0B0BD042004B0B0BDCA
:10614000E389A289607C014601F034F80028F2D18D
:106150006269A369217C607C012500950190029011
:106160000025284601F02CF80028E4D1206A01F02F
:106170002DF80028DFD1A18B606A01F02DF80028EE
:10618000D9D103CC627A01F04BF80028D3D103486F
:10619000057001F057F8284604B0B0BDBC0D0020D2
:1061A00070B584B0002808D004468168052000F04E
:1061B000FBFF002804D004B070BD042004B070BD03
:1061C000638A228AA17D607D00F0F4FF0028F2D16D
:1061D000A17DE06801F03CF80028ECD1A269E369F8
:1061E000217D607DA57D0126009601900295002508
:1061F000284600F0E5FF0028DDD1606A00F0E6FFE8
:106200000028D8D1218CA06A00F0E6FF0028D2D166
:1062100003CCA27B01F004F80028CCD10348057020
:1062200001F01CF8284604B070BDC046BD0D00202A
:10623000024803498164034941657047200D0020ED
:10624000C95F0020195F002070B50546554E3068C3
:10625000002801D0012070BD01F006F82846FFF7A4
:106260001BFE0446002801D0204670BD0348306064
:1062700003CD00F0FFFF204670BDC046842702001A
:10628000F0B581B00446474F3868002801D0012698
:106290001EE000F0E9FF03CC637A00252A46083CA3
:1062A00000F0EEFF03C42068627A2946083C00F043
:1062B000EDFFA0602046FFF7B1FE0646284600F03D
:1062C000EBFF002E04D10448386003CC00F0D2FF6D
:1062D000304601B0F0BDC046D427020070B5054677
:1062E000304E3068002801D0012070BD00F0BCFFA6
:1062F0002846FFF7D3FE0446002801D0204670BD93
:106300000348306003CD00F0B5FF204670BDC046A5
:10631000E4270200F0B581B00446224F3868002817
:1063200001D001261EE000F09FFF03CC637A002518
:106330002A46083C00F0A4FF03C42068627A29467C
:10634000083C00F0A3FFA0602046FFF7E9FE0646E8
:10635000284600F0A1FF002E04D10448386003CC89
:1063600000F088FF304601B0F0BDC046F4270200BF
:1063700070B505460B4E3068002801D0012070BD75
:1063800000F072FF2846FFF70BFF0446002801D0FB
:10639000204670BD0448306003CD00F06BFF2046FE
:1063A00070BDC046C00D002004280200B0B5012316
:1063B0000370D06804780020162C35D87123DB00D8
:1063C000CB18C0467C4424796400A744151A2D0BD1
:1063D0002D2D2D2D102D0B2D1F2D102D2D2D2D2D57
:1063E000242D29000846194600F05CFFB0BD084680
:1063F0001946FFF77DFBB0BD0846194600F058FF6F
:10640000B0BD0846194600F059FFB0BD0846194610
:1064100000F05AFFB0BD0846194600F05BFFB0BD62
:106420000846194600F05CFFB0BD000080B500F0E2
:106430005DFF00F061FF00F065FF002800D080BD27
:1064400000F066FF054800F069FF022000F01AFD29
:106450000B2000F069FF002080BDC04620F5010040
:10646000084909680A4A1278824203D800200029A4
:1064700007D105E03522D20042438818002900D117
:106480000846704780920020014800787047C04657
:106490005AA50020F0B581B0FFF7F6FF002827D0FD
:1064A000044600250126E8B2FFF7DAFF00280FD0E6
:1064B00099300178002907D04078002804D00020C6
:1064C000374600280FD114E0304600280BD110E0E9
:1064D000912001011E202A46234600F059FE002784
:1064E0003846002805D06D1CAC42DCD1002700E006
:1064F00000270120384001B0F0BD0000F0B581B0A8
:10650000FFF7C2FF002828D0044600250126E8B284
:10651000FFF7A6FF00280DD08D30017B002905D0A4
:10652000417B002902D00078002811D03046002895
:106530000AD115E01E200C492A46234600F028FE09
:106540000027384600280BD06D1CAC42DFD106E096
:10655000002037460028F7D102E0002700E000279E
:106560000120384001B0F0BD260900000148006854
:106570007047C0468492002080B5FFF7F7FF0028DF
:1065800005D03321C900405C411E884180BD0020F8
:1065900080BD80B5FFF7EAFF0146002000290AD040
:1065A0003322D2008A181278002A04D09131087858
:1065B000411E4842484180BD014800687047C046BE
:1065C0008892002080B5FFF7F7FF002805D047210B
:1065D0008900405C411E884180BD002080BD80B59F
:1065E000FFF7EAFF0146002000290CD04722920065
:1065F0008A181278002A06D0A531097802220A43A7
:10660000032A00D1012080BD704770477047704752
:10661000172181747047704770477047FF217431AC
:10662000826B64235354837450181921417070474E
:1066300070B50A460446FF2108462030A36B1E1899
:10664000B92040001D18185C002807D0FF2A00D888
:10665000D1B268781A2200F036F8687030780028D5
:1066600001D0012000E00220285CA07470BDB0B50C
:106670000446FF20A16B024620328A5C002A08D023
:1066800074300D18287801211A2200F01CF82870A7
:10669000A074B0BDB0B50446FF20A16B0246203205
:1066A0008A5C002A08D074300D18287832216422C0
:1066B00000F003F82870A074B0BD4018904200D8D4
:1066C0000246D0B270475318834200D2421AD0B269
:1066D00070470000F0B585B00646EFF3058002ACC8
:1066E000A6702180E27000250395002800D1ED43BB
:1066F0002A4F002A2BD00193242A15D80092294F23
:106700003868002100F016FE0390002808D1244FBD
:1067100038680024214600F00DFE0390002836D092
:106720003868049003980DE0802A27D800921C4F07
:1067300038680024214600F0FDFD0390002823D096
:10674000396804910199009AFCF7BCFD134FF81CBD
:10675000314600F0D5F91448006802A900263246F7
:106760002B4600F0EDFD44424441002812D03A1D72
:1067700081B2104600F0C4F934460BE0B81C114653
:1067800000F0BEF9002405E00448401C00E0034886
:1067900000F0CEF9204605B0F0BDC0460460000010
:1067A00050B9002054B900208C7C002010B582B074
:1067B000019100900022EFF30580002801D01346DC
:1067C00000E0D34307480068694600F0B9FD04467D
:1067D000002803D004A0214600F0C4FD60426041BF
:1067E00002B010BDE4A50020626C655F7461736B3C
:1067F0005F73656E645F6D73675F746F5F6C6C630E
:106800005F7461736B206661696C65643A25750A13
:10681000000000001C4615460E460746FCF77EFFAA
:1068200007A000F0E9FF0BA03946324600F09AFDC0
:1068300010A02946224600F095FDFCF743FFFEE735
:1068400073797374656D206572726F72206F636304
:10685000757273007531364572724D6F64756C6573
:106860003A2575207531364572724C696E653A2548
:10687000750A0000753332457272496E666F313A9F
:10688000257520753332457272496E666F323A252E
:10689000750A0000F0B585B00446407D217D0129D0
:1068A0000CD1EFF31081EFF3108272B60022227543
:1068B00062682260626A226281F3108800280AD02E
:1068C000EFF31081EFF3108272B600226275E27D61
:1068D000A27581F31088A17D02291DD000295AD10B
:1068E000EFF31080EFF3108172B6E16A002901D056
:1068F000A26A8A622C4A1368A34201D1A36A136078
:106900002A4A1368A34200D1116080F31088002046
:10691000A062E06205B0F0BD00280BD027690297A5
:106920002068009003A800F011FD0398012813D1FE
:106930001B4D14E0207E01282BD100200290174827
:1069400002A900F065F820680090029F04A800F0FA
:10695000FDFC04980128EBD000F0FEFC0546114830
:10696000068805800197E7607D2042030027009894
:1069700039463B46FCF78EFC002E01D072195508B3
:106980002A463B46FCF756FC01990818A06005B062
:10699000F0BD0120A07505B0F0BDC0460030056017
:1069A000127A0000FCB90020ECB90020F0B90020F8
:1069B00003B40148019001BD39C4010003B401488A
:1069C000019001BD610E020003B40148019001BDB8
:1069D00045A3010003B40148019001BDADA0010031
:1069E00003B40148019001BD65BF010003B4014833
:1069F000019001BDBDBD010003B40148019001BD7E
:106A000051F8020003B40148019001BD1DBF01000F
:106A100003B40148019001BD45BF010003B4014822
:106A2000019001BDCDBF010003B40148019001BD3B
:106A3000698D010003B40148019001BD058F01007B
:106A400003B40148019001BDE971010003B401489C
:106A5000019001BD79DC010003B40148019001BD42
:106A60005572010003B40148019001BD858E0100FB
:106A700003B40148019001BD89DB010003B4014862
:106A8000019001BDADC3010003B40148019001BDF7
:106A900043D7010003B40148019001BD41F9020050
:106AA00003B40148019001BD89C2010003B401484B
:106AB000019001BD0922010003B40148019001BD0C
:106AC000D123010003B40148019001BD79C0010048
:106AD00003B40148019001BDBDBE010003B40148EB
:106AE000019001BD81BE010003B40148019001BDC8
:106AF000F9BD010003B40148019001BDD9C00100F6
:106B000003B40148019001BDFDF6020003B4014841
:106B1000019001BDF912010003B40148019001BDCB
:106B2000B9A0030003B40148019001BDA511010003
:106B300003B40148019001BDE9F6020003B4014825
:106B4000019001BD3594020003B40148019001BDDC
:106B500025AA020003B40148019001BD49A002002A
:106B600003B40148019001BDCD39020003B40148CE
:106B7000019001BD7DDC020003B40148019001BD1C
:106B800011F4020003B40148019001BD15D00200C8
:106B900003B40148019001BD192C020003B401485F
:106BA000019001BD1959020003B40148019001BDD3
:106BB0005129020003B40148019001BD298202005D
:106BC00003B40148019001BD0114010003B4014860
:106BD000019001BD1D23010003B40148019001BDD6
:106BE000C5DF020003B40148019001BD6118020035
:106BF00003B40148019001BD2D20020003B40148F7
:106C0000019001BDFD23020003B40148019001BDC4
:106C10006982020003B40148019001BDB13C030048
:106C200003B40148019001BD03F9020003B4014817
:106C3000019001BD61F7020003B40148019001BD5C
:106C400039F7020003B40148019001BD25F70200A5
:106C500003B40148019001BDC5F7020003B4014827
:106C6000019001BDC923030003B40148019001BD97
:106C7000D9F7020003B40148019001BD11F70200E9
:106C800003B40148019001BDD505030003B40148D8
:106C9000019001BD9D12010003B40148019001BDA6
:106CA00051EC030003B40148019001BDE10503006C
:106CB00003B40148019001BD6D18030003B40148FD
:106CC000019001BDB95A030003B40148019001BD10
:106CD000DD59030003B40148019001BD851803008C
:106CE00003B40148019001BDAF28030003B401487B
:106CF000019001BDFD05030003B40148019001BDF1
:106D00000506030003B40148019001BDF505030029
:106D100003B40148019001BDED05030003B401482F
:106D2000019001BD89A6010003B40148019001BD95
:106D3000F11A020003B40148019001BD7923020059
:106D400003B40148019001BD7520020003B401485D
:106D5000019001BD3920020003B40148019001BD3A
:106D60004520020003B40148019001BD81200200CA
:106D700003B40148019001BD6920020003B4014839
:106D8000019001BD5120020003B40148019001BDF2
:106D90005D20020003B40148019001BD31E0020012
:106DA00003B40148019001BD19E0020003B4014899
:106DB000019001BD25E0020003B40148019001BD2E
:106DC000B9DF020003B40148019001BDD1DF020028
:106DD00003B40148019001BDF5DF020003B401488E
:106DE000019001BDDDDF020003B40148019001BD47
:106DF00001E0020003B40148019001BDE9DF020097
:106E000003B40148019001BD0DE0020003B4014844
:106E1000019001BD49E0020003B40148019001BDA9
:106E20003DE0020003B40148019001BDADDF020066
:106E300003B40148019001BD5DE9030003B40148BA
:106E4000019001BD75E9030003B40148019001BD43
:106E500069E9030003B40148019001BD51E9030051
:106E600003B40148019001BD45E9030003B40148A2
:106E7000019001BD49E2030003B40148019001BD46
:106E800055E2030003B40148019001BD055901001A
:106E900003B40148019001BDF57E010003B401482F
:106EA000019001BD7927030003B40148019001BDA1
:106EB000E523030003B40148019001BD8D230300C5
:106EC00003B40148019001BD5D28030003B40148EB
:106ED000019001BD9F28030003B40148019001BD4A
:106EE000EB28030003B40148019001BD7DDE0100E1
:106EF00003B40148019001BDA5BC020003B40148E0
:106F0000019001BD7D08010003B40148019001BD5D
:106F10006108010003B40148019001BD4D1001005A
:106F200003B40148019001BDE110010003B4014820
:106F3000019001BDD952030003B40148019001BD85
:106F40003930030003B40148019001BD2944030016
:106F500003B40148019001BDB105030003B4014829
:106F6000019001BD99A7030003B40148019001BD40
:106F7000A530030003B40148019001BD4946030058
:106F800003B40148019001BD8931030003B40148F5
:106F9000019001BDED44030003B40148019001BD1F
:106FA0000931030003B40148019001BDE13203003F
:106FB00003B40148019001BDA934030003B40148A2
:106FC000019001BD3532030003B40148019001BDB9
:106FD000814E030003B40148019001BD354903000F
:106FE00003B40148019001BD6932030003B40148B4
:106FF000019001BDB135030003B40148019001BD0A
:10700000C331030003B40148019001BDDD3003002A
:1070100003B40148019001BD8D35030003B401485C
:10702000019001BD5935030003B40148019001BD31
:107030000936030003B40148019001BDF50B0300BC
:1070400003B40148019001BD410C030003B40148A1
:10705000019001BDE10C030003B40148019001BDA2
:10706000F10C030003B40148019001BD910C030031
:1070700003B40148019001BDA30C030003B401480F
:10708000019001BD110D030003B40148019001BD41
:10709000C15D030003B40148019001BD31660300E6
:1070A00003B40148019001BDED16030003B401488B
:1070B000019001BD190F030003B40148019001BD07
:1070C0008766030003B40148019001BD57660300C1
:1070D00003B40148019001BD4D17030003B40148FA
:1070E000019001BD7B66030003B40148019001BD1E
:1070F0006366030003B40148019001BD1D10030045
:1071000003B40148019001BD1510030003B4014808
:10711000019001BDAF0F030003B40148019001BD10
:107120002910030003B40148019001BDD1A7030059
:1071300003B40148019001BD4B66030003B401484C
:10714000019001BD6F66030003B40148019001BDC9
:1071500057EF020003B40148019001BDDDE00300D8
:1071600003B40148019001BDFD7A020003B4014857
:10717000019001BDCD52020003B40148019001BD50
:107180000552020003B40148019001BD4DF7020011
:1071900003B40148019001BD6942010003B40148F4
:1071A000019001BD31EE020003B40148019001BD20
:1071B000A117020003B40148019001BDDD100200D7
:1071C00003B40148019001BDF115020003B4014868
:1071D000019001BD4917020003B40148019001BDAF
:1071E0004913020003B40148019001BD711502006A
:1071F00003B40148019001BD9D0F020003B4014892
:10720000019001BDE11A020003B40148019001BDE3
:107210001D18020003B40148019001BD4D18020081
:1072200003B40148019001BD9112020003B401486A
:10723000019001BDF111020003B40148019001BDAC
:107240003512020003B40148019001BDD5130200BC
:1072500003B40148019001BD6114020003B4014868
:10726000019001BD1514020003B40148019001BD55
:107270001124020003B40148019001BDE92202007B
:1072800003B40148019001BD3D1E020003B4014852
:10729000019001BD751E020003B40148019001BDBB
:1072A000C91D020003B40148019001BD217802000C
:1072B00003B40148019001BD8543020003B40148B5
:1072C000019001BDB12D020003B40148019001BD40
:1072D00011F1020003B40148019001BDC96102002F
:1072E00003B40148019001BDE9C0020003B40148A4
:1072F000019001BD5D52010003B40148019001BD40
:107300005D58010003B40148019001BDD95301004B
:1073100003B40148019001BDE955010003B40148DF
:10732000019001BD195A010003B40148019001BD4B
:1073300091B2010003B40148019001BD4D1101005B
:1073400003B40148019001BD3514010003B40148A4
:10735000019001BDED72010003B40148019001BD2F
:10736000BD7201000FB410B503A9044B044A029882
:1073700000F008F810BC08BC04B01847CD48002045
:10738000007C0020FFB591B00F460546002606E0C0
:1073900025280AD0149A139990476D1C761C2878DA
:1073A0000028F5D1304615B0F0BD0024009401212D
:1073B000F34A029400E004436D1C2B780846203BFE
:1073C00098401042F7D128782A280ED00221287838
:1073D0000246303A092A15D8009A0A235A43303A0D
:1073E00080180C436D1C0090F1E701CF009000283D
:1073F00005DA012040030443009840420090022037
:1074000004436D1C28782E2815D104200443687885
:107410006D1C2A280AD101CF6D1C02900BE0029945
:107420000A225143303940186D1C029028780146D9
:1074300030390929F3D928786C2810D006DC4C287B
:107440001AD068280ED06A2817D104E0742813D007
:107450007A2812D110E00120400504430CE00121FC
:10746000090501E0032109050C436978814203D134
:107470000120000524186D1C6D1C287803906E28CF
:107480001ED00CDC632831D004DC00288AD05828B8
:1074900011D1B2E064287BD069280CD178E0732840
:1074A0002DD004DC6F2870D0702804D1A7E0752897
:1074B0006CD078286BD0149A13999047761C62E0B0
:1074C0006002400F022807D003280AD00428386839
:1074D0000AD006603F1D56E03868F117066041602B
:1074E000F8E738680680F5E70670F3E7387869460C
:1074F00008740020487404A80390012003E0386851
:1075000003900020C0433F1D61070FD5002101E01B
:107510000199491C029A0191914213DA8142F7DBE9
:10752000019A0399895C0029F2D10BE0002101E066
:107530000199491C01918142FADB019A0399895C06
:107540000029F5D101990098139A401A009021461C
:10755000149B00F03BF901998019461807E0039845
:1075600003990078491C0391149A13999047019844
:10757000401E0190401CF2D12146149B139A0098A2
:1075800000F014F986196D1C09E741E033E034E09E
:107590000A200021049005916002410F022905D0C4
:1075A00001CFC2179446032905D007E0FF1DFF084D
:1075B000FF0003CF06E000B2C2179446042902D1AF
:1075C00040B2C1178C4600226146944506DA0A464D
:1075D0000021404291418C462D2102E0210504D535
:1075E0002B216A461176012103E0E10701D0202119
:1075F000F7E7019154E00A200BE0102009E0102089
:10760000049000210420044308200591029003E027
:1076100008200021059104906002410F022905D045
:1076200001CF00229446032906D006E0FF1DFF0883
:10763000FF0003CF8C4603E080B2042900D1C0B222
:107640000021019121072BD50399702906D0049AB6
:107650001021059B4A401A4305D00EE040216A469E
:107660001176012108E06146014306D030216A46C7
:1076700011760399517602210191049A0821059B04
:107680004A401A430CD16146014301D1610707D535
:1076900030216A461176012101910299491E029119
:1076A0000399582904D037A103910FA90F910DE038
:1076B00039A1F9E76146059B049AFBF7BBFD039BE3
:1076C0008C469B5C0F9A521E0F92137061460143C9
:1076D000F0D10F9807A9081A20300390600704D54D
:1076E000012000048443029801E0012002900399E4
:1076F000884201DD401A00E0002041180290019804
:1077000009180098401A0090E00306D42146149B03
:10771000139A009800F05AF886190020049008E0A7
:1077200006A9085C149A139990470498401C761C8B
:10773000049001998842F3DBE0030CD52146149BA9
:10774000139A009800F042F8861904E0149A302049
:1077500013999047761C0299481E02900029F5DC87
:1077600008E00F980F990078491C0F91149A13990B
:107770009047761C0399481E03900029F1DCFBE634
:1077800009280100303132333435363738396162F7
:1077900063646566000000003031323334353637BB
:1077A000383941424344454600000000F8B50446DC
:1077B00000251E461746880404D405E039462020DB
:1077C000B0476D1C641EF9D52846F8BDFFB50446C8
:1077D000002581B01E46C80301D5302700E02027D0
:1077E000880404D505E038460399B0476D1C641E33
:1077F000F9D5284605B0F0BD10B5044601E0FDF707
:1078000065F82078641C03490028F8D10A20FDF7A8
:107810005DF810BD007C0020A000A0000002000068
:107820000000000000070000AF7900200100000008
:1078300068A5002044000000E8AA0020000800001D
:107840002000000000000000000000009C790020E3
:1078500000000000B0A5002034000000E8A50020D2
:10786000000500007D3D0020B13E0020000000002A
:10787000714300207D43002035440020FE006578E0
:10788000706572696D656E74616C00004669726D39
:1078900077617265205265766973696F6E000000CA
:1078A0004861726477617265205265766973696FA9
:1078B0006E0000004D616E7566616374757265726D
:1078C000204E616D650000004D6F64656C204E7543
:1078D0006D6265720000000053657269616C204E34
:1078E000756D626572000000536F66747761726532
:1078F000205265766973696F6E005B4861726446F9
:1079000061756C745F48616E646C65725D4375721D
:1079100072656E74206D73703A2030782530385857
:107920000A004F63637572656420696E2074617329
:107930006B2E005573696E67207533324D73702E50
:10794000004F63637572656420696E20696E7465AB
:1079500072727570742E0044657620696E666F20B1
:107960007365727669636520696E69742066616902
:107970006C7572652E006C6C635461736B4D73672C
:1079800051756575654964204E554C4C006C6C63AF
:107990005461736B4964204E554C4C006C6C635FB2
:1079A0007461736B5F6D73675F7175657565006C8E
:1079B0006C635F7461736B00626C65537461636BBD
:1079C0005F6D73675F717565756500626C65537493
:1079D00061636B5461736B5F4D656D506F6F6C5F6E
:1079E0006C6F6E6700626C65537461636B54617396
:1079F0006B00626C65537461636B5461736B5F4DB4
:107A0000656D506F6F6C5F73686F7274005B4D5380
:107A1000475F424C455F5048595F5550444154457B
:107A20005F434F4D504C4554455F494E445D20489F
:107A3000616E646C65203D20307825582C205458A8
:107A40005F504859203D20307825582C2052585FEF
:107A5000504859203D20307825580A005B4D534747
:107A60005F424C455F454E435259505445445F4335
:107A700048414E4745445F494E445D2048616E642D
:107A80006C65203D20307825582C20456E63727936
:107A90007074696F6E5F456E61626C6564203D2035
:107AA000307825580A005B4D53475F424C455F458F
:107AB0004E435259505445445F52454652455348EF
:107AC0005F494E445D2048616E646C65203D203006
:107AD0007825580A005B4D53475F424C455F4C4C3C
:107AE0005F56455253494F4E5F494E445D204D61AC
:107AF0006E7566616374757265725F4E616D652047
:107B00003D20307825582C2048616E646C65203DFE
:107B100020307825582C2056657273696F6E203D91
:107B200020307825580A005B4D53475F424C455F33
:107B3000444953434F4E4E45435445445F494E4498
:107B40005D2048616E646C65203D20307825582C9E
:107B500020726561736F6E203D20307825580A00D1
:107B60005B4D53475F424C455F434F4E4E45435438
:107B7000494F4E5F5550444154455F434F4D504C23
:107B80004554455F494E445D20436F6E6E5F496EBC
:107B900074657276616C203D20307825582C204326
:107BA0006F6E6E5F4C6174656E6379203D20307836
:107BB00025582C205375706572766973696F6E5FF6
:107BC00054696D656F75203D20307825580A005B3B
:107BD0004D53475F424C455F434F4E4E45435445DE
:107BE000445F494E445D48616E646C65203D2030C1
:107BF00078253034580A006170705F6D61696E00DD
:107C00000000000001000000001001000000000062
:04000005200031BDE9
:00000001FF
