:020000041000EA
:100000004B2A110200000000A4030000EEC3A6E981
:100010007EEEE78880B500F087F90020002100F02F
:100020000DF8292000F00FF8202000F011F800F062
:1000300033F900F013F800F025F980BD4CF2B93C1B
:10004000C0F2000C604747F67D1CC0F2000C604710
:1000500047F6D12CC0F2000C6047000080B54FF08D
:10006000A040012100F075F900060BD1032000F03B
:1000700075F9000606D1012000F075F9000604BFED
:10008000002080BD00F074F94FF47A7000F075F92B
:10009000012080BD2DE9F04381B019B343F2B83897
:1000A0000F4606464FF0FF344FF00009C2F2000839
:1000B0003D46B7F5807F28BF4FF480754FF0A040D4
:1000C000314642462B46CDF8009000F05BF960B90E
:1000D00040462946224600F05AF904467F1B2E442A
:1000E000E6D103E04FF0FF3400E00124204601B0E8
:1000F000BDE8F08310B582B004464FF0000C4FF01D
:10010000A0404FF4805122462023CDF800C000F0DB
:1001100039F9000622D120461C214FF0FF3200F0B1
:1001200036F9E169814219D1E078112816D1A07819
:10013000022813D1E168B1F5002F0FD8606846F2AC
:100140007872C4F26A72904208D1A068FFF7A2FFE9
:100150002169401A18BF012002B010BD012002B071
:1001600010BD00002DE9F0410C4605460E184FF079
:100170000008B4F5803F07D3A8B228B94FF4803700
:100180000321102021E000BFB4F5004F08D328461A
:100190006FF3DF3020B94FF4004702210F2014E045
:1001A00029466FF31F31200BB1FA81F1B8EB143FF0
:1001B00018BF0120490901404FF008004FF4807733
:1001C00018BF0C2018BF4FF4805725FA00F082B2F8
:1001D0004FF0A04047F2305300F0DEF800060BD19C
:1001E0003D44B542A4EB070424BF0020BDE8F081E4
:1001F000B4F5803FC0D2C7E700F0BAF84FF47A7088
:1002000000F0BBF80120BDE8F08100002DE9F047C7
:1002100082B04FF000098AB343F2B83814460E4654
:100220000746C2F2000840F6B83A00BF2546B4F5CA
:10023000807F28BF4FF480754FF0A040394642467A
:100240002B46CDF8009000F09DF890B94FF0A040FB
:10025000314642462B46CDF80090CDF804A000F080
:10026000A0F848B92F44641B2E44DFD14FF0000999
:1002700004E04FF0010901E04FF00109484602B0E7
:10028000BDE8F08780B542F20400C1F200000068CA
:1002900000F08CF880BD0000B0B588B06846FFF76C
:1002A00029FF08B101243CE0DDE90501FFF75AFF11
:1002B00038B100F05DF84FF47A7000F05EF8012478
:1002C0002FE0DDE902020599FFF7A0FF38B100F049
:1002D0004FF84FF47A7000F050F8012421E00399B0
:1002E0000598FFF7D7FE0499884213D14FF0A0403C
:1002F0000021102247F23053002400F04DF805464B
:1003000000F036F828060CD04FF47A7000F035F87B
:10031000012406E000F02CF84FF47A7000F02DF87C
:100320000124204608B0B0BDEC20C6F205000168EB
:100330007F2221F002010160016821F004010160C7
:100340006FF0030143180431342943F8D82CF9D154
:10035000704748F6F57CC0F2000C604747F2613CFC
:10036000C0F2000C604747F21D3CC0F2000C604731
:1003700047F6717CC0F2000C604744F2717CC0F219
:10038000000C604748F69D2CC0F2000C604744F218
:10039000C17CC0F2000C604748F6A10CC0F2000C12
:1003A000604749F2D90CC0F2000C604744F62D0CAE
:1003B000C0F2000C604700000000000000000000D8
:1003C000000000000000000000000000000000002D
:1003D000000000000000000000000000000000001D
:1003E000000000000000000000000000000000000D
:1003F00000000000000000000000000000000000FD
:020000041000EA
:1020000000400320E1210010F521001007220010FC
:10201000192200101B2200101D22001000000000D9
:10202000000000000000000000000000D1020000DD
:102030002122001000000000750300008103000051
:1020400027220010292200102B2200102D22001020
:102050002F220010312200103322001035220010F0
:1020600037220010392200103B2200103D220010C0
:102070003F22001041220010432200104522001090
:1020800047220010492200104B2200104D22001060
:102090004F22001051220010532200105522001030
:1020A00057220010592200105B2200105D22001000
:1020B0005F220010612200106322001065220010D0
:1020C00067220010692200106B2200106D220010A0
:1020D0006F22001071220010732200107522001070
:1020E00077220010792200107B2200107D22001040
:1020F0007F22001081220010832200108522001010
:1021000087220010892200108B2200108D220010DF
:102110008F220010912200109322001095220010AF
:1021200097220010992200109B220010000000004E
:10213000000000000000000000000000000000009F
:1021400000F002F800F08DF914A696E8000CB244F5
:10215000B344DA4501D100F084F9BAE80F000FA6C4
:1021600096E83000A5EB040504EB0607AAEB07048C
:10217000A7F101074FEA15154FEA3414A4F1010441
:10218000AC4201D300F06DF913F0010F18BFFB1A38
:1021900043F0010300F001F8DBE71847B401000049
:1021A000E4010000103A24BF78C878C1FAD8520779
:1021B00024BF30C830C144BF04680C6070470000C1
:1021C000704700000023002400250026103A28BF95
:1021D00078C1FBD8520728BF30C148BF0B60704799
:1021E000304880F30888304880F30A882F488047B9
:1021F0002F4800475FEA0E00EFF30881EFF30982F2
:102200002C4B9847FEE75FEA0E00EFF30881EFF3EF
:102210000982294B9847FEE7FEE7FEE7FEE7FEE767
:10222000FEE7FEE7FEE7FEE7FEE7FEE7FEE7FEE786
:10223000FEE7FEE7FEE7FEE7FEE7FEE7FEE7FEE776
:10224000FEE7FEE7FEE7FEE7FEE7FEE7FEE7FEE766
:10225000FEE7FEE7FEE7FEE7FEE7FEE7FEE7FEE756
:10226000FEE7FEE7FEE7FEE7FEE7FEE7FEE7FEE746
:10227000FEE7FEE7FEE7FEE7FEE7FEE7FEE7FEE736
:10228000FEE7FEE7FEE7FEE7FEE7FEE7FEE7FEE726
:10229000FEE7FEE7FEE7FEE7FEE7FEE77047000029
:1022A000003003200040032000300320BD22001036
:1022B00041210010A54800100D44001080B582B0E7
:1022C0004EF20000C6F2040000F03DF8002001903C
:1022D000009042F20001C1F2000100910190FFE77D
:1022E00001984A2810D8FFE70098019950F821007A
:1022F000019A47F20001C2F2010141F82200FFE712
:10230000019801300190EBE747F20000C2F20100B2
:102310004EF60851CEF2000108604EF68851CEF21A
:102320000001086840F4700008604EF61451CEF2C7
:102330000001086840F010000860086840F48070F0
:10234000086002B080BD4FF6310CC0F2000C60474F
:1023500074A1021000F0012054000000A42100101C
:10236000C8A1021054F0012014030100C421001080
:10237000C8A102100020032000100000C42100109A
:102380006E2900F0EB84702900F0418666291AF06E
:10239000508565291AF04D8567291AF04A8561290B
:1023A0001AF0498503681B0A28BF41F0800169299A
:1023B00000F09884642900F09584752900F09284D7
:1023C0006F2900F0CF85782900F00D86E92900F00B
:1023D0006985E42900F06685F52900F06385EF2919
:1023E00000F0CC85F82900F00C860368DB0928BFD3
:1023F00041F08001632901F07783732901F07C8328
:10240000E32901F08783F32901F08C8300207047D2
:102410001FB51AF09AFC0D480D4900F069FB01F058
:10242000A7FC04000020002119F0B2FD401C6060F0
:102430000020002119F0C2FDE06001F06DFC01F008
:1024400079FBFFF72BFF00F015FB1FBD00200320D9
:102450000030032010B5002001F02CFC01F0D3FB6C
:1024600010BDDFF810D0FFF7D3FF18F0D3FB01F059
:10247000F7FD00000040032003B4FFF7EBFF03BCAF
:1024800000F00EFB70B5064600F012FB056806F181
:102490000B0020F00704B4429CBF002070BD2B4607
:1024A0006A68BAB11068A04210D304F108018842EA
:1024B0003CBF5068586007D35168101941601168DB
:1024C000091B016058601460101D70BD13465268EE
:1024D000002AE7D12146284600F0F6FA0028DED18E
:1024E00070BD70B50446051F00F0E2FA0068002CCC
:1024F00014BF446870BD002C18BFAC423CBF2046DE
:102500006468F8D301680A18AA4218BF456003D16D
:102510002A6805461144016028684119A1421CBF80
:102520006C6070BD6168696021680844286070BD96
:1025300053EA020C00F069802DE9F04B4FF00006E1
:10254000002B1FBFB3FA83F503FA05F424FA05F64E
:102550005E4012BF1643B2FA82F502FA05F4C5F1E5
:1025600020051EBF22FA05FC44EA0C04203556EA79
:10257000044C4FEA144418BF641C4FF000084FF09D
:102580000009904271EB030C39D3002919BFB1FA4D
:1025900081F701FA07F6B0FA80F700FA07F6C7F1FB
:1025A00020071EBF20FA07FC46EA0C062037B6FBC0
:1025B000F4FCA7EB0507103F07F01F0BCBF120063B
:1025C0002CFA06F60CFA0BFB44BFB3460026202F6C
:1025D000A4BF5E464FF0000B5BEA060C08BF4FF04D
:1025E000010B19EB0B0948EB0608ABFB027C06FB61
:1025F00002CC0BFB03CCC01B71EB0C01C1E70B46FB
:10260000024641464846BDE8F08B13B5084318BF63
:102610004FF0FF300146AFF30080BDE81C4070472B
:1026200053EA020C23D010B54C1084EA530404D5AD
:102630004042C1F1000138BF491E1B4204D552423D
:10264000C3F1000338BF5B1EFFF772FF14F0804F29
:1026500004D04042C1F1000138BF491E14F0004FC0
:1026600004D05242C3F1000338BF5B1E10BD13B546
:1026700040424FF0000070EB0104B8BF012001F0B0
:10268000004100281CBF6FF000414FF0FF30AFF356
:1026900000801CBD0FB4044910B503AA029800F0D5
:1026A00091FB10BC5DF814FBA8F001207CB51D4621
:1026B00016460C00009007D04142A14202D32044AC
:1026C000401E01E04FF0FF30064B7B442A4669462E
:1026D0000190304600F05BFB002C02D0009A0021F4
:1026E00011707CBDE706000010B5002000F082FDEF
:1026F000FFF7B0FEBDE81040012000F0D1B90B4655
:102700000146184600F052BD0EB5054614460E4669
:1027100013A000F076FD284600F073FD16A000F02F
:1027200070FD304600F06DFD15A000F06AFD00213F
:102730008DF80B100A210DF10A008DF80A1008E03F
:1027400094FBF1F201FB124294FBF1F4303200F8F9
:10275000012D002CF4DC00F054FDFFF7C5FF000054
:102760002A2A2A20617373657274696F6E2066610C
:10277000696C65643A2000002C2066696C65200055
:102780002C206C696E65200010B5431C02E010F827
:10279000011B71B18107FAD14FF0013202C88C1AC6
:1027A0008C4314EAC211F9D0C01A0A0603D0C01E25
:1027B00010BDC01A10BD0A0401D0801E10BD090250
:1027C000FCD0401E10BD40EA010370B59B072ED11E
:1027D0004FF00136042A2AD308C810C99D1B9D4317
:1027E000121F15EAC61517D0D8B2E1B2401A50EA46
:1027F000056110D198B2A1B2401A50EA05410AD140
:1028000023F07F4024F07F41401A50EA052102D195
:10281000180EA0EB146070BDA342DBD018BA21BA29
:10282000884201D9012070BD4FF0FF3070BD0AB958
:10283000002070BD10F8013B11F8014B63B1A342B9
:102840000AD1521E08D010F8013B11F8014B1BB100
:10285000A34201D1521EEDD1181B70BD032A40F2D4
:10286000308010F0030C00F0158011F8013BBCF132
:10287000020F624498BF11F801CB00F8013B38BF4A
:1028800011F8013BA2F1040298BF00F801CB38BF58
:1028900000F8013B11F0030300F02580083AC0F076
:1028A000088051F8043B083A51F804CBA0E808101E
:1028B000F5E7121D5CBF51F8043B40F8043BAFF351
:1028C0000080D20724BF11F8013B11F801CB48BFAB
:1028D00011F8012B24BF00F8013B00F801CB48BFE1
:1028E00000F8012B704710B5203AC0F00B80B1E81A
:1028F0001850A0E81850B1E81850A0E81850203A35
:10290000BFF4F5AF5FEA027C24BFB1E81850A0E83D
:10291000185044BF18C918C0BDE810405FEA827C57
:1029200024BF51F8043B40F8043B08BF7047D2076E
:1029300028BF31F8023B48BF11F8012B28BF20F80F
:10294000023B48BF00F8012B704702F0FF0343EA47
:10295000032242EA024200F002B84FF000020429CA
:10296000C0F0128010F0030C00F01B80CCF1040CBE
:10297000BCF1020F18BF00F8012BA8BF20F8022BF2
:10298000A1EB0C0100F00DB85FEAC17C24BF00F898
:10299000012B00F8012B48BF00F8012B70474FF0C6
:1029A000000200B5134694469646203922BFA0E89F
:1029B0000C50A0E80C50B1F12001BFF4F7AF0907AB
:1029C00028BFA0E80C5048BF0CC05DF804EB89009C
:1029D00028BF40F8042B08BF704748BF20F8022BDF
:1029E00011F0804F18BF00F8012B70470000000065
:1029F00030B44FF0013C50F8042B51F8043BCCFAB2
:102A000052F4D51A20D1FCB950F8042B51F8043BEC
:102A1000CCFA52F4D51A17D1B4B950F8042B51F8A6
:102A2000043BCCFA52F4D51A0ED16CB950F8042BF1
:102A300051F8043BCCFA52F4D51A05D1002CDAD067
:102A400030BC4FF00000704729BAB1FA81F111F0A3
:102A50001801D1F120008440F2D1CA40CB4012F0DD
:102A6000FF0213F0FF0330BCD01A70477047704765
:102A70007047000008487CB57844009007487844C7
:102A8000009C0546019004E0204601680844804708
:102A9000241DAC42F8D17CBDF4760200F27602002F
:102AA00001491820ABBEFEE7260002000020704757
:102AB0000048704758F101200048704750F101204C
:102AC000704770477047704738B504460A46002083
:102AD0006946AFF30080002808BF38BD0246009960
:102AE000204600F0ADFB012038BD012001F038B9CF
:102AF000F8B5AFF30080054600200C460C2000BF5F
:102B00000646A819A0420DD9324669460020AFF307
:102B10000080070008BF01F023F90098A04218BF09
:102B20000546C419FFF7C4FF05600746F01D20F0F5
:102B300007004619284600F00AF8B44208BFF8BD5D
:102B4000A21B31463868BDE8F84000F079BB00218F
:102B50000160416070470C2070472DE9F0479146B5
:102B60000C468046FFF7A4FF0768604234EA000085
:102B700001D1042C02D20520BDE8F087601E40F090
:102B8000070609F10B0020F007054D4539D93B46F2
:102B90007A6882B31468101D404206EA000C64454E
:102BA00025D9A4EB0C00854221D8BCF1000F0BD035
:102BB000104601686244A1EB0C011160416851604C
:102BC000C0F800C058600346116805F10800814252
:102BD00005D35019491B016015605860034652F82F
:102BE000040F58600020C8F80020BDE8F0871346A5
:102BF0005268002ACED129463846FFF765FF0028E3
:102C0000C5D10620BDE8F08710B5FFF755FF006875
:102C100010BD10B50446FFF74FFF046010BD70B53E
:102C2000044685690068C10601D5302600E02026EB
:102C3000C00707D070BDD4E9012130469047206A13
:102C4000401C20626D1EF6D570BD70B504468569C6
:102C50000078C00707D170BDD4E90121202090473A
:102C6000206A401C20626D1EF6D570BD09684A05B9
:102C700001D540B27047C905FCD500B2704709685C
:102C80004A0501D5C0B27047C905FCD580B270476E
:102C900070B50C460546012A05D02878800600D577
:102CA000EA69002302E0012305E05B1C934202D2A3
:102CB000E05C0028F9D1A869E618C01AA861286A62
:102CC000184428622846FFF7AAFF04E0D5E901214D
:102CD00014F8010B9047B442F8D32846FFF7B5FF2C
:102CE00070BD00002DE9F0410646002410687529EA
:102CF000314616A510D0FFF7B9FF002802DA40428E
:102D000013A507E031688A0701D512A502E049073B
:102D100004D511A5012401E0FFF7B1FF00210A222B
:102D200006F1240709E0B0FBF2FCB0FBF2F302FB72
:102D30001C00303078541846491C0028F3D1234633
:102D40002A463046BDE8F04100F0DEBA000000003F
:102D50002D0000002B000000200000001168026818
:102D6000006A530501D508700AE0D30501D5088033
:102D700006E0130603D5C217C1E9000200E00860AF
:102D80000120704701694A1C02610878704700B54C
:102D90008FB0CDE901310021059105497944CDE994
:102DA00003101146684600F03DF90FB000BD000069
:102DB000E5FFFFFFD1E900239A4202D2531C0B60CA
:102DC00010707047074B70B50D467B44FFF7DFFF6F
:102DD0000446284600F0AAFE10B14FF0FF3070BD47
:102DE000204670BD7F7B01002DE9FF5F15468A46B6
:102DF0000446DFF8AC80F8440027D8E900103E46CE
:102E0000CDE9001010E03AF816106A4602A800F06A
:102E10002DFF411C07D02178890603D5E2693918B6
:102E200091420DD80744761C2078800602D5E069CF
:102E3000B84205DDAE42E6DB3AF816000028E2D1E2
:102E4000A069C01BA0612046FFF7E9FED8E9001089
:102E5000CDE90010002017E03AF818106A4602A8E1
:102E600000F004FFB0F1FF3F81460BD000250DF1CB
:102E7000080B05E0D4E901211BF8050090476D1C03
:102E80004D45F7D308F10100B0428046E4DB206AEB
:102E9000384420622046FFF7D8FEBDE8FF9F0000BF
:102EA00072A001002DE9F0418046D21D22F00702F8
:102EB0000025D2E90002F52915A614D0011E72F1F1
:102EC000000106DA0023D0EB030063EB020211A637
:102ED00008E0D8F800108B0701D50FA602E04907DB
:102EE00001D50EA601251146002408F1240704E0AF
:102EF00000F0C0F930323A55641C50EA0102F7D1B3
:102F00002B46324621464046BDE8F04100F0FCB970
:102F1000000000002D0000002B0000002000000039
:102F200030B4002100F1240408E002F00705D208C3
:102F3000303542EA4372DB086554491C52EA030506
:102F4000F3D10468002310A2250708D504F020045B
:102F50000C4304D0C46901230CA2641EC46130BCBC
:102F600000F0D2B910B5044621461068FFF787FE7D
:102F700002462046BDE810400023D1E7D21D22F0D2
:102F80000701D1E90023CBE700000000300000007A
:102F9000F0B40D460188090502D5214C7C4402E0BD
:102FA0001F4C7C440E34002100F1240608E002F09E
:102FB0000F071209E75D42EA03721B097754491CA7
:102FC00052EA0307F3D102780023120704D5702DCB
:102FD00006D009B1022311342246F0BC00F094B9A6
:102FE00001231034F8E770B504460D4621461068F9
:102FF000FFF745FE024629462046BDE87040002303
:10300000C6E7D21D22F00703D3E90023C0E7036817
:10301000126843F0200303600823C3610023B7E76D
:10302000D49E01002DE9F05F894604464FF0000A66
:10303000DFF874B1FB44C0F820A02046E16888475F
:10304000002874D0252806D0D4E901219047206AB1
:10305000401C2062F1E700265F462046E168884771
:103060002028054607DB312D05D2781910F8200CF1
:1030700008B10643F1E7B00701D526F00406C4F80D
:103080001CA00027C4F818A02A2D09D0284618F043
:1030900077FF38B304EB8708303DC8F8185019E0C3
:1030A00059F8041B204604EB87029161E1688847C8
:1030B000012F054618D1E069002820DA26F0200605
:1030C0001DE0D8F8180000EB800005EB4000303818
:1030D000C8F818002046E1688847054618F050FFF8
:1030E0000028EED1012F0AD02E2D08D12046E1680C
:1030F00088477F1C0546022F46F02006C4DBA069E6
:10310000002803DA404246F00106A061F00701D032
:1031100026F010066C2D0BD0682D09D04C2D39D01F
:103120006A2D35D0742D35D07A2D33D016E038E0A5
:10313000E1682F4620468847B842054609D16C2FE2
:1031400026D04FF48060E168064320468847054654
:1031500004E06C2F1AD04FF4807006430DB3A5F134
:103160004100192802D8203546F400664A4629460F
:10317000204626604E46FFF703F980B101280BD0A8
:10318000F61D26F0070000F1080956E74020E4E7A5
:103190008020D8E70020D6E706F104094DE728464D
:1031A00052E7206ABDE8F09F649E01002DE9F041DE
:1031B000074615460E461020FFF764F9040013D0A9
:1031C0006760C4E902650948AFF3008000F034F895
:1031D0000168216006490460002008600348AFF3DD
:1031E00000800020BDE8F0810120FBE714F0012001
:1031F00010F0012010B500F09BFDBDE8104000F07C
:1032000091BD10B5044602E0641C00F004F820787B
:103210000028F9D110BD08B569468DF800000320DB
:10322000ABBE08BD7047000010B500F0A1FD001D49
:1032300010BD00BF5D8D01000048704788F101207E
:10324000034640688C46002818BF88423CBF0346AE
:103250004068F8D318681844884207D00CF103007E
:1032600020F00700001D411A521A0146081D0A608D
:10327000FFF737B930B5B0F10A0271F100034FEA38
:10328000900E4EEA817EB0EB0E0061EB91014FEAA9
:10329000101E4EEA017E10EB0E0041EB11114FEAB9
:1032A000102E4EEA016E10EB0E0041EB11214FEA99
:1032B000104E4EEA014E10EB0E0041EB114140184A
:1032C00041F100014FEAD00040EA41704FEAD101DC
:1032D0004FEA810444EA907410EB800544EB01044A
:1032E0006D1944EB0404521BA3414FF0000348BF87
:1032F0000A3200D530BD401C41F1000130BD0B4603
:1033000001461846FFF75EBD2DE9F0470D46994688
:103310009246044600F124080168880604D5E06955
:1033200021F01001216000E00120A84201DD471BCF
:1033300000E00027A1697A1902EB0900081AA061D0
:103340002078C00602D42046FFF769FC002608E07A
:10335000D4E901211AF806009047206A401C761C27
:1033600020624E45F4DB2078C0060AD52046FFF7E0
:1033700056FC06E0D4E9012130209047206A401C29
:103380002062381EA7F10107F4DC07E0D4E901212F
:1033900018F805009047206A401C2062281EA5F1FD
:1033A0000105F3DC2046FFF750FC2078000602D52B
:1033B0000220BDE8F0870120FBE72DE9FF4F0C4616
:1033C0001E464FF0FF378BB0D2E90001DDF8608078
:1033D0000A908A46C1F30A5505B93D4600210846C0
:1033E0004FF00000BAF1000F00F4400005DA00EBE6
:1033F00080004FF4400101EA50004FEA9059B9F1C2
:10340000010F00DDB9460A9850EA4A000ED044F692
:103410001050A5F2FF3545432F14B8F1000F1ED010
:103420007542291E1EDDC9F100021CE0B8F1010F32
:103430004FF0000001D0302103E0F24305E02154B9
:10344000401CB042FBDB30460022002121540B9986
:10345000C1F80880C1E900200FB0BDE8F08FBD1BA6
:103460006D1CDEE74A4600DA694206A800F0C4FC9B
:1034700006AB93E8070003AB83E8070050460A99C0
:1034800017F08FFE8DE80700A0F500501F38009060
:103490000398002D0ADD42F21F014A46084400232A
:1034A00003A90390684618F0F9F809E0A0F5005068
:1034B0004A461F38002303A90390684618F003F911
:1034C0008DE807000004000C03D04FF0FF304108E6
:1034D00000E01046B8F1000F03D00022009215461C
:1034E0001EE0751E05D4FFF7C5FE303262556D1E15
:1034F000F9D5B3460122084302D000227F1C04E024
:103500002078302801D100227F1E002A099784D01C
:103510001DE0112D07DAFFF7ADFE303262556D1C4C
:1035200050EA0102F5D1084302D00098C8B10EE07C
:103530000021681E05E0235C625C63542254401E37
:10354000491C8142F7DBAB46A81B401E09900020B6
:1035500004F80B000B98099AC0F80880C0E9002B0A
:103560007AE711264FF0000857E72DE9F04F88461B
:103570000446D21D22F0070191B0D1E90001CDE946
:103580000A0118F084FA02460B98C00F01D02D20D2
:1035900007E02068810701D52B2002E0202101EA05
:1035A000C000032A099001D0072A05DB03464146E3
:1035B000204600F0E1FB0BE12078800601D5E069B0
:1035C00000E00620B8F1650F814606D0B8F1660F1D
:1035D00018D0B8F1670F70D131E00020B9F1110FA8
:1035E000009001DB112301E009F101030AAA01A9FE
:1035F0000CA8FFF7E2FEDDE90C70002609F10105D9
:10360000834647E001204B4600904FF000470AAA4E
:1036100001A90CA8FFF7D1FEDDE90DB00C995D46BC
:10362000002610B909F101000D18B9EB050003D40B
:10363000C0F1FF3609F10105A5EB09002BE0B9F156
:10364000010F01DA4FF001090020B9F1110F0090CC
:10365000484601DD112300E003460AAA01A90CA88F
:10366000FFF7ABFEDDE90C704D460026834620785F
:1036700000070AD4AB4500DA5D4601A8012D04DD40
:10368000411911F8011C302907D04F4502DA17F112
:10369000040F04DA012082460FE06D1EEEE7002FD2
:1036A00002DCED1B3E4403E0781CA84200DD7D1CDB
:1036B000B81B00F1010A4FF000472078000703D43F
:1036C000AA4501DB4FF0FF3A0021B7F1004F0DF1A1
:1036D00043088DF8431024D002202B23002F01DA59
:1036E0007F422D230A21021EA0F1010000DC5FB100
:1036F00097FBF1FC97FBF1F201FB1C7C17460CF1E8
:10370000300C08F801CDEEE7A8F101000370218824
:10371000090501D5452100E06521A0F1010800F867
:10372000011C09980FA9A1EB0807FF1D00B101209A
:10373000411901EBEA70A1693844081A401EA061E2
:103740002078C00602D42046FFF769FA099828B10C
:10375000D4E901219047206A401C20622078C006ED
:1037600022D52046FFF75BFA1EE0002E04DBB345AE
:1037700002DD01A8805D00E03020D4E901219047FE
:10378000206A401C2062761CAAF101005FEA000A50
:103790000AD100F0EDFAC0680168405CD4E901216B
:1037A0009047206A401C2062281EA5F10105DCDC40
:1037B00007E0D4E9012118F8010B9047206A401C6A
:1037C0002062381EA7F10107F3DC2046FFF73DFA1F
:1037D000032011B041E600002DE9F04F04460D46EC
:1037E000D21D22F0070089B0D0E90097484639463B
:1037F00018F04DF90246F80F01D02D2307E020689C
:10380000810701D52B2302E0202101EAC0038DF8B6
:1038100020300BB1012000E00020032A824601D0B5
:10382000072A04DB2946204600F0A6FA3FE120786B
:10383000800601D40D2500E0E569C7F30A560D2D79
:1038400049DA00214FEA175B08464FF00000002FCD
:1038500000F4400007DA00EB80004FF4400100EB79
:10386000D07001EA60008115012901DD4FF0FF31C0
:1038700000224FEA850CBCF1180F06D31346ACF1B9
:1038800018004FF08052C24003E04FF4801323FA37
:103890000CF30CF10C0CBCF1200F04D3ACF1200C98
:1038A00009FA0CF001E007FA0CF000294FF000488B
:1038B00001DD18B90FE00ED140450CD319EB020918
:1038C0005F4121B9404502D19F4329EA0209BBEB80
:1038D000175F00D0761C2088000502D57B4878440D
:1038E00002E07A487844193808AA302302F80A30EE
:1038F000037C0AF10101002E0AF1020A53546A46C0
:1039000002DC4FF0300101E04FF031014FF00108CF
:103910008DF8001002D0A6F2FF3603E059EA470105
:1039200000D06B4E002D02DC2178090704D54FF042
:1039300002082E218DF80110C44600210BE0C7F3C8
:1039400003433F01C35C491C6D1E02F80830052982
:1039500008F1010801DA002DF1DC00210CE000EB98
:103960001973491C1B786D1E082902F808304FEAAC
:10397000091908F1010801DA002DF0DC21688B0635
:1039800002D516E0A8F10108E04505DD02EB0803C9
:1039900013F8013C302BF5D0B8F1000F09DD02EB34
:1039A000080313F8013C2E2B03D1090701D4A8F119
:1039B0000108002D05DD3E2102F808106D1E08F1FA
:1039C0000108407C002E02F8080008F1010804DA22
:1039D0002D20764202F8080002E02B2002F80800B1
:1039E0000A214FF47A70864208F101080BDB96FB3E
:1039F000F0F3303302F8083096FBF0F308F10108D9
:103A000000FB136601E0642E0CDB642096FBF0F3F0
:103A1000303302F8083096FBF0F308F1010800FBA0
:103A2000136601E00A2E06DB96FBF1F0303002F857
:103A3000080008F1010896FBF1F001FB106030303E
:103A400002F80800A16908F1010808EB050202EB81
:103A50000A00081AA0612078C00602D42046FFF7A9
:103A6000DEF8216A08AE01EB0A00206204E0D4E926
:103A7000012116F8010B9047BAF1010AF7D220781C
:103A8000C00602D52046FFF7CAF86E4609E016F8D0
:103A9000010B3E280FD0D4E901219047206A401C39
:103AA0002062B8F10108F2D22046FFF7CEF809B043
:103AB0000320BDE8F08F206A2844206203E0D4E9A7
:103AC0000121302090476D1EEBD3F8E7DE95010011
:103AD00002FCFFFF10B5436913B1AFF3008001E0B2
:103AE000FFF7D6F8012010BD127800F124010A700A
:103AF00000224A700122EDE711684FF0FF32E9E73A
:103B000010B5436913B1AFF3008001E0FFF76CF922
:103B1000012010BD128800F1240182840022C28499
:103B20000122EDE711684FF0FF32E9E7007B00F07A
:103B30008000704710B542485421FEF730FF4148DD
:103B40005421FEF72CFF40485421FEF728FF3F493F
:103B50003B483C4A3F4B08603D490A603A4919607E
:103B6000531C0365481C1065012008653B48344A16
:103B700039A1784400F0D6F920B9384878440A3899
:103B800000F090FA37482F4A35A1784400F0CAF97E
:103B900020B9344878440A3800F084FA32482A4A76
:103BA0002FA1784400F0BEF920B92F4878440A3894
:103BB00000F078FA40232248DC000021224600F081
:103BC0008DF920B125487844543800F06BFA1D482F
:103BD00022464023002100F081F920B12148784499
:103BE000543800F05FFA184822461023002100F0F4
:103BF00075F9002806D01C487844BDE810405638B6
:103C000000F050BA10BD104870B5006D20F00104EE
:103C10000B4800F0FFF90B4800F0FCF90A4800F0EF
:103C2000F9F909E0206D20F00105204600F0F2F9D5
:103C30002046FEF756FC2C46002CF3D170BD000048
:103C400054F00120A8F00120FCF0012004F0012034
:103C500008F001200CF00120720000005D930100CB
:103C60007700000049930100359301002DE9F041F0
:103C700016460C460546FFF7D7FA036893F801018C
:103C8000012807D0FF2C12D8185D80B101202C70BC
:103C9000BDE8F081D3F807013246214603F207134D
:103CA000C7182846BC46BDE8F041002360474FF0E6
:103CB000FF30EDE72DE9F84306461548AFF30080E5
:103CC000FFF7BAFA134F8146E8464D4616E026B193
:103CD000E068B04201D0254610E0206828600C481A
:103CE000C7F80080AFF30080D4E901018847084895
:103CF000AFF300803968414500D04D462C68002C58
:103D0000E5D1002038600248AFF30080BDE8F883B9
:103D100014F0012010F001200148FEF7C7BE00009A
:103D200014F00120002801D0FEF7BABE7047000051
:103D300010B5002102A000F09CF9012010BD000088
:103D4000534947414252543A2041626E6F726D614D
:103D50006C207465726D696E6174696F6E0000002D
:103D600010B500F0A7F9BDE81040FFF7DBBF000079
:103D70000048704770F101202DE9F0411F460446CC
:103D800003260168072A01F4006004DB08B116A5C8
:103D900005E016A503E008B115A500E015A521F082
:103DA00010002060A069C01EA0610FB1401EA0617C
:103DB0002046FEF734FF4FB1D4E901213846904741
:103DC000206A401C2062C01C206206E0206AFAE7DC
:103DD000D4E9012115F8010B9047761EF8D2204650
:103DE000FEF733FFBDE8F0814E414E006E616E007C
:103DF000494E4600696E66002DE9F0478146164639
:103E00008AB0354878440DC88DE80D0032487844B2
:103E1000801C03AC0DC884E80D0041F69B300844BB
:103E2000372190FBF1F290FBF1F5A5F1800501FB44
:103E300012041B3C02D56442012000E00020DFF8A0
:103E400098A080460027FA44AAF1BE0A0EE0E007D7
:103E50000AD03246684607EB470101230AEB81018D
:103E600017F031FC8DE8070064107F1C002CEED1A8
:103E7000194F7F44AE3F19E0E80715D007EB041057
:103E80000DF1180A90E80E008AE80E00C068F042B2
:103E900001D1981908903246012306A903A817F00A
:103EA00012FC03AB83E807006D10641C002DE3D106
:103EB0004FF0010332466946B8F1000F03A802D063
:103EC00017F0ECFB01E017F0FEFBC9E90001C9F8AF
:103ED00008200AB0BDE8F0875491010070B5C468AD
:103EE000A50713D0650211D4B2F5807F09D0B2F5D1
:103EF000007F06D0B2F5806F08D1012300F12401C4
:103F000006E05D1E6FF07F46B54201D3012070BD13
:103F10000161C361416024F470611143C1600020FC
:103F200070BD00002DE9F0410C461646070047D051
:103F3000104600F06FF82078611C61280AD07228C2
:103F400002D077283CD102E00125002405E00225BB
:103F5000042402E0082448F2020511F8010B2B2882
:103F600006D0622809D011F8010C74280AD00BE0A1
:103F700045F0030544F00204EFE745F0040544F082
:103F80000104EAE744F010043846214600F0BAF88C
:103F9000411C15D00021316171604FF40071F56052
:103FA000F1617061200704D530460222002100F043
:103FB000DDF8306D40F0010030653046BDE8F0813D
:103FC0000020FBE72DE9F0410D460646104C206D20
:103FD000C10704D0410804D020F00104F7E72246CD
:103FE0000EE05420FEF74EFA07000ED0206D47F089
:103FF00001010843542120653846FEF7D0FC3A46BB
:1040000029463046BDE8F0418CE70020D6E70000A5
:1040100054F001202DE9F04704464FF0FF38002608
:10402000C568D4E90497A80718D0204600F05AF9CB
:10403000384600F071F8002800DA4646280502D517
:104040004846FEF74EFA4C212046FEF7A8FC206DAC
:1040500020F0010020653046BDE8F0874046FBE7D0
:1040600010B50446AFF300802046BDE81040FEF7CF
:1040700003BA70B505460C460A2000E06D1CFFF738
:10408000CAF835B128780028F8D102E0641CFFF79F
:10409000C2F814B120780028F8D1BDE870400A2099
:1040A000FFF7B9B810B500F061F9BDE81040FFF7AF
:1040B00039BE000010B5012805D0002103A0FFF78C
:1040C000D8FF012010BD09A1F8E70000534947526D
:1040D000544D454D3A204F7574206F6620686561D8
:1040E00070206D656D6F7279000000003A204865A0
:1040F0006170206D656D6F727920636F727275707B
:10410000746564000EB5CDE90001FEF73DFB029039
:1041100069460120ABBE0EBD08B56946009002207D
:10412000ABBE08BD1FB58DE8070069460520ABBED4
:1041300004B010BD1FB58DE80F0069460620ABBE68
:10414000F6E708B5694600900920ABBE08BD1CB56E
:10415000CDE9000169460A20ABBE1CBD704708B519
:10416000694600900C20ABBE08BD00002DE9F0416F
:10417000044616460D464769007B80072ED0384618
:10418000FFF7DFFF50BB3EB3012E02D0022E25D138
:1041900004E0204600F004F905441DE03846FFF72E
:1041A000DEFFE168002841F01001E16005DA2046F9
:1041B00000F058F80120BDE8F081C9030BD5626812
:1041C000E16A914200D81146A26911442269891A14
:1041D000814200DD08460544002D01DA0220EAE7AD
:1041E000E16A6068E268814206D29103E06203D529
:1041F00022F4003141F01002A6690027AE4213DC20
:10420000E16A814201D90B4600E0034603EB060C4C
:104210002369ACEB030CAC4506DD814201D98C4629
:1042200000E084469C4505D1A760276042F020004D
:10423000A5620DE0AD1BE669AE1B8142A66000D908
:104240000846C01A281A20605819606022F0200021
:1042500003490840E060002084F84870ABE70000A4
:10426000BFCFD7FFC16821F4001141F08001C160C8
:1042700000218160016070472DE9F74F15460C461B
:104280004FF0FF3B3848D768D2F814A0074209D056
:104290005046A969FFF75BFF002819DB3248C0438D
:1042A0000740EF604FF000496FF000484C4501D3E4
:1042B000464600E0264600993B4650463246FFF708
:1042C00031FFA96920F00042B21A1144A96128B156
:1042D0002846FFF7C7FF5846BDE8FE8FA41BE5D16F
:1042E0000020F9E770B504460569C06A6168884234
:1042F00000D80846E16821F42011E160C90312D515
:10430000A84208D02246411B2846FFF7B5FF10B14E
:104310004FF0FF3070BD0020E562C4E90150E06855
:1043200020F48030E060002070BD10B50446C06805
:1043300020F02000E060A16AA06988420DD02046EC
:10434000FFF7D0FFE06820F4405040F01000E0603C
:10435000A06AA0612069E062606044F24001E06808
:104360008843E06010BD00001000020010B5014657
:1043700002A0FFF77EFE012010BD00005349475206
:10438000545245443A2052656469726563743A2018
:1043900063616E2774206F70656E3A200000000024
:1043A00010B50146C268900703D0900607D5886A09
:1043B0000AE0FEF781FB01210160881E10BD8B69B8
:1043C000486818440B69C01A91F848301BB191F83D
:1043D0004910401A10BD1103FCD50028FADD401E1B
:1043E00010BD000080B5C6B0459144904FF4807177
:1043F0004391449A45980290029B03A80190FEF7CE
:1044000055F9019800F03AFA46B080BD80B586B003
:1044100004900391029216F08FF9EFF30880059053
:10442000059946F61430C1F20200FEF733F9002078
:1044300001909DF810000007002807D5FFE746F619
:10444000EE10C1F20200FEF725F906E046F61E2046
:10445000C1F20200FEF71EF9FFE79DF810004007C9
:10446000002809D5FFE746F60F20C1F20200FEF74B
:1044700011F90298019008E046F60020C1F202000E
:10448000FEF708F903980190FFE746F63520C1F2E0
:104490000200FEF7FFF80198016846F68320C1F29A
:1044A0000200FEF7F7F80198416846F69120C1F244
:1044B0000200FEF7EFF80198816846F69F20C1F2EE
:1044C0000200FEF7E7F80198C16846F6AD20C1F298
:1044D0000200FEF7DFF80198016946F6D720C1F225
:1044E0000200FEF7D7F80198416946F6C920C1F2EB
:1044F0000200FEF7CFF80198816946F6BB20C1F2B1
:104500000200FEF7C7F80198C16946F6E520C1F23E
:104510000200FEF7BFF80198806900904EF62C501B
:10452000CEF2000000688007002807D5FFE746F6B6
:104530009300C1F20200FEF7ADF8FFE74EF62C50F3
:10454000CEF200000068C00F38B1FFE746F6AE00BB
:10455000C1F20200FEF79EF8FFE74EF62C50CEF2B5
:10456000000000684000002840F18481FFE746F623
:104570007E00C1F20200FEF78DF84EF62850CEF212
:1045800000000068000600286DD0FFE746F65E00D8
:10459000C1F20200FEF77EF84EF62850CEF200007F
:1045A0000068C00740B1FFE7009946F66C10C1F201
:1045B0000200FEF76FF8FFE74EF62850CEF200003B
:1045C0000068800700281DD5FFE7009946F6F9002E
:1045D000C1F20200FEF75EF84EF62850CEF200005F
:1045E0000068000600280CD5FFE74EF63450CEF2E6
:1045F0000000016846F6E110C1F20200FEF74AF839
:10460000FFE7FFE74EF62850CEF2000000680007F3
:10461000002807D5FFE746F21C70C1F20200FEF742
:1046200039F8FFE74EF62850CEF200000068C006C9
:10463000002807D5FFE746F27270C1F20200FEF7CC
:1046400029F8FFE74EF62850CEF2000000688006F9
:10465000002807D5FFE746F27B60C1F20200FEF7B3
:1046600019F8FFE7FFE74EF62850CEF20000006889
:1046700010F47F4F7DD0FFE746F6A200C1F20200A2
:10468000FEF708F84EF62850CEF200000068C0058C
:10469000002807D5FFE746F2A150C1F20200FDF75E
:1046A000F9FFFFE74EF62850CEF2000000688005C3
:1046B00000281DD5FFE7009946F6C200C1F20200AE
:1046C000FDF7E8FF4EF62850CEF200000068000427
:1046D00000280CD5FFE74EF63850CEF200000168F6
:1046E00046F6E110C1F20200FDF7D4FFFFE7FFE755
:1046F0004EF62850CEF2000000684005002807D58D
:10470000FFE746F23550C1F20200FDF7C3FFFFE7B5
:104710004EF62850CEF2000000680005002807D5AC
:10472000FFE746F2C670C1F20200FDF7B3FFFFE7F4
:104730004EF62850CEF200000068C004002807D5CD
:10474000FFE746F61300C1F20200FDF7A3FFFFE703
:104750004EF62850CEF2000000688004002807D5ED
:10476000FFE746F2CF60C1F20200FDF793FFFFE7DB
:10477000FFE74EF62850CEF200000068000C00283B
:1047800077D0FFE746F67000C1F20200FDF782FF26
:104790004EF62850CEF200000068C003002807D56E
:1047A000FFE746F2BF40C1F20200FDF773FFFFE7EB
:1047B0004EF62850CEF2000000688003002807D58E
:1047C000FFE746F23D60C1F20200FDF763FFFFE73D
:1047D0004EF62850CEF2000000684003002807D5AE
:1047E000FFE746F29040C1F20200FDF753FFFFE7FA
:1047F0004EF62850CEF2000000680003002807D5CE
:10480000FFE746F2CF50C1F20200FDF743FFFFE79A
:104810004EF62850CEF200000068C002002807D5EE
:10482000FFE746F21060C1F20200FDF733FFFFE739
:104830004EF62850CEF200000068C001002807D5CF
:10484000FFE746F26D50C1F20200FDF723FFFFE7DC
:104850004EF62850CEF2000000688001002807D5EF
:10486000FFE746F2F940C1F20200FDF713FFFFE750
:10487000FFE7FFE715F01EFFFFE7FEE780B582B018
:1048800001904FF23030C2F20200006840B1FFE701
:104890004FF23030C2F20200016801988847FFE70A
:1048A00002B080BD80B584B003900291019215F0F2
:1048B00043FF0399029A019B46F65120C1F2020080
:1048C000FDF7E8FE15F0F6FEFFE7FEE780B582B0E3
:1048D0000190019800F0F8FC02B080BD83B08DF823
:1048E00007009DF8070001460091172800F29F80FD
:1048F0000099DFE801F00C1224303C5A481E4E3675
:10490000606C544272782A187E66848A909649F6C2
:10491000FE40C1F2020002908FE049F69540C1F2DC
:104920000200029089E049F6DD40C1F202000290E7
:1049300083E049F6DE40C1F2020002907DE049F6D4
:104940009E40C1F20200029077E049F69D40C1F21C
:104950000200029071E049F6EF40C1F202000290BD
:104960006BE049F6F040C1F20200029065E049F6C2
:10497000BE40C1F2020002905FE049F6BD40C1F2C4
:104980000200029059E049F60C50C1F20200029078
:1049900053E049F6C440C1F2020002904DE049F6EE
:1049A000E440C1F20200029047E049F60550C1F22E
:1049B0000200029041E049F6D540C1F202000290A7
:1049C0003BE049F6D440C1F20200029035E049F6DE
:1049D000B540C1F2020002902FE049F6F540C1F265
:1049E0000200029029E049F61F50C1F20200029035
:1049F00023E049F6CF40C1F2020002901DE049F6E3
:104A0000B040C1F20200029017E049F6CE40C1F278
:104A10000200029011E049F61150C1F2020002902A
:104A20000BE049F6A440C1F20200029005E049F60D
:104A30002750C1F202000290FFE7029803B07047CE
:104A400080B515F0B9FD80BD83B080B583B0079304
:104A500006920591029005A8019002980199009193
:104A6000009900F005F803B0BDE8804003B070473E
:104A700080B584B003910290029803990191019945
:104A8000FFF7B0FC46F6A060C1F2020000F028FC7F
:104A900004B080BD81B08DED000A9DED000AB0EE3E
:104AA000C00A01B07047000010B50446012898BF45
:104AB000012400BF2046FDF7E5FC002818BF10BD0B
:104AC00015F0CBFC08B18047F4E7002010BD0000D2
:104AD00080B5DAB00020599052A8009008F08AFC06
:104AE00000994FF2B010C2F201000A900FF07AFA6A
:104AF00001465998084359904BA8019010F0DEFAEE
:104B000001990A980FF03EFA0146599808435990C6
:104B100044A8029010F0A6F902990A980FF022FA20
:104B200001465998084359903DA803900AF056FD54
:104B300003990A980FF0E6F90146599808435990ED
:104B400036A8049010F078F904990A980FF0FAF951
:104B500001465998084359902FA8059008F072FC17
:104B600005990A980FF0AEF90146599808435990F3
:104B700028A8069008F054FC06990A980FF092F9BC
:104B8000014659980843599021A8079008F0FAFE69
:104B900007990A980FF0A6F90146599808435990C9
:104BA0001AA808900AF0CCF808990A980FF0BAF9F8
:104BB000014659980843599013A8099004F062FBE4
:104BC00009990A980FF0EEF901465998084359904F
:104BD0000CA80B9007F06CFD0A980B990FF0F2F9F6
:104BE000014659980843599059985AB080BD000021
:104BF000F0B581B00C460546012898BF012504296F
:104C000098BF04240027684621462A460097FDF7EE
:104C1000A4FF009878B96E4615F01FFC50B180478C
:104C2000304621462A460097FDF797FF0098002856
:104C3000F2D000E0002001B0F0BD000084B003908D
:104C40000291019203980168029802680120914242
:104C500000900ADBFFE701980168039802680020D2
:104C60009142B8BF01200090FFE7009800F00100DA
:104C700004B0704780B582B00190019890F90000AF
:104C800000F04AF802B080BD80B582B00190019872
:104C900090ED000A00F048F802B080BD80B582B007
:104CA00001900198007800F047F802B080BD000044
:104CB00080B582B001900198006800F045F802B01C
:104CC00080BD000080B582B001900198006800F0BE
:104CD00041F802B080BD000080B582B0019001981B
:104CE000008800F03DF802B080BD000082B00120D5
:104CF00001909DF80400012801D1FFE70AE046F683
:104D0000DB70C1F2020047F24601C1F20201482203
:104D1000FDF7FAFC02B0704781B08DF803009DF9F1
:104D2000030001B07047000081B08DED000A9DEDD9
:104D3000000A01B07047000081B08DF803009DF8B3
:104D4000030001B07047000081B00090009801B0EE
:104D50007047000081B00090009801B070470000DB
:104D600081B0ADF80200BDF8020001B0704700004C
:104D700082B0019100900098019902B07047000044
:104D800080B584B00290029818B9FFE70020039024
:104D90000BE0FFF7ABFF029801900068FFF7DAFF26
:104DA0000146019808440390FFE7039804B080BDD2
:104DB00080B584B0039002910398029900EB8100C2
:104DC000019001980090FFF77DFF0146009808448C
:104DD00004B080BD80B584B003900291039802991D
:104DE00000EB8100019001980090FFF76BFF0146F6
:104DF0000098084404B080BD80B584B0039002914F
:104E00000398029900EB8100019001980090FFF750
:104E100059FF01460098084404B080BD80B584B0B5
:104E2000039002910398029900EB81000190019890
:104E30000090FFF747FF01460098084404B080BD8A
:104E400080B584B0039002910398029900EB810031
:104E5000019001980090FFF735FF01460098084443
:104E600004B080BD80B584B003900291039802998C
:104E700000EB8100019001980090FFF723FF0146AD
:104E80000098084404B080BD80B582B001900091C4
:104E90000198009900EB810090ED000AFFF744FFB4
:104EA00002B080BD80B582B0019000910198009958
:104EB00050F82100FFF748FF02B080BD80B582B0F6
:104EC000019000910198009A00EBC20150F8320065
:104ED0004968FFF74DFF02B080BD000080B586B085
:104EE0000590ADF8121005980290BDF8121013F05D
:104EF000E5FB01460298ADF81010BDF8101008440B
:104F00000390BDF8100048B1FFE703980090FFF749
:104F1000D9FE014600980844019002E0002001906B
:104F2000FFE7019806B080BD80B586B00590ADF86A
:104F3000121005980290BDF8121013F0BFFB014645
:104F40000298ADF81010BDF8101008440390BDF899
:104F5000100048B1FFE703980090FFF7B3FE014649
:104F600000980844019002E000200190FFE70198BA
:104F700006B080BD80B586B00590ADF812100598DA
:104F80000290BDF8121013F099FB01460298ADF89B
:104F90001010BDF8101008440390BDF8100048B17F
:104FA000FFE703980090FFF78DFE01460098084444
:104FB000019002E000200190FFE7019806B080BD5B
:104FC00080B586B00590ADF8121005980290BDF836
:104FD000121013F073FB01460298ADF81010BDF8E3
:104FE000101008440390BDF8100048B1FFE7039883
:104FF0000090FFF767FE014600980844019002E028
:1050000000200190FFE7019806B080BD80B586B012
:105010000590ADF8121005980290BDF8121013F02B
:105020004DFB01460298ADF81010BDF81010084471
:105030000390BDF8100048B1FFE703980090FFF718
:1050400041FE014600980844019002E000200190D2
:10505000FFE7019806B080BD80B586B00590ADF839
:10506000121005980290BDF8121013F027FB0146AC
:105070000298ADF81010BDF8101008440390BDF868
:10508000100048B1FFE703980090FFF71BFE0146B0
:1050900000980844019002E000200190FFE7019889
:1050A00006B080BD80B586B00590ADF812100598A9
:1050B0000290BDF8121013F001FB01460298ADF802
:1050C0001010BDF8101008440390BDF8100048B14E
:1050D000FFE703980090FFF7F5FD014600980844AC
:1050E000019002E000200190FFE7019806B080BD2A
:1050F00080B586B00590ADF8121005980290BDF805
:10510000121013F0DBFA01460298ADF81010BDF84A
:10511000101008440390BDF8100048B1FFE7039851
:105120000090FFF7CFFD014600980844019002E08F
:1051300000200190FFE7019806B080BD80B586B0E1
:105140000590ADF8121005980290BDF8121013F0FA
:10515000B5FA01460298ADF81010BDF810100844D9
:105160000390BDF8100048B1FFE703980090FFF7E7
:10517000A9FD014600980844019002E0002001903A
:10518000FFE7019806B080BD80B586B00590ADF808
:10519000121005980290BDF8121013F08FFA014614
:1051A0000298ADF81010BDF8101008440390BDF837
:1051B000100048B1FFE703980090FFF783FD014618
:1051C00000980844019002E000200190FFE7019858
:1051D00006B080BD80B586B00590ADF81210059878
:1051E0000290BDF8121013F069FA01460298ADF86A
:1051F0001010BDF8101008440390BDF8100048B11D
:10520000FFE703980090FFF75DFD01460098084412
:10521000019002E000200190FFE7019806B080BDF8
:1052200080B586B00590ADF8121005980290BDF8D3
:10523000121013F043FA01460298ADF81010BDF8B1
:10524000101008440390BDF8100048B1FFE7039820
:105250000090FFF737FD014600980844019002E0F6
:1052600000200190FFE7019806B080BD80B586B0B0
:105270000590ADF8121005980290BDF8121013F0C9
:105280001DFA01460298ADF81010BDF81010084440
:105290000390BDF8100048B1FFE703980090FFF7B6
:1052A00011FD014600980844019002E000200190A1
:1052B000FFE7019806B080BD80B582B001900198EB
:1052C000FFF75EFD02B080BD83B002900420019024
:1052D000029900EB81000090009803B07047000035
:1052E00083B080B583B0079306920591029005A81C
:1052F00001900298019900910099FFF773F803B0AB
:10530000BDE8804003B0704782B0019000910198E1
:1053100002B0704781B00090009801B07047000063
:1053200081B00090009845F6B851C1F202010831F1
:10533000016001B07047000081B00090FEDE000007
:1053400081B00090009801B07047000082B00190D9
:105350000198406818B9FFE70020009004E0019828
:10536000406800680090FFE7009802B070470000B6
:1053700084B00390029101920093002004B0704722
:1053800080B58CB00B900A91099208930B980999FB
:1053900007F0FAFB079000200690FFE706980799B0
:1053A00088423FDAFFE70A98069950F821000590F5
:1053B0000020C4F2C0000490002003909DED050A77
:1053C000B1EE081AB4EE410AF1EE10FA05DDFFE77E
:1053D000B1EE080A8DED010A16E09DED050AB5EE65
:1053E000400AF1EE10FA05DAFFE79FED0F0A8DEDA6
:1053F000000A04E09DED050A8DED000AFFE79DED32
:10540000000A8DED010AFFE79DED010A8DED020A0C
:1054100002980899069A41F82200FFE706980130A1
:105420000690BBE70CB080BD0000000083B0029086
:1054300001910298019908440138B0FBF1F000FB9A
:1054400001F00090009803B0704700002DE9F04390
:10545000A3B0219020912098006908B1FFE701E0F6
:10546000FDF742F92098406908B1FFE701E0FDF738
:105470003BF9209800691F90209840691E90219860
:1054800007F042FB1D901D982099002200F0A0FC1F
:105490001C90FFE71C98C8B9FFE7FFE72198D0F8F8
:1054A00014C048F6F021C1F202016A46116048F2C8
:1054B0000E51C1F2020148F63122C1F202029623D6
:1054C000E047FFE701208DF88B00A6E1FFE71D987C
:1054D0002099002200F05AFC1B90FFE71B98C8B9E6
:1054E000FFE7FFE72198D0F814C048F6DF21C1F2AA
:1054F00002016A46116048F20E51C1F2020148F6FB
:105500003122C1F202029923E047FFE701208DF822
:105510008B0082E1FFE71D982099012200F036FC04
:105520001A90FFE71A98C8B9FFE7FFE72198D0F86B
:1055300014C048F6CD21C1F202016A46116048F25A
:105540000E51C1F2020148F63122C1F202029C233F
:10555000E047FFE701208DF88B005EE1FFE7FFE702
:105560001B9800781C990978884224D0FFE7FFE750
:105570002198D0F814C01B9909781C9A13786A46B0
:10558000D360916048F6A621C1F20201516048F64D
:105590009A21C1F20201116048F6FA01C1F202013A
:1055A00048F63122C1F202029E23E047FFE70120C4
:1055B0008DF88B0031E1FFE7FFE71B9800780128A9
:1055C00005D1FFE71A980078012826D0FFE71B983D
:1055D0000078072805D1FFE71A98007809281CD021
:1055E000FFE71B98007809280AD1FFE71A9800788E
:1055F000122812D0FFE71A98007809280DD0FFE78B
:10560000FFE72198426948F61411C1F20201904760
:10561000FFE701208DF88B00FFE0FFE71B98806813
:10562000C06819901B988068806818901A988068E4
:10563000C06817901A988068806816901C988068D7
:10564000C06815901C988068806814901A988068CB
:10565000406813902198826B1399890090471F9995
:1056600048622198826B1399890090471F9988623C
:105670001B980078092805D0FFE71B9800780728B9
:105680006CD1FFE7FFE71A98006B012823D0FFE7F2
:10569000FFE72198D0F814C01A99096B6A460123D4
:1056A000D360916048F6B321C1F20201516048F61F
:1056B0008021C1F20201116048F6FA01C1F2020133
:1056C00048F63122C1F20202BA23E047FFE7012087
:1056D0008DF88B00A1E0FFE71A98406B12901298AA
:1056E00008B1FFE701E0FCF7FFFF1298006808B17E
:1056F000FFE701E0FCF7F8FF1298406808B1FFE708
:1057000001E0FCF7F1FFFFE712980068006801284C
:1057100022D0FFE71298006800681A9989684968E2
:10572000884219D0FFE7FFE72198D0F814C048F667
:10573000B811C1F202016A46116048F20E51C1F27D
:10574000020148F63122C1F20202C523E047FFE719
:1057500001208DF88B0060E0FFE7FFE7FFE721986D
:1057600020991E9A199BDDF860C0179C169D159E06
:10577000149FDDF86CE09EF80080DDF87C90EE462A
:10578000CEF81890CEF81480CEF81070CEF80C60D9
:10579000CEF80850CEF80440CEF800C008F042FA27
:1057A0008DF847009DF8470028B1FFE79DF84700B6
:1057B0008DF88B0031E0FFE71A980078122819D194
:1057C000FFE71A98826852F8041B09A8079000F0B6
:1057D00073FD079813F0B8FA01460798089100F096
:1057E00083FD089810902198036C10991F9A343209
:1057F0009847FFE71D981A990268926990471D988B
:105800001B990268926990471D981C9902689269D9
:10581000904700208DF88B00FFE79DF88B0023B0A8
:10582000BDE8F08380B588B08DED070A0690CDED18
:10583000050A0491039202939DED070A0698DDED97
:10584000050A0499039A029BEC46CCF80030002329
:1058500011F01AFA08B080BD80B588B007900691A3
:10586000059204930798069913F04CFA0190059855
:10587000049913F047FA01460198884201D1FFE7E5
:1058800001E0FCF731FF0798069913F03BFA03900B
:105890000598049913F036FA029003A802A914F0AF
:1058A000D5FC006808B080BD80B582B00190019839
:1058B000806800F003F802B080BD000080B582B0BF
:1058C0000190019850F8041B00F002F802B080BD6E
:1058D00080B588B0079006910020059001210491C1
:1058E0000390FFE703980699884242DAFFE704989D
:1058F000059940424FF00000884101DBFFE738E0A6
:10590000FFE70798039950F821000190C017029013
:1059100014F0F6F9C117049A059BFCF781FE019A71
:1059200003460298D21A88410DDBFFE7FFE749F2F0
:105930004300C1F2020049F2B541C1F20201FFF792
:1059400083F8FCF7D1FEFFE70798039950F8212070
:105950004FEAE27C049B0598A3FB021E03FB0CE3C9
:1059600000FB023004910590FFE70398013003909B
:10597000B8E70498059908B080BD000080B596B0DE
:10598000149013911292119314981399129A119BD7
:1059900002F0C8FB129910A80A9002F087FC0A993D
:1059A0000EA802F0F3FBFFE70EA8002114F01AFD89
:1059B000E8B9FFE7FFE7139948F2E270C1F202008D
:1059C0006A4650604FF4A960106048F20E52C1F26E
:1059D000020248F2FB63C1F20203084603F0DAFB5D
:1059E000FFE7FFE701208DF857000D9079E0FFE712
:1059F000FFE7149813F05AFD0C900C98002864D01F
:105A0000FFE70C9813F000FA00F09AFF03900EA83D
:105A1000089013F041FE0146039808700C9813F0AB
:105A200007FA01460898049113F036FE01460498DF
:105A300048600C9813F0F2F901460898059113F0AC
:105A40002BFE0146059888600C9813F0D3F901F0FD
:105A500035F801460898069113F01EFE0146069897
:105A600008730C9813F0B2F901460898079113F0E7
:105A700013FE0146079808610C9813F09DF9014642
:105A80000898099113F008FE014609984861FFE75C
:105A90000C9813F0A5F902900EA813F0FDFD014635
:105AA00002981831139A07F05FFD8DF82F009DF8CA
:105AB0002F0038B1FFE79DF82F008DF85700012027
:105AC0000D900EE0FFE7FFE700E0FFE70EA813F000
:105AD00043FF1199086000208DF8570001200D90B8
:105AE000FFE70EA813F05AFF9DF8570016B080BDCF
:105AF00080B58CB00A9009910998006908B1FFE758
:105B000001E0FCF7F1FD0998006908900A9806F099
:105B1000FBFF079007980999002200F037F90690DB
:105B2000FFE70698C8B9FFE7FFE70A98D0F814C066
:105B300048F6DF21C1F202016A46116048F20E51B7
:105B4000C1F2020149F2A602C1F202025F23E0475C
:105B5000FFE701208DF82F009BE0FFE707980999E8
:105B6000002200F035F90590FFE70598C8B9FFE776
:105B7000FFE70A98D0F814C048F6F021C1F20201FC
:105B80006A46116048F20E51C1F2020149F2A602C2
:105B9000C1F202026223E047FFE701208DF82F00E7
:105BA00077E0FFE706980078092806D1FFE7069816
:105BB0000599089A08F0C8F95DE00698007807286A
:105BC00058D1FFE7FFE70698006918B3FFE7FFE742
:105BD0000A98D0F814C0069909696A460023D36070
:105BE000916046F6AA61C1F20201516049F2FC01DE
:105BF000C1F20201116048F6FA01C1F2020149F254
:105C0000A602C1F202026723E047FFE701208DF8F8
:105C10002F003EE0FFE7FFE70598006918B3FFE7B4
:105C2000FFE70A98D0F814C0059909696A4600236D
:105C3000D360916046F6AA61C1F20201516048F654
:105C4000F571C1F20201116048F6FA01C1F20201D8
:105C500049F2A602C1F202026823E047FFE70120F1
:105C60008DF82F0015E0FFE706980599089A08F0CF
:105C7000EDF9FFE7FFE707980699026892699047F8
:105C80000798059902689269904700208DF82F00C7
:105C9000FFE79DF82F000CB080BD000080B584B0F8
:105CA0000390029101920398806B08B1FFE701E035
:105CB000FCF71AFD0398826B3821904704B080BD31
:105CC00080B582B08DED000B9DED000B16F0D4F881
:105CD00002B080BD80B582B08DED010A9DED010A54
:105CE00014F01EFB02B080BD83B002900120019031
:105CF00000200090FFE700980299096888420EDAB8
:105D0000FFE70298009900EB81004168019800FBD1
:105D100001F00190FFE7009801300090EBE7019857
:105D200003B0704782B001900091012002B070472B
:105D300080B586B004900391029204980190406867
:105D400020B1FFE701208DF817001BE001980399AF
:105D50004160029981600268816889009268904779
:105D600001460198C160C06820B9FFE701208DF8A5
:105D7000170007E001980168C96B884700208DF87B
:105D80001700FFE79DF8170006B080BD80B586B00C
:105D900004900391029204980090029803990A6873
:105DA00052F8041B00F0EAFD01900198B0F1FF3FAA
:105DB00003DCFFE70020059006E0009801990268E7
:105DC000526990470590FFE7059806B080BD000036
:105DD00080B586B0049003910292049800900298D6
:105DE00003994A6852F8041B00F0C8FD019001981D
:105DF000B0F1FF3F03DCFFE70020059006E00098CC
:105E000001990268526990470590FFE7059806B02E
:105E100080BD000080B58AB008900791069208986E
:105E200000904068002840D0FFE700200590FFE781
:105E3000009905988968884236D2FFE7009948683A
:105E4000059A00EBC200049004980068C968059A9E
:105E500051F82210084403900398069905F0FAFAC5
:105E6000009902900798029A039BD21A104401905D
:105E70000198C968059A51F82210084404994968A4
:105E800088420CD8FFE70098019BC168059A51F839
:105E90002200184441F822000298099008E0FFE728
:105EA000059801300590C3E7FFE700200990FFE760
:105EB00009980AB080BD000080B584B003900398B3
:105EC0000190406808B9FFE70FE00198C06808B189
:105ED000FFE701E0FCF708FC01988168C068002238
:105EE000029202AA14F054FAFFE704B080BD000049
:105EF00081B00090009845F6E451C1F202010831EA
:105F00000160002141608160C16001B07047000004
:105F100081B00090FEDE000081B00090009801B0DA
:105F20007047000080B592B010900F910E920D93C3
:105F300010980F990E9A0D9B02F0F4F80E990CA888
:105F4000059002F0B3F905990AA802F04FF9FFE7AE
:105F50000AA8002114F05AFAE8B9FFE7FFE70F9901
:105F600048F2E270C1F202006A46506040F6150045
:105F7000106048F20E52C1F2020248F2FB63C1F215
:105F80000203084603F006F9FFE7FFE701208DF85A
:105F9000470009904AE0FFE7FFE7109813F0B2FAD4
:105FA00008900898B0B3FFE7089812F087FF0790B1
:105FB000079868B3FFE7FFE7079804900AA813F073
:105FC00097FB049902460F9B48F27D70C1F20200D4
:105FD000EC46CCF80000202002F0B0F98DF81B0050
:105FE0009DF81B0038B1FFE79DF81B008DF84700B6
:105FF000012009901AE0FFE7FFE7079812F01AFE68
:1060000003900AA813F074FB01460398086200E0AD
:10601000FFE700E0FFE70AA813F03AFD0D990860DA
:1060200000208DF8470001200990FFE70AA813F02F
:1060300051FD9DF8470012B080BD000080B58EB0C4
:106040000C900B910A9209930C980B990A9A099B50
:1060500002F068F80A9908A8039002F027F903995A
:1060600006A802F0DBF8FFE706A8002114F0D8F933
:10607000E8B9FFE7FFE70B9948F2E270C1F20200CE
:106080006A46506040F62620106048F20E52C1F277
:10609000020248F2FB63C1F20203084603F07AF8F9
:1060A000FFE7FFE701208DF83700059021E0FFE7CB
:1060B000FFE70C9813F03CFA0490049868B1FFE7EE
:1060C000049812F005FF8DED020A06A813F026FBD6
:1060D0009DED020A80ED000A00E0FFE706A813F03C
:1060E00025FD0999086000208DF8370001200590F2
:1060F000FFE706A813F03CFD9DF837000EB080BD09
:1061000080B588B0069005910598006908B1FFE751
:1061100001E0FCF7E9FA059800690490069806F09A
:10612000F3FC0390039805990022FFF72FFE0290DD
:10613000FFE70298C8B9FFE7FFE70698D0F814C058
:1061400048F6DF21C1F202016A46116048F20E51A1
:10615000C1F2020149F2A602C1F202027A23E0472B
:10616000FFE701208DF81F007FE0FFE7029800782D
:10617000092835D1FFE70298006904994860029820
:10618000D0ED030A0069B1EE080A09F0F9F80499A4
:106190000860FFE70498006810F1800F05DBFFE757
:1061A00004980068802819DBFFE7FFE70698D0F81D
:1061B00014C049F27701C1F202016A46116048F247
:1061C0000E51C1F2020149F2A602C1F2020280237D
:1061D000E047FFE701208DF81F0046E0FFE73BE0C6
:1061E00002980078072836D1FFE7029800690499E1
:1061F00048600298D0ED030A0069B1EE080A09F080
:10620000EFF804990860FFE70498006810F5004F64
:1062100006DBFFE704980068B0F5004F19DBFFE7E5
:10622000FFE70698D0F814C049F24601C1F2020116
:106230006A46116048F20E51C1F2020149F2A6020B
:10624000C1F202028523E047FFE701208DF81F001D
:106250000BE0FFE7FFE7FFE7039802990268926906
:10626000904700208DF81F00FFE79DF81F0008B041
:1062700080BD000080B586B005900491039205981A
:1062800001900498062801DCFFE701E0FCF72CFAF6
:1062900001980499016000F009F8029002980399AE
:1062A000049A9200FCF71FFB06B080BD81B00090FD
:1062B0000098043001B0704780B584B0039002911B
:1062C000019203980090029901600299019AFFF7E8
:1062D000D1FF009804B080BD81B0009000980021EB
:1062E000016001B07047000081B00090009801B0DB
:1062F0007047000080B58AB0089007910692059318
:10630000002004900390FFE703980599884231D25A
:10631000FFE70698039901EB410100EBC1000290F1
:106320000298007DC00700B3FFE74FF0FF300190F7
:10633000FFE7089804990268936901AA98478DF8C5
:1063400003009DF8030028B1FFE79DF803008DF8D6
:10635000270013E0FFE7079801990844029949686C
:106360000860049801300490FFE7FFE703980130CC
:106370000390C9E700208DF82700FFE79DF827006C
:106380000AB080BD10B58AB008900791069200202F
:106390000590FFE70598069988425AD2FFE70798CB
:1063A000059901EB410100EBC10004900498007DC8
:1063B000C007002848D0FFE70498006801900EF05D
:1063C00037FE01460198FFF731F803900498006901
:1063D0000130C0B9FFE7FFE708980399049B9A686A
:1063E000DB68D0F800C0DCF808C0E0478DF80B008F
:1063F0009DF80B0028B1FFE79DF80B008DF82700F2
:106400002BE0FFE71FE0FFE708980399DDF810C0D5
:10641000DCF80820DCF80C30DCF810E0D0F800C024
:10642000DCF80CC06C46C4F800E0E0478DF80A00C8
:106430009DF80A0028B1FFE79DF80A008DF82700B3
:106440000BE0FFE7FFE7FFE7FFE705980130059066
:10645000A0E700208DF82700FFE79DF827000AB08D
:1064600010BD000010B58AB00890079107984069E8
:1064700008B1FFE701E0FCF737F90798406906909B
:106480000798006908B1FFE701E0FCF72DF90798CC
:10649000006905900898079945F68852C1F20202F2
:1064A000126810F071F904900898079945F68C521B
:1064B000C1F20202126810F095F903900498007A74
:1064C00001460291012808D0FFE70298072822D050
:1064D000FFE7029809280FD02CE008980799069A40
:1064E000059BDDF810C0039CEE46CEF80440CEF8C4
:1064F00000C00DF0E9FD2CE008980799069A059B6D
:10650000DDF810C0039CEE46CEF80440CEF800C083
:106510000FF024F81DE008980799069A059BDDF80E
:1065200010C0039CEE46CEF80440CEF800C00FF039
:1065300069F80EE00498007AFEF7D0F9014648F6B3
:106540004970C1F20200FEF77FFA01208DF82700A2
:1065500003E000208DF82700FFE79DF827000AB030
:1065600010BD000010B5AAB028902791289827994F
:106570000022079210F008F9079A26902898279988
:1065800010F030F925902798006908B1FFE701E085
:10659000FCF7AAF827980169059108684A688B6892
:1065A000D1F80CC0D1F810E04C691B94CDF868E02C
:1065B000CDF864C01893179216908869CA690B6A5F
:1065C000D1F824C0D1F828E0CC6A2194CDF880E03D
:1065D000CDF87CC01E931D921C90086B496B2391D3
:1065E00022902698007A01460691012808D0FFE7FC
:1065F0000698072828D0FFE70698092824D02CE021
:1066000026990FA8049010F081F9269810F01EF931
:106610000290259908A8039010F078F9259810F0B9
:1066200021F9029A039B0499EC46CCF8000016A8C5
:1066300004F06AFE0398FFF757FE0498FFF754FE34
:1066400000208DF8A70019E02698259916AA00F0D9
:10665000B7F900208DF8A70010E02698007AFEF721
:106660003DF901462698027A48F69A00C1F20200E6
:10667000FEF7EAF901208DF8A700FFE79DF8A700D3
:106680002AB010BD80B596B014901391149806F0FE
:106690003BFA1290129813990022FFF777FB1190A2
:1066A000FFE71198C8B9FFE7FFE71498D0F814C0C6
:1066B00048F6DF21C1F202016A46116048F20E512C
:1066C000C1F2020149F22642C1F202022523E0474B
:1066D000FFE701208DF857002EE1FFE7129813998C
:1066E0000022FFF775FB1090FFE71098C8B9FFE78D
:1066F000FFE71498D0F814C048F6F021C1F2020167
:106700006A46116048F20E51C1F2020149F2264276
:10671000C1F202022823E047FFE701208DF857006D
:106720000AE1FFE71198FFF7BFF80F901098806813
:106730000E90139810F06CFE01280DD1FFE70E9813
:106740000068012808D1FFE70E98406820B9FFE7EC
:106750000E9900200860FFE701200D904FF0FF30F8
:106760000C9000200B90FFE70B980E990968884267
:1067700041DAFFE70E980B9900EB810040680A9020
:106780000A98013060BBFFE7FFE70C98013018B3AF
:10679000FFE7FFE71498D0F814C00C996A464FF051
:1067A000FF33D360916049F2F631C1F202015160CA
:1067B00049F28241C1F20201116048F6FA01C1F2C8
:1067C000020149F22642C1F202023D23E047FFE7FF
:1067D00001208DF85700AFE0FFE70B980C9005E023
:1067E0000A990D9800FB01F00D90FFE7FFE70B9869
:1067F00001300B90B8E70C98013070B3FFE71498A4
:10680000139900220FF0EEFF0990FFE714981099FA
:10681000099A10F01FF98DF823009DF8230028B184
:10682000FFE79DF823008DF8570085E0FFE71098FB
:1068300080680E900F980D9990FBF1F00E990C9ACC
:1068400001EB820148600E980C9900EB81004168D1
:106850000D9800FB01F00D90FFE7FFE7119800781D
:106860001099097888422FD0FFE7FFE71498079026
:106870004069069011980078FEF730F8059010985E
:106880000078FEF72BF80599DDF818C00346079845
:106890006A46D360916048F6A621C1F202015160B8
:1068A00048F69A21C1F20201116048F60551C1F281
:1068B000020149F22642C1F202024D23E047FFE7FE
:1068C00001208DF8570037E0FFE7FFE70F980D999B
:1068D000884222D0FFE7FFE71498D0F814C00F9940
:1068E0000D9B6A46D360916049F2A141C1F2020159
:1068F000516049F28E41C1F20201116048F6FA017D
:10690000C1F2020149F22642C1F202024E23E047DF
:10691000FFE701208DF857000EE0FFE7129811996C
:10692000026892699047129810990268926990479C
:1069300000208DF85700FFE79DF8570016B080BD86
:1069400082B08DF806009DF906000146009120B145
:10695000FFE70098012804D007E001208DF8070028
:1069600007E002208DF8070003E000208DF8070003
:10697000FFE79DF8070002B07047000085B0039064
:10698000029101920398002812D4FFE7039802991C
:1069900088420DDAFFE70198039950F82100009032
:1069A0000098013018B1FFE70098049004E0FFE779
:1069B0004FF0FF300490FFE7049805B070470000E7
:1069C00080B5BAB03990389137923998007A092851
:1069D0004ED1FFE73898007A072824D1FFE737988F
:1069E0000A90399930A80C900FF090FF39980FF069
:1069F00015FF0990389929A80B900FF087FF389858
:106A00000FF078FF099A0B9B0C9984460A98EE4682
:106A1000CEF800C004F062FB0B98FFF765FC0C9801
:106A2000FFF762FC23E037980690399922A8089076
:106A30000FF06CFF39980FF0F1FE059038991BA804
:106A400007900FF063FF38980FF0F4FE059A079B4C
:106A5000089984460698EE46CEF800C004F02AFA5B
:106A60000798FFF741FC0898FFF73EFCFFE723E09B
:106A700037980290399914A804900FF047FF39987D
:106A80000FF02CFF019038990DA803900FF03EFFF6
:106A900038980FF02FFF019A039B049984460298BF
:106AA000EE46CEF800C003F015FB0398FFF71CFC80
:106AB0000498FFF719FCFFE73AB080BD82B08DF86B
:106AC00006009DF906000146009105281DD8009991
:106AD000DFE801F003070B0F131700208DF8070004
:106AE00017E001208DF8070013E002208DF8070061
:106AF0000FE003208DF807000BE004208DF807005D
:106B000007E005208DF8070003E000208DF807005E
:106B1000FFE79DF8070002B0704700002DE9F04341
:106B2000ADF5717DEF90EE91EE98006908B1FFE749
:106B300001E0FBF7D9FDEE98406908B1FFE701E0FD
:106B4000FBF7D2FDEE984069ED90EE980069EC906D
:106B5000EF98EE9945F6A452C1F2020212680FF0C6
:106B600041FEEB90EF98EE9945F69C52C1F202027D
:106B700012680FF009FEEA90EF98EE9945F6AC52D4
:106B8000C1F2020212680FF0FFFDE990EE9810F0DA
:106B90003FFC03280BD1FFE7EF98EE9945F698529A
:106BA000C1F2020212680FF0EFFD2F9002E0002008
:106BB0002F90FFE72F98E890EA98007A01462E91EF
:106BC000012809D0FFE72E98072800F03E81FFE753
:106BD0002E9809284CD0AFE1ED99EC9AD8A82990CD
:106BE0000DF05EFEEA99D1A82D900FF08FFEEA9885
:106BF0000FF02CFE2890E999CAA82C900FF086FE81
:106C0000E9980FF023FE2790E899C3AC2B94204617
:106C10000FF07CFEE8980FF0EDFE0546EB99BCAE58
:106C20002A9630460FF072FEEB980FF01BFEDDF84F
:106C30009CC0289A2C9B2D9907462998EE46CEF8A1
:106C40001070CEF80C60CEF80850CEF80440CEF8A4
:106C500000C003F045FB2A98FFF746FB2B98FFF78F
:106C600043FB2C98FFF740FB2D98FFF73DFB74E1A9
:106C7000E998007A01462691092874D0FFE7269802
:106C8000122840F0C880FFE7EF98426CEC99496BFE
:106C90009047BB90E9980FF0C1FD1C90E999B4A80A
:106CA0001D900FF033FE1D9812F04EF801461C980F
:106CB000BB9A02F025FA1D98FFF716FBED99EC9AA6
:106CC000A4A821900EF0AAFEEC98416A1F91806A58
:106CD0002090EA999DA825900FF018FEEA980FF0F1
:106CE0009DFD1E90E99996AC249420460FF00EFE6F
:106CF000BB9DE8998FAE239630460FF007FEE898CB
:106D00000FF088FE0746EB990DF50878CDF88880DE
:106D100040460FF0FBFDEB980FF08CFDDDF878C0DE
:106D20001F99209A259B81462198EE46CEF818900F
:106D3000CEF81480CEF81070CEF80C60CEF8085063
:106D4000CEF80440CEF800C00BF0AEFB2298FFF75F
:106D5000CBFA2398FFF7C8FA2498FFF7C5FA2598CD
:106D6000FFF7C2FA70E0ED99EC9A78A817900EF050
:106D700055FEEC98416A1591806A1690EA9971A8BF
:106D80001B900FF0C3FDEA980FF048FD1490E999AD
:106D90006AAC1A9420460FF0B9FDE9980FF03EFD59
:106DA0000546E89963AE199630460FF0AFFDE898B6
:106DB0000FF030FE0746EB990DF5B878CDF86080FE
:106DC00040460FF0A3FDEB980FF034FDDDF850C006
:106DD0001599169A1B9B81461798EE46CEF8189087
:106DE000CEF81480CEF81070CEF80C60CEF80850B3
:106DF000CEF80440CEF800C00BF056FB1898FFF711
:106E000073FA1998FFF770FA1A98FFF76DFA1B9842
:106E1000FFF76AFA18E0E998007AFDF75FFD129033
:106E2000E998007A1390EA98007AFDF757FD1299D5
:106E3000139A034648F62430C1F20200FDF704FE1F
:106E400001208DF8C3038CE087E0E998007A0928D7
:106E500058D1FFE7ED99EC9A4CA80D900EF0DEFDAD
:106E6000EC98416A0B91806A0C90EA9945A81190C0
:106E70000FF04CFDEA980FF031FD0A90E9993EAC15
:106E8000109420460FF042FDE9980FF0C7FC05462C
:106E9000E89937AE0F9630460FF038FDE8980FF0BE
:106EA000C9FD0746EB990DF1C008CDF83880404682
:106EB0000FF02CFDEB980FF01DFDDDF828C00B99AD
:106EC0000C9A119B81460D98EE46CEF81890CEF89C
:106ED0001480CEF81070CEF80C60CEF80850CEF8C2
:106EE0000440CEF800C00BF095FC0E98FFF7FCF9BB
:106EF0000F98FFF7F9F91098FFF7F6F91198FFF7D7
:106F0000F3F918E0E998007AFDF7E8FC0890E998B1
:106F1000007A0990EA98007AFDF7E0FC0899099A4E
:106F2000034648F62430C1F20200FDF78DFD012032
:106F30008DF8C30315E010E0EA98007AFDF7CEFC67
:106F40000146EA98027A48F60230C1F20200FDF7E3
:106F50007BFD01208DF8C30303E000208DF8C303FF
:106F6000FFE79DF8C3030DF5717DBDE8F0830000D8
:106F700080B584B00390029101920398806B08B1B0
:106F8000FFE701E0FBF7B0FB0398826B38219047E5
:106F900004B080BD2DE9F043ADF26C6DCDF8640610
:106FA000CDF86016DDF86006406908B1FFE701E042
:106FB000FBF79AFBDDF860064069CDF85C06DDF86A
:106FC0006406DDF8601645F6A852C1F202021268A6
:106FD0000FF0DAFBCDF85806DDF86406DDF8601630
:106FE00045F6B452C1F2020212680FF0CDFBCDF8A3
:106FF0005406DDF86406DDF8601645F6A052C1F2CD
:10700000020212680FF0C0FBCDF85006DDF86406EE
:10701000DDF8601645F6B052C1F2020212680FF0B8
:10702000E1FBCDF84C06DDF86006006908B1FFE72A
:1070300001E0FBF759FBDDF860060069CDF8480672
:10704000DDF85806007A0146419101280AD0FFE791
:107050004198072800F01982FFE7419809285CD081
:1070600000F081BCDDF85C0601780DF5C4603C9051
:107070000DF06AFFDDF858160DF2046040900FF035
:1070800045FCDDF858060FF0E1FB3B90DDF85416A7
:107090000DF5BD603F900FF039FCDDF854060FF0A0
:1070A000D5FB3A90DDF850160DF2CC543E942046B4
:1070B0000FF02CFCDDF850060FF09CFC0546DDF8C7
:1070C0004C160DF5B6663D9630460FF01FFCDDF808
:1070D0004C060FF0C7FBDDF8E8C03B9A3F9B409998
:1070E00007463C98EE46CEF81070CEF80C60CEF80D
:1070F0000850CEF80440CEF800C003F027FB3D98BE
:10710000FFF7F2F83E98FFF7EFF83F98FFF7ECF83B
:107110004098FFF7E9F800F039BCDDF85406007A32
:107120000146399109287DD0FFE73998122840F0AF
:107130009881FFE7DDF86406426CDDF84816096ABD
:107140009047CDF8AC05DDF854060FF067FB3090A2
:10715000DDF854160DF5B26031900FF0D7FB319881
:1071600011F0F2FD01463098DDF8AC2501F0C8FFC2
:107170003198FFF7B9F8DDF848160DF5AD60349099
:107180000EF07AFEDDF858160DF24C5038900FF0E4
:10719000BDFBDDF858060FF041FB3390DDF85416C7
:1071A0000DF5A66037900FF0B1FBDDF8AC0532901D
:1071B000DDF850160DF21454369420460FF0A6FB5D
:1071C000DDF850060FF026FC0546DDF84C160DF5EF
:1071D0009F66359630460FF099FBDDF84C060FF0B0
:1071E00029FBDDF8C8C0339A379B38990746349895
:1071F000EE46CEF81070CEF80C60CEF80850CEF8FF
:107200000440CEF800C00AF0B5FE3598FFF76CF8E0
:107210003698FFF769F83798FFF766F83898FFF760
:1072200063F831E1DDF8480690F82C0000212F9139
:107230008DF8B3148DF893148DF873148DF85314DE
:107240008DF80B148DF8EB138DF8CB138DF8AB1371
:10725000C007002862D0FFE7DDF848160DF59A60F8
:107260002E900EF009FEDDF84806416A2B91806AE7
:107270002C90DDF858160DF2B4402D900FF046FB1F
:10728000012029908DF8B304DDF858060FF0C6FAF6
:107290002A90DDF854160DF2944420460FF036FB88
:1072A00029988DF89304DDF854060FF0B7FA0546D7
:1072B000DDF850160DF2744630460FF027FB299882
:1072C0008DF87304DDF850060FF0A4FB0746DDF8D7
:1072D0004C160DF2544840460FF018FB29988DF8D3
:1072E0005304DDF84C060FF0A5FADDF8A8C02B9981
:1072F0002C9A2D9B81462E98EE46CEF81890CEF80B
:107300001480CEF81070CEF80C60CEF80850CEF88D
:107310000440CEF800C00BF033FC54E0DDF8481612
:107320000DF5856028900EF0A7FDDDF858160DF2DA
:107330000C4025900FF0EAFA012023908DF80B0401
:10734000DDF858060FF06AFA2690DDF85416FBA80F
:1073500027900FF0DBFA23988DF8EB03DDF8540645
:107360000FF05CFA2490DDF85016F3AC20460FF0D5
:10737000CDFA23988DF8CB03DDF850060FF04AFBC9
:107380000546DDF84C16EBAE30460FF0BFFA2398F9
:107390008DF8AB03DDF84C060FF04CFADDF890C029
:1073A0002599269A279B07462898EE46CEF8107016
:1073B000CEF80C60CEF80850CEF80440CEF800C0ED
:1073C0000AF0D8FDFFE79DF8AB03012804D1FFE7E1
:1073D000EBA8FEF789FFFFE79DF8CB03012804D156
:1073E000FFE7F3A8FEF780FFFFE79DF8EB03012816
:1073F00004D1FFE7FBA8FEF777FFFFE79DF80B043A
:10740000012805D1FFE70DF20C40FEF76DFFFFE705
:107410009DF85304012805D1FFE70DF25440FEF713
:1074200063FFFFE79DF87304012805D1FFE70DF224
:107430007440FEF759FFFFE79DF89304012805D13A
:10744000FFE70DF29440FEF74FFFFFE79DF8B3040E
:10745000012805D1FFE70DF2B440FEF745FFFFE735
:1074600012E0DDF85406007AFDF738FA0146DDF83F
:107470005806027A48F61F50C1F20200FDF7E4FAFE
:1074800001208DF86B0685E280E2DDF85406007A73
:10749000092840F05482FFE7DDF8500640B1FFE7CD
:1074A000DDF85006017A01200229229012D0FFE770
:1074B000DDF850160020219049B9FFE7DDF85C06A1
:1074C00000790238B0FA80F040092190FFE7219856
:1074D0002290FFE7229800F001008DF8AA039DF8A2
:1074E000AA03C007002800F01581FFE7DDF8480671
:1074F00090F82C00002120918DF863138DF8431330
:107500008DF823138DF803138DF8BB128DF89B12A1
:107510008DF87B128DF85B12C00700285ED0FFE764
:10752000DDF84816E0A81F900EF0A6FCDDF848062E
:10753000416A1C91806A1D90DDF85816D9A81E90EA
:107540000FF0E4F901201A908DF86303DDF8580676
:107550000FF0C4F91B90DDF85416D1AC20460FF0A3
:10756000D5F91A988DF84303DDF854060FF056F953
:107570000546DDF85016C9AE30460FF0C7F91A9827
:107580008DF82303DDF850060FF044FA0746DDF8C6
:107590004C160DF5417840460FF0B8F91A988DF861
:1075A0000303DDF84C060FF0A5F9DDF86CC01C995B
:1075B0001D9A1E9B81461F98EE46CEF81890CEF875
:1075C0001480CEF81070CEF80C60CEF80850CEF8CB
:1075D0000440CEF800C00BF0A9FB52E0DDF84816DD
:1075E000B6A819900EF048FCDDF85816AFA8169012
:1075F0000FF08CF9012014908DF8BB02DDF85806CD
:107600000FF06CF91790DDF85416A7A818900FF03A
:107610007DF914988DF89B02DDF854060FF0FEF802
:107620001590DDF850169FAC20460FF06FF91498B6
:107630008DF87B02DDF850060FF0ECF90546DDF819
:107640004C1697AE30460FF061F914988DF85B0236
:10765000DDF84C060FF04EF9DDF854C01699179A74
:10766000189B07461998EE46CEF81070CEF80C60BD
:10767000CEF80850CEF80440CEF800C00AF052FD13
:10768000FFE79DF85B02012804D1FFE797A8FEF70A
:107690002BFEFFE79DF87B02012804D1FFE79FA89E
:1076A000FEF722FEFFE79DF89B02012804D1FFE7C9
:1076B000A7A8FEF719FEFFE79DF8BB02012804D139
:1076C000FFE7AFA8FEF710FEFFE79DF803030128D0
