:020000041000EA
:100000004B2A110200000000A4030000EEC3A6E981
:100010007EEEE78880B500F087F90020002100F02F
:100020000DF8292000F00FF8202000F011F800F062
:1000300033F900F013F800F025F980BD4CF2B93C1B
:10004000C0F2000C604747F67D1CC0F2000C604710
:1000500047F6D12CC0F2000C6047000080B54FF08D
:10006000A040012100F075F900060BD1032000F03B
:1000700075F9000606D1012000F075F9000604BFED
:10008000002080BD00F074F94FF47A7000F075F92B
:10009000012080BD2DE9F04381B019B343F2B83897
:1000A0000F4606464FF0FF344FF00009C2F2000839
:1000B0003D46B7F5807F28BF4FF480754FF0A040D4
:1000C000314642462B46CDF8009000F05BF960B90E
:1000D00040462946224600F05AF904467F1B2E442A
:1000E000E6D103E04FF0FF3400E00124204601B0E8
:1000F000BDE8F08310B582B004464FF0000C4FF01D
:10010000A0404FF4805122462023CDF800C000F0DB
:1001100039F9000622D120461C214FF0FF3200F0B1
:1001200036F9E169814219D1E078112816D1A07819
:10013000022813D1E168B1F5002F0FD8606846F2AC
:100140007872C4F26A72904208D1A068FFF7A2FFE9
:100150002169401A18BF012002B010BD012002B071
:1001600010BD00002DE9F0410C4605460E184FF079
:100170000008B4F5803F07D3A8B228B94FF4803700
:100180000321102021E000BFB4F5004F08D328461A
:100190006FF3DF3020B94FF4004702210F2014E045
:1001A00029466FF31F31200BB1FA81F1B8EB143FF0
:1001B00018BF0120490901404FF008004FF4807733
:1001C00018BF0C2018BF4FF4805725FA00F082B2F8
:1001D0004FF0A04047F2305300F0DEF800060BD19C
:1001E0003D44B542A4EB070424BF0020BDE8F081E4
:1001F000B4F5803FC0D2C7E700F0BAF84FF47A7088
:1002000000F0BBF80120BDE8F08100002DE9F047C7
:1002100082B04FF000098AB343F2B83814460E4654
:100220000746C2F2000840F6B83A00BF2546B4F5CA
:10023000807F28BF4FF480754FF0A040394642467A
:100240002B46CDF8009000F09DF890B94FF0A040FB
:10025000314642462B46CDF80090CDF804A000F080
:10026000A0F848B92F44641B2E44DFD14FF0000999
:1002700004E04FF0010901E04FF00109484602B0E7
:10028000BDE8F08780B542F20400C1F200000068CA
:1002900000F08CF880BD0000B0B588B06846FFF76C
:1002A00029FF08B101243CE0DDE90501FFF75AFF11
:1002B00038B100F05DF84FF47A7000F05EF8012478
:1002C0002FE0DDE902020599FFF7A0FF38B100F049
:1002D0004FF84FF47A7000F050F8012421E00399B0
:1002E0000598FFF7D7FE0499884213D14FF0A0403C
:1002F0000021102247F23053002400F04DF805464B
:1003000000F036F828060CD04FF47A7000F035F87B
:10031000012406E000F02CF84FF47A7000F02DF87C
:100320000124204608B0B0BDEC20C6F205000168EB
:100330007F2221F002010160016821F004010160C7
:100340006FF0030143180431342943F8D82CF9D154
:10035000704748F6F57CC0F2000C604747F2613CFC
:10036000C0F2000C604747F21D3CC0F2000C604731
:1003700047F6717CC0F2000C604744F2717CC0F219
:10038000000C604748F69D2CC0F2000C604744F218
:10039000C17CC0F2000C604748F6A10CC0F2000C12
:1003A000604749F2D90CC0F2000C604744F62D0CAE
:1003B000C0F2000C604700000000000000000000D8
:1003C000000000000000000000000000000000002D
:1003D000000000000000000000000000000000001D
:1003E000000000000000000000000000000000000D
:1003F00000000000000000000000000000000000FD
:020000041000EA
:102000000000012055210010692100107B210010E3
:102010008D2100108F210010912100100000000080
:10202000000000000000000000000000D1020000DD
:1020300095210010000000007503000081030000DE
:102040009B2100109D2100109F210010A121001054
:10205000A3210010A5210010A7210010A921001024
:10206000AB210010AD210010AF210010B1210010F4
:10207000B3210010B5210010B7210010B9210010C4
:10208000BB210010BD210010BF210010C121001094
:1020900001320020C5210010C7210010C921001005
:1020A000CB210010CD210010CF210010D121001034
:1020B000D3210010D5210010D7210010D921001004
:1020C000DB210010DD210010DF210010E1210010D4
:1020D000E3210010E5210010E7210010E9210010A4
:1020E000EB210010ED210010EF210010F121001074
:1020F000F3210010F5210010F7210010F921001044
:10210000FB210010FD210010FF2100100122001012
:1021100003220010052200100722001009220010DF
:102120000B2200100D2200100F22001000000000F2
:10213000000000000000000000000000000000009F
:10214000DFF80CD000F070F800480047CD280010F0
:10215000000001202E4880F308882E4880F30A886A
:102160002D4880472D4800475FEA0E00EFF30881B5
:10217000EFF309822A4B9847FEE75FEA0E00EFF380
:102180000881EFF30982274B9847FEE7FEE7FEE759
:10219000FEE7FEE7FEE7FEE7FEE7FEE7FEE7FEE717
:1021A000FEE7FEE7FEE7FEE7FEE7FEE7FEE7FEE707
:1021B000FEE7FEE7FEE7FEE7FEE7FEE7FEE7FEE7F7
:1021C000FEE7FEE7FEE7FEE7FEE7FEE7FEE7FEE7E7
:1021D000FEE7FEE7FEE7FEE7FEE7FEE7FEE7FEE7D7
:1021E000FEE7FEE7FEE7FEE7FEE7FEE7FEE7FEE7C7
:1021F000FEE7FEE7FEE7FEE7FEE7FEE7FEE7FEE7B7
:10220000FEE7FEE7FEE7FEE7FEE7FEE7FEE7FEE7A6
:102210000000012000F00020592200104121001090
:10222000C1260010912300101CB5094800900948F0
:1022300001900546009C06E0E06840F0010394E848
:10224000070098471034AC42F6D3FFF77DFF00003B
:10225000C0220010F022001042F2000243F20001FE
:102260000020C1F20002C2F2000100BF52F820308B
:1022700041F8203001304B28F8D14EF61450CEF200
:10228000000040F80C1C416F41F470014167016887
:1022900041F010010160016841F4807101607047F4
:1022A00002E008C8121F08C1002AFAD1704770471F
:1022B000002001E001C1121F002AFBD1704700007D
:1022C000AC3500100032002094000000A022001065
:1022D0004036001000B0002004000000A0220010D2
:1022E0004436001004B0002018000000B022001096
:1022F0002DE9F05F0546002092469B46884606463B
:10230000814640241BE0284641464746224600F0CD
:102310002FF853465A46C01A914110D31146184619
:10232000224600F016F82D1A67EB01084F462246A8
:102330000120002100F00DF817EB00094E41201E8E
:10234000A4F10104DFDC484631462A464346BDE895
:10235000F09F202A04DB203A00FA02F100207047A7
:102360009140C2F1200320FA03F3194390407047D3
:10237000202A04DB203A21FA02F00021704721FADA
:1023800002F3D040C2F12002914008431946704741
:1023900082B04EF6285715460C460646CEF2000788
:1023A00000F028FA43F23010EFF30881C1F2000088
:1023B00000F0D4FB300743F2755043F29451C1F260
:1023C0000000C1F2000158BF084600F009FE16F0F7
:1023D000040043F2865192A0C1F200010CBF0846EE
:1023E0002C4600F0FDFD92A000F0FAFD216894A0BB
:1023F00000F0B4FB616896A000F0B0FBA16898A063
:1024000000F0ACFBE1689AA000F0A8FB21699CA059
:1024100000F0A4FB61699EA000F0A0FBA169A0A050
:1024200000F09CFBE169A2A000F098FBA06901907C
:102430007868800705D543F24950C1F2000000F0EA
:10244000CFFD7868B0F1FF3F05DC43F26250C1F286
:10245000000000F0C5FD7868400040F1DC8043F2E8
:102460003550C1F2000000F0BBFD386800063ED0D8
:1024700043F21750C1F2000000F0B2FD3868C00707
:1024800006D0019943F2AE00C1F2000000F066FBF5
:102490003868800710D5019943F23B00C1F2000073
:1024A00000F05CFB3868000606D5F96843F223109B
:1024B000C1F2000000F052FB3868000705D543F276
:1024C000D930C1F2000000F08BFD3868C00605D598
:1024D00043F22E40C1F2000000F082FD3868800611
:1024E00005D543F23A30C1F2000000F079FD3868BA
:1024F00010F47F4F46D043F25750C1F2000000F075
:102500006FFD3868C00505D543F26420C1F20000B4
:1025100000F066FD3868800510D5019943F204008B
:10252000C1F2000000F01AFB3868000406D53969D2
:1025300043F22310C1F2000000F010FB38684005A0
:1025400005D543F2FA10C1F2000000F049FD3868E9
:10255000000505D543F28140C1F2000000F040FDC6
:102560003868C00405D543F2CD40C1F2000000F048
:1025700037FD3868800405D543F28D30C1F2000084
:1025800000F02EFD3868B0F5803F44D343F2285068
:10259000C1F2000000F024FD3868C00305D543F205
:1025A0008610C1F2000000F01BFD3868800305D5DD
:1025B00043F2FD20C1F2000000F012FD3868400334
:1025C00005D543F25810C1F2000000F009FD38684B
:1025D000000305D543F29120C1F2000000F000FD98
:1025E0003868C00205D543F2D120C1F2000000F0E6
:1025F000F7FC3868C00105D543F23120C1F2000074
:1026000000F0EEFC3868800105D543F2BF10C1F23E
:10261000000000F0E5FC00F0BFF800BFFEE700BFDF
:102620005573696E67207533325073702E00000049
:10263000537461636B206672616D653A000000003F
:10264000523020203A203078253038580A000000D7
:10265000523120203A203078253038580A000000C6
:10266000523220203A203078253038580A000000B5
:10267000523320203A203078253038580A000000A4
:10268000523132203A203078253038580A00000084
:102690004C5220203A203078253038580A0000006B
:1026A000504320203A203078253038580A00000066
:1026B000785053523A203078253038580A000000BC
:1026C00014460D46064600F095F805A031462A4608
:1026D000234600F043FA00F05FF800BFFEE700BFBA
:1026E0004E4D495F48616E646C65723A2025303802
:1026F000582C20253038582C20253038580A000016
:1027000010B5DDF808C0B2F1C04F0BD040F6000E96
:10271000C6F2000E724505D040F2004EC6F2000E21
:10272000724536D14BF2800440F0800EC6F20404AC
:10273000A6452ED14BF20404C2F20004BCF1000FF6
:10274000C4F800C00DD04BF2120C4BF21004C2F2D0
:10275000000C4FF0000EC2F20004ACF800E0A4F848
:1027600000E04BF20C04C2F2000422604BF20802BB
:10277000C2F2000210604BF21400C2F200000160CD
:102780004BF21800C2F200000360BDE8104000F0F8
:1027900031B8102010BD0000F0B581B04BF2040438
:1027A000C2F20004206818B34BF212054BF2100677
:1027B000C2F20005C2F2000628883188884217D08C
:1027C0004BF20C07C2F20007216882B20968386830
:1027D000895C00F04FF928882168013082B289882D
:1027E0008A4228BF002081B2328828809142EBD1F2
:1027F00001B0F0BDF0B583B04BF20C05C2F200059C
:102800002868B0F1C04F0AD040F20041C6F2000182
:10281000884219BF0C242D2008242C2001E0042418
:102820002B2000F02CF94BF208064BF21407C2F2F1
:102830000006C2F2000730683968224600F024F929
:1028400008B103B0F0BD30683968022200F021F908
:102850000028F6D14BF21800C2F20000006843F2E3
:1028600021010190C0F201112868029101A900F034
:1028700015F903B0F0BD000010B582B04BF20401B1
:10288000C2F20001096879B14BF21003C2F20003F1
:102890000A681C881055621C94B289888C4228BF33
:1028A00000221A8002B010BD4BF20C01C2F20001EE
:1028B0000A688DF807000DF1070104461046012251
:1028C00000F0F1F8204602B010BD000084B04BF2D9
:1028D0008004C6F2040404F53E5000F0E9F86420D8
:1028E00000F0EBF8022000F0EDF80020002500F0E9
:1028F000EEF8002000F0F0F8002000F0F2F80DF102
:102900000B010F2001228DF80B5000F0EFF89DF81D
:102910000B00002804BF562000F0EDF80DF10B016C
:102920001020012200F0E2F89DF80B00002808BFFB
:10293000A92000F0E5F8002000F0E7F803200321CB
:10294000642200F0E7F8012040F6C41100F0E7F837
:1029500001200021002200F0E7F840F2004220466A
:10296000C6F200024FF480514FF4E1230095FFF7C7
:10297000C7FE1FA029A12CA200F0F0F820464FF4BA
:102980000071012200F0D5F820464FF400710022BA
:1029900000F0D4F803AD27A62EA700BF20464FF4C1
:1029A0000071012200F0CFF820464FF400712A4652
:1029B00000F0CEF80399304600F0D0F84FF4FA70EA
:1029C00000F07BF820464FF40071002200F0BBF8C5
:1029D00020464FF400712A4600F0BAF803993846B1
:1029E00000F0BCF84FF4FA7000F067F8D6E700BFCB
:1029F0005B257320542025735D4750494F2065782F
:102A0000616D706C6520636F6465207374617274AE
:102A100020746F20776F726B2E0A00005365702050
:102A2000313420323032360031363A35333A3134AF
:102A300000000000283129204750494F206F75744D
:102A4000707574206C6576656C3A20253038580AAC
:102A500000000000283229204750494F206F75742C
:102A6000707574206C6576656C3A20253038580A8C
:102A7000000000004DF67D7CC0F2000C604747F678
:102A80007D1CC0F2000C604749F6210CC0F2000C1E
:102A9000604749F69D0CC0F2000C60474DF6656C2E
:102AA000C0F2000C60474EF2CD1CC0F2000C604733
:102AB0004FF6310CC0F2000C604744F2717CC0F25A
:102AC000000C60474AF67D5CC0F2000C60474AF695
:102AD000A95CC0F2000C60474AF6FD5CC0F2000C35
:102AE000604745F6214CC0F2000C604748F20D7C6F
:102AF000C0F2000C60474AF6596CC0F2000C604707
:102B00004AF6696CC0F2000C60474AF6B13CC0F26C
:102B1000000C604745F6651CC0F2000C604745F6A6
:102B2000295CC0F2000C60474CF2113CC0F2000C72
:102B3000604749F2F16CC0F2000C604749F2716CD9
:102B4000C0F2000C604749F2F97CC0F2000C60470B
:102B500049F26D5CC0F2000C604700000FB4054BF9
:102B600010B503A9044A029800F008F810BC5DF8FB
:102B700014FB00007928001000B000202DE9FF4F61
:102B80008DB00F460546002606E025280BD0DDE96E
:102B90000F1290476D1C761C28780028F5D111B0D3
:102BA0003046BDE8F08F0024A246A1460122EC4940
:102BB00000E0044315F8013F203B02FA03F008420D
:102BC000F7D128782A2810D06FF02F022878A0F1AA
:102BD0003001092914D80AEB8A0102EB410144F0C3
:102BE000020400EB010A6D1CF0E701CF5FEA000A66
:102BF00003D544F40054CAF1000A44F002046D1CE9
:102C000028782E2817D115F8010F44F004042A283B
:102C10000ED06FF02F022878A0F1300109290AD8D0
:102C200009EB890102EB410100EB01096D1CF2E7A0
:102C300057F8049B6D1C28786C280FD006DC4C28B4
:102C400017D068280DD06A2814D104E0742810D059
:102C50007A280FD10DE044F400140AE044F4801403
:102C600001E044F440146978814202D104F58014F3
:102C70006D1C6D1C2A786E2A1FD00CDC632A31D0A3
:102C800004DC002A8BD0582A11D1A3E0642A68D032
:102C9000692A0CD165E0732A2ED004DC6F2A73D028
:102CA000702A04D19BE0752A6FD0782A6ED0104626
:102CB000DDE90F129047761C50E1C4F30250022860
:102CC00006D0032809D0042801CF09D0066045E1C9
:102CD00001CFF117C0E9006140E101CF06803DE17D
:102CE00006703BE117F8040B8DF8000000208DF80A
:102CF0000100EB46012003E057F804BB4FF0FF3022
:102D000061074FF0000102D40DE008F1010188468F
:102D100049450FDA8045F8DB1BF808100029F4D18B
:102D200008E008F1010188468142FADB1BF808102F
:102D30000029F6D1DDE90F23AAEB080081462146E0
:102D400000F036F9304400EB080604E0DDE90F122C
:102D50001BF8010B9047B8F10108F7D2214648460D
:102D6000F7E00A21C4F302534FF0000B0891022B45
:102D700004D001CFC117032B09D00AE0FF1D27F0B3
:102D80000707F7E8020108E032E01FE020E000B2A8
:102D9000C117042B01D140B2C117031E71F100030A
:102DA00007DA4FF0000CD0EB0C006CEB01012D2387
:102DB00002E0230504D52B238DF82430012303E002
:102DC000E30701D02023F7E7984658E00A2110E0F6
:102DD00010210EE010204FF0000B08900CE01021A5
:102DE0004FF0000B44F004044FF00809089103E091
:102DF00008214FF0000B0891C4F30253022B04D0BA
:102E000001CF0021032B06D006E0FF1D27F00707A6
:102E1000F7E8020103E080B2042B00D1C0B24FF00A
:102E2000000823072BD5702A07D0DDF820C08CF0CE
:102E3000100C5CEA0B0C05D00EE040238DF824301A
:102E4000012308E050EA010306D030238DF8243036
:102E50008DF8252002239846DDF820C08CF0080C60
:102E60005CEA0B0C0BD150EA010301D1630706D5D4
:102E700030238DF824304FF00108A9F10109582AB8
:102E800004D038A20B9208AA0A920BE03AA2F9E702
:102E90005B46089AFFF72CFA0B9B9B5C0A9A521E22
:102EA0000A92137050EA0102F2D10A98ADEB0000C9
:102EB00000F1200B600702D524F4803401E04FF0CC
:102EC0000109D94502DDA9EB0B0000E0002000EB71
:102ED0000B0141440890AAEB010AE00306D4DDE9A6
:102EE0000F232146504600F063F806444FF00009D6
:102EF00008E009A911F80900DDE90F12904709F16E
:102F00000109761CC145F4DBE0030CD5DDE90F2394
:102F10002146504600F04CF8064404E0DDE90F126B
:102F200030209047761C0899481E08900029F5DC4F
:102F300008E00A980A990078491C0A91DDE90F1205
:102F40009047761CBBF10001ABF1010BF1DC21468F
:102F50005046DDE90F2300F019F806446D1C1BE60E
:102F6000092801003031323334353637383961625F
:102F70006364656600000000303132333435363723
:102F80003839414243444546000000002DE9F041F4
:102F9000044600251E461746880404D405E0394639
:102FA0002020B0476D1C641EF9D52846BDE8F0818D
:102FB0002DE9F041044600251E469046C80301D580
:102FC000302700E02027880404D505E04146384634
:102FD000B0476D1C641EF9D52846BDE8F08100009D
:102FE00010B5044601E0FFF747FC14F8010B044953
:102FF0000028F8D1BDE810400A20FFF73DBC0000D2
:1030000000B000205B5052454349534552525D2069
:103010006461746120627573206572726F722068DA
:103020006173206F636375727265642C2050432056
:103030003A203078253038780D0A005B444143430C
:1030400056494F4C5D205468652070726F636573FC
:10305000736F7220617474656D7074656420612093
:103060006C6F6164206F722073746F72652061747D
:103070002061206C6F636174696F6E207468617485
:1030800020646F6573206E6F74207065726D697453
:1030900020746865206F7065726174696F6E2C2092
:1030A0005043203A203078253038780D0A005B49AB
:1030B00041434356494F4C5D5468652070726F63BD
:1030C0006573736F7220617474656D7074656420CC
:1030D000616E20696E737472756374696F6E2066B9
:1030E000657463682066726F6D2061206C6F636128
:1030F00074696F6E207468617420646F6573206EEC
:103100006F74207065726D6974206578656375747D
:10311000696F6E2C205043203A2030782530387863
:103120000D0A004154203A3078253038780D0A00D5
:103130005B486172644661756C745F48616E646C73
:1031400065725D43757272656E74206D73703A209E
:103150003078253038580A005B494E5650435D613F
:103160006E20696E7465677269747920636865633F
:103170006B206572726F7220686173206F63637574
:10318000727265640D005B554E444546494E53547A
:10319000525D616E20756E646566696E6564206956
:1031A0006E737472756374696F6E206572726F727C
:1031B00020686173206F636375727265640D005BD4
:1031C00044495642595A45524F5D616E20696E74AA
:1031D00065676572206469766973696F6E206279CC
:1031E000207A65726F206572726F72206861732039
:1031F0006F636375727265640D005B494D50524593
:103200004349534552525D496D70726563697365F8
:1032100020646174612061636365737320657272F9
:103220006F7220686173206F636375727265640DDD
:10323000005B554E414C49474E45445D616E2075DB
:103240006E616C69676E656420616363657373208A
:103250006572726F7220686173206F63637572723A
:1032600065640D005B494255534552525D696E736A
:103270007472756374696F6E206275732065727203
:103280006F7220686173206F636375727265640D7D
:10329000005B4E4F43505D6120636F70726F6365DA
:1032A00073736F722064697361626C6564206F72FE
:1032B000206E6F742070726573656E742065727213
:1032C0006F7220686173206F636375727265640D3D
:1032D000005B53544B4F465D6120737461636B20F8
:1032E0006F766572666C6F77206572726F72206898
:1032F0006173206F636375727265640D005B494E84
:103300005653544154455D20616E20455053522E12
:1033100054206F7220455053522E49542076616CD0
:103320006964697479206572726F722068617320B4
:103330006F636375727265640D005B4D4C5350454D
:1033400052525D41204D656D4D616E61676520662D
:1033500061756C74206F6363757272656420647547
:1033600072696E6720666C6F6174696E672D706F2D
:10337000696E74206C617A79207374617465207051
:103380007265736572766174696F6E0D005B4C5384
:10339000504552525D4120627573206661756C74B0
:1033A000206F6363757272656420647572696E67FD
:1033B00020666C6F6174696E672D706F696E742022
:1033C0006C617A79207374617465207072657365BD
:1033D00072766174696F6E0D005B4D554E53544BA0
:1033E0004552525D556E737461636B20666F722037
:1033F000616E20657863657074696F6E20726574A4
:1034000075726E2068617320636175736564206FE7
:103410006E65206F72206D6F7265206163636573E6
:10342000732076696F6C6174696F6E730D005B4D0C
:1034300053544B4552525D537461636B696E672000
:10344000666F7220616E20657863657074696F6E57
:1034500020656E747279206861732063617573658D
:1034600064206F6E65206F72206D6F7265206163DE
:10347000636573732076696F6C6174696F6E730D29
:10348000005B554E53544B4552525D556E737461FB
:10349000636B20666F7220616E206578636570745F
:1034A000696F6E2072657475726E20686173206337
:1034B0006175736564206F6E65206F72206D6F7229
:1034C00065204275734661756C74730D005B5354CF
:1034D0004B4552525D537461636B696E6720666F32
:1034E0007220616E20657863657074696F6E206507
:1034F0006E747279206861732063617573656420EE
:103500006F6E65206F72206D6F7265204275734615
:1035100061756C74730D004D656D4D616E6167650D
:10352000204661756C740D005573616765204661B6
:10353000756C740D00436F6E666967757261626CBD
:1035400065204661756C740D00566563746F72205A
:103550004661756C740D00427573204661756C741C
:103560000D004465627567204576656E742046617E
:10357000756C740D004F63637572656420696E200D
:103580007461736B2E005573696E67207533324D0D
:1035900073702E004F63637572656420696E2069D5
:1035A0006E746572727570742E00000010B582B072
:1035B0004BF20004C6F2040401AA20464FF0006159
:1035C00000F02AF820464FF0006100F02AF8019937
:1035D00007A000F02BF86A4620464FF0006100F08B
:1035E0002AF8009907A000F021F802B010BD00BF32
:1035F000696F20696E7420666C61673A20253038E7
:10360000580A0000696F20696E74206C6576656CDD
:103610003A20253038580A0049F24D5CC0F2000CBF
:10362000604749F2093CC0F2000C604742F65D3C3D
:10363000C1F2000C604749F2155CC0F2000C604713
:043640000000000086
:040000051000215571
:00000001FF
